:020000040020DA
:10200000781600208D222000E7642000E56420007F
:10201000E5642000E5642000E56420000000000085
:10202000000000000000000000000000636B2000C2
:10203000E564200000000000816B20006565200041
:10204000776520007D65200083652000896520007C
:10205000000000006B65200071652000E564200031
:10206000E564200000000000000000000000000007
:102070000000000000000000E564200000000000F7
:102080000000000000000000E5642000E56420007E
:10209000E5642000E5642000E5642000E56420009C
:1020A000E5642000E5642000E5642000E56420008C
:1020B000E5642000E5642000E5642000E56420007C
:1020C000E5642000E5642000E5642000E56420006C
:1020D000E564200000000000000000000000000097
:1020E00000000000000000000000000000000000F0
:1020F0000000000000000000BD372000CD372000A8
:1021000000000000000000000000000000000000CF
:1021100000000000000000000000000000000000BF
:1021200000000000000000000000000000000000AF
:10213000000000000000000000000000000000009F
:10214000000000000000000000000000000000008F
:10215000000000000000000000000000000000007F
:10216000000000000000000000000000000000006F
:10217000000000000000000000000000000000005F
:10218000000000000000000000000000000000004F
:10219000000000000000000000000000000000003F
:1021A000000000000000000000000000000000002F
:1021B000000000000000000000000000000000001F
:1021C000000000000000000000000000000000000F
:1021D00000000000000000000000000000000000FF
:1021E00000000000000000000000000000000000EF
:1021F00000000000000000000000000000000000DF
:1022000000000000000000000000000000000000CE
:1022100000000000000000000000000000000000BE
:1022200000000000000000000000000000000000AE
:10223000000000000000000000000000000000009E
:10224000000000000000000000000000000000008E
:10225000000000000000000000000000000000007E
:10226000000000000000000000000000000000006E
:10227000E56420009D362000C13620002D2D200071
:10228000193920006D282000E5642000FF22002479
:1022900008B5094B0948C3F8B420094A636E0949D7
:1022A000121A98470848094A2146236E121A98477D
:1022B00000F00EF8FEE700BF00200D4040000020B7
:1022C000F80000209C742000F8000020780E002008
:1022D00073B500F011FC00F0CBFC00F027FC00F01F
:1022E00053FA01F007FB04F0E0F900F0B9FC00F04C
:1022F000ADF8012004F0FAF802F0DEF800F0E8FB97
:10230000002000F00BFB012000F008FB00203D49FD
:1023100000F0C8FB02F016FA62B6042004F0E6F8FA
:10232000394804F056F9394804F053F900F0CAF975
:10233000002002F0AFFA01F0D9F90021344802F090
:1023400047F901F02BFF04F0FDF800F013FD00F059
:102350002FFD02F0E1FD0821684601F0F1FA2D4D54
:10236000BDF806402C482C8001F020FB2B4E29782C
:102370002B4801F01BFB69782A4801F017FBF56A2E
:102380004AF6CD310220A84761BA89B20320A84796
:102390001A210120A84708226946736B0B20984731
:1023A000214801F003FB214B186804F012F9204882
:1023B00001F0FCFA1F4B186804F00BF91E4801F0FD
:1023C000F5FA1E4B186804F004F900211C4802F0CD
:1023D000FFF81C4B01219B688120984704F050F9BD
:1023E000194804F043F900F079FB022004F07EF86C
:1023F00000F07AFB02F078F8C0B20028F8D101F0C2
:1024000011FAF5E7FD4620003671200048712000E2
:10241000780000202C0D00206D712000D06F20006E
:102420008B7120009171200097712000AC7020000A
:102430009E712000CC702000A5712000E870200063
:1024400098000020586F20002471200008B500F08B
:10245000E1F80022014B1A7008BD00BF340D0020C6
:10246000024B1A781043187000F0F6B8340D0020B3
:10247000034A137823EA0000107000F0EDB800BFA3
:10248000340D002018B1012804D000207047034B00
:10249000186A7047024B1878704700BF00900D40D3
:1024A000360D002010B5094A00201378013313704F
:1024B000074B197802F064F8BDE810400549002385
:1024C000054A0968054801F09FBE00BF360D00208F
:1024D000350D002030010020A5242000100100202F
:1024E00008B50346812B08462DD0B3F5807F3ED03A
:1024F000802B26D101F0D8FF1E4B032118701E4BF4
:102500000020D3F8202422F00802C3F82024D3F8B6
:10251000002422F00802C3F80024D3F8042422F097
:102520000802C3F80424D3F8082442F00802C3F8D0
:102530000824042200F0AAFB032200210F4800F027
:1025400049FB01200AE00C4B0D49D3F8102430B1AF
:1025500042F00802C3F8102401230B6008BD22F0EA
:102560000802C3F810240123C1F88030F6E7054BB8
:102570001960E6E7350D002000900D408925200008
:1025800000E100E03001002008B50F4804F096F8A3
:10259000C8B108210C4804F08AF80C4B196849B1FD
:1025A00000220B4B1A700B4B1B6A43B90A4A0B48AB
:1025B00001F02AFEBDE80840094802F03FB907488B
:1025C00001F02CFEF6E708BD0801002030010020D4
:1025D000360D002000900D40A524200010010020A1
:1025E000586F2000094BD3F8202422F00402C3F8CE
:1025F0002024D3F8002442F00402C3F8002400226F
:102600001A610122024B1A70704700BF00C00D40D2
:102610003B0D002000210F4BD3F8202422F0C002F4
:10262000C3F82024D3F8002442F0C002C3F80024E9
:10263000C3F8001303F50053D3F8202422F010024E
:10264000C3F82024D3F8002442F01002C3F8002479
:102650001964704700A00D4010F0020218BFFF225D
:10266000084BC3F8002210F0040218BFFF2210F03C
:102670000100C3F8002118BFFF22034B14BF1A64E6
:102680001864704700A00D4000C00D40044BDB698A
:10269000C3F3072013F4704F04BF1030C0B270476B
:1026A00000300D40064B5869C00910F0060F03BFFB
:1026B00000F00700C0F1020040034FF400407047F3
:1026C00000300D402DE9F047002488B0FFF7DEFF11
:1026D000164B0646DF69236D9847E36C80469847A2
:1026E0000446FFF7DFFF054600F05CFA814600F084
:1026F00065FA824600F010FAAD0A07F00103A40A59
:10270000C7F34007CDE905A003934146CDF81090EB
:1027100002970195009406F00F03C6F307120448D0
:1027200001F044F908B0BDE8F08700BF00300D406B
:10273000B37120002DE9784800F064F81049024692
:10274000D1E900BC6646584538BF0CF10106334656
:10275000C1E900230B4ED6E90001B0EB0B0461EB9D
:102760000C05A01845EB0301C6E9000101F006FEC7
:1027700018B1BDE8784801F087BDBDE8788800BF92
:1027800000010020F80000204FF0E023E0210B4A78
:102790005A610B4A82F82310002207219A611961BD
:1027A00008498B6843F001038B60074BDA60042211
:1027B0001A6001225A600F229A63704747E80100AD
:1027C00000ED00E000200D4000000340034BD3E982
:1027D0000023100A40EA0360704700BF0001002098
:1027E000044B9862DA6842F00102DA60DA68D207D4
:1027F000FCD4704700000340014B1868704700BFCD
:1028000034010020054A106C516C936C1B0443EAA0
:1028100001230343D06C43EA0060704700500D4031
:1028200010B504460E4A136DDB07FCD572B6FFF7F0
:10283000E9FF231A062BD8BFC41D094B220EDA6408
:10284000C4F307429A64C4F307225A64E2B21A64DA
:1028500062B64FF40032034B1C60034B1A6110BD8B
:1028600000500D403401002000E100E008B500F008
:10287000C5FF0022064B1A604FF40032054BC3F827
:102880009021C3F89020BDE8084001F0D7BE00BFFA
:102890003401002000E100E0064B9B691B075FBF8D
:1028A000054B986980F00800C0F3C00048BF0020C5
:1028B000704700BF00C0004000D000402C22154BE4
:1028C00070B502FB00334FF6BF72DC680546236C1F
:1028D000626413F050020DD00F4EA369DB0600D5E1
:1028E00070BD56F825301BB12068C0B29847F4E798
:1028F0002368F2E713F4D06FF2D04FF440732363F0
:10290000FF236360E36AE262E362236B43F0010347
:102910002363E5E7686F20003801002001282DE9D6
:10292000F74F804600F2AD802C254543564F7C1969
:1029300094F92090B9F1000FC0F2A38094F92260BD
:10294000002EC0F29E80514800F0C2FF504B7959D2
:102950009A6A94F921A00A439A62DA6A6168E56882
:102960000A43DA621A6BA168F0B20A431A630023C1
:1029700022690AEBC901C5F8C83F116094F8231019
:10298000227DCDE9000194F923B000F089F9DDE959
:102990000001082200F07AF9012231033D4E02FACB
:1029A0000BFB88594FEA09394BEA0000885159F866
:1029B000061002FA0AFA4AEA010149F80610502103
:1029C000A963A96B94F9240041F4D061A9630221A1
:1029D00069634FF440712963A16900286962E16964
:1029E000A9624FF07001E96216DB002394F925100B
:1029F000294C41EAC005C4F804510403A5598A4092
:102A00002A43A251C9B21A46C0B200F03FF9234A84
:102A1000136B43F4004313632C2303FB087393F9F4
:102A20002640002C1ADB93F82790E5B20122494694
:102A3000284693F927A000F033F901232403A25973
:102A400003FA0AF31343A35108224946284600F02B
:102A50001DF9124A136B43F4804313632C2000FBCF
:102A60000877FA68136B43F001031363012297F8A8
:102A70002830590903F01F0302FA03F3084A42F809
:102A8000213003B0BDE8F08F686F20009928200046
:102A900000200D4020940D4000400D4000D000402B
:102AA00000E100E001289CBF014B43F82010704773
:102AB00038010020012808D82C22044B02FB0030EA
:102AC000C3689A699206FCD419607047686F200049
:102AD0000022014B1A60704700500D400822014B44
:102AE0001A60704700500D40A022024B1A6050221D
:102AF0001A60704700500D40014A024B9A607047BF
:102B00000020200000ED00E0024B5868C0F3815027
:102B1000704700BF00200D4008B5FFF7F5FF024BDE
:102B200053F8200008BD00BFC06F200010B5194C3D
:102B30000122D4F82034062123F04003C4F82034C5
:102B4000D4F80034032023F04003C4F8003400F02C
:102B50009DF8D4F82034012223F08003C4F82034F7
:102B6000D4F80034072123F08003C4F80034032094
:102B700000F08CF8084A094B1A60094A596811425A
:102B8000FCD15A685201FCD4044A53685B01FCD55D
:102B900010BD00BF00C00D400101020000200D402B
:102BA00000000101034B04485B6803F00703184170
:102BB000704700BF00200D400048E801034B044867
:102BC0005B68C3F302231841704700BF00200D402B
:102BD0000048E801024B02EBC10243F822007047B3
:102BE00040010020F8B507460D460024084E06EBCC
:102BF000411647FA04F3DB07E1B204D556F8243056
:102C00000BB1284698470134082CF2D1F8BD00BF1B
:102C1000400100202DE9F8430546DFF8388000F038
:102C2000EDFD0D4B2E03F75856F808404FEAC50945
:102C300024FA09F447EA04002946C0B2FFF7D2FF9C
:102C4000E4B2064BFFB204FA09F4F75046F8084024
:102C5000BDE8F88318970D4018940D401C940D4062
:102C600080220021014803F0BDBB00BF40010020CD
:102C7000034B044A1A60044B803A1A60704700BF45
:102C8000C001002080400D40C4010020034B01EB37
:102C9000C0011B6843F82120704700BFC00100201D
:102CA000034B01EBC0011B6843F82120704700BFB4
:102CB000C40100200E2870B506460DD1134B5C6B85
:102CC00044F0020058631248D0F8F45625F03F0350
:102CD00043F00103C0F8F4360E48836823F0FF0385
:102CE0001A4311433143816003681B06FCD5C36856
:102CF000006903F0FC0343EA00230E2E18B201BF63
:102D0000034BC3F8F456014B5C6370BD00000144F3
:102D10000080084000700D40034BD3F80007B0FA64
:102D200080F04009704700BF00B008404FF40042F7
:102D3000064B10B5064CC3F89021C3F890202068CC
:102D400018B101F05DFC0023236010BD00E100E03C
:102D5000C8010020064B9A6C42F002029A64DA6CB9
:102D600042F00202DA641A6D42F002021A657047FC
:102D700000200D4007B50C4800F0AAFDFFF7EAFF60
:102D80000A4B5A6D42F002025A6500220192019AE2
:102D90000F2A06DD5A6D22F002025A6503B05DF873
:102DA00004FB019A0132F1E7192D200000200D40AB
:102DB000064B9A6C22F002029A64DA6C22F002024C
:102DC000DA641A6D22F002021A65704700200D4085
:102DD0000D4BD3F84C269107FBD4D3F84C26520662
:102DE0005EBFED22C3F83828C3F83828D3F82C2664
:102DF00012B1EF22C3F83828044A0120137803F0F7
:102E00007F031370704700BF008008403E0D002014
:102E1000044BD3F84C0600F02200A0F120035842E6
:102E20005841704700800840024BD3F84C0600F030
:102E30004000704700800840054BD3F8002620B1C1
:102E400042F00102C3F80026704722F00102F9E7C0
:102E500000800840284B1870002841D0274A53684A
:102E60001B03FCD5264BD3F8042842F00202C3F81A
:102E70000428D3F8042842F00102C3F80428D3F848
:102E800004285007FBD5D3F8042822F00102C3F828
:102E900004281B4BD3F804285107FBD4D3F804288B
:102EA00042F00202C3F80428D3F8042842F00102D9
:102EB000C3F80428D3F804285207FBD5D3F88C268E
:102EC00022F00402C3F88C26D3F8342822F004023E
:102ED000C3F834284FF400520A4BC3F890207047CF
:102EE000074AD2F88C3643F00403C2F88C364FF40C
:102EF0000052044B1A6170473D0D002000200D4028
:102F00000080084000E100E0094B93F90020002A0E
:102F10000CDBED21074AC2F83818C2F83818E32153
:102F2000C2F838181A7862F07F021A7001207047D0
:102F30003E0D00200080084070B5A0F10B05EBB2FB
:102F40000F2B044614D80C4ED6F8483613F03F0326
:102F500002D0FFF73DFF012305EB85050B35C6F8D1
:102F60003C560BB1FFF7D0FF044B60B21C7070BD34
:102F70004FF0FF30FBE700BF00800840F600002064
:102F800038B50C46002900F09180102800F290809E
:102F9000DFE800F009111D252B434C60667D818E12
:102FA0008E86885D8A00434BD3F82C36003B18BFD1
:102FB000012323602BE005223E4BD3F83C3603F07F
:102FC0007F030B3B93FBF2F30B33DBB2F1E7394AA0
:102FD000D2F8CC15D2F8C83543EA0123E9E7354ADF
:102FE000D2F8D415D2F8D035F6E70023314A0B6079
:102FF000D2F8003603F001030B60D2F824269006C5
:1030000044BF43F002030B602B4B1B780BB900202D
:103010000BE00B6843F00403CBE70020274B08606C
:103020001B78002BF3D001230B6038BD214B2449C2
:10303000D3F840260023D2B201EBC30000799042BE
:1030400002D851F83330B4E701330E2BF4D16FF0CE
:103050001703AEE7174BD3F858365BB2493BA8E7E6
:10306000144DD5F8483699060FD1FFF74DFF0123CF
:10307000D5F86426D207FBD5D5F86056493D6DB228
:103080000BB1FFF7A5FE2560C1E70023F0E70D4B6C
:1030900093F900308DE70C4B1B7803F07F0388E732
:1030A0000B2386E71A2384E7072382E70220BCE785
:1030B0000120BAE7008008403D0D0020F700002005
:1030C000087020003F0D00203C0D002010B50B4C77
:1030D000D4F8483699060FD1FFF716FF0123D4F82C
:1030E0006426D207FBD5D4F84C46C4F300140BB1C8
:1030F000FFF76EFE204610BD0023F0E70080084079
:1031000010B50C46072865D8DFE800F0040F1A2335
:103110002C444A5E012903D1FFF7F6FE00203EE071
:10312000002959D1FFF754FEF8E7A1F10B030F2B4B
:1031300052D8C8B2FFF700FF0130EFD103202EE0D4
:10314000264BCAB2C1F30724C3F8C825C3F8CC453F
:10315000E4E7224BCAB2C1F30724C3F8D025C3F871
:10316000D445DBE731F0070336D101F00100FFF76A
:1031700063FE1A4B11F0020FD3F82426C1F380002E
:1031800014BF42F0200222F02002C3F82426FFF7E9
:1031900061FEC3E731F001001ED1114B197010BD63
:1031A00001F118031F2B17D80D230E4A52F83310C4
:1031B0008C4206DC02EBC3031A79084BC3F84026A5
:1031C000ACE7013BF2D2A9E7044BCCB24934C3F8D7
:1031D0005846A3E70120E2E70220E0E7008008402C
:1031E000F70000200870200070B505460C46144E0C
:1031F000D6F84C369B07FBD4124B93F90030002BCA
:1032000001DBFFF781FEEE23691EC6F83838C6F8E9
:103210003838A31CC6F828382144022000F080FA70
:103220000949013C41EA0411022000F08BFA022016
:1032300000F092FA022000F0A7FA002070BD00BF53
:10324000008008403E0D002002C001C070B5264B32
:1032500093F90030002B19DBFFF7D4FA0446FFF78F
:1032600053FEC4F1FF2404F57F04F634FFF7CAFAD5
:10327000C442FBD401261D4B1B784BB91C4CD4F81F
:103280004C36990609D50224204670BD0026F2E787
:10329000FFF71CFF0028F1D1F5E7E9230425C4F866
:1032A0003838D4F84C369A0703D4013D15F0FF05A1
:1032B0000AD1D4F84C369B070AD50D4BD3F84C46AF
:1032C00014F00204FAD109E00620FFF789FAE8E7D2
:1032D000EE23C4F83838C4F838380124002ED3D08F
:1032E000FFF776FDD0E700BF3E0D0020F70000207D
:1032F000008008400B280DD1082A0DD161B1074B81
:10330000074A083111F8010D43F8040B9342F9D133
:10331000002070470120704702207047A8850840B0
:10332000C885084070B5384A0546D2F84C0610F0FA
:10333000400009D0D2F82808040606D5ED23C2F8CB
:103340003838C2F83838002070BDC0B20428F5D92A
:1033500002388842F2DCC4B2032C24D1D2F82838D7
:103360002B70D2F828386B70D2F82838AB70264D05
:10337000264BD5F82818264E493949B21970D5F888
:1033800028381806337026D589B2042001F09AFD3A
:103390003178032001F07F0101F094FD1D4B1B7873
:1033A000FBB12046D0E729190320013900F0C0F90C
:1033B0001949631E032041EA031100F0C3F90320F9
:1033C00000F0CAF9032000F0DFF9032000F0E8F96B
:1033D0000028FAD1CBE7ED23C5F83838C5F83838DE
:1033E000B1E7D5F84C365A06DBD5D5F84C361B0676
:1033F00003D50A4801F004F9D3E7ED23C5F83838BE
:10340000C5F83838CDE700BF008008403F0D0020E8
:103410003C0D00203D0D002002C0010C500000209A
:103420002DE9F041294F3E7816F001064CD10125D7
:10343000274B284CC3F8A850C3F8AC50C3F8B05081
:10344000F823C4F858360923C4F8E83715230B22AB
:10345000C4F8C836204B4FF07F085A604023C4F8A8
:103460002436D4F8243643F02003C4F82436D52378
:10347000C4F80866C4F85086C4F84036174B18786C
:10348000FFF75AFD4FF48042154B0220C4F8948692
:103490001A6100F06DF91349022000F049F9032088
:1034A00000F066F90F49032000F03AF90E4B187846
:1034B000FFF7D0FC0D48314601F08AF828463B78EA
:1034C0002B433B70BDE8F0810020FBE73E0D002060
:1034D00000200D400080084000600D40F6000020F4
:1034E00000E100E0288808403D0D00205000002049
:1034F00038B50388044653B340F20342934233D1B4
:103500001B4B1A7842BB822924D11B7873B901F076
:103510008BFC01F01DFC8021FFF704FF002805DD76
:1035200080B201F0D5FB134B1B699847124B1A78F8
:1035300052060CD500221A70104BD3F84856FFF7EC
:1035400047FCFFF76DFFAB0601D0FFF7DDFC40F253
:103550000343238001200AE01A78002AFAD0064AA1
:1035600012785006F6D5CEE700230380032038BD3D
:103570003D0D0020E87020003E0D00200080084036
:103580000B282DE9F8430D460FD1082A7CD10029DC
:103590007AD03E4B3E4A4D1E53F80419934205F82B
:1035A000011FF9D10020BDE8F8830C286AD1042A54
:1035B0006AD1002968D0374BD3F8102822F00702CF
:1035C000C3F81028D3F8042842F00802C3F80428EE
:1035D000D3F81428D3F81818D3F81008D2B220F072
:1035E0007000C3F81008D3F82448D3F82008090263
:1035F00042EA006289B224040A4304F47F04D3F847
:103600001C7842EA0408D3F81028FFB222F007021F
:1036100042F00102C3F81028D3F8042842F008024F
:10362000C3F80428D3F81448D3F81828D3F810188E
:10363000E4B221F0700141F01001C3F81018D3F882
:103640002418D3F82008120292B244EA0064090454
:10365000144301F47F010C43D3F81C185FFA81F97D
:10366000FFF7D0F8B8EB040467EB0907FF03064641
:103670000023094AE00347EA544102F085FC361A68
:103680002E608FE701208EE702208CE7C48508407A
:10369000A4850840008008400048E80108B5054BB3
:1036A0001B7813B9044800F0ABFF0022034BC3F8AA
:1036B000342808BD3D0D0020500000200080084047
:1036C000074A0848D2F82C38042B1FBF06490B784C
:1036D00043F040030B700023C2F82C3800F090BF79
:1036E00000800840500000203E0D002010B5094C1D
:1036F00040220021204602F075FE0122064B5A604E
:103700004FF480429C60054B5A604FF400425A606F
:1037100010BD00BF0000002000F00F4000E100E0FD
:1037200003289EBF014B0001195070470000002084
:1037300003289EBF024B03EB00104160704700BF9F
:103740000000002003289EBF024B03EB00108160A5
:10375000704700BF00000020032806D80123034A59
:1037600003FA00F0916A08439062704700F00F403E
:10377000032806D80123034A03FA00F0116A08431C
:103780001062704700F00F40032806D80123034A57
:1037900003FA00F0516908435061704700F00F4090
:1037A00003289FBF044B03EB0010806800F0070064
:1037B00088BF0020704700BF000000204FF0FF329C
:1037C000014BC3F80425704700F00F400122014B64
:1037D000DA64704700F00F40074B5A68D102FCD4FE
:1037E0001A6822F480321A605A68D203FCD41A682C
:1037F00042F400321A60704700200D4010B5084CAA
:10380000A36D99070BD063685A01FCD463685B0110
:10381000FCD502F099FEFFF7DFFF0023A36510BD82
:1038200000200D4070B5264BD3F8484614F03F04F5
:1038300014D1244D55F8043B23B1984770B101349D
:10384000052CF7D1204E337843B1FEF7D5FF04465F
:10385000FEF7D8FF201A092800D90CB930BF26E09E
:103860001A4B1A6822F400321A605A68D202FCD449
:103870001A68164D42F480321A606B68DB03FCD57F
:10388000FEF7C0FF241A092C03D8BDE87040FFF7EB
:10389000A3BF632C0CD93378022B09D1AB6500F0A0
:1038A00065FE38B1FFF798FF0022084B9A6570BD9E
:1038B0000123F3E7FEF7A0FF0028F3D0CEE700BF17
:1038C00000800840CC010020400D002000200D4069
:1038D000074A10B50023144652F8041B814202D057
:1038E00011B944F8230010BD0133052BF4D1FAE7D8
:1038F000CC0100200022054B05499A650B6943F075
:1039000004030B61034B1A70704700BF00200D4089
:1039100000ED00E0400D00204FF48032064B10B562
:10392000064CC3F89021C3F89020206818B100F02D
:1039300067FE0023236010BD00E100E0E0010020ED
:103940004FF4201270B592F82B40431E54B101F58C
:103950002011154A273191421AD011F8010903F8B4
:10396000010FF8E792F82A40122CF0D192F82920A2
:103970004B2AECD14C0804F520120B4D2732AA42F9
:1039800007D1002301F5201120442731A34205DB94
:1039900070BD12F8016903F8016FF0E7CA1A1278D6
:1039A000013300F8012BF1E7270028000FB407B519
:1039B00004AA52F8041B0448019200F021F803B055
:1039C0005DF804EB04B070476000002070B5054658
:1039D0000C460A4E102C07D874B122462B68686832
:1039E0000649BDE870401847102231462B686868C8
:1039F000984710B9103CEDE7204670BDD172200009
:103A00002DE9F04F8046154600278DB00491049BA8
:103A10001B78002B00F07983049B1A781C46013335
:103A2000002A00F06183252AF7D1049B9C4205D02F
:103A30005DE323783744002B00F067836278631CD2
:103A4000002A00F062830024184610F8012B194662
:103A50002B2A15D009D8202A15D0232A16D0A2F156
:103A60003106082E40D8002219E02D2A04D0302A31
:103A7000F5D144F0100401E044F001040346E3E70B
:103A800044F00604FAE744F00204F7E744F00804BF
:103A9000F4E70A21019A01FB0299A9F130021946C3
:103AA00013F8019B0192A9F13002092AF1D90B7890
:103AB0002E2B36D14A784B1CA2F13000092828D889
:103AC0004FF0000B1A781946A2F13000092803F1D3
:103AD000010318D90B786C2B6BD14B786C2B23D14D
:103AE00044F08004023122E02A2A09D12B680146E1
:103AF000002B019305F10405B8BF44F00104D6E79B
:103B000000230193D3E70A2101FB0B2BABF1300B10
:103B1000D8E72A2A04D1D5F800B002310435D9E714
:103B200019464FF0FF3BD5E7013144F060040B78B4
:103B3000782B0CD8572B48D8472B08D8402B00F2AD
:103B40008D80002B00F0E182252B00F0D0804B1CF3
:103B5000049304F4E063B3F5A06F00F0A28200F2D6
:103B6000C980B3F5407F00F06882B3F5806F00F044
:103B70002F82B3F5807F7FF44AAFBBF1000FACBF5B
:103B800024F010044FF0010B14F4005904F0E0038A
:103B900000F07A81402B00F0728100F2C280002B8D
:103BA00000F07081202B00F0CB800026B24600236D
:103BB000D3E0682BBBD14B78682B02D144F02004B2
:103BC00090E7013144F04004B1E7583B202BBED8C8
:103BD00001A252F823F000BFA13C20004F3B20007F
:103BE0004F3B20004F3B20004F3B20004F3B20002D
:103BF0004F3B20004F3B20004F3B2000CB3C2000A0
:103C00004F3B2000D73C2000893C2000B33C2000E3
:103C1000A73C2000BF3C20004F3B2000893C2000F7
:103C20004F3B20004F3B20004F3B20004F3B2000EC
:103C3000E93C2000953C2000E33C20004F3B200065
:103C40004F3B2000DD3C20004F3B20008F3C2000FC
:103C50004F3B20004F3B20009B3C2000413B062B6C
:103C60003FF675AF01A252F823F000BFD13C20000F
:103C70004F3B20004F3B20004F3B2000B93C200031
:103C8000AD3C2000C53C200044F424545FE744F4DC
:103C900010645CE744F4885459E744F4C85456E788
:103CA00044F4B24453E744F4007450E744F48444C9
:103CB0004DE744F402444AE744F4424447E744F4FD
:103CC000813444E744F4A13441E744F4C1343EE78D
:103CD00044F4E1343BE744F4A06438E744F48064FE
:103CE00035E744F4407432E744F4E0642FE744F4E9
:103CF000C0642CE7B3F5C06F07D0B3F5E06F7FF475
:103D000086AE2B6804351F6081E60122D8F80030AA
:103D1000A649D8F804009847002840F0F4810137FC
:103D200075E6602B00F0AE80802B7FF43EAFEA1D7D
:103D300022F007021546D2F804A055F8086B04E0FB
:103D400095F9006004354FEAE67ABAF1000FBFF644
:103D50002EAF012376426AEB4A0A029304F4C05361
:103D6000B3F5805F00F0E480B3F5C05F00F0E6805B
:103D7000B3F5006F00F0C6800DF12E030093002311
:103D80000393039B41F608029B4588BFABEB030BF3
:103D900041F2080304EA020198BF4FF0000B994278
:103DA00004D1BBF1010F38BF4FF0010B039B9142CF
:103DB0005B4440F0DF8056EA0A0200F0DB807C4979
:103DC0007C4A14F4804F4FF0020614BF8A46924694
:103DD000B9F1000F0DD0029A002A40F0CE8004F015
:103DE0000602022A00F0CD80062A734A04BF01268B
:103DF000924606EB0309019B4B4594BF4FF0000927
:103E0000A3EB090914F00103019304D1E20640F188
:103E1000BC80CB4499464EB132465146D8F800306A
:103E2000D8F804009847002840F06D815C46039B59
:103E3000DFF888A11F44102CD8E9003000F2AD80D3
:103E40002CB122465D499847002840F05C81D8F8A3
:103E50000030039A0099D8F80400374498470028A6
:103E600040F05181019B5F44002B00F0E080494607
:103E70004046FFF7ABFD002800F0D98043E1B5F9DB
:103E800000605FE72E685DE7402B1BD007D8DBB1F1
:103E9000202B11D04E46CA46CDF808905EE7602B25
:103EA00012D0802BF6D1EA1D22F007021546D2F877
:103EB00004A055F8086B02E02E78CA460435CDF808
:103EC00008904BE72E88F8E72E68F6E703980599E7
:103ED0000A22002302F058F8009B303203F8012D2B
:103EE0000398059900930A22002302F04DF80390ED
:103EF0000591039B059A1343E8D1009A0DF12E0317
:103F00009B1A3DE70DF12E030396CDF814A0009304
:103F1000EFE7009803F00701303100F8011DDB08DE
:103F200043EA42730090D20853EA0201F1D1E4E778
:103F30000DF12E01334652460091F5E7204B14F463
:103F4000804F2049524608BF194633460DF12E00D6
:103F5000009053EA0200D0D003F00F00DDF800C05B
:103F6000085C1B090CF8010D43EA0273CDF800C090
:103F70001209EEE70026B2462AE70126DFF848A03C
:103F800037E70126DFF844A033E749464046FFF70C
:103F90001DFD00283FF43FAFB5E010225146984781
:103FA000002840F0B080103C45E700BFCF722000F1
:103FB000C0722000C3722000C6722000E17220008F
:103FC000AF7220009E72200073732000A371200046
:103FD0002E6804356EB333469A469AF800200133B2
:103FE000002AF9D1AAEB060ABBF1000F02DBDA4581
:103FF00028BFDA46019B534594BF4FF00009A3EB5D
:104000000A0914F0010405D149464046FFF7DEFCD9
:10401000002878D152463146D8F80030D8F804004C
:10402000984700286FD15744002C7FF420AF4F44AD
:10403000EDE44FF0060A374ED6E7374B14F4804FC5
:10404000364808BF18460DF12B0300229A4629680E
:10405000043551EA02061AD1BAEB030A04BF302232
:1040600003F8012C4FF0780208BF03F1FF3303F887
:10407000012C4FF0300208BF4FF0010A03F8022C68
:104080002322DE1E03F8032C0AF1030AB2E701F033
:104090000F06865D090941EA027103F8016D1209F4
:1040A000D7E7DDF804902B68B9F1010F38BF4FF066
:1040B000010914F0010405F104058DF8183009F127
:1040C000FF3605D131464046FFF780FCD8B937446A
:1040D0000122D8F80030D8F8040006A9984790B912
:1040E000002CA4D03146C3E6049B9C420DD0049B17
:1040F0000499E61A3246D8F80030D8F804009847F8
:1041000000283FF496AC4FF0FF3738460DB0BDE8BD
:10411000F08F00BFC8722000AF7220009E72200096
:10412000F8B5038805461646CBB14A2B2BD1882912
:104130001FD1174802F0D3FA0446C4B1231D9E4292
:104140001FD12146124802F0D4FA124E6369376833
:104150003360A3690BB1E0699847376007E00C480A
:1041600002F0BDFA044634B901220B4B1A704A23FF
:104170002B8001200AE0A168201D02F082FA246849
:10418000F1E72468D9E7002303800320F8BD00BFCE
:10419000E401002070030020410D002010B5002430
:1041A000054B06481C7002F097FA2146BDE8104006
:1041B000034800F00DBA00BF410D0020E4010020CB
:1041C0006800002070B50446E3610B4B049D1B782A
:1041D000C4E905526BB1094D094B2E68201D2B60B7
:1041E00002F04FFA2E602146BDE87040054802F00B
:1041F00093BAA160F7E700BF410D002070030020D3
:1042000068000020E401002013B5034C24680094EA
:10421000FFF7D8FF02B010BD7003002010B5084BA7
:1042200004461B7843B1043000F0B0F82146BDE8E5
:104230001040044802F05DBAC0E90333F6E700BF5E
:10424000410D0020E401002010B50D4C236813B986
:104250000C4A136010BDFEF7B9FA2268D2E90031AA
:104260000B441B1A92681AB91844064B1860F1E700
:10427000D2E900142144091A8B4228BF0B46F1E70A
:10428000EC010020E8010020014800F0B9B900BFAE
:10429000780000202DE9F0410388054653B1592BE1
:1042A00046D1872921D1002023490B6863B918B171
:1042B0000B6001E0204A1360592301202B80BDE8E8
:1042C000F08101203346F1E7D3E902649442F8D04B
:1042D00000B10B6019460B4689680029ECD0C8680C
:1042E0009042F8D189689960F4E78229E4D14FF0CF
:1042F0000008114F00263C68002CDDD0204602F05B
:10430000DDF990B122468821E06800F039F950B912
:10431000A368E0602EB1B360C4F80880FFF794FF93
:10432000E8E73B60F8E7FFF7AFFF2646A468E3E75E
:10433000002303800320C2E7EC01002010B50446EF
:10434000FFF7A2FFE3680B4A0BB1136833B90A4BBE
:104350001B68E36013681460A36004E0A34206D105
:10436000054A1268DA60BDE81040FFF76DBF9B6830
:10437000ECE700BFEC01002070030020024B18683E
:10438000003818BF01207047EC01002010B50B4A1F
:1043900004461368834208D183681360FFF754FF13
:1043A0000023C4E9023310BD1346002BF8D09A68ED
:1043B000A242F9D1A2689A60F0E700BFEC010020A8
:1043C00038B5836804460D469BB10A480460022054
:1043D000A07304F10C0098470238012801D9832DFD
:1043E00005D121462046BDE8384000F005B801233C
:1043F000A37338BD700300202DE9F8431C4F044619
:104400003D6888462B46A34204D00BB9BDE8F8832B
:104410001B68F8E7002CF9D0164EA37BD6F8009065
:1044200063B10023A3738DB9A3683BB1444505D0A4
:104430002A468321346004F10C0098473B68A3426C
:104440000ED123683B60C6F80090DFE7A54204D098
:1044500022468721284602F022F92D68E3E7134619
:10446000002BF0D01A68A242F9D122681A60EAE75C
:104470007403002070030020002238B50125084B8A
:104480001A70084B1C6804B938BDE37B2BB10022BD
:1044900082212046E581FFF793FF2468F3E700BF00
:1044A000450D002074030020024B1878421C1A703E
:1044B000704700BF430D00208A22064B1A7000236C
:1044C000054A1370054A1370054A1360054A1360C4
:1044D000704700BF430D0020420D0020440D002016
:1044E00074030020700300202DE9F0411A4E337848
:1044F0000BB1FFF7C1FF194D2C7894B10C2218496C
:10450000184F0B78013C5A430133B81803F01F03CE
:10451000BF5C0B702C70D0E9018090B9124B1C6805
:1045200024B9337828781844BDE8F08133780BB18A
:10453000FFF7A2FF20464246394602F0B0F8246851
:10454000EEE7812F08BF01234246394608BF837337
:1045500002F0A5F8E5E700BF450D0020440D00205E
:10456000420D0020F001002074030020024A034B9A
:1045700010781B7818447047440D0020450D00202A
:10458000F0B50B4D2C78202C0FD00C26094B0A4F80
:104590001B78234403F01F037343FE18C6E9012070
:1045A00000200134F9542C70F0BD0120FCE700BF5D
:1045B000440D0020420D0020F001002038B5034CCE
:1045C000256802F06CF8256038BD00BF700300203C
:1045D00010B40A4609490C68234683420CD04BB9F3
:1045E00050B104600860012110BC81738381812176
:1045F000FFF7E4BF1B68F0E710BC704774030020AE
:1046000038B1837B013B012B9FBF0123014AC37358
:1046100013707047450D00200246084610B5064944
:1046200053600C68029B106093600A600CB9FEF73F
:10463000F7F8002010BD00BF7803002010B5084C2B
:10464000206858B100232360D0E9013198472368DE
:1046500023B1BDE810401868FEF7E2B810BD00BFF6
:104660007803002070B505880446672D09D0792DA0
:104670002FD0002D33D1FFF717FF1B4B18701B4BAA
:104680001D601B4E194D08E00A282B680ED07E2BAA
:1046900003DC5A1C2A60174AD054304602F0BCF89A
:1046A000431CF1D16723238001201BE05A1C2A60A0
:1046B0000025104A2846D5540B4B1978FFF760FFA8
:1046C0000D4B2A4685211868FFF75AFF18B9792340
:1046D000E9E78529E8D10022044B1A60D1E70023DD
:1046E0000380032070BD00BF470E00207C03002024
:1046F00080030020460D0020700300200D28014695
:1047000010B516D00C4C237853B90C4802F071F850
:1047100008B9012323700A48FFF772FF012010BD7A
:104720000A28F8D1054802F064F80028F3D00023E5
:10473000F0E70020F3E700BFC60D00208003002053
:104740008800002008B505490548802202F04AF893
:10475000BDE8084000210348FFF73ABFC70D00201D
:1047600080030020880000202DE9F04105880446E0
:10477000772D20D07E2D3DD0002D4ED1FFF794FE19
:10478000284E294B294FDFF8A88018703560336810
:1047900057F823202AB9274A137077232380012052
:1047A0003EE008F803509368002180209847336862
:1047B00001333360EBE700231F4A1360194A13608B
:1047C000184B1C4A1B6812789A4204DC1A4B1B686F
:1047D000002BF0D1E1E7164AD256002A19DA134A23
:1047E000002052F82320104B1978FFF7C9FE28B992
:1047F0007E23D3E70C4B1B788B42D0D1094B0C495D
:104800001A688B5C03F07F038B540B4A13680133E7
:104810001360044A13680133D1E7002303800320A7
:10482000BDE8F0818C030020490E002040000020EC
:10483000370D0020480E00208803002010B40A4BDA
:104840000A4A197800238B4203DA52F8044BA0423B
:1048500008D107490748CA5C62F07F02CA5410BCFD
:10486000FFF7CEBE0133EEE7480E002040000020E7
:10487000370D002098000020054B1A6842F0040212
:104880001A6058699B6940EA032080B2704700BFF4
:1048900000700D40184A136823F00C0313600122C6
:1048A000164BC3F8A820D3F8A820012AFBD1082270
:1048B000134BC3F82426E322C3F83828D3F8642620
:1048C000D207FBD50E4810220023D0F89C16013ADF
:1048D00001F0010143EA01034FEA43039BB2F4D123
:1048E000002BF0D0044A190A03F0FE035161536112
:1048F000EF23C0F83838704700700D4000200D409D
:10490000008008400088064B40BA80B28840995C1D
:10491000C2F1080201EA20201041C0B2704700BF76
:104920002273200070B50B4C0023616E0A4A04F11B
:104930003800FFF769FCFFF79FFF656E0023B0FBAF
:10494000F5F1064A01FB150104F11800BDE87040BD
:10495000FFF75ABC900300206149200079492000EC
:10496000044B5A6E196E5200914294BF59665A66B2
:10497000FFF7D8BF9003002010B500F055FA00F003
:10498000E7F900230380044600F04EF822889300E4
:1049900008B1017B51B9023398B200F099F923882C
:1049A00073B1BDE81040074800F012B98188234474
:1049B0005980C18801329980228001F0C8FEE5E764
:1049C00010BD00BF900300209DF80030012B04D1E2
:1049D000024B9A6D5A66FFF7A5BF704790030020FF
:1049E000F8B50F4616461D46064C0146064A2046B7
:1049F00000F0DCF8C4E9167625660448BDE8F84006
:104A000000F00CB890030020A4702000C9492000D9
:104A1000014801F061BE00BFFC030020014B18609B
:104A2000704700BF00040020014801F058BE00BFDD
:104A3000FC0300202DE9F04105460C480C461646C3
:104A400001F04DFE08B9BDE8F0818388A34209D189
:104A50008768002FF7D0334622462946BC46BDE87A
:104A6000F041604701F073FEECE700BFFC0300205B
:104A7000054B10B51B689847044618B18188012082
:104A800000F020FA204610BD9870200038B5064B83
:104A900005465B6898470446A988012000F012FA91
:104AA000201E18BF012038BD98702000014B9B6864
:104AB000184700BF98702000014801F00DBE00BFEC
:104AC0000404002081800146014801F025BE00BF9A
:104AD000040400200146014801F00BBE040400203C
:104AE00010B50446054801F0FAFD00B910BD8388F1
:104AF000A342FBD001F02BFEF7E700BF0404002027
:104B000070B505460C461646FFF7DCFF20462E61C1
:104B10000249BDE8704001F0DEBF00BF2B732000EA
:104B2000F8B506460A480D46174601F0D8FD04467A
:104B300030B93A4629463046BDE8F84001F0E0BFBA
:104B4000A3680BB128469847204601F000FEEEE727
:104B50000804002038B5FFF78BFF0546094801F02F
:104B6000BEFD044628B95DB12846BDE8384001F0D5
:104B7000C2BF636803B19847204601F0E8FDF0E743
:104B800038BD00BF0804002010B50446FFF77EFFC3
:104B900038B100F0B9F8034B034821469B689847A9
:104BA000012010BD14712000214B200070B5054676
:104BB0000C461646044AFFF7A3FF20466E610349E0
:104BC000BDE8704001F087BFB8702000327320004C
:104BD00010B5044604491A2000F082F92046BDE8C9
:104BE000104001F086BF00BF2C0D002008B504481E
:104BF00001F0B0FDBDE80840024801F0ABBD00BFC8
:104C0000B4000020A800002038B50E4801F0B2FD25
:104C1000054650B10C4801F0ADFD0446286030B99E
:104C20002946084801F0BAFD2546284638BD00F05F
:104C300097F804F1B601A4F8800004F1820000F0B6
:104C400019F9F2E7A8000020B400002010B50146D1
:104C50000446074801F0B8FD48B12168054801F055
:104C60009DFD2146BDE81040014801F097BD10BDF3
:104C7000A8000020B400002010B5014604460948F1
:104C800001F0A2FD68B12468B4F88010204600F05D
:104C9000DBF804F1B60104F18200BDE8104000F039
:104CA000FDB810BDA800002010B507490B8883424D
:104CB00008DB064C80B222880244181A08800120C2
:104CC000228010BD0020FCE7EC0C0020EE0C002040
:104CD000014B1880704700BFEC0C00200048704763
:104CE0002C040020014B1888704700BFEC0C0020FA
:104CF000034A044B10781B881844C0B2704700BFA9
:104D00005A0E0020EE0C00202DE9F0410C4E3388A5
:104D100073B100240B4B0C4FB3F800800B4B1D7884
:104D20003D4421B2414504F1010403DB00233380FB
:104D3000BDE8F081FFF7DCFF3844435C6B54F0E7DB
:104D4000EE0C0020EC0C00202C0400205A0E002059
:104D500008B5FFF7CDFF014B184408BD2C04002017
:104D6000F8B50C4B04461E780B4B1F88F519802DA7
:104D70000DDC3246094901F0BFFAFFF7E9FF344480
:104D800001463A46204601F0B7FA2846F8BD00250C
:104D9000FBE700BF5A0E0020EC0C00202C04002082
:104DA00008B5FFF7A5FF024B1B88184480B208BD69
:104DB000EC0C002010B50146FFF7F2FF4318802BE2
:104DC00012DC431E094A1BB21A44481C002B05DAA8
:104DD000074B187801440120197010BD12F80149E1
:104DE000013B14541BB2F1E70020F6E72C0400202D
:104DF0005A0E002070B534220021084801F0F2FA62
:104E00000024074D074E28463146013401F0DEFEEE
:104E1000042C05F10205F6D170BD00BFF80C00208E
:104E2000F00C0020347120000023044A1380044A4F
:104E30001380044A1370FFF7DDBF00BFEE0C0020A3
:104E4000EC0C00205A0E002038B50C460546FFF742
:104E5000EBFF802C28BF802429462246034801F01E
:104E60004BFA034B20461C8038BD00BF2C040020A9
:104E7000EC0C002010B5074B03F1340253F8044B3F
:104E8000934240F8044BF9D1034A13680B6053680E
:104E90004B6010BDF80C0020F00C002010B5074B43
:104EA00000F1340250F8044B904243F8044BF9D11E
:104EB0000B68034A13604B68536010BDF80C002068
:104EC000F00C0020024B23F810100120704700BFA7
:104ED000F80C0020014B33F810007047F80C00204C
:104EE00008B5044B1A3803EB400001F06FFE0120B7
:104EF00008BD00BFF00C0020024B1A3803EB400045
:104F0000704700BFF00C00200149024801F061BE6B
:104F100034712000F20C0020084B10B51B68984734
:104F2000074B5B689847074B5B689847064B5B6885
:104F30009847BDE81040054B5B681847D06F2000CC
:104F4000E870200014712000CC702000AC702000AC
:104F5000F8B5FDF73BFC114D074600242E461A20FC
:104F6000FFF7CAFF294601F034FE80B10A20FFF79F
:104F7000B1FF0C2303FB0464237A83420CD16068E5
:104F8000381AB0F5206F8CBF00200120F8BD013425
:104F9000102C05F10C05E2D10020F7E7AC0400204D
:104FA00070B5194D00242E461A20FFF7A5FF29469B
:104FB00001F00FFE013418B9102C05F10C05F3D1E6
:104FC0000C23621E03FB0464A4F10C057AB90A20C9
:104FD000FFF780FF3072FDF7F9FB70601A20FFF7D2
:104FE0008BFFBDE870400146074801F0EFBD2B463E
:104FF00054F8180C54F8141C013A03C354F8100C5C
:105000002C461860E0E700BFAC040020014B188874
:10501000704700BFF40000202DE9F0410129064649
:105020000F46144686B003DC002006B0BDE8F081D0
:1050300003A901F00EFF0B4603CB1B8820612383DD
:105040009DF811306161002B45D0B51C02AA01A961
:1050500003A801F0C6FD9DF81380B8F1000F4DD0F4
:10506000029B2BB16A7815F8023B03EB02239BB23B
:10507000B8F1020FA38332D12046314901F0A6FDD9
:105080006B78237015F8023B63709DF81580B8F1BA
:10509000000F4DD0019B002B37D06A7815F8023BEA
:1050A00003EB0223029A9BB2E38302B9A383B8F114
:1050B000020F2DD1224904F1080001F087FD6B7821
:1050C000237215F8023B6372A81B3B1A8742C4E99E
:1050D0000E53A9DBA9E7B378F51CA376B6E7B8F1C0
:1050E000030FD2D105F108021346611E13F8010D1A
:1050F0009D4201F8010FF9D11546C6E72046104937
:1051000001F064FDA4F81C80BFE7A38BE383CEE726
:10511000B8F1030FD8D105F10802134604F10801D4
:1051200013F8010DAB4201F8010BF9D11546CBE79D
:10513000034904F1080001F049FDA4F81E80C3E70B
:105140003471200030B591B00546FFF75FFF4FF690
:10515000FF73984204D14FF0FF34204611B030BDA8
:1051600040220021684601F03DF9404B1A782AB9E7
:1051700001221A70FFF780FB3D4B18701420FFF7D7
:10518000A9FE8DF810001320FFF7A4FE8DF8120081
:10519000FFF7BAFE0446002848D000238DF81330EC
:1051A0008DF81530002301248DF814308DF8184047
:1051B0004DB10A20FFF78EFE00283FD00A20FFF7EE
:1051C00089FE8DF81A0002248DF81940FFF71EFFA2
:1051D000ADF81C00FFF798FE00283CD04FF6FF7397
:1051E0008DF81740ADF80030FFF710FFADF81E0046
:1051F0001A20FFF781FE014602A801F0E7FCFFF745
:10520000A7FD0E90FFF76EFD0F90684601F093FD2D
:105210000446002DA1D0FFF7CDFD00289BD0FFF75D
:105220005DFD0146684601F0CEFD96E70B20FFF7D5
:1052300051FE8DF815408DF81300B3E70C4B1A782A
:1052400002B91C7019780A204A1C1A708DF81A10BD
:10525000FFF738FEB7E71B20FFF74EFE0146684612
:1052600001F0B4FC8DF81740BEE700BF5B0E0020D4
:105270005C0E0020014BDB68184700BF1471200052
:10528000014B5B69184700BFE8702000014B9B6928
:10529000184700BFE8702000024BD86900B10047F2
:1052A000704700BFE870200070B590F829400F4BA0
:1052B000042C214628BF04210124DB698C400546CB
:1052C0009847012838BF0120013C444305D0FFF72F
:1052D000D3FAB0FBF4F303FB14042B46214605F18B
:1052E0000800034ABDE87040FEF78EBFE87020005A
:1052F000655420002DE9F04106461B200F46FFF7BC
:10530000FBFD494B05461A78484C22B901221A7018
:10531000FFF7B2FA208023880BB90123238021886C
:105320000A204B1C2380FFF7CDFD414801F0D7F93F
:105330000446002847D13F4801F01CFA04460028E3
:1053400068D02946201D01F041FC002304F12C0007
:10535000C4E90B30238501F0BFF92146344801F040
:10536000DBF9206B01F0ECF9072853DC324801F03F
:1053700001FA0546002841D0304801F0FBF9A86049
:10538000C0B3FFF741FC686080B30920D5F80880FE
:10539000FFF7A0FD08BB082388F808300D20C8E9F6
:1053A0000067FFF797FD01282946206B1BD101F00C
:1053B000C0F9206B01F093F9854233D12046BDE856
:1053C000F041FFF771BF2946201D01F002FC0028C3
:1053D000C7D1204601F0BBF9AAE70920FFF77AFD03
:1053E00088F80800DAE701F097F9E2E7A9681348BE
:1053F00001F0D4F92946104801F0D0F9206B01F0F2
:105400009FF938B921460A4801F073F92146094845
:1054100001F0C4F939463046BDE8F04101230422C9
:1054200001F037BDBDE8F0815D0E00202E0D00209B
:10543000CC050020CC000020D8000020C0000020B7
:1054400008B5054801F086F9044801F083F9BDE884
:105450000840034801F07EB9D8000020C0000020B9
:10546000CC00002013B5044668B1006B01F037F999
:10547000024640B12146054B0548DB68019302B066
:10548000BDE81040184702B010BD00BFE870200012
:10549000115520002DE9F0470D4614468B6806464D
:1054A000D3E90078106B92F8289001F022F968682F
:1054B000FFF7CCFBA968124801F070F929461148A2
:1054C00001F06CF9206B01F00AF960B1002320466D
:1054D0002385FFF7E9FE4B46324641463846BDE894
:1054E000F04701F0D6BC04F10800FEF797FE214614
:1054F000054801F0FEF82146044801F04FF9EAE7BB
:10550000C0000020D8000020CC050020CC000020E6
:105510002DE9F0410E461746044620B1006B01F01C
:10552000DEF8054608B9BDE8F0810A21686801F097
:1055300047FB80460A20FFF7CDFC804546D0284631
:1055400001F005F9EDE794F8282000203A4484F8AA
:1055500028202946224684F82900BDE8F041FFF7BB
:1055600099BF002384F8293094F82830DA19D2B290
:1055700084F828200B7A93421CD822462946022020
:10558000EBE794F82930DA19D2B2052A84F82920F9
:1055900007D9002294F8283084F82920013384F8B0
:1055A000283094F828200B7A9A4203D322462946C1
:1055B0000120D2E72046FFF777FE6868BDE8F0419A
:1055C00001F0EABA224629463046C6E7A968002912
:1055D000A9D0032EF6D801A353F826F04755200092
:1055E00083552000635520002755200013B5002463
:1055F000094B1C70094B1C80FDF704F9012200F5D2
:105600008051074B00940748FFF706F80122064B2C
:105610001A7002B010BD00BF750E0020300D0020C2
:10562000395A2000BC060020700E0020074B82B0C3
:105630001B784BB1064B1A7832B901221A70054B10
:105640001B6A019302B0184702B07047700E002029
:10565000750E0020D06F2000094B82B01B786BB113
:10566000084B1A7852B1084A127802F0FF012AB9A1
:105670001970064B5B6A019302B0184702B070477D
:10568000700E0020750E0020710E0020D06F2000DB
:1056900008B5FFF7E1FF0022014B1A6008BD00BF0B
:1056A000CC060020044B1B7823B9044B1B680BB9B4
:1056B000FFF7D2BF704700BF770E0020CC06002056
:1056C0000022094B82B01A70084BC2B21A70084A05
:1056D000084B28B101211B6A1170019302B01847D1
:1056E0005B6A1070F9E700BF700E0020710E002099
:1056F000750E0020D06F200037B50B4B1A7802F0E2
:10570000FF056AB901241C70084B1D70FDF77AF87B
:10571000224600F58051064B06480095FEF77CFFB7
:10572000012003B030BD00BF700E0020710E0020BC
:10573000395A2000BC06002037B50B4B05461B78B4
:105740000C4673B1FDF75EF8231A022B4FF00003ED
:1057500048BF841C0093012221462846034BFEF7D4
:105760005BFF03B030BD00BF700E0020395A20002F
:1057700013B5224C23680BB9FFF76EFFFFF7B2FA9F
:10578000032823D0FFF70CFB00B31D4B9B68984701
:1057900000281BDBFFF7A6FAC0B1FFF701FBA8B199
:1057A0001B20FFF7A9FB174901F013FA50B1132092
:1057B000FFF790FB206058B9FFF74EFF1248FEF745
:1057C0002DFD0DE0FFF7A0FB0028F0D102B010BDC9
:1057D000FFF72CFF002304210C4A0B48FEF714FDB1
:1057E000FFF7B6FB0028F1D1FFF7DAFB084BDB68C7
:1057F000019302B0BDE81040184700BFCC0600205E
:10580000087120002C0D00209806002091562000E1
:10581000CC7020002DE9F04F89B0704903901A2018
:10582000FFF75EFBFFF770FB04460C20FFF752FB0F
:10583000A8B1FFF7B5FA80464FF00109684D6E68D0
:10584000FFF74CFA4146B047664EAB6986F80090C8
:105850000093984770B1002333700124A1E0012127
:105860000B20FFF72FFB604B5B6898470028E0DABE
:10587000052496E0EB69019398470028EBD15B4F34
:10588000FFF7EAFE3B7887F80090DBB20293039BB8
:105890007BBB4FF006096FF0030A6FF00F0BFCF7AC
:1058A000B1FF0490FFF7C2FE0498AAEB0003049333
:1058B000FCF7A8FF049BC342F9D46B69984748B929
:1058C0000090FFF7C9FE00983070FFF7C5FE029BFD
:1058D0003B70C2E7FFF7C0FEFCF794FFABEB0003A1
:1058E0000493FCF78FFF049BC342F9D4B9F101097B
:1058F000D5D10CB9FFF79AFE0A20FFF7EBFAC3B235
:105900000493FDF7F1F8FCF77DFF8146DFF8E0B086
:10591000ABEB000BDFF8DCA0AAEB090AFCF772FF87
:105920001AEB000F49D5FDF7DFF8002C3DD0AB682E
:1059300040469847FCF766FF6FF00C031B1A05936F
:10594000FCF760FF059BC342F9D4002CE6D1009B15
:105950009847002835D0FCF755FF6FF01408A8EBE6
:105960000008FCF74FFF18EB000FFAD403212B6956
:1059700007A8984703282DD19DF81E30049A93421A
:1059800028D100254FF00108FFF766FE029B3B700F
:1059900000233370002D7FF460AFECB9984508BF49
:1059A0000224204609B0BDE8F08F039B002BBED037
:1059B000FCF728FF1BEB000FB9D400254FF00008BF
:1059C000E2E7019B98470028C5D16B6998470028FA
:1059D000A0D1C0E70125F1E72C46E2E72C0D00201D
:1059E000D06F2000770E002008712000700E00207C
:1059F000DEFDFFFFB0EFFFFF70B50D4B04461B78D7
:105A00000D4653B90B4B1B783BB90522294620465E
:105A1000BDE87040012301F03CBAFFF7C1F900284E
:105A2000F3D00020FFF7F6FE03280246EED170BD4A
:105A3000700E0020710E002040F2E3122DE9F347B2
:105A40006E4E0446338893423AD0B3F5F27F08D2C3
:105A5000002B00F0888040F2B11293420BD000235B
:105A600091E040F202229342F9D10023644A13707C
:105A7000644A137007E0634A13780133DBB2012BE9
:105A8000137000F28480604B1A78002A72D15F4A4A
:105A90001268002A6ED11B780BB9FFF7C7FD5C4B6B
:105AA0005B699847002863D10122554B1A70FCF7B7
:105AB000A9FE584B584A186000231370574A1370B8
:105AC000514BDFF85C811B7803F0FF05002B7BD185
:105AD00098F80030002B77D0FCF794FE6FF4CC726E
:105AE0004C4B1B68C01A104400286DDADFF8209177
:105AF000494FD9F81430984710B13D780135EDB2CF
:105B00003D70464DD9F818A02B7801332B70D04743
:105B1000002854D000233B702B78D9F81C700A2B36
:105B200004D9D04710B9B84700284BD0B84700284F
:105B30004AD13C4B1B789BB12568FCF763FE2B1ABE
:105B400013F1120F4FF0000348BF811C00934FF078
:105B500001022046344B58BF05F11401FEF75CFDED
:105B600040F2E3130FE0FCF74DFE304B18607CE78A
:105B7000FFF798FDFCF746FE00F110012046FFF705
:105B8000DBFD40F2B113338002B0BDE8F0871C4B5F
:105B90001B78002B8BD1254D2B6803F580532B6090
:105BA000FCF730FE2B68C3F1A003C3427FF55DAF65
:105BB00020462968FFF7C0FD40F20223E3E73B7867
:105BC000052BA9D9FFF76EFD98F80030002BE2D025
:105BD0000F4DAB69984760B1FCF714FE0D4B1B6885
:105BE000C01A6FF4CC7318440028D4DBFFF75AFDB9
:105BF000D1E7EB6998470028EED1F7E7300D002098
:105C0000730E0020720E0020770E0020CC060020BC
:105C1000D06F2000C8060020760E0020740E0020F1
:105C2000750E0020700E0020395A2000B8060020A2
:105C30002DE9F14F06460F461446002A71D03A4B23
:105C4000D3F800B0BBF1000F0BD05068FFF714F889
:105C500001231A463946304601B0BDE8F04F01F045
:105C600018B91546DFF8C490DFF8C4A0284600F044
:105C70006EFDA8460546D8F80400FEF7FDFF0C208F
:105C8000FFF728F9E0B91DB101211320FFF71AF938
:105C900049461A20FFF724F901210B20FFF712F9DA
:105CA000DAF804309847002802DA01230522D1E708
:105CB00001210C20FFF706F9D8F8040000F072FF6C
:105CC000002DD3D1DFF86C90DFF86CA0204600F0F7
:105CD0003EFD254604466868FEF7CEFF1320FFF719
:105CE000F9F899F8003080468BB99AF8003073B90A
:105CF000052501232A463946304601F0CAF885B900
:105D00007CB14FF0010BB8F1000FDFD109E0FFF7D4
:105D100047F80028ECD05846FFF77CFD03280546DD
:105D2000E7D101B0BDE8F08FCC0600202C0D00209B
:105D300008712000700E0020710E002008B5024B83
:105D40001B689847023008BDC070200038B50C4B66
:105D50009B689847041E02DA4FF0FF3038BDFEF70B
:105D6000F7FF03780546002BF6D10220FEF79CFFD3
:105D70000028F1D06878FEF7ABFFA01CEEE700BF6B
:105D8000C070200070B50220FFF714F810B94FF072
:105D9000FF3070BDFEF7A2FF002606700446FEF736
:105DA000A1FF6070FEF7FCFF0446FFF7C7FF204429
:105DB0002A2812DCC0F12B00C4B2FEF7C9FF054649
:105DC000FEF790FF22463146284400F00BFBFEF719
:105DD00089FF204480B2FEF77BFF044B5B68984745
:105DE000041ED4DBFEF790FFA01CD2E7C070200099
:105DF000014B9B68184700BFAC70200070B504468B
:105E00000D4614200121FFF75DF8034B294620467B
:105E1000BDE870409B681847CC702000832973B59B
:105E2000044602D12C4800F09AFE2688C6B1902E76
:105E30004CD12A4800F02EFC002845D00120FCF768
:105E40000FFB05212648FEF7FFFF2348FEF7C0FEA3
:105E500005212448FDF7AAFD0120FCF709FB2CE0F1
:105E6000214D0F21EB6A01209847AB6A01A91F4D14
:105E7000012098471E4800F0ACFB6A7829781D483D
:105E8000FDF794FD01991C48FDF790FD1B4800F0BB
:105E9000A0FB1B482946068000F09BFE40B16A78B3
:105EA00029781848FDF782FD0120FCF7D9FAFBE7B5
:105EB0008121154A0848FEF779FE4FF4C071074862
:105EC00000F0DFFB90232380012002E00023032069
:105ED000238002B070BD00BFD0060020EC06002079
:105EE000087420000E742000D06F20002C0D0020BC
:105EF0004E732000757320008A732000A273200067
:105F0000320D0020CA7320002C71200010B5044609
:105F100000F0BAFA81B22046FEF796FF0548FEF778
:105F200057FE204600F0B0FABDE810400146024896
:105F3000FDF73CBDD00600203374200073B50C463D
:105F40000220FCF78DFA25786678FEF701FF0446FB
:105F50000420FEF7BFFF234600B2094C3246294613
:105F600000900848FDF722FD2046FEF7F9FE204686
:105F7000FFF7CCFF022002B0BDE87040FCF778BA12
:105F8000E80600205074200053B94AB9002908BF20
:105F900000281CBF4FF0FF314FF0FF3000F076B902
:105FA000ADF1080C6DE904CE00F006F8DDF804E070
:105FB000DDE9022304B070472DE9F047089E0D4645
:105FC00004468846002B4DD18A42944668D9B2FADD
:105FD00082F252B101FA02F3C2F1200120FA01F17A
:105FE0000CFA02FC41EA030894404FEA1C41B8FB5A
:105FF000F1F71FFA8CFE01FB178807FB0EF0230C4C
:1060000043EA084398420AD91CEB030307F1FF3522
:1060100080F01E81984240F21B81023F63441B1AAC
:10602000B3FBF1F001FB103300FB0EFEA4B244EA17
:106030000344A6450AD91CEB040400F1FF3380F0A9
:106040000981A64540F20681644402380021A4EB90
:106050000E0440EA07401EB10023D440C6E90043C5
:10606000BDE8F0878B4208D9002E00F0EE800021B9
:10607000C6E900050846BDE8F087B3FA83F10029B8
:106080004AD1AB4202D3824200F2FC80841A65EB13
:10609000030301209846002EE2D0C6E90048DFE75E
:1060A00002B9FFDEB2FA82F2002A40F09180A1EB41
:1060B0000C0001214FEA1C471FFA8CFEB0FBF7F3DE
:1060C00007FB1300250C45EA00450EFB03F0A84230
:1060D00008D91CEB050503F1FF3802D2A84200F2F3
:1060E000CE8043462D1AB5FBF7F007FB10550EFB8B
:1060F00000FEA4B244EA0544A64508D91CEB0404FA
:1061000000F1FF3502D2A64500F2B6802846A4EB86
:106110000E0440EA03409EE7C1F120078B4022FABB
:1061200007FC4CEA030C25FA07FA4FEA1C49BAFBB4
:10613000F9F820FA07F309FB18AA8D401FFA8CFE24
:106140001D4300FA01F308FB0EF02C0C44EA0A444C
:10615000A04202FA01F20BD91CEB040408F1FF3A49
:1061600080F08880A04240F28580A8F10208644453
:10617000241AB4FBF9F009FB104400FB0EFEADB28B
:1061800045EA0444A64508D91CEB040400F1FF3598
:106190006CD2A6456AD90238644440EA0840A0FBA4
:1061A0000295A4EB0E04AC42C846AE4656D353D07B
:1061B000002E69D0B3EB080264EB0E0422FA01F35F
:1061C00004FA07F71F43CC40C6E90074002147E7F3
:1061D0000CFA02FCC2F1200125FA01F34FEA1C4738
:1061E00020FA01F195400D43B3FBF7F107FB1133A2
:1061F0001FFA8CFE280C40EA034001FB0EF3834299
:1062000004FA02F408D91CEB000001F1FF382FD288
:1062100083422DD902396044C01AB0FBF7F307FB63
:106220001300ADB245EA004503FB0EF0A84208D9C1
:106230001CEB050503F1FF3816D2A84214D9023B26
:106240006544281A43EA014138E73146304607E7FA
:106250002F46E4E61846F9E64B45A9D2B9EB020809
:1062600065EB0C0E0138A3E74346EAE7284694E7BE
:106270004146D1E7D0467BE76444023847E7023B1A
:1062800065442FE7084606E73146E9E6704700BF58
:10629000032A10B516D940EA010C1CF0030F04467E
:1062A0000B4622D119462046D1F800E0D0F800C0B4
:1062B0000433F44504F1040417D1043A032A2046B8
:1062C0001946EFD8541EA2B100F1FF3C013901E09C
:1062D000C3180CD01CF801EF11F8012FA4EB0C032C
:1062E0009645F5D0AEEB020010BD541EECE7184603
:1062F00010BD104610BD00BF844641EA000313F0F4
:10630000030349D1403A23D30B6803604B684360D1
:106310008B688360CB68C3600B6903614B69436121
:106320008B698361CB69C3610B6A03624B6A436209
:106330008B6A8362CB6AC3620B6B03634B6B4363F1
:106340008B6B8363CB6BC36340304031403ADBD20D
:1063500030320BD30B6803604B6843608B688360FB
:10636000CB68C36010301031103AF3D20C3205D331
:1063700051F8043B40F8043B043AF9D2043208D007
:10638000D2071CBF11F8013B00F8013B01D30B8879
:1063900003806046704700BF082A13D38B07B1D033
:1063A00010F00303AED0C3F10403D21ADB071CBF05
:1063B00011F8013B00F8013BA4D331F8023B20F86F
:1063C000023B9FE7043AD9D3013A11F8013B00F8A8
:1063D000013BF9D20B7803704B7843708B78837054
:1063E00060467047830730B548D0541E002A3FD01E
:1063F0000346CAB201E0013C3AD303F8012B9D07E2
:10640000F9D1032C2DD9CDB245EA05250F2C45EA4B
:10641000054536D9A4F1100222F00F0C03F1200E2D
:10642000E6444FEA121C03F1100242E9045542E926
:10643000025510327245F8D10CF1010214F00C0F24
:1064400003EB021204F00F0C13D0ACF1040323F0A1
:1064500003030433134442F8045B9342FBD10CF072
:1064600003042CB1CAB21C4403F8012B9C42FBD19B
:1064700030BD64461346002CF4D1F9E703461446B8
:10648000BFE71A46A446E0E720F0030110F003003E
:10649000C0F1000051F8043B00F1040C4FEACC0CB1
:1064A0006FF000021CBF22FA0CF213434FF0010CF4
:1064B0004CEA0C2C4CEA0C4CA3EB0C0222EA030233
:1064C00012EACC1204BF51F8043B0430F4D0C2F1FC
:1064D000000102EA0102B2FA82F2C2F11F0200EBED
:1064E000D2007047FEE708B5FBF7D0FEF7B50024F1
:1064F0000646254627463046FBF7B2FF0197019B2B
:10650000AB4215DB3046FBF7B3FFC5F5C875019705
:10651000019B9D4211DC0134B4F5487F01D103B0E9
:10652000F0BDB4F5C87FD4BF2546C4F54875E2E791
:1065300000BF019B01330193E1E700BF019B0133E1
:106540000193E5E7FCF74EB810B54FF0E02423695E
:1065500023F001032361FCF7EDF8236943F0010305
:10656000236110BDFCF7E6B870470020FCF7A6B920
:106570000120FCF7A3B90020FCF74CBB0120FCF77D
:1065800049BB0220FCF746BB0320FCF743BB10B518
:106590000C46FCF729FE2046BDE81040FCF756BE2D
:1065A00010B50446C1B20020FCF784FA204610BDA5
:1065B00070B50E460025441E631C02D014F8010F6E
:1065C00008B9284670BDB542FBD0FFF7E9FF013599
:1065D000F2E738B505460024285D20B90A20FFF708
:1065E000DFFF204638BDFFF7DBFF0134F4E7002072
:1065F00070470120704710B50446302200210E205C
:10660000FCF758FB6CB1012C0CD142F21073001155
:10661000A0F28E5058432A2390FBF3F000F5C340BC
:10662000283010BD4FF00040FBE7002070470120EC
:10663000704710B50446302200210F20FCF73AFBCA
:106640005CB1012C03BF40F6F253584347F6F07398
:106650004FF0004008BF90FBF3F010BD084608B5AE
:1066600011460AB1FFF7A4FF002008BD10B5041FB2
:1066700054F8040F00B910BD0021FDF7A9FFF7E79A
:10668000704710B5044600F012F82046BDE81040EF
:10669000FDF754BEC068B0FA80F040097047837BB4
:1066A000DB0701D5FDF78CBE7047FFF75DBF10B566
:1066B00041600446FCF78AF8206010BD10B504461E
:1066C000FCF784F82368C3F101030344606898422F
:1066D0002CBF0020012010BD00230360704700681C
:1066E0007047006820B1034600680028FBD11846B7
:1066F0007047036810B53BB1002499421A6806D16F
:106700001CB9026000221A6010BD2260FAE71C4624
:10671000002AF9D01346F0E738B5FFF7EAFF002367
:106720000B600546FFF7DDFF08B9296038BD016041
:10673000FCE738B5FFF7DDFF03680B60016038BD8B
:106740000368002003B970471B680130FAE700B105
:106750000068704710B50446428800214068FFF782
:1067600041FE23886288A0680021BDE810405A439A
:10677000FFF738BE002310B54188994201DC0020A4
:1067800009E04268D418D25C32B901222270028832
:10679000806803FB020010BD0133EEE7002330B533
:1067A000826844889C4201DCFF2008E08A4207D1CD
:1067B0004168CA5C0AB1013ACA544268D05C30BD33
:1067C000058801332A44EDE783688B4208D8428864
:1067D000008800FB023081422CBF0020012070475E
:1067E000002070470023013A0160027143718371F8
:1067F000704710B5427983790479D31A34EA0303D8
:1068000008D00368995443790279013313404371E6
:10681000012010BD0020FCE7837942790179D21A6A
:106820000A421FBF0268D25C01330B401ABF83715A
:1068300010464FF0FF307047831C002013F8022CE5
:10684000023302B9704713F8032C1044F6E7072B04
:106850002DE9F84306460F4615461C4607DC1A4646
:1068600029463846FEF74EF83070BDE8F8834FEA07
:10687000E3087AB97B5D735501354545FADB14F0C1
:106880000702F2D0002107EB0800FEF73BF806F8FC
:106890000800EAE74FF0000907EB09000822294643
:1068A000FEF730F806F8090009F10109C145F3DBEC
:1068B00014F00702D9D02946E5E72DE9F743FEF7A2
:1068C00047FA04460220FEF7EFF920B900252846D2
:1068D00003B0BDE8F0836378207800EB032080B23A
:1068E000FEF7FEF805460028F0D0FEF731FA07461D
:1068F000287B10F0070318BF012303EBD000FEF73D
:10690000D3F90028E2D00026B146AC68023414F86E
:10691000023C002BDBD0192B14F8018C07EBE601AD
:1069200006F007020BD901A84346FFF790FF14F8C1
:10693000020C01A9FEF7D4FA46440234E7E701A8A5
:106940004346ADF80490FFF782FFBDF8041014F839
:10695000020CFEF7B7FAEFE7072B2DE9F0410FDC49
:106960001478C1F11001CB1A04FA03F30178C3F3D0
:1069700007220A43417802700B434370BDE8F0815F
:10698000DC10C9B9555C45540131A142FADB13F062
:106990000703F3D0125DC3F108052A41C3F11003C8
:1069A000055D02FA03F3C3F307222A4301190255D6
:1069B0004A7813434B70E1E705460026C1F1080E03
:1069C000975D95F800C007FA0EF7C7F307284CEA61
:1069D000080C05F801CB95F800C001364CEA070712
:1069E000A6422F70ECDB13F00703C7D0125DC3F192
:1069F000080631440A41D2B2C3F11003015D02FA24
:106A000003F3C3F307220A43051902556A781343B7
:106A10006B70B3E72DE9F743057B044615F00702D9
:106A200018BF012202EBD505A81CFEF7C3F9A8B1D7
:106A3000FEF754F9A3880370A3881B0A4370FEF77E
:106A40004DF92A460025861C00213046FFF7CAFC76
:106A5000A468023414F8020C18B9012003B0BDE890
:106A6000F083192814F8017C06EBE50805F0070906
:106A70000AD9FEF741FA3B46024649464046FFF72F
:106A80006BFF3D440234E5E7FEF724FA8DF804007D
:106A9000000A3B468DF8050001AAEEE77047F8B5FD
:106AA0000E46FEF755F907880446FEF71BF9BB00B2
:106AB0000233834203D800250234AF4200DCF8BD24
:106AC00054F8041B30460A0C89B2FDF7B3FF0135B8
:106AD000F3E7FDF7F1BF38B50D46FEF701F80446C0
:106AE00020B185602846FDF7E1FF207338BDFDF732
:106AF000F1BFFEF749B803691B6803B11847704737
:106B000003695B6803B11847704710B5FEF76EF86C
:106B1000FEF78AF9FDF77CFFFFF7DBFFBDE81040C9
:106B20004FF4E1234FF4F0524FF400710220FDF7CF
:106B300057BF43695B6803B11847704713B50446F4
:106B40001A20FEF7D9F9014601A800F03FF8636961
:106B50001B6813B1204601A9984702B010BDFFF78A
:106B6000C6BF0EF00F000D2808BF00F00EB8009849
:106B70002DE9F04F00F1240181F3098890E8F08FAE
:106B80000EF00F000D2818BF7047EFF3098020E9C1
:106B9000F04F0990BDE8F08F006800F1B601823037
:106BA000FEF768B910B5046804F1B60104F182007B
:106BB000FEF760F92046FEF7D3F8A4F8800010BD78
:106BC000036803EB4103B3F8820070470B8803802E
:106BD0007047022208B5FFF75BFBB0FA80F040096E
:106BE00008BD30B530B3037A022B2CD1C579437A76
:106BF00004792DB9002B4AD1012C48D1204615E04B
:106C000053EA04001DD0032D2FD1032B2FD1B4FA4A
:106C100084F04009002309E0181E18BF0120002C51
:106C2000F8D1023B012B8CBF0023012301B10B6083
:106C300002B1106030BD023B012B8CBF0023012349
:106C4000DCE701201BE00378022B22D0037953B943
:106C5000437A13F0030318BF0123C07910F0030037
:106C600018BF0120E2E70023F7E7022DD4D0A3F1FB
:106C7000020CDCF1000040EB0C00002CCAD1022D0C
:106C8000CFD0032DC6D19C1E63426341CEE7002CBA
:106C9000D1D000200346C9E7002337B50B608B80B5
:106CA000437D0D46D9075CBF01232B70037E04464C
:106CB000012B0BD8C37D9A072CD0437E9B0729D08C
:106CC000C28B838B9A4225D101232375694601AA81
:106CD00004F11000FFF785FF009B0BB10223EB705E
:106CE000019B0BB102236B70E37D03F00303022BC6
:106CF00003D0032B14BF00230823AB70637E03F083
:106D00000303022B03D0032B14BF002308232B7192
:106D100003B030BD0023D8E702280CBF02230823AC
:106D20000B448B4201D10120704713F8012DFF2A3B
:106D3000F7D00020704707B56946FFF7ADFF9DF813
:106D400000309DF80100023303449DF80200034423
:106D50009DF8030003449DF8040003449DF80500DA
:106D6000184403B05DF804FB43788278DB0012011D
:106D700002F0100203F008031343027802F0070246
:106D80001343C278520102F02002134302799201A8
:106D900002F0400213430B704379427A03F001037F
:106DA00043EA82138279520002F002021343C2794D
:106DB000920002F00C021343027A120102F0300238
:106DC00013434B70704737B504460D466946FFF7CD
:106DD00063FF294604F11000FFF7C6FF9DF800305D
:106DE0009DF80120012B09BFA37E0223AB70032372
:106DF000022A08D1A18B5A1CE954A18BD2B20233CA
:106E0000090ADBB2A9549DF802201344DBB2991A97
:106E1000C9B2B2B99DF80320022A08D1E18B5A1CED
:106E2000E954E18BD2B20233090ADBB2A9549DF8CE
:106E3000042008341344D8B2831ADBB22AB903B051
:106E400030BD013AA05C6854E1E7013AA15CE95425
:106E5000F2E70278437802F007000870C2F3C0003E
:106E60004870C2F300108870C2F34010C2F3801261
:106E70000A7103F001024A71C3F340028A71C3F33D
:106E80008102CA71C3F301129B09C8700A724B7266
:106E9000704710B40446084611461A4614B12346FA
:106EA00010BC184710BC704730B591B0FDF750FFCB
:106EB0000446FDF717FF6A4601462046FEF7ACF888
:106EC000044620B94FF0FF34204611B030BDFDF725
:106ED000EBFE0028F6D014209DF81010FDF7F2FF0D
:106EE0009DF81730ABB1BDF81C50FEF78FF8854206
:106EF00005D04FF6FF73BDF81C209A42E2D16946D7
:106F00009DF81700FFF708FF18B969461B20FDF729
:106F1000E7FF02A91A20FDF7E3FF13209DF81210E6
:106F2000FDF7D0FF9DF8153053B99DF81A100A20CF
:106F3000FDF7C8FF9DF81A100E20FDF7C3FFC3E749
:106F40004FF6FF71F3E70020FEF7FCB80120FEF7D3
:106F5000F9B8102070477047AC71200085242000DC
:106F6000E1242000000000000100000001000000FA
:106F70000100000000C0004000410D400000000082
:106F8000080000002C00000000000001FFFFFFFFD0
:106F900005000000020000000200000002000000E6
:106FA00000D0004008410D40020000000800000031
:106FB0002C00000002010200FFFFFFFF060000009E
:106FC000477220004B7220005A7220005E7220002F
:106FD00021342000E93120004D3220008F6520004F
:106FE00025332000CD302000112E2000292E200036
:106FF000092F2000D12D2000812F200001312000F9
:1070000081352000F532200007000000FF0000005D
:1070100005000000ED00000003000000D5000000A6
:1070200001000000C500000000000000B6000000E4
:10703000FFFFFFFFB0000000FDFFFFFFA100000009
:10704000FBFFFFFF91000000F9FFFFFF8800000039
:10705000F7FFFFFF72000000F5FFFFFF6200000076
:10706000F3FFFFFF58000000F1FFFFFF42000000A8
:10707000E8FFFFFF0000000085722000F765200098
:10708000EF652000F3652000997220003366200030
:107090002B6620002F662000BB682000156A2000A8
:1070A000396820009F6A20009D6A20002D7320000F
:1070B0000B6B2000554B20003D6B2000336B2000F4
:1070C000476F20004D6F2000A96E2000367320000E
:1070D00041542000F55220007552200081522000BA
:1070E0008D522000995220003B732000ED55200066
:1070F000F9592000315C200071572000F95620001A
:10710000C1562000536F20003D5D2000855D2000AA
:107110004D5D200046732000576F2000FD5D20006C
:10712000F15D2000E4000020000000003D5F200031
:10713000000000000000436F6E74696B692D3731E9
:1071400033373638356332005A6F6C657274696153
:107150002052452D4D6F7465207265766973696F95
:107160006E204220706C6174666F726D0052696DA2
:107170006520636F6E6669677572656420776974F0
:107180006820616464726573732000253032783A38
:1071900000253032780A00204E65743A2000204DD8
:1071A00041433A2000205244433A2000427574740F
:1071B0006F6E004343323533383A2049443A203029
:1071C000782530346C782C207265762E3A20504722
:1071D00025642E25642C20466C6173683A20256C4A
:1071E00075204B69422C205352414D3A20256C7535
:1071F000204B69422C204145532F5348413A2025CA
:10720000752C204543432F5253413A2025750A538C
:10721000797374656D20636C6F636B3A20256C75B0
:1072200020487A0A492F4F20636C6F636B3A202500
:107230006C7520487A0A52657365742063617573B2
:10724000653A2025730A00504F52004578746572E4
:107250006E616C2072657365740057445400434C32
:1072600044206F7220736F66747761726520726557
:10727000736574006363323533382052462064727C
:1072800069766572004F6E2D436869702054656D94
:107290007065726174757265005644443300303114
:1072A000323334353637383941424344454600306D
:1072B000313233343536373839616263646566009C
:1072C0003058003078002B00286E756C6C29002532
:1072D00000202020202020202020202020202020CE
:1072E00020303030303030303030303030303030AE
:1072F000304374696D65722070726F6365737300DB
:107300004576656E742074696D65720053657269A7
:10731000616C206472697665720053656E736F727A
:1073200073000080C0E0F0F8FCFEFF000052696DC1
:1073300065001A10000043534D4100436F6E74699D
:107340006B694D4143006E756C6C736563000A2D6B
:107350002D2D2D2D2D2D2D2D2D2D2D2D2D2D2D2D5D
:107360002D2D2D2D2D2D2D2D2D2D2D2D2D2D2D2D4D
:107370002D2D2D2D0052494D452061646472203D14
:1073800020093078257825780A005573696E6720C2
:10739000726164696F206368616E6E656C2025643C
:1073A0000A002D2D2D2D2D2D2D2D2D2D2D2D2D2D5D
:1073B0002D2D2D2D2D2D2D2D2D2D2D2D2D2D2D2DFD
:1073C0002D2D2D2D2D2D2D2D2D000A4C6F61646539
:1073D0006420616E20696E76616C69642052494D4B
:1073E00045206164647265737320283078257825A0
:1073F000782921205265736574207468652064655E
:10740000766963652E0A0A006162636465004272F0
:107410006F616463617374206D6573736167652068
:1074200073656E742E205374726C656E203D20253A
:10743000640A00202D205374726C656E206F6620E4
:1074400072657472616E736D69743A2025640A0006
:1074500042726F616463617374206D6573736167F9
:10746000652072656365697665642066726F6D205C
:107470003078257825783A2027257327205B5253CA
:1074800053492025645D0A004C6573736F6E203587
:0B7490003A20466C6F6F64696E670065
:10749C0088702000586F20007870200000000000D9
:1074AC000000000074722000F13420000000000085
:1074BC005D6620000000000000000000F17220005A
:1074CC00214120000000000000000000007320009B
:1074DC009542200000000000000000000C7320000A
:1074EC006546200000000000000000001A73200018
:1074FC006947200000000000040008004A0E00202C
:10750C000C040020BE000800520E0020FC060020D7
:10751C000C0008005E0E00206C05002034000200F8
:10752C00660E0020D00500200C000800680E00201C
:10753C003806002000000000887420001D5E20002A
:08754C0000000000CDAB1A01A4
:0875540064EAFF7F0100000062
:020000040027D3
:10FFD400FFFFFFF30000000000202000FFFFFFFFF1
:10FFE400FFFFFFFFFFFFFFFFFFFFFFFFFFFFFFFF1D
:0CFFF400FFFFFFFFFFFFFFFFFFFFFFFF0D
:040000050027FFD4FD
:00000001FF
