:020000040020DA
:1020000000210020052820001B8D2000198D2000B4
:10201000198D2000198D2000198D2000000000006E
:10202000000000000000000000000000919520006A
:10203000198D200000000000AF9520009D8D20002C
:10204000AF8D2000B58D2000BB8D2000C18D2000FC
:1020500000000000A38D2000A98D2000198D200014
:10206000198D2000000000000000000000000000AA
:102070000000000000000000198D2000000000009A
:102080000000000000000000198D2000198D2000C4
:10209000198D2000198D2000198D2000198D200028
:1020A000198D2000198D2000198D2000198D200018
:1020B000198D2000198D2000198D2000198D200008
:1020C000198D2000198D2000198D2000198D2000F8
:1020D000198D20000000000000000000000000003A
:1020E00000000000000000000000000000000000F0
:1020F00000000000000000002D3E20003D3E2000BA
:1021000000000000000000000000000000000000CF
:1021100000000000000000000000000000000000BF
:1021200000000000000000000000000000000000AF
:10213000000000000000000000000000000000009F
:10214000000000000000000000000000000000008F
:10215000000000000000000000000000000000007F
:10216000000000000000000000000000000000006F
:10217000000000000000000000000000000000005F
:10218000000000000000000000000000000000004F
:10219000000000000000000000000000000000003F
:1021A000000000000000000000000000000000002F
:1021B000000000000000000000000000000000001F
:1021C000000000000000000000000000000000000F
:1021D00000000000000000000000000000000000FF
:1021E00000000000000000000000000000000000EF
:1021F00000000000000000000000000000000000DF
:1022000000000000000000000000000000000000CE
:1022100000000000000000000000000000000000BE
:1022200000000000000000000000000000000000AE
:10223000000000000000000000000000000000009E
:10224000000000000000000000000000000000008E
:10225000000000000000000000000000000000007E
:10226000000000000000000000000000000000006E
:10227000198D20000D3D2000313D20009D332000B0
:10228000893F2000BD2E2000198D20000000000095
:102290002DE9F04105880746144696B0002D53D02D
:1022A00040F20B539D4240F09F8088296ED15648E2
:1022B00006F01EFE00285ED0544B04205B68984751
:1022C000534B00115B68ADF8300001209847514B2B
:1022D0000B905B68012098474FF0020809AE4E4909
:1022E0000A9001AD304605AC07F079F996E80F0089
:1022F00085E80F0084E80F000AAD484C8DF8248073
:1023000085E80F003421304603F07CF962782178AB
:10231000434801F083FE03222146424807F08FF82C
:1023200042F20573404C072022889A422AD800F0D6
:102330005BFB404600F050FB21883C4801F06EFEFC
:10234000314806F0C3FD16E0072000F04DFB0220E7
:1023500000F042FB2D4B24219B68802098474FF4CE
:102360008071294806F0A9FD2B464FF42071304AB0
:10237000304802F081FA40F20B5301203B8016B046
:10238000BDE8F08100F030FB0120D3E78629F2D1CF
:10239000002AF0D1284B1B78032BECD1274806F0FC
:1023A00034FD02F0CDFD05F029F911A3D3E9002396
:1023B00005F08EF910A3D3E9002305F0B3FA10A3BA
:1023C000D3E9002304F0CEFF00221D4B05F080F975
:1023D00005F090FB234601461A4A1B4802F04CFACE
:1023E0001A4802F0D9FBC6E7002303800320C6E7A2
:1023F0009A9999999999C93F00000000E0FFEF4030
:102400009A9999999999E93F781000209899200014
:10241000D89A2000C89A2000121700201617002012
:10242000389F20000810002056090020559F2000EA
:10243000F9682000040F0020E31800206A9F2000A4
:1024400000006040A5682000C80F00202005002083
:102450002DE9F04105880646144698B0A5B140F232
:1024600085439D4240F0C88186296ED1002A64D1FF
:10247000B54B1B78033B012B41D8A6211346B3482B
:10248000B34A02F0F9F933E0B24B0F21DB6A0120C5
:102490009847B14B80219B684FF48070984704F0B7
:1024A00069FE04F08DFE8221AC4AAD4802F054FF73
:1024B0008121AC4AAC4802F019FF8321AB4AAC48F9
:1024C00002F03AFEA04B07201D70AA4B1D7000F0D1
:1024D0008BFAA94A3421D2F80034A84843F0080303
:1024E000C2F80034A64B1D70A64B1D7001F096FD7E
:1024F00040F285430120338018B0BDE8F08102F03E
:102500001FFD05F07BF88AA3D3E9002305F0E0F86E
:1025100089A3D3E9002305F005FA89A3D3E90023B1
:1025200004F020FF0022984B05F0D2F805F0E2FA03
:102530000146964806F0C1FCDAE7012AD8D100230B
:102540004FF4C071924A93489BE788296FD18F4816
:1025500006F0CEFC38B18A4B1B7823B904F052F850
:10256000C0218D48E6E78C4806F0C2FC0028BFD0A9
:102570000122754B89481A7006F047FC072000F0CD
:1025800033FA042000F028FA854B1B78002BAFD1DA
:10259000DFF8F0816846834907F021F898F80030A9
:1025A00001AC8DF80230804B03F1280522461868F3
:1025B0005968083303C2AB421446F7D16C46002772
:1025C0000FCC0CAD0FC50FCC0FC594E8070085E804
:1025D000070034210BA88DF82C7003F013F80322A8
:1025E0007149634806F02BFF704806F00EFC98F81E
:1025F00000806F4806F009FC41466E4801F00EFD70
:102600003C46694D6C4FE3B2984505F1040503D88B
:102610000A2006F0E1FB6BE7384635F9023C15F875
:10262000032C15F8041C01F0F9FC0134EBE7634BB3
:102630001B788B4248D1484B9A427FF459AF002017
:102640005368984700287FF453AF3F4B1B782BBB50
:102650000124534A5A4F14705A4A52495A48138017
:1026600006F0BDFF3C7003F0CDFF454B0421142064
:102670001C7005F017FD554B051F186000F14C0448
:102680000221142005F00EFD45F8040FA542F7D1F4
:1026900001234F483B7006F0B8FB61E7022B7FF443
:1026A00027AF3F4B1B78002B3FF422AF0925264C68
:1026B000484806F0AAFB257003F0C4FF0023402120
:1026C000454A46482570DCE6454B1B788B427FF433
:1026D0000FAF1046434906F0EDF8002840F0848023
:1026E00001242F4B364D1C70364B2E49188036482E
:1026F00006F075FF2C7003F085FF214B0421142098
:102700001C7005F0CFFC314B071F186000F14C0422
:102710000221142005F0C6FC47F8040FA742F7D1A8
:1027200014232B482B7006F070FB01232B7017E746
:102730009A9999999999C93F00000000E0FFEF40EC
:10274000666666666666E63FE3180020840F002032
:102750008D6A2000209A2000A8992000A89B2000C4
:102760008C100020949B2000240F00209C9B2000B4
:1027700008100020E618002000B00D4087A02000BF
:10278000E4180020E718002000006040B80F002087
:1027900079622000640F0020A40F0020A1A0200077
:1027A000E5180020121700202A170020B7A02000EB
:1027B000CBA02000F1A0200001A12000BB18002028
:1027C000E8180020560900207A170020000F00208A
:1027D00016A12000109F200079602000E80F002043
:1027E000B918002023A120002046054906F062F810
:1027F00000287FF47DAE59E70023038003207BE6A9
:10280000FF9C2000FF22002408B5094B0948C3F8AB
:10281000B420094A636E0949121A98470848094AC0
:102820002146236E121A984700F00EF8FEE700BF0B
:1028300000200D40400000205A090020CCA32000B9
:1028400060090020FD18002073B500F085FC00F041
:102850003FFD00F09BFC00F0B5FA01F083FB06F0B1
:1028600052FB00F02DFD00F0ADF8012006F058FA03
:1028700002F098F900F054FC002000F077FB0120F2
:1028800000F074FB00203D4900F034FC02F0BEFA79
:1028900062B6042006F044FA394806F0B6FA394820
:1028A00006F0B3FA00F02CFA002002F057FB01F01A
:1028B00055FA0021344802F001FA01F0A7FF06F0B2
:1028C0005DFA00F08FFD00F0ABFD02F003FF082180
:1028D000684601F06DFB2D4DBDF806402C482C805C
:1028E00001F09CFB2B4E29782B4801F097FB69786F
:1028F0002A4801F093FBF56A4AF6CD310220A84739
:1029000061BA89B20320A8471A210120A8470822EA
:102910006946736B0B209847214801F07FFB214BE0
:10292000186806F072FA204801F078FB1F4B18680F
:1029300006F06BFA1E4801F071FB1E4B186806F09A
:1029400064FA00211C4802F0B9F91C4B01219B6874
:102950008120984706F0B0FA194806F0A3FA00F073
:10296000E5FB022006F0DCF900F0E6FB02F032F9AC
:10297000C0B20028F8D101F08DFAF5E7C54D20006E
:10298000B29B2000C49B2000A0040020121700204E
:10299000E99B2000209A2000079C20000D9C20002D
:1029A000139C20000C9B20001A9C2000349B2000CC
:1029B000219C2000509B2000C0040020A8992000EA
:1029C0008C9B200008B500F043F90022014B1A70DF
:1029D00008BD00BFA4170020024B1A7810431870DE
:1029E00000F058B9A4170020034A137823EA000026
:1029F000107000F04FB900BFA417002008B50B4BB2
:102A00001B7803420FD020280BD004280BD10220C2
:102A1000074B80211A7800F085FC20EAE07000B2B4
:102A200008BD0520F4E74FF00040F9E7A6170020A5
:102A3000A5170020802810B50C4605D0B0F5807F82
:102A40002BD04FF0004027E08B1E222BF9D8194BDA
:102A5000D3F8202422EA0102C3F82024D3F800246A
:102A600022EA0102C3F800248A0604D501220521C6
:102A7000002000F03BFC630704D501220221002066
:102A800000F034FC00F046FC30220B4B1A700B4B6C
:102A9000187820431870002010BDC8B2202803D039
:102AA00005D810F0EF0FCCD1034B1870F4E73028A5
:102AB000FAD0C6E700900D40A5170020A617002009
:102AC00018B1012804D000207047034B186A7047E2
:102AD000024B1878704700BF00900D40A8170020E7
:102AE00010B5094A0020137801331370074B197889
:102AF00002F0BCF8BDE8104005490023054A09680A
:102B0000054801F0B9BE00BFA8170020A717002094
:102B100098090020E12A20007809002008B5034622
:102B2000812B08462DD0B3F5807F3ED0802B26D157
:102B300002F02AF81E4B032118701E4B0020D3F818
:102B4000202422F00802C3F82024D3F8002422F025
:102B50000802C3F80024D3F8042422F00802C3F8C2
:102B60000424D3F8082442F00802C3F808240422FD
:102B700000F0BCFB032200210F4800F05BFB0120AA
:102B80000AE00C4B0D49D3F8102430B142F0080292
:102B9000C3F8102401230B6008BD22F00802C3F81B
:102BA00010240123C1F88030F6E7054B1960E6E7F1
:102BB000A717002000900D40C52B200000E100E089
:102BC0009809002008B50F4806F0B1F9C8B10821EE
:102BD0000C4806F09AF90C4B196849B100220B4BCE
:102BE0001A700B4B1B6A43B90A4A0B4801F044FEAA
:102BF000BDE80840094802F085B9074801F07EFEAB
:102C0000F6E708BD7009002098090020A8170020E9
:102C100000900D40E12A200078090020A8992000AA
:102C2000094BD3F8202422F00402C3F82024D3F85F
:102C3000002442F00402C3F8002400221A61012299
:102C4000024B1A70704700BF00C00D40AD17002046
:102C500000210F4BD3F8202422F0C002C3F8202417
:102C6000D3F8002442F0C002C3F80024C3F80013D4
:102C700003F50053D3F8202422F01002C3F82024D7
:102C8000D3F8002442F01002C3F8002419647047FE
:102C900000A00D4010F0020218BFFF22084BC3F83D
:102CA000002210F0040218BFFF2210F00100C3F848
:102CB000002118BFFF22034B14BF1A641864704729
:102CC00000A00D4000C00D40044BDB69C3F307209A
:102CD00013F4704F04BF1030C0B2704700300D4085
:102CE000064B5869C00910F0060F03BF00F007003B
:102CF000C0F1020040034FF40040704700300D4027
:102D00002DE9F047002488B0FFF7DEFF164B06469A
:102D1000DF69236D9847E36C804698470446FFF7C8
:102D2000DFFF054600F06EFA814600F077FA824632
:102D300000F022FAAD0A07F00103A40AC7F3400726
:102D4000CDE905A003934146CDF810900297019577
:102D5000009406F00F03C6F30712044801F05EF971
:102D600008B0BDE8F08700BF00300D40449C200053
:102D70002DE9784800F06EF810490246D1E900BC10
:102D80006646584538BF0CF101063346C1E90023B9
:102D90000B4ED6E90001B0EB0B0461EB0C05A0185B
:102DA00045EB0301C6E9000101F058FE18B1BDE88A
:102DB000784801F0D9BDBDE8788800BF68090020D7
:102DC000600900204FF0E023E0210B4A5A610B4AD2
:102DD00082F82310002207219A61196108498B6843
:102DE00043F001038B60074BDA6004221A60012272
:102DF0005A600F229A63704747E8010000ED00E037
:102E000000200D4000000340034BD3E90023100ACB
:102E100040EA0360704700BF68090020034BD3E914
:102E20000023D00B40EA4340704700BF60090020F8
:102E3000044B9862DA6842F00102DA60DA68D2077D
:102E4000FCD4704700000340014B1868704700BF76
:102E50009C090020054A106C516C936C1B0443EADA
:102E600001230343D06C43EA0060704700500D40DB
:102E700010B504460E4A136DDB07FCD572B6FFF79A
:102E8000E9FF231A062BD8BFC41D094B220EDA64B2
:102E9000C4F307429A64C4F307225A64E2B21A6484
:102EA00062B64FF40032034B1C60034B1A6110BD35
:102EB00000500D409C09002000E100E008B500F042
:102EC000D5FF0022064B1A604FF40032054BC3F8C1
:102ED0009021C3F89020BDE8084001F013BF00BF67
:102EE0009C09002000E100E0064B9B691B075FBFC7
:102EF000054B986980F00800C0F3C00048BF00206F
:102F0000704700BF00C0004000D000402C22154B8D
:102F100070B502FB00334FF6BF72DC680546236CC8
:102F2000626413F050020DD00F4EA369DB0600D58A
:102F300070BD56F825301BB12068C0B29847F4E741
:102F40002368F2E713F4D06FF2D04FF44073236399
:102F5000FF236360E36AE262E362236B43F00103F1
:102F60002363E5E7B8992000A009002001282DE996
:102F7000F74F804600F2AD802C254543564F7C1913
:102F800094F92090B9F1000FC0F2A38094F9226067
:102F9000002EC0F29E80514800F0D2FF504B79596C
:102FA0009A6A94F921A00A439A62DA6A6168E5682C
:102FB0000A43DA621A6BA168F0B20A431A6300236B
:102FC00022690AEBC901C5F8C83F116094F82310C3
:102FD000227DCDE9000194F923B000F091F9DDE9FB
:102FE0000001082200F082F9012231033D4E02FA6D
:102FF0000BFB88594FEA09394BEA0000885159F810
:10300000061002FA0AFA4AEA010149F806105021AC
:10301000A963A96B94F9240041F4D061A96302214A
:1030200069634FF440712963A16900286962E1690D
:10303000A9624FF07001E96216DB002394F92510B4
:10304000294C41EAC005C4F804510403A5598A403B
:103050002A43A251C9B21A46C0B200F047F9234A26
:10306000136B43F4004313632C2303FB087393F99E
:103070002640002C1ADB93F82790E5B2012249463E
:10308000284693F927A000F03BF901232403A25915
:1030900003FA0AF31343A35108224946284600F0D5
:1030A00025F9124A136B43F4804313632C2000FB71
:1030B0000877FA68136B43F001031363012297F852
:1030C0002830590903F01F0302FA03F3084A42F8B3
:1030D000213003B0BDE8F08FB8992000E92E200020
:1030E00000200D4020940D4000400D4000D00040D5
:1030F00000E100E001289CBF014B43F8201070471D
:10310000A0090020012808D82C22044B02FB003023
:10311000C3689A699206FCD419607047B899200078
:103120000022014B1A60704700500D400822014BED
:103130001A60704700500D40A022024B1A605022C6
:103140001A60704700500D4072B60B22014B1A6096
:10315000FEE700BF00500D40014A024B9A607047E5
:103160000020200000ED00E0024B5868C0F38150C1
:10317000704700BF00200D4008B5FFF7F5FF024B78
:1031800053F8200008BD00BF109A200010B5194C5C
:103190000122D4F82034062123F04003C4F820345F
:1031A000D4F80034032023F04003C4F8003400F0C6
:1031B0009DF8D4F82034012223F08003C4F8203491
:1031C000D4F80034072123F08003C4F8003403202E
:1031D00000F08CF8084A094B1A60094A59681142F4
:1031E000FCD15A685201FCD4044A53685B01FCD5F7
:1031F00010BD00BF00C00D400101020000200D40C5
:1032000000000101034B04485B6803F00703184109
:10321000704700BF00200D400048E801034B044800
:103220005B68C3F302231841704700BF00200D40C4
:103230000048E801024B02EBC10243F8220070474C
:10324000A8090020F8B507460D460024084E06EBF5
:10325000411647FA04F3DB07E1B204D556F82430EF
:103260000BB1284698470134082CF2D1F8BD00BFB5
:10327000A80900202DE9F8430546DFF8388000F062
:10328000F5FD0D4B2E03F75856F808404FEAC509D7
:1032900024FA09F447EA04002946C0B2FFF7D2FF36
:1032A000E4B2064BFFB204FA09F4F75046F80840BE
:1032B000BDE8F88318970D4018940D401C940D40FC
:1032C00080220021014805F085BA00BFA80900202E
:1032D000034B044A1A60044B803A1A60704700BFDF
:1032E000280A002080400D402C0A0020034B01EBEF
:1032F000C0011B6843F82120704700BF280A002046
:10330000034B01EBC0011B6843F82120704700BF4D
:103310002C0A0020024A136843F030031360704700
:1033200000700D400E2870B506460DD1134B5C6B36
:1033300044F0020058631248D0F8F45625F03F03D9
:1033400043F00103C0F8F4360E48836823F0FF030E
:103350001A4311433143816003681B06FCD5C368DF
:10336000006903F0FC0343EA00230E2E18B201BFEC
:10337000034BC3F8F456014B5C6370BD000001447D
:103380000080084000700D40034BD3F80007B0FAEE
:1033900080F04009704700BF00B008404FF4004281
:1033A000064B10B5064CC3F89021C3F89020206856
:1033B00018B101F09BFC0023236010BD00E100E088
:1033C000300A0020064B9A6C42F002029A64DA6CD2
:1033D00042F00202DA641A6D42F002021A65704786
:1033E00000200D4007B50C4800F0AAFDFFF7EAFFEA
:1033F0000A4B5A6D42F002025A6500220192019A6C
:103400000F2A06DD5A6D22F002025A6503B05DF8FC
:1034100004FB019A0132F1E78933200000200D40BE
:10342000064B9A6C22F002029A64DA6C22F00202D5
:10343000DA641A6D22F002021A65704700200D400E
:103440000D4BD3F84C269107FBD4D3F84C265206EB
:103450005EBFED22C3F83828C3F83828D3F82C26ED
:1034600012B1EF22C3F83828044A0120137803F080
:103470007F031370704700BF00800840B017002022
:10348000044BD3F84C0600F02200A0F12003584270
:103490005841704700800840024BD3F84C0600F0BA
:1034A0004000704700800840054BD3F8002620B14B
:1034B00042F00102C3F80026704722F00102F9E74A
:1034C00000800840284B1870002841D0274A5368D4
:1034D0001B03FCD5264BD3F8042842F00202C3F8A4
:1034E0000428D3F8042842F00102C3F80428D3F8D2
:1034F00004285007FBD5D3F8042822F00102C3F8B2
:1035000004281B4BD3F804285107FBD4D3F8042814
:1035100042F00202C3F80428D3F8042842F0010262
:10352000C3F80428D3F804285207FBD5D3F88C2617
:1035300022F00402C3F88C26D3F8342822F00402C7
:10354000C3F834284FF400520A4BC3F89020704758
:10355000074AD2F88C3643F00403C2F88C364FF495
:103560000052044B1A617047AF17002000200D4035
:103570000080084000E100E0094B93F90020002A98
:103580000CDBED21074AC2F83818C2F83818E321DD
:10359000C2F838181A7862F07F021A70012070475A
:1035A000B01700200080084070B5A0F10B05EBB209
:1035B0000F2B044614D80C4ED6F8483613F03F03B0
:1035C00002D0FFF73DFF012305EB85050B35C6F85B
:1035D0003C560BB1FFF7D0FF044B60B21C7070BDBE
:1035E0004FF0FF30FBE700BF008008405809002083
:1035F00038B50C46002900F09180102800F2908028
:10360000DFE800F009111D252B434C60667D818E9B
:103610008E86885D8A00434BD3F82C36003B18BF5A
:10362000012323602BE005223E4BD3F83C3603F008
:103630007F030B3B93FBF2F30B33DBB2F1E7394A29
:10364000D2F8CC15D2F8C83543EA0123E9E7354A68
:10365000D2F8D415D2F8D035F6E70023314A0B6002
:10366000D2F8003603F001030B60D2F8242690064E
:1036700044BF43F002030B602B4B1B780BB90020B7
:103680000BE00B6843F00403CBE70020274B0860F6
:103690001B78002BF3D001230B6038BD214B24494C
:1036A000D3F840260023D2B201EBC3000079904248
:1036B00002D851F83330B4E701330E2BF4D16FF058
:1036C0001703AEE7174BD3F858365BB2493BA8E770
:1036D000144DD5F8483699060FD1FFF74DFF012359
:1036E000D5F86426D207FBD5D5F86056493D6DB2B2
:1036F0000BB1FFF7A5FE2560C1E70023F0E70D4BF6
:1037000093F900308DE70C4B1B7803F07F0388E7BB
:103710000B2386E71A2384E7072382E70220BCE70E
:103720000120BAE700800840AF17002059090020A7
:10373000589A2000B1170020AE17002010B50B4C8E
:10374000D4F8483699060FD1FFF716FF0123D4F8B5
:103750006426D207FBD5D4F84C46C4F300140BB151
:10376000FFF76EFE204610BD0023F0E70080084002
:1037700010B50C46072865D8DFE800F0040F1A23BF
:103780002C444A5E012903D1FFF7F6FE00203EE0FB
:10379000002959D1FFF754FEF8E7A1F10B030F2BD5
:1037A00052D8C8B2FFF700FF0130EFD103202EE05E
:1037B000264BCAB2C1F30724C3F8C825C3F8CC45C9
:1037C000E4E7224BCAB2C1F30724C3F8D025C3F8FB
:1037D000D445DBE731F0070336D101F00100FFF7F4
:1037E00063FE1A4B11F0020FD3F82426C1F38000B8
:1037F00014BF42F0200222F02002C3F82426FFF773
:1038000061FEC3E731F001001ED1114B197010BDEC
:1038100001F118031F2B17D80D230E4A52F833104D
:103820008C4206DC02EBC3031A79084BC3F840262E
:10383000ACE7013BF2D2A9E7044BCCB24934C3F860
:103840005846A3E70120E2E70220E0E700800840B5
:1038500059090020589A200070B505460C46144EB0
:10386000D6F84C369B07FBD4124B93F90030002B53
:1038700001DBFFF781FEEE23691EC6F83838C6F873
:103880003838A31CC6F828382144022000F080FAFA
:103890000949013C41EA0411022000F08BFA0220A0
:1038A00000F092FA022000F0A7FA002070BD00BFDD
:1038B00000800840B017002002C001C070B5264B40
:1038C00093F90030002B19DBFFF7C4FA0446FFF729
:1038D00053FEC4F1FF2404F57F04F634FFF7BAFA6F
:1038E000C442FBD401261D4B1B784BB91C4CD4F8A9
:1038F0004C36990609D50224204670BD0026F2E711
:10390000FFF71CFF0028F1D1F5E7E9230425C4F8EF
:103910003838D4F84C369A0703D4013D15F0FF052A
:103920000AD1D4F84C369B070AD50D4BD3F84C4638
:1039300014F00204FAD109E00620FFF779FAE8E76B
:10394000EE23C4F83838C4F838380124002ED3D018
:10395000FFF776FDD0E700BFB0170020590900201F
:10396000008008400B280DD1082A0DD161B1074B0A
:10397000074A083111F8010D43F8040B9342F9D1BD
:10398000002070470120704702207047A88508403A
:10399000C885084070B5384A0546D2F84C0610F084
:1039A000400009D0D2F82808040606D5ED23C2F855
:1039B0003838C2F83838002070BDC0B20428F5D9B4
:1039C00002388842F2DCC4B2032C24D1D2F8283861
:1039D0002B70D2F828386B70D2F82838AB70264D8F
:1039E000264BD5F82818264E493949B21970D5F812
:1039F00028381806337026D589B2042001F040FE1D
:103A00003178032001F07F0101F03AFE1D4B1B7855
:103A1000FBB12046D0E729190320013900F0C0F995
:103A20001949631E032041EA031100F0C3F9032082
:103A300000F0CAF9032000F0DFF9032000F0E8F9F4
:103A40000028FAD1CBE7ED23C5F83838C5F8383867
:103A5000B1E7D5F84C365A06DBD5D5F84C361B06FF
:103A600003D50A4801F042F9D3E7ED23C5F8383809
:103A7000C5F83838CDE700BF00800840B1170020F6
:103A8000AE170020AF17002002C0010C7804002000
:103A90002DE9F041294F3E7816F001064CD1012561
:103AA000274B284CC3F8A850C3F8AC50C3F8B0500B
:103AB000F823C4F858360923C4F8E83715230B2235
:103AC000C4F8C836204B4FF07F085A604023C4F832
:103AD0002436D4F8243643F02003C4F82436D52302
:103AE000C4F80866C4F85086C4F84036174B1878F6
:103AF000FFF75AFD4FF48042154B0220C4F894861C
:103B00001A6100F06DF91349022000F049F9032011
:103B100000F066F90F49032000F03AF90E4B1878CF
:103B2000FFF7D0FC0D48314601F0C8F828463B7835
:103B30002B433B70BDE8F0810020FBE7B01700206D
:103B400000200D400080084000600D405809002012
:103B500000E100E028880840AF170020780400202A
:103B600038B50388044653B340F20342934233D13D
:103B70001B4B1A7842BB822924D11B7873B901F000
:103B800031FD01F0C3FC8021FFF704FF002805DDB3
:103B900080B201F07BFC134B1B699847124B1A78DB
:103BA00052060CD500221A70104BD3F84856FFF776
:103BB00047FCFFF76DFFAB0601D0FFF7DDFC40F2DD
:103BC0000343238001200AE01A78002AFAD0064A2B
:103BD00012785006F6D5CEE700230380032038BDC7
:103BE000AF170020509B2000B01700200080084035
:103BF0000B282DE9F8430D460FD1082A7CD1002966
:103C00007AD03E4B3E4A4D1E53F80419934205F8B4
:103C1000011FF9D10020BDE8F8830C286AD1042ADD
:103C20006AD1002968D0374BD3F8102822F0070258
:103C3000C3F81028D3F8042842F00802C3F8042877
:103C4000D3F81428D3F81818D3F81008D2B220F0FB
:103C50007000C3F81008D3F82448D3F820080902EC
:103C600042EA006289B224040A4304F47F04D3F8D0
:103C70001C7842EA0408D3F81028FFB222F00702A9
:103C800042F00102C3F81028D3F8042842F00802D9
:103C9000C3F80428D3F81448D3F81828D3F8101818
:103CA000E4B221F0700141F01001C3F81018D3F80C
:103CB0002418D3F82008120292B244EA00640904DE
:103CC000144301F47F010C43D3F81C185FFA81F907
:103CD000FFF7C0F8B8EB040467EB0907FF030646DB
:103CE0000023094AE00347EA544104F057F8361A22
:103CF0002E608FE701208EE702208CE7C485084004
:103D0000A4850840008008400048E80108B5054B3C
:103D10001B7813B9044800F0E9FF0022034BC3F8F5
:103D2000342808BDAF170020780400200080084028
:103D3000074A0848D2F82C38042B1FBF06490B78D5
:103D400043F040030B700023C2F82C3800F0CEBFC4
:103D50000080084078040020B017002010B5094CFE
:103D600040220021204604F035FD0122064B5A6016
:103D70004FF480429C60054B5A604FF400425A60F9
:103D800010BD00BF0000002000F00F4000E100E087
:103D900003289EBF014B000119507047000000200E
:103DA00003289EBF024B03EB00104160704700BF29
:103DB0000000002003289EBF024B03EB001081602F
:103DC000704700BF00000020032806D80123034AE3
:103DD00003FA00F0916A08439062704700F00F40C8
:103DE000032806D80123034A03FA00F0116A0843A6
:103DF0001062704700F00F40032806D80123034AE1
:103E000003FA00F0516908435061704700F00F4019
:103E100003289FBF044B03EB0010806800F00700ED
:103E200088BF0020704700BF000000204FF0FF3225
:103E3000014BC3F80425704700F00F400122014BED
:103E4000DA64704700F00F40074B5A68D102FCD487
:103E50001A6822F480321A605A68D203FCD41A68B5
:103E600042F400321A60704700200D4010B5084C33
:103E7000A36D99070BD063685A01FCD463685B019A
:103E8000FCD504F07DFFFFF7DFFF0023A36510BD25
:103E900000200D4070B5264BD3F8484614F03F047F
:103EA00014D1244D55F8043B23B1984770B1013427
:103EB000052CF7D1204E337843B1FEF7C5FF0446F9
:103EC000FEF7C8FF201A092800D90CB930BF26E038
:103ED0001A4B1A6822F400321A605A68D202FCD4D3
:103EE0001A68164D42F480321A606B68DB03FCD509
:103EF000FEF7B0FF241A092C03D8BDE87040FFF785
:103F0000A3BF632C0CD93378022B09D1AB6500F029
:103F1000A3FE38B1FFF798FF0022084B9A6570BDE9
:103F20000123F3E7FEF790FF0028F3D0CEE700BFB0
:103F300000800840340A0020B217002000200D4005
:103F4000074A10B50023144652F8041B814202D0E0
:103F500011B944F8230010BD0133052BF4D1FAE761
:103F6000340A00200022054B05499A650B6943F08D
:103F700004030B61034B1A70704700BF00200D4013
:103F800000ED00E0B21700204FF48032064B10B570
:103F9000064CC3F89021C3F89020206818B100F0B7
:103FA000A5FE0023236010BD00E100E0480A0020C8
:103FB0004FF4201270B592F82B40431E54B101F516
:103FC0002011154A273191421AD011F8010903F83E
:103FD000010FF8E792F82A40122CF0D192F829202C
:103FE0004B2AECD14C0804F520120B4D2732AA4283
:103FF00007D1002301F5201120442731A34205DB1E
:1040000070BD12F8016903F8016FF0E7CA1A12785F
:10401000013300F8012BF1E7270028000FB407B5A2
:1040200004AA52F8041B0448019200F021F803B0DE
:104030005DF804EB04B070478804002070B50546B5
:104040000C460A4E102C07D874B122462B686868BB
:104050000649BDE870401847102231462B68686851
:10406000984710B9103CEDE7204670BD629D2000D6
:104070002DE9F04F8046154600278DB00491049B32
:104080001B78002B00F07983049B1A781C460133BF
:10409000002A00F06183252AF7D1049B9C4205D0B9
:1040A0005DE323783744002B00F067836278631C5C
:1040B000002A00F062830024184610F8012B1946EC
:1040C0002B2A15D009D8202A15D0232A16D0A2F1E0
:1040D0003106082E40D8002219E02D2A04D0302ABB
:1040E000F5D144F0100401E044F001040346E3E795
:1040F00044F00604FAE744F00204F7E744F0080449
:10410000F4E70A21019A01FB0299A9F1300219464C
:1041100013F8019B0192A9F13002092AF1D90B7819
:104120002E2B36D14A784B1CA2F13000092828D812
:104130004FF0000B1A781946A2F13000092803F15C
:10414000010318D90B786C2B6BD14B786C2B23D1D6
:1041500044F08004023122E02A2A09D12B6801466A
:10416000002B019305F10405B8BF44F00104D6E724
:1041700000230193D3E70A2101FB0B2BABF1300B9A
:10418000D8E72A2A04D1D5F800B002310435D9E79E
:1041900019464FF0FF3BD5E7013144F060040B783E
:1041A000782B0CD8572B48D8472B08D8402B00F237
:1041B0008D80002B00F0E182252B00F0D0804B1C7D
:1041C000049304F4E063B3F5A06F00F0A28200F260
:1041D000C980B3F5407F00F06882B3F5806F00F0CE
:1041E0002F82B3F5807F7FF44AAFBBF1000FACBFE5
:1041F00024F010044FF0010B14F4005904F0E00314
:1042000000F07A81402B00F0728100F2C280002B16
:1042100000F07081202B00F0CB800026B2460023F6
:10422000D3E0682BBBD14B78682B02D144F020043B
:1042300090E7013144F04004B1E7583B202BBED851
:1042400001A252F823F000BF11432000BF4120001B
:10425000BF412000BF412000BF412000BF412000DE
:10426000BF412000BF412000BF4120003B43200050
:10427000BF41200047432000F94220002343200093
:10428000174320002F432000BF412000F9422000A7
:10429000BF412000BF412000BF412000BF4120009E
:1042A000594320000543200053432000BF41200014
:1042B000BF4120004D432000BF412000FF422000AD
:1042C000BF412000BF4120000B432000413B062B93
:1042D0003FF675AF01A252F823F000BF4143200022
:1042E000BF412000BF412000BF41200029432000E2
:1042F0001D4320003543200044F424545FE744F478
:1043000010645CE744F4885459E744F4C85456E711
:1043100044F4B24453E744F4007450E744F4844452
:104320004DE744F402444AE744F4424447E744F486
:10433000813444E744F4A13441E744F4C1343EE716
:1043400044F4E1343BE744F4A06438E744F4806487
:1043500035E744F4407432E744F4E0642FE744F472
:10436000C0642CE7B3F5C06F07D0B3F5E06F7FF4FE
:1043700086AE2B6804351F6081E60122D8F8003034
:10438000A649D8F804009847002840F0F481013786
:1043900075E6602B00F0AE80802B7FF43EAFEA1D07
:1043A00022F007021546D2F804A055F8086B04E085
:1043B00095F9006004354FEAE67ABAF1000FBFF6CE
:1043C0002EAF012376426AEB4A0A029304F4C053EB
:1043D000B3F5805F00F0E480B3F5C05F00F0E680E5
:1043E000B3F5006F00F0C6800DF12E03009300239B
:1043F0000393039B41F608029B4588BFABEB030B7D
:1044000041F2080304EA020198BF4FF0000B994201
:1044100004D1BBF1010F38BF4FF0010B039B914258
:104420005B4440F0DF8056EA0A0200F0DB807C4902
:104430007C4A14F4804F4FF0020614BF8A4692461D
:10444000B9F1000F0DD0029A002A40F0CE8004F09E
:104450000602022A00F0CD80062A734A04BF012614
:10446000924606EB0309019B4B4594BF4FF00009B0
:10447000A3EB090914F00103019304D1E20640F112
:10448000BC80CB4499464EB132465146D8F80030F4
:10449000D8F804009847002840F06D815C46039BE3
:1044A000DFF888A11F44102CD8E9003000F2AD805D
:1044B0002CB122465D499847002840F05C81D8F82D
:1044C0000030039A0099D8F8040037449847002830
:1044D00040F05181019B5F44002B00F0E080494691
:1044E0004046FFF7ABFD002800F0D98043E1B5F965
:1044F00000605FE72E685DE7402B1BD007D8DBB17B
:10450000202B11D04E46CA46CDF808905EE7602BAE
:1045100012D0802BF6D1EA1D22F007021546D2F800
:1045200004A055F8086B02E02E78CA460435CDF891
:1045300008904BE72E88F8E72E68F6E70398059970
:104540000A22002303F02AFC009B303203F8012DDD
:104550000398059900930A22002303F01FFC03909F
:104560000591039B059A1343E8D1009A0DF12E03A0
:104570009B1A3DE70DF12E030396CDF814A000938E
:10458000EFE7009803F00701303100F8011DDB0868
:1045900043EA42730090D20853EA0201F1D1E4E702
:1045A0000DF12E01334652460091F5E7204B14F4ED
:1045B000804F2049524608BF194633460DF12E0060
:1045C000009053EA0200D0D003F00F00DDF800C0E5
:1045D000085C1B090CF8010D43EA0273CDF800C01A
:1045E0001209EEE70026B2462AE70126DFF848A0C6
:1045F00037E70126DFF844A033E749464046FFF796
:104600001DFD00283FF43FAFB5E01022514698470A
:10461000002840F0B080103C45E700BF609D2000BE
:10462000519D2000549D2000579D2000729D200028
:10463000409D20002F9D200030A320001F9C2000C3
:104640002E6804356EB333469A469AF8002001333B
:10465000002AF9D1AAEB060ABBF1000F02DBDA450A
:1046600028BFDA46019B534594BF4FF00009A3EBE6
:104670000A0914F0010405D149464046FFF7DEFC63
:10468000002878D152463146D8F80030D8F80400D6
:10469000984700286FD15744002C7FF420AF4F4437
:1046A000EDE44FF0060A374ED6E7374B14F4804F4F
:1046B000364808BF18460DF12B0300229A46296898
:1046C000043551EA02061AD1BAEB030A04BF3022BC
:1046D00003F8012C4FF0780208BF03F1FF3303F811
:1046E000012C4FF0300208BF4FF0010A03F8022CF2
:1046F0002322DE1E03F8032C0AF1030AB2E701F0BD
:104700000F06865D090941EA027103F8016D12097D
:10471000D7E7DDF804902B68B9F1010F38BF4FF0EF
:10472000010914F0010405F104058DF8183009F1B0
:10473000FF3605D131464046FFF780FCD8B93744F3
:104740000122D8F80030D8F8040006A9984790B99B
:10475000002CA4D03146C3E6049B9C420DD0049BA0
:104760000499E61A3246D8F80030D8F80400984781
:1047700000283FF496AC4FF0FF3738460DB0BDE847
:10478000F08F00BF599D2000409D20002F9D2000EC
:10479000F8B5038805461646CBB14A2B2BD188299C
:1047A0001FD1174804F0D4FB0446C4B1231D9E4218
:1047B0001FD12146124804F0D5FB124E63693768B9
:1047C0003360A3690BB1E0699847376007E00C4894
:1047D00004F0BEFB044634B901220B4B1A704A2385
:1047E0002B8001200AE0A168201D04F066FB2468EC
:1047F000F1E72468D9E7002303800320F8BD00BF58
:104800004C0A0020D80B0020B317002010B500245C
:10481000054B06481C7004F098FB2146BDE810408B
:10482000034800F04BBA00BFB31700204C0A002029
:104830009004002070B50446E3610B4B049D1B7887
:10484000C4E905526BB1094D094B2E68201D2B6040
:1048500004F033FB2E602146BDE87040054804F0AB
:1048600094BBA160F7E700BFB3170020D80B00206E
:10487000900400204C0A002013B5034C24680094D7
:10488000FFF7D8FF02B010BDD80B002070B5094B60
:1048900004461B783BB1084D084B2E6804302B6052
:1048A00004F014FB2E602146BDE87040044804F07B
:1048B0006CBB00BFB3170020D80B00209004002071
:1048C0004C0A002070B5094B04461B783BB1084DDB
:1048D000084B2E6804302B6004F001FB2E6021464B
:1048E000BDE87040044804F050BB00BFB31700207F
:1048F000D80B0020900400204C0A002010B5084B73
:1049000004461B7843B1043000F0B0F82146BDE8FE
:104910001040044804F026BBC0E90333F6E700BFAB
:10492000B31700204C0A002010B50D4C236813B9B2
:104930000C4A136010BDFEF767FA2268D2E9003115
:104940000B441B1A92681AB91844064B1860F1E719
:10495000D2E900142144091A8B4228BF0B46F1E723
:10496000540A0020500A0020014800F0BFB900BFDF
:10497000A00400202DE9F0410388054653B1592BCE
:1049800046D1872921D1002023490B6863B918B18A
:104990000B6001E0204A1360592301202B80BDE801
:1049A000F08101203346F1E7D3E902649442F8D064
:1049B00000B10B6019460B4689680029ECD0C86825
:1049C0009042F8D189689960F4E78229E4D14FF0E8
:1049D0000008114F00263C68002CDDD0204604F072
:1049E000A6FA90B122468821E06800F03FF950B95C
:1049F000A368E0602EB1B360C4F80880FFF794FFAD
:104A0000E8E73B60F8E7FFF7AFFF2646A468E3E777
:104A1000002303800320C2E7540A002010B5044697
:104A2000FFF7A2FFE3680B4A0BB1136833B90A4BD7
:104A30001B68E36013681460A36004E0A34206D11E
:104A4000054A1268DA60BDE81040FFF76DBF9B6849
:104A5000ECE700BF540A0020D80B0020024B186876
:104A6000003818BF01207047540A002010B50B4AC7
:104A700004461368834208D183681360FFF754FF2C
:104A80000023C4E9023310BD1346002BF8D09A6806
:104A9000A242F9D1A2689A60F0E700BF540A002050
:104AA00038B5836804460D469BB10A48046002206D
:104AB000A07304F10C0098470238012801D9832D16
:104AC00005D121462046BDE8384000F005B8012355
:104AD000A37338BDD80B00202DE9F8431C4F0446C2
:104AE0003D6888462B46A34204D00BB9BDE8F88345
:104AF0001B68F8E7002CF9D0164EA37BD6F800907F
:104B000063B10023A3738DB9A3683BB1444505D0BD
:104B10002A468321346004F10C0098473B68A34285
:104B20000ED123683B60C6F80090DFE7A54204D0B1
:104B300022468721284604F0E0F92D68E3E7134672
:104B4000002BF0D01A68A242F9D122681A60EAE775
:104B5000DC0B0020D80B0020002238B50125084BC3
:104B60001A70084B1C6804B938BDE37B2BB10022D6
:104B700082212046E581FFF793FF2468F3E700BF19
:104B8000B7170020DC0B0020024B1878421C1A706B
:104B9000704700BFB5170020014B1968FFF79CBF95
:104BA000D80B00208A22064B1A700023054A137086
:104BB000054A1370054A1360054A1360704700BF29
:104BC000B5170020B4170020B6170020DC0B00201A
:104BD000D80B00202DE9F0411A4E33780BB1FFF7C6
:104BE000BBFF194D2C7894B10C221849184F0B7843
:104BF000013C5A430133B81803F01F03BF5C0B702C
:104C00002C70D0E9018090B9124B1C6824B933781C
:104C100028781844BDE8F08133780BB1FFF79CFF8A
:104C200020464246394604F068F92468EEE7812FB1
:104C300008BF01234246394608BF837304F05DF97B
:104C4000E5E700BFB7170020B6170020B417002013
:104C5000580A0020DC0B0020024A034B10781B7816
:104C600018447047B6170020B7170020F0B50B4D59
:104C70002C78202C0FD00C26094B0A4F1B7823448C
:104C800003F01F037343FE18C6E90120002001341E
:104C9000F9542C70F0BD0120FCE700BFB6170020CE
:104CA000B4170020580A002038B5034C256804F0DA
:104CB00024F9256038BD00BFD80B002010B40A4687
:104CC00009490C68234683420CD04BB950B10460AB
:104CD0000860012110BC817383818121FFF7E4BF4B
:104CE0001B68F0E710BC7047DC0B002038B1837BF9
:104CF000013B012B9FBF0123014AC373137070470F
:104D0000B717002010B5084C206858B10023236065
:104D1000D0E901319847236823B1BDE810401868F5
:104D2000FEF7A6B810BD00BFE00B002070B50588E7
:104D30000446672D09D0792D2FD0002D33D1FFF7F0
:104D400023FF1B4B18701B4B1D601B4E194D08E0B9
:104D50000A282B680ED07E2B03DC5A1C2A60174AC7
:104D6000D054304604F091F9431CF1D167232380DD
:104D700001201BE05A1C2A600025104A2846D55401
:104D80000B4B1978FFF772FF0D4B2A4685211868E7
:104D9000FFF76CFF18B97923E9E78529E8D10022EC
:104DA000044B1A60D1E700230380032070BD00BFCD
:104DB000B9180020E40B0020E80B0020B8170020F1
:104DC000D80B00200D28014610B516D00C4C2378C6
:104DD00053B90C4804F046F908B9012323700A4876
:104DE000FFF784FF012010BD0A28F8D1054804F020
:104DF00039F90028F3D00023F0E70020F3E700BFE3
:104E000038180020E80B0020B004002008B5054940
:104E10000548802204F01FF9BDE80840002103483E
:104E2000FFF74CBF39180020E80B0020B004002029
:104E30002DE9F04105880446772D20D07E2D3DD008
:104E4000002D4ED1FFF7A0FE284E294B294FDFF849
:104E5000A88018703560336857F823202AB9274A8C
:104E600013707723238001203EE008F803509368F5
:104E7000002180209847336801333360EBE700233B
:104E80001F4A1360194A1360184B1C4A1B6812789A
:104E90009A4204DC1A4B1B68002BF0D1E1E7164A5A
:104EA000D256002A19DA134A002052F82320104B58
:104EB0001978FFF7DBFE28B97E23D3E70C4B1B786C
:104EC0008B42D0D1094B0C491A688B5C03F07F03ED
:104ED0008B540B4A136801331360044A136801337F
:104EE000D1E7002303800320BDE8F081F40B00200C
:104EF000BB18002068040020A9170020BA18002061
:104F0000F00B002010B40A4B0A4A197800238B4298
:104F100003DA52F8044BA04208D107490748CA5C9B
:104F200062F07F02CA5410BCFFF7E0BE0133EEE727
:104F3000BA18002068040020A9170020C00400202F
:104F4000054B1A6842F004021A6058699B6940EAEE
:104F5000032080B2704700BF00700D40184A1368EC
:104F600023F00C0313600122164BC3F8A820D3F8DA
:104F7000A820012AFBD10822134BC3F82426E322E0
:104F8000C3F83828D3F86426D207FBD50E48102280
:104F90000023D0F89C16013A01F0010143EA010315
:104FA0004FEA43039BB2F4D1002BF0D0044A190A14
:104FB00003F0FE0351615361EF23C0F838387047A6
:104FC00000700D4000200D40008008400088064B16
:104FD00040BA80B28840995CC2F1080201EA202000
:104FE0001041C0B2704700BFB39D200070B50B4C9C
:104FF0000023616E0A4A04F13800FFF73DFCFFF719
:105000009FFF656E0023B0FBF5F1064A01FB150119
:1050100004F11800BDE87040FFF72EBCF80B00202B
:105020002950200041502000044B5A6E196E520046
:10503000914294BF59665A66FFF7D8BFF80B00201B
:1050400010B500F0CFFA00F061FA002303800446A7
:1050500000F04EF82288930008B1017B51B9023369
:1050600098B200F013FA238873B1BDE810400748E6
:1050700000F04EB9818823445980C188013299805B
:10508000228003F09DFFE5E710BD00BFF80B002074
:105090009DF80030012B04D1024B9A6D5A66FFF740
:1050A000A5BF7047F80B0020F8B50F4616461D4601
:1050B000064C0146064A204600F018F9C4E9167667
:1050C00025660448BDE8F84000F00CB8F80B002055
:1050D000F49A200091502000014803F036BF00BF31
:1050E000640C0020014B1860704700BF680C002062
:1050F000014803F02DBF00BF640C00202DE9F041F2
:1051000005460C480C46164603F022FF08B9BDE8D8
:10511000F0818388A34209D18768002FF7D03346F6
:1051200022462946BC46BDE8F041604703F048FFEF
:10513000ECE700BF640C002070B50E461546074A28
:10514000044600F00FF83046054904F0D0F900237A
:10515000A564A4F84C3084F84E3070BDFC9A200051
:10516000BC9D200038B504461546024A00F0F4F80C
:10517000256438BD049B2000F8B50446C06B0E467C
:10518000154608B100F040F900F01CF9E06388B161
:1051900004F144073146384604F021FA23462946F3
:1051A000054A04F11C00FFF767FB3946204604F06E
:1051B000E5F90120F8BD00BFA7942000054B10B50C
:1051C0001B689847044618B18188012000F058FAFE
:1051D000204610BDE89A200038B5064B05465B68AE
:1051E00098470446A988012000F04AFA201E18BFFB
:1051F000012038BDE89A2000014B9B68184700BF8A
:10520000E89A2000014803F0A0BE00BF6C0C00200B
:1052100081800146014803F0B8BE00BF6C0C00203D
:1052200010B50446054803F093FE00B910BD83880D
:10523000A342FBD003F0C4FEF7E700BF6C0C0020D4
:1052400070B505460C461646FFF7E2FF20462E6174
:105250000249BDE8704004F04AB900BFC69D200075
:10526000F8B506460A480D46174603F071FE044697
:1052700030B93A4629463046BDE8F84004F04AB90C
:10528000A3680BB128469847204603F099FEEEE745
:10529000700C002038B5FFF791FF0546094803F070
:1052A00057FE044628B95DB12846BDE8384004F0F1
:1052B0002CB9636803B19847204603F081FEF0E7FC
:1052C00038BD00BF700C002010B50446FFF784FF06
:1052D00038B100F0F7F8034B034821469B68984724
:1052E000012010BD7C9B20006152200070B5054656
:1052F0000C461646044AFFF7A3FF20466E61034999
:10530000BDE8704004F0F3B8189B2000CD9D20004C
:1053100010B5044604491A2000F0C0F92046BDE843
:10532000104004F0F0B800BF1217002070B504461A
:105330001B200D4600F0BEF9064904F053F938B1C0
:10534000A3691B6823B129462046BDE87040184771
:1053500070BD00BF1217002070B505460C461646FA
:10536000044AFFF7C3FF2046AE610349BDE8704021
:1053700004F0BDB8209B2000D19D20000346074AC1
:105380000749106803448B4281BF0C22054B4FF044
:10539000FF301A6098BF1360704700BFD004002030
:1053A00000800020DC10002008B5044803F00BFE4C
:1053B000BDE80840024803F006BE00BFE00400203C
:1053C000D404002038B50E4803F00DFE054650B158
:1053D0000C4803F008FE0446286030B92946084806
:1053E00003F015FE2546284638BD00F097F804F175
:1053F000B601A4F8800004F1820000F019F9F2E788
:10540000D4040020E004002010B5014604460748FB
:1054100003F013FE48B12168054803F0F8FD21466A
:10542000BDE81040014803F0F2BD10BDD4040020D7
:10543000E004002010B501460446094803F0FDFDD4
:1054400068B12468B4F88010204600F0DBF804F15D
:10545000B60104F18200BDE8104000F0FDB810BDB7
:10546000D404002010B507490B88834208DB064CA2
:1054700080B222880244181A08800120228010BDC0
:105480000020FCE7D2160020D4160020014B188023
:10549000704700BFD216002000487047940C0020CF
:1054A000014B1888704700BFD2160020034A044BF6
:1054B00010781B881844C0B2704700BFCC18002079
:1054C000D41600202DE9F0410C4E338873B100242E
:1054D0000B4B0C4FB3F800800B4B1D783D4421B2B1
:1054E000414504F1010403DB00233380BDE8F08172
:1054F000FFF7DCFF3844435C6B54F0E7D416002020
:10550000D2160020940C0020CC18002008B5FFF71C
:10551000CDFF014B184408BD940C0020F8B50C4B8E
:1055200004461E780B4B1F88F519802D0DDC324682
:10553000094903F0D9F8FFF7E9FF344401463A4638
:10554000204603F0D1F82846F8BD0025FBE700BF50
:10555000CC180020D2160020940C002008B5FFF7CC
:10556000A5FF024B1B88184480B208BDD21600204C
:1055700010B50146FFF7F2FF4318802B12DC431EE3
:10558000094A1BB21A44481C002B05DA074B18784D
:1055900001440120197010BD12F80149013B145457
:1055A0001BB2F1E70020F6E7940C0020CC18002095
:1055B00070B534220021084803F00CF90024074D8F
:1055C000074E28463146013404F009F8042C05F151
:1055D0000205F6D170BD00BFDE160020D6160020F1
:1055E000B09B20000023044A1380044A1380044A1D
:1055F0001370FFF7DDBF00BFD4160020D2160020C5
:10560000CC18002038B50C460546FFF7EBFF802C80
:1056100028BF802429462246034803F065F8034B3F
:1056200020461C8038BD00BF940C0020D2160020FC
:1056300010B5074B03F1340253F8044B934240F882
:10564000044BF9D1034A13680B6053684B6010BDDB
:10565000DE160020D616002010B5074B00F13402EC
:1056600050F8044B904243F8044BF9D10B68034ABD
:1056700013604B68536010BDDE160020D616002064
:10568000024B23F810100120704700BFDE160020E7
:10569000014B33F810007047DE16002008B5044BAC
:1056A0001A3803EB400003F09AFF012008BD00BF49
:1056B000D6160020024B1A3803EB4000704700BF9B
:1056C000D61600200149024803F08CBFB09B200091
:1056D000D8160020084B10B51B689847074B5B682D
:1056E0009847074B5B689847064B5B689847BDE84F
:1056F0001040054B5B681847209A2000509B200003
:105700007C9B2000349B20000C9B2000F8B5FDF70B
:105710007BFB114D074600242E461A20FFF7CAFFD7
:10572000294603F05FFF80B10A20FFF7B1FF0C2389
:1057300003FB0464237A83420CD16068381AB0F505
:10574000206F8CBF00200120F8BD0134102C05F122
:105750000C05E2D10020F7E7140D002070B5194DBB
:1057600000242E461A20FFF7A5FF294603F03AFF32
:10577000013418B9102C05F10C05F3D10C23621E6D
:1057800003FB0464A4F10C057AB90A20FFF780FF3B
:105790003072FDF739FB70601A20FFF78BFFBDE810
:1057A00070400146074803F01ABF2B4654F8180C06
:1057B00054F8141C013A03C354F8100C2C4618601A
:1057C000E0E700BF140D0020014B1888704700BFB0
:1057D000540900202DE9F041012906460F461446E0
:1057E00086B003DC002006B0BDE8F08103A904F018
:1057F00039F80B4603CB1B88206123839DF81130B9
:105800006161002B45D0B51C02AA01A903A803F0D1
:10581000F1FE9DF81380B8F1000F4DD0029B2BB123
:105820006A7815F8023B03EB02239BB2B8F1020F32
:10583000A38332D12046314903F0D1FE6B78237027
:1058400015F8023B63709DF81580B8F1000F4DD03C
:10585000019B002B37D06A7815F8023B03EB02233B
:10586000029A9BB2E38302B9A383B8F1020F2DD150
:10587000224904F1080003F0B2FE6B78237215F898
:10588000023B6372A81B3B1A8742C4E90E53A9DB93
:10589000A9E7B378F51CA376B6E7B8F1030FD2D128
:1058A00005F108021346611E13F8010D9D4201F82F
:1058B000010FF9D11546C6E72046104903F08FFEC7
:1058C000A4F81C80BFE7A38BE383CEE7B8F1030FF6
:1058D000D8D105F10802134604F1080113F8010DAF
:1058E000AB4201F8010BF9D11546CBE7034904F1AE
:1058F000080003F074FEA4F81E80C3E7B09B2000EC
:1059000030B591B00546FFF75FFF4FF6FF73984241
:1059100004D14FF0FF34204611B030BD40220021A9
:10592000684602F057FF404B1A782AB901221A70D4
:10593000FFF706FB3D4B18701420FFF7A9FE8DF80A
:1059400010001320FFF7A4FE8DF81200FFF7BAFE37
:105950000446002848D000238DF813308DF8153008
:10596000002301248DF814308DF818404DB10A2021
:10597000FFF78EFE00283FD00A20FFF789FE8DF842
:105980001A0002248DF81940FFF71EFFADF81C0025
:10599000FFF798FE00283CD04FF6FF738DF81740B4
:1059A000ADF80030FFF710FFADF81E001A20FFF72A
:1059B00081FE014602A803F012FEFFF7A7FD0E903C
:1059C000FFF76EFD0F90684603F0BEFE0446002D03
:1059D000A1D0FFF7CDFD00289BD0FFF75DFD01466C
:1059E000684603F0F9FE96E70B20FFF751FE8DF8AD
:1059F00015408DF81300B3E70C4B1A7802B91C70F0
:105A000019780A204A1C1A708DF81A10FFF738FE10
:105A1000B7E71B20FFF74EFE0146684603F0DFFDA7
:105A20008DF81740BEE700BFCD180020CE1800202B
:105A3000014BDB68184700BF7C9B2000014B5B6972
:105A4000184700BF509B2000014B9B69184700BFBF
:105A5000509B2000024BD86900B10047704700BF3F
:105A6000509B200070B590F829400F4B042C214624
:105A700028BF04210124DB698C4005469847012892
:105A800038BF0120013C444305D0FFF759FAB0FB71
:105A9000F4F303FB14042B46214605F10800034AE6
:105AA000BDE87040FEF7E8BE509B2000215C20005E
:105AB0002DE9F04106461B200F46FFF7FBFD494B41
:105AC00005461A78484C22B901221A70FFF738FAB5
:105AD000208023880BB90123238021880A204B1CB6
:105AE0002380FFF7CDFD414803F032FA0446002839
:105AF00047D13F4803F077FA0446002868D029468A
:105B0000201D03F06CFD002304F12C00C4E90B30D0
:105B1000238503F01AFA2146344803F036FA206B45
:105B200003F047FA072853DC324803F05CFA0546D5
:105B3000002841D0304803F056FAA860C0B3FFF700
:105B400041FC686080B30920D5F80880FFF7A0FD0C
:105B500008BB082388F808300D20C8E90067FFF764
:105B600097FD01282946206B1BD103F01BFA206BFF
:105B700003F0EEF9854233D12046BDE8F041FFF74E
:105B800071BF2946201D03F02DFD0028C7D12046F6
:105B900003F016FAAAE70920FFF77AFD88F8080053
:105BA000DAE703F0F2F9E2E7A968134803F02FFA05
:105BB0002946104803F02BFA206B03F0FAF938B9A4
:105BC00021460A4803F0CEF92146094803F01FFA9E
:105BD00039463046BDE8F0410123042203F062BE9D
:105BE000BDE8F081CF18002014170020340E0020EB
:105BF000F804002004050020EC04002008B5054846
:105C000003F0E1F9044803F0DEF9BDE80840034879
:105C100003F0D9B904050020EC040020F8040020AA
:105C200013B5044668B1006B03F092F9024640B127
:105C30002146054B0548DB68019302B0BDE81040E2
:105C4000184702B010BD00BF509B2000CD5C200063
:105C50002DE9F0470D4614468B680646D3E90078D7
:105C6000106B92F8289003F07DF96868FFF7CCFB81
:105C7000A968124803F0CBF92946114803F0C7F987
:105C8000206B03F065F960B1002320462385FFF700
:105C9000E9FE4B46324641463846BDE8F04703F040
:105CA00001BE04F10800FEF729FE2146054803F075
:105CB00059F92146044803F0AAF9EAE7EC04002068
:105CC00004050020340E0020F80400202DE9F041E6
:105CD0000E461746044620B1006B03F039F905461D
:105CE00008B9BDE8F0810A21686803F072FC8046BB
:105CF0000A20FFF7CDFC804546D0284603F060F926
:105D0000EDE794F8282000203A4484F8282029461A
:105D1000224684F82900BDE8F041FFF799BF00232F
:105D200084F8293094F82830DA19D2B284F828207F
:105D30000B7A93421CD8224629460220EBE794F8BE
:105D40002930DA19D2B2052A84F8292007D900228D
:105D500094F8283084F82920013384F8283094F806
:105D600028200B7A9A4203D3224629460120D2E703
:105D70002046FFF777FE6868BDE8F04103F023BCDA
:105D8000224629463046C6E7A9680029A9D0032E35
:105D9000F6D801A353F826F0035D20003F5D2000F4
:105DA0001F5D2000E35C2000014B1B6A184700BF09
:105DB000209A20002DE9FF47804689461A203F4956
:105DC000FFF76CFC01210B20FFF75AFC3C4B5B6892
:105DD0009847002870DBFFF75FFB3A4D90F802A070
:105DE0006C68FFF759FB0646FFF7B8FB01463046E3
:105DF000A047FFF767FCAF690646B847044610B1F5
:105E0000012200240CE0A6B1AB680193FFF7A6FBCA
:105E1000019B9847024688B1022814BF0422012240
:105E200040460123494603F03DFD204604B0BDE84D
:105E3000F087EB6998470028E2D1E5E7002E39D1D9
:105E4000FDF708F80446FDF777F9C4F1FF2404F5DF
:105E50007F04F334FCF7FEFFC442FBD4B847EE697D
:105E6000E8B1FCF7F7FF0446FDF766F9C4F1FF243B
:105E700004F57F04EB34FCF7EDFFC442FBD4B047DC
:105E80000446A0B103212B6903A89847032803D136
:105E90009DF80E3053450CD000240122C0E7B047D6
:105EA00004460028DDD16B6998470028D9D002222A
:105EB000B6E700220124B3E70522A2E7121700206B
:105EC000709B2000209A2000044B82B018B11B6AFE
:105ED000019302B018475B6AFAE700BF209A2000DE
:105EE00007B5FFF7DDFA03281BD00F4B9B689847D7
:105EF000002816DB1B20FFF7DDFB0C4903F072FBCB
:105F000058B1FFF703FC60B9FFF728FC084BDB68CA
:105F1000019303B05DF804EB1847FFF7D3FB0028AB
:105F2000EFD103B05DF804FB709B20001217002036
:105F3000349B200008B5024B1B689847023008BD0F
:105F4000289B200038B50C4B9B689847041E02DA4A
:105F50004FF0FF3038BDFFF7D9FA03780546002B24
:105F6000F6D10220FFF77EFA0028F1D06878FFF71B
:105F70008DFAA01CEEE700BF289B200070B5022020
:105F8000FFF7F6FA10B94FF0FF3070BDFFF784FA53
:105F9000002606700446FFF783FA6070FFF7DEFA0A
:105FA0000446FFF7C7FF20442A2812DCC0F12B006B
:105FB000C4B2FFF7ABFA0546FFF772FA2246314644
:105FC000284402F007FCFFF76BFA204480B2FFF789
:105FD0005DFA044B5B689847041ED4DBFFF772FA46
:105FE000A01CD2E7289B2000014B9B68184700BFEC
:105FF0000C9B200070B504460D4614200121FFF7CC
:106000003FFB034B29462046BDE870409B6818477C
:10601000349B200008B501F047FE084901F0E8F87C
:1060200001F096FE01F040FE054901F087FD01F008
:106030008FFE3228B8BF322080B208BDCA5455C086
:106040004D558542F8B50024084D094E094F2B786F
:10605000013BA34200DCF8BD33681B5D0134012B1A
:10606000F5D121463846FDF7D9FFF0E7E8180020C2
:10607000B40F0020EC9D200008B5FDF765F8BDE8E1
:106080000840014802F0C1BE019E20002DE9F04702
:106090000A2002F0A1FE1A48FDF7C0FF0024194EA5
:1060A000194F3378A34204DCBDE8F0470A2002F020
:1060B00093BE3B684FEA840853F824301B887BB9B1
:1060C000302002F089FE0125DFF84090DFF840A083
:1060D0003378AB4206DC3B2002F07EFE0134E0E781
:1060E0003120EEE73B6853F8083033F8153023B918
:1060F0005046FDF793FF0135EAE74846F9E700BF50
:106100000D9E2000E8180020000F0020259E200092
:10611000229E2000F8B50E4D0E486A782978FDF7CA
:106120007DFF01240C4E0D4F3378A34204D8BDE807
:10613000F8400A2002F050BE05EB440315F8141095
:1061400038465A780134FDF769FFE4B2ECE700BF46
:106150007A170020289E2000E8180020479E200083
:1061600001222DE9F043DFF8F0803C4C98F8001054
:106170003B48675C9BB030F81730DFF8E890ADF82B
:106180004E30134699F80050AA424BDB0026364A9F
:1061900030F8115032F81120DBB2ADF834500DF167
:1061A000340C002F4BD165468DF84860ADF84A207D
:1061B0008DF84C308DF84D1001AC0FCD0FC40FCDC4
:1061C0000FC495E80F0007C401AD23800EAC0FCDBE
:1061D0000FC40FCD0FC495E80F0007C4238001231F
:1061E0008DF834301AAB03EB460636F8643C3421A4
:1061F0006046ADF80030FFF705FA032269461B48F8
:1062000003F01DF999F8002098F80030013A934204
:106210001CDA0133164888F80030FEF737FB1BB054
:10622000BDE8F083A55C8D4207D130F812601AAD4D
:1062300005EB430525F81A6C01330132A2E730F86B
:1062400017500136E75D2CF81650AAE73946094881
:10625000FEF734FDE3E700BFE2180020E918002054
:106260007A170020E818002052170020081000209C
:1062700058100020300500202DE9F04F83B0654C08
:1062800000AF21786448FDF7C9FE4CF25030FCF7AE
:10629000CFFDFFF7FBFE4CF25030FCF7C9FDFFF7D6
:1062A00039FF4CF25030FCF7C3FD5C4802F0ADFD05
:1062B0006A462478C7F804D0631E3B6004FB04F3ED
:1062C0009B000733DB08A2EBC3039D46EA46A6000A
:1062D000F31D03F4FF63ADEB030D514B6D46D3F893
:1062E00000E050460023DFF83C919C420BDCDFF8D5
:1062F000389100234A469C421BDD5AF82310013393
:1063000022F8021BF7E7014600225EF823B03BF8B3
:1063100012C0BCF1000F09D1C1F8009001329442C3
:1063200001F10401F3DC01333044DEE7C1F800C0C1
:10633000F4E7224600213D4802F04CFA32460021A3
:10634000284602F047FA0023A9F8003001232B6009
:106350003A689A4242DC354ED7F804D03448FDF70B
:106360005DFE31783348FDF759FE0124294DDFF8F1
:10637000C8802B78A34247DC0A2002F02DFD4CF2A6
:106380005030FCF755FD2D4802F03FFD2B78012BD6
:1063900008D901222A4B40211A702A4800232A4A90
:1063A000FEF76AFA0C37BD46BDE8F08F30F802EB15
:1063B000E64505DA55F82120002A04BF8846F44650
:1063C00001318C42F2DC0122484645F828200022A7
:1063D00006FB08AE944206DC0133B9E748460021CB
:1063E000DFF840C0EDE755F8221051B95EF82210F1
:1063F000B0F800B061445945BEBF01800B4902F8B6
:10640000018001320230E5E7315D4046FDF706FECE
:106410000134AEE7E81800204F9E2000719E200056
:10642000000F00207F96980052170020E9180020E6
:106430008B9E2000A59E2000A49E2000A89E2000E8
:10644000E21800205810002061612000F7B50F4DC0
:1064500000242F460E4EADF80400307801A9A0426A
:106460000BDC07EB400003F0BAF834780134E4B2F7
:106470003470013C204603B0F0BD284603F0B2F86A
:1064800002350028F6D10134E7E700BF7A17002073
:10649000E81800202DE9F74F1D4604460846174628
:1064A000FFF7D4FF012D4FEA80084FEA400505D0E1
:1064B0000026B74215DC03B0BDE8F08F194B1E78FB
:1064C000194B1A680023194602EB080C9E42EFDDB7
:1064D000DCF8000020F8131052F823000133415378
:1064E000F4E72088FFF7B2FF0F4B8346D3F8009004
:1064F00059F808A03AF81030B4F9020001936BB1D2
:10650000FFF788FD019B0344581083B22AF81B3023
:1065100059F82B20013653530434CAE7FFF77AFDAC
:10652000F3E700BFE8180020000F00202DE9F0413C
:1065300000242546144E154FDFF854803378013B74
:10654000A3420EDC012D05D1FFF7A0FD4CF2503027
:10655000FCF76EFCFFF776FDBDE8F0410D48FEF755
:1065600095B9FCF75BFC3B6853F82430C01A05284A
:1065700008DDD8F800301A5D002A4FF0010208BF8C
:1065800001251A550134D9E7E818002088100020A9
:10659000B40F0020440F00202DE9F341E846174EC8
:1065A0000025344688E80300154F3B78AB420DDCEC
:1065B000BDF80020042024F82320FFF769F83B7879
:1065C00004EB8304013360803B7012E031464046A7
:1065D00003F008F8043678B104EB85040420B4F91C
:1065E0000250FFF755F800B2284400EBD07040107D
:1065F000608002B0BDE8F0810135D6E72A1700209F
:10660000E718002007B50B49684602F0E8FF0023B1
:10661000062168468DF80430FEF7F4FF0648FEF7C1
:1066200077FE064802F0F1FB0122054B1A7003B019
:106630005DF804FB12170020240F0020BE9E2000EE
:10664000E4180020092307B5062168468DF80430B8
:10665000FEF7D8FF0248FEF75BFE03B05DF804FBCF
:10666000240F002070B5814C92B02578002D53D1B5
:1066700003AE3046FEF752FF9DF8103013BB0420E6
:10668000FFF706F800B2413003DA794802F0BDFBAB
:1066900016E096E80300FFF77FFF764905A802F0B1
:1066A0009EFF062105A8FEF7ADFF3146724802F0B5
:1066B00065FF724B1A781AB986217148FEF7D6FA2F
:1066C00012B070BD012BFBD10420FEF7E1FF00B238
:1066D0004130F5DB42F2AC63BDF80E209A42EFD8B0
:1066E000042607202670FCF77FF93046FCF774F982
:1066F000604905A802F073FF02238DF8183042F2BA
:106700000F73062105A8ADF81630FEF77BFF5D4834
:10671000FEF7FEFD2A46CFE7022D54D10420FEF7F6
:10672000B7FF00B24130CBDB01AE3046FEF7F6FEDC
:106730009DF80850022D20D196E8030003ACFFF726
:106740002BFF20464B4902F04AFF8DF810500325DD
:106750004D4B8DF814501B88ADF80E3094E80300B3
:106760000690ADF81C1005A83421FEF74BFF2A4611
:106770003146464802F063FEA2E7012D16D142F2EF
:10678000AC63414D2A889A429AD93046404902F07A
:1067900029FF002894D00420FEF77AFF00B2FFF70B
:1067A00039FCBDF8064004442C8089E7092D87D1C7
:1067B000FFF748FF374800234021374A2570FEF78E
:1067C0005BF8364862E7062D3DD103A8FEF7A6FE2A
:1067D0009DF81060012E29D10420FEF759FF00B268
:1067E0004130FFF66DAF42F2AC63BDF80E209A4225
:1067F0003FF666AF042607202670FCF7F5F8304612
:10680000FCF7EAF81B4905A802F0E9FE02238DF81F
:10681000183042F20F73294605A8ADF81630FEF77E
:10682000F1FE1848FEF774FD002245E7092E7FF4BB
:1068300047AFFFF707FF267000234021164A15488F
:10684000FEF71AF83CE7092D3FF43AAF05A8FEF72A
:1068500065FE9DF81850092D7FF432AF104802F004
:10686000D4FAFFF7EFFE2570E6E700BFE31800203B
:10687000D69E2000121700208C100020E418002063
:1068800010050020240F00205609002008100020C9
:1068900016170020E80F002079602000029F2000DA
:1068A000109F200013B500240E4B68460E491C7043
:1068B00002F095FE02238DF8043042F20F73062198
:1068C0006846ADF80230FEF79DFE0848FEF720FD51
:1068D000074802F09AFA224686210648FEF7C6F9D2
:1068E00002B010BDE718002012170020240F00206E
:1068F0001F9F20001005002007B50E4B1B78022BB0
:1069000011D168460C4902F06AFE0C4B06211B8827
:106910006846ADF8023001238DF80430FEF772FEB0
:106920000748FEF7F5FC074803B05DF804EBFDF7F8
:10693000ADBF00BFE3180020121700205609002049
:10694000240F0020040F00202DE9F047048805469D
:106950004CB140F253539C424BD1862938D1274841
:1069600002F053FA34E04FF002090720DFF890807C
:10697000FCF73AF80220FCF72FF8224888F800903C
:1069800002F043FA4C2001F0C7FB1F4E1F4F30604E
:10699000132001F0C1FB88F80090A146DFF8708059
:1069A000386098F80030013BA34217DC00234FF415
:1069B0000071184A1848FDF75FFF4FF4207117481F
:1069C0000023174AFDF758FF8021164802F09DFA70
:1069D00040F2535301202B80BDE8F087D6F800A089
:1069E000FCF71CFA3B684AF8240003F804900134D1
:1069F000D7E7002303800320EEE700BF959F200028
:106A0000E31800207E9F200088100020B40F002093
:106A1000E81800202D652000440F0020040F0020FE
:106A2000F96820003C0F0020F0B5144E054633787D
:106A300091B0012B19D901AC2046114902F0CFFDCC
:106A40000523ADF808508DF80C3094E8030004904D
:106A5000ADF8141003A83421FEF7D4FD0124094D2C
:106A6000094F337802359C4201DB11B0F0BD03229F
:106A70002946384602F0E3FC0134F2E7E61800202C
:106A800012170020161700200810002000212DE901
:106A9000F0410B4642F20F764A4D4B4A2C789AB0A1
:106AA0009C4218DC42F20F739E42484C30D10625BE
:106AB000474802F0AAF9474B07201D70FBF794FFE7
:106AC0000120FBF789FF2378012B0CD800232370CA
:106AD0001AB0BDE8F08132F8020BB042BCBFD9B2A7
:106AE00006460133DCE734210DEB01008DF834500C
:106AF000FEF788FD0125384E384F237802369D4237
:106B0000E4DA03223146384602F099FC0135F4E715
:106B1000334F31484FEA810807EB810102F05FFDF6
:106B200023780BB9012323702B4C297863782278C2
:106B30002C48FDF773FA2C4901A802F050FD2146BC
:106B40000DF1060002F04BFD2B780DF10A028DF8D5
:106B50000830234B03F1280153F8040B8B4242F811
:106B6000040BF9D104230EAD0DEB03048DF8343082
:106B70000FCC0FC50FCC0FC594E80F0007C534210B
:106B80002B800DEB0100FEF73DFD03221249134857
:106B900002F055FC4744154802F037F9B7F90200F6
:106BA000FFF738FA124B304480B21880FFF73CFFF1
:106BB00002220021074B0F481A701AB0BDE8F041BD
:106BC000FEF77CB8E718002052170020E6180020D6
:106BD0009A9F2000E31800201617002008100020BC
:106BE0002A170020B99F200012170020EC9F2000D8
:106BF000560900202005002070B5144E13460C469F
:106C00004A7813480978FDF709FA3378022B1CD12A
:106C1000104B1D78CDB921460F4802F0E3FCA0B11E
:106C20000720FBF7E1FE0120FBF7D6FE42F20F70D2
:106C30000A4B188003233370FFF7F6FE2A46BDE89F
:106C4000704086210648FEF711B870BDE318002099
:106C500009A02000E5180020161700205609002082
:106C60002005002073B5114B0C461B78BBB96D464F
:106C70002846FEF753FC042026786478FEF708FDCA
:106C8000224603B231460A48FDF7C8F90420FEF750
:106C9000FFFC00B2413004DA064802F0B6F802B058
:106CA00070BD95E80300FFF777FCF8E7E3180020D4
:106CB00057A02000D69E20002DE9F04FA5B017A8C0
:106CC0000C46FEF72BFC9DF85C6026BB994B1B78AD
:106CD000BBB10BAC18AD0FCD0FC40FCD0FC495E8F1
:106CE000070084E8070033469DF82E20BDF82C10DD
:106CF0000CA8FFF7CFFB012286218F48FDF7B6FFD6
:106D00004EE0342117A8FEF77DFC03228B498C4806
:106D100002F095FB44E0012E5ED19DF87430002B0B
:106D200041D1884918A802F05DFC00283BD00BAD8A
:106D300018AC0FCC0FC50FCC0FC594E80F0007C5DA
:106D4000814ABDF8761014469DF878009DF8796068
:106D50002B800DF146030DF15A0553F8047BAB422D
:106D600042F8047BF9D1794D794B28707948198024
:106D7000FDF754F92B7802965A1E04EB420149782C
:106D80007548019114F81220009262782178FDF77D
:106D900045F90222714B002171481A70FDF78EFFF0
:106DA00025B0BDE8F08F9DF874308BB1013B24AA6B
:106DB000DBB28DF8743002EB430333F8303C3421FE
:106DC00017A8ADF82C30FEF71DFC03220BA99EE797
:106DD000644802F01AF8E3E7022E7BD15F4B1B7880
:106DE000022BDDD1534B0BAE1B78002B64D007ACCC
:106DF00018AB0FCB84E80F009DF860A09DF861B040
:106E00008DF81CA08DF81DB0BDF81C0088461746F3
:106E1000BDF96C90FFF71AFB534AC5B2126805F131
:106E20008043013B05930492FBF7F8FFDDE904235F
:106E300042F823004D4B013D1B685A5D012A03D1E6
:106E400000225A55FFF722F9CDE90887ADF82890BE
:106E500094E80F0086E80F00BDF82C00FFF7F6FA63
:106E60005A46C3B251464248FDF7D8F84146414818
:106E7000FDF7D4F849464048FDF7D0F839463F4879
:106E8000FDF7CCF83E4802F052F8002888D0B9F55A
:106E9000FA7F3C4B06DAFF22802139481A6202F061
:106EA00034F87DE749F640429045F4DCB7F57A7F47
:106EB000F1DB00221A6273E7334801F0A6FF224B90
:106EC00034211B8817A8ADF82C30FEF79BFB03225A
:106ED00031461CE7032E5DD1DDE91801174D00276F
:106EE0002C46ADF820100899284E07900B90ADF86D
:106EF000301033789F4212DBBDF82C20042024F898
:106F00002320FEF7C5FB3378214ABDF82E1004EB91
:106F1000830422F8131001336080337040E7294660
:106F20000BA802F05FFB043500287FF439AF01376E
:106F3000DFE700BFE5180020100500202A17002019
:106F4000081000201217002016170020E618002055
:106F50005609002029A120003FA12000E3180020AD
:106F600020050020ABA1200088100020B40F0020D5
:106F7000CFA1200005A220001BA2200031A22000EA
:106F80003C0F002000B00D4048A22000E718002070
:106F900052170020042E40F08280654B1B78002B96
:106FA00060D00BAC18AD0FCD0FC40FCD0FC495E85A
:106FB0000F0007C42380BDF82C00FFF747FA00211B
:106FC0005C4B5D4A1B680446034403F8011C1768C8
:106FD00000F18045FBF722FF013D47F82500012322
:106FE0009DF83020BDF82C100DF13200FFF752FA59
:106FF000BDF82E00FFF72AFA504D514E28550A20B1
:1070000001F0EAFE31784F48FDF708F84CF25030B5
:10701000FBF70EFFFFF73AF84CF25030FBF708FF92
:10702000FFF778F84CF25030FBF702FF4648FCF7C8
:10703000F5FF29784548FCF7F1FF0124444F3378E8
:107040009C4209DB0A2001F0C7FE4CF25030FBF7EE
:10705000EFFEFEF7F7FFA3E6295D3846FCF7DEFFFB
:107060000134ECE73B490DF1620002F0BBFA78B164
:10707000394B3A4A187818A90130C0B21870137801
:10708000013801331370364B03EB400002F0A7FACE
:10709000342117A8FEF7B6FA0322314937E6052E48
:1070A00024D12F4818A902F09DFA00283FF478AEA9
:1070B0000420FEF7EDFA00B2FEF7ACFFBDF8644025
:1070C0002044284C80B22080FFF7AEFC42F2AC6333
:1070D000228807209A4205D9FBF786FC0120FBF79E
:1070E0007BFC5DE6FBF780FC0220F8E7062E7FF4D0
:1070F00057AE1D4D2B78022B7FF452AE2146184817
:1071000002F070FA00283FF44BAE032300242B70EA
:10711000114B07201C70FBF767FC0120FBF75CFCA0
:10712000124801F072FE224686211148E6E500BFB2
:10713000E5180020B40F002088100020E918002076
:10714000E81800204F9E20008B9E2000A59E200066
:10715000A49E200012170020E6180020E718002047
:107160001617002056090020E318002062A2200014
:107170002005002007B50C4B01A99B6A0120984708
:107180000A4801F042FE0A4B0A4819785A78FCF77F
:1071900045FF01990848FCF741FF084801F035FE1A
:1071A00003B05DF804FB00BF209A20000BA3200071
:1071B0001217002032A3200047A320005FA3200065
:1071C000002310B50748084C0380214602F00AFA54
:1071D00030B1627821780548BDE81040FCF71EBF49
:1071E00010BD00BFA21700201217002087A32000A7
:1071F0004FF0FF0C1CEAD0521EBF1CEAD15392EA9A
:107200000C0F93EA0C0F6FD01A4480EA010C400275
:1072100018BF5FEA41211ED04FF0006343EA5010CF
:1072200043EA5111A0FB01310CF00040B1F5000F11
:107230003EBF490041EAD3715B0040EA010062F1C0
:107240007F02FD2A1DD8B3F1004F40EBC25008BFAA
:1072500020F00100704790F0000F0CF0004C08BFC8
:1072600049024CEA502040EA51207F3AC2BFD2F195
:10727000FF0340EAC250704740F400004FF00003A3
:10728000013A5DDC12F1190FDCBF00F000407047DD
:10729000C2F10002410021FA02F1C2F1200200FA1B
:1072A00002FC5FEA310040F1000053EA4C0308BFE2
:1072B00020EADC70704792F0000F00F0004C02BF33
:1072C000400010F4000F013AF9D040EA0C0093F0AE
:1072D000000F01F0004C02BF490011F4000F013B08
:1072E000F9D041EA0C018FE70CEAD15392EA0C0F76
:1072F00018BF93EA0C0F0AD030F0004C18BF31F0E1
:10730000004CD8D180EA010000F00040704790F0B6
:10731000000F17BF90F0004F084691F0000F91F05A
:10732000004F14D092EA0C0F01D142020FD193EA20
:107330000C0F03D14B0218BF084608D180EA0100A8
:1073400000F0004040F0FE4040F40000704740F084
:10735000FE4040F44000704781F0004102E000BF71
:1073600083F0004330B54FEA41044FEA430594EA05
:10737000050F08BF90EA020F1FBF54EA000C55EA40
:10738000020C7FEA645C7FEA655C00F0E2804FEA11
:107390005454D4EB5555B8BF6D420CDD2C4480EAF3
:1073A000020281EA030382EA000083EA010180EA23
:1073B000020281EA0303362D88BF30BD11F0004F71
:1073C0004FEA01314FF4801C4CEA113102D04042A7
:1073D00061EB410113F0004F4FEA03334CEA1333E2
:1073E00002D0524263EB430394EA050F00F0A780FA
:1073F000A4F10104D5F1200E0DDB02FA0EFC22FAF5
:1074000005F2801841F1000103FA0EF2801843FAE8
:1074100005F359410EE0A5F120050EF1200E012AD9
:1074200003FA0EFC28BF4CF0020C43FA05F3C01817
:1074300051EBE37101F0004507D54FF0000EDCF190
:10744000000C7EEB00006EEB0101B1F5801F1BD339
:10745000B1F5001F0CD349085FEA30004FEA3C0C3D
:1074600004F101044FEA445212F5800F80F09A8033
:10747000BCF1004F08BF5FEA500C50F1000041EB37
:10748000045141EA050130BD5FEA4C0C404141EB3B
:107490000101013C28BFB1F5801FE9D291F0000F36
:1074A00004BF01460020B1FA81F308BF2033A3F1E5
:1074B0000B03B3F120020CDA0C3208DD02F1140CDC
:1074C000C2F10C0201FA0CF021FA02F10CE002F117
:1074D0001402D8BFC2F1200C01FA02F120FA0CFC10
:1074E000DCBF41EA0C019040E41AA2BF01EB045159
:1074F000294330BD6FEA04041F3C1CDA0C340EDC57
:1075000004F11404C4F1200220FA04F001FA02F399
:1075100040EA030021FA04F345EA030130BDC4F157
:107520000C04C4F1200220FA02F001FA04F340EA4C
:107530000300294630BD21FA04F0294630BD94F0FD
:10754000000F83F4801306BF81F480110134013DE4
:107550004EE77FEA645C18BF7FEA655C29D094EA55
:10756000050F08BF90EA020F05D054EA000C04BFD3
:107570001946104630BD91EA030F1EBF00210020BE
:1075800030BD5FEA545C05D14000494128BF41F05D
:10759000004130BD14F580043CBF01F5801130BDC1
:1075A00001F0004545F0FE4141F470014FF000004C
:1075B00030BD7FEA645C1ABF194610467FEA655CFD
:1075C0001CBF0B46024650EA013406BF52EA03359F
:1075D00091EA030F41F4002130BD00BF90F0000F8D
:1075E00004BF0021704730B54FF4806404F13204C9
:1075F0004FF000054FF0000150E700BF90F0000F82
:1076000004BF0021704730B54FF4806404F13204A8
:1076100010F0004548BF40424FF000013EE700BF78
:1076200042004FEAE2014FEA31014FEA02701FBF08
:1076300012F07F4393F07F4F81F06051704732F03A
:107640007F4208BF704793F07F4F04BF41F4002191
:10765000704730B54FF4607401F0004521F00041EF
:107660001CE700BF50EA010208BF704730B54FF079
:1076700000050AE050EA010208BF704730B511F07A
:10768000004502D5404261EB41014FF4806404F1B2
:1076900032045FEA915C3FF4D8AE4FF003025FEA38
:1076A000DC0C18BF03325FEADC0C18BF033202EBBC
:1076B000DC02C2F1200300FA03FC20FA02F001FA16
:1076C00003FE40EA0E0021FA02F11444BDE600BFB9
:1076D00070B54FF0FF0C4CF4E06C1CEA11541DBF68
:1076E0001CEA135594EA0C0F95EA0C0F00F0DEF833
:1076F0002C4481EA030621EA4C5123EA4C5350EA18
:10770000013518BF52EA033541F4801143F4801368
:1077100038D0A0FB02CE4FF00005E1FB02E506F0F9
:107720000042E0FB03E54FF00006E1FB03569CF04E
:10773000000F18BF4EF0010EA4F1FF04B6F5007F54
:1077400064F5407404D25FEA4E0E6D4146EB0606C6
:1077500042EAC62141EA55514FEAC52040EA5E504F
:107760004FEACE2EB4F1FD0C88BFBCF5E06F1ED8F9
:10777000BEF1004F08BF5FEA500E50F1000041EB30
:10778000045170BD06F0004646EA010140EA0200DD
:1077900081EA0301B4EB5C04C2BFD4EB0C0541EAFF
:1077A000045170BD41F480114FF0000E013C00F314
:1077B000AB8014F1360FDEBF002001F0004170BD38
:1077C000C4F10004203C35DA0C341BDC04F1140451
:1077D000C4F1200500FA05F320FA04F001FA05F2DD
:1077E00040EA020001F0004221F0004110EBD370AA
:1077F00021FA04F642EB06015EEA430E08BF20EAD6
:10780000D37070BDC4F10C04C4F1200500FA04F378
:1078100020FA05F001FA04F240EA020001F000410A
:1078200010EBD37041F100015EEA430E08BF20EA7D
:10783000D37070BDC4F1200500FA05F24EEA020EC5
:1078400020FA04F301FA05F243EA020321FA04F0F4
:1078500001F0004121FA04F220EA020000EBD370AB
:107860005EEA430E08BF20EAD37070BD94F0000FAB
:107870000FD101F00046400041EB010111F4801FDF
:1078800008BF013CF7D041EA060195F0000F18BF90
:10789000704703F00046520043EB030313F4801FCC
:1078A00008BF013DF7D043EA0603704794EA0C0F86
:1078B0000CEA135518BF95EA0C0F0CD050EA41069C
:1078C00018BF52EA4306D1D181EA030101F0004119
:1078D0004FF0000070BD50EA410606BF1046194641
:1078E00052EA430619D094EA0C0F02D150EA01364D
:1078F00013D195EA0C0F05D152EA03361CBF10468E
:1079000019460AD181EA030101F0004141F0FE412C
:1079100041F470014FF0000070BD41F0FE4141F4B0
:10792000780170BD70B54FF0FF0C4CF4E06C1CEAB0
:1079300011541DBF1CEA135594EA0C0F95EA0C0F65
:1079400000F0A7F8A4EB050481EA030E52EA033520
:107950004FEA013100F088804FEA03334FF0805541
:1079600045EA131343EA12634FEA022245EA11156E
:1079700045EA10654FEA00260EF000419D4208BF1F
:10798000964244F1FD0404F5407402D25B084FEACC
:107990003202B61A65EB03055B084FEA32024FF478
:1079A00080104FF4002CB6EB020E75EB030E22BFD5
:1079B000B61A754640EA0C005B084FEA3202B6EB95
:1079C000020E75EB030E22BFB61A754640EA5C0044
:1079D0005B084FEA3202B6EB020E75EB030E22BFD4
:1079E000B61A754640EA9C005B084FEA3202B6EBD5
:1079F000020E75EB030E22BFB61A754640EADC0094
:107A000055EA060E18D04FEA051545EA16754FEAF5
:107A100006164FEAC30343EA52734FEAC2025FEA13
:107A20001C1CC0D111F4801F0BD141EA00014FF0A2
:107A300000004FF0004CB6E711F4801F04BF014373
:107A40000020B4F1FD0C88BFBCF5E06F3FF6AFAE8F
:107A5000B5EB030C04BFB6EB020C5FEA500C50F11F
:107A6000000041EB045170BD0EF0004E4EEA1131A2
:107A700014EB5C04C2BFD4EB0C0541EA045170BDA9
:107A800041F480114FF0000E013C90E645EA060EED
:107A90008DE60CEA135594EA0C0F08BF95EA0C0F1B
:107AA0003FF43BAF94EA0C0F0AD150EA01347FF463
:107AB00034AF95EA0C0F7FF425AF104619462CE73A
:107AC00095EA0C0F06D152EA03353FF4FDAE10469D
:107AD000194622E750EA410618BF52EA43067FF4EE
