:020000040020DA
:10200000D8200020A92720006B8C2000698C20009C
:10201000698C2000698C2000698C20000000000081
:10202000000000000000000000000000E19420001B
:10203000698C200000000000FF942000ED8C20003F
:10204000FF8C2000058D20000B8D2000118D2000BD
:1020500000000000F38C2000F98C2000698C200027
:10206000698C20000000000000000000000000005B
:102070000000000000000000698C2000000000004B
:102080000000000000000000698C2000698C200026
:10209000698C2000698C2000698C2000698C2000EC
:1020A000698C2000698C2000698C2000698C2000DC
:1020B000698C2000698C2000698C2000698C2000CC
:1020C000698C2000698C2000698C2000698C2000BC
:1020D000698C2000000000000000000000000000EB
:1020E00000000000000000000000000000000000F0
:1020F0000000000000000000D13D2000E13D200074
:1021000000000000000000000000000000000000CF
:1021100000000000000000000000000000000000BF
:1021200000000000000000000000000000000000AF
:10213000000000000000000000000000000000009F
:10214000000000000000000000000000000000008F
:10215000000000000000000000000000000000007F
:10216000000000000000000000000000000000006F
:10217000000000000000000000000000000000005F
:10218000000000000000000000000000000000004F
:10219000000000000000000000000000000000003F
:1021A000000000000000000000000000000000002F
:1021B000000000000000000000000000000000001F
:1021C000000000000000000000000000000000000F
:1021D00000000000000000000000000000000000FF
:1021E00000000000000000000000000000000000EF
:1021F00000000000000000000000000000000000DF
:1022000000000000000000000000000000000000CE
:1022100000000000000000000000000000000000BE
:1022200000000000000000000000000000000000AE
:10223000000000000000000000000000000000009E
:10224000000000000000000000000000000000008E
:10225000000000000000000000000000000000007E
:10226000000000000000000000000000000000006E
:10227000698C2000B13C2000D53C20004133200077
:102280002D3F2000612E2000698C200000000000FE
:102290002DE9F04F07880646144600259BB087B10C
:1022A00040F26E439F4240F0598286296DD1002A48
:1022B00061D1BF4B1B78033B012B3ED8A621BD4803
:1022C00056E0BD4B0F21DB6A01209847BB4B8021B4
:1022D0009B684FF48070984704F0F4FE04F018FFF8
:1022E0008221B74AB74803F009F88121B64AB748B6
:1022F00002F0CEFF8321B64AB64802F0EFFEAC4BA7
:1023000007201F7000F042FB172000F037FBB24A95
:102310003421D2F80034B14843F00803C2F8003445
:10232000AF4B1F70AF4B1F7001F04AFE40F26E437F
:10233000012033801BB0BDE8F08F02F0D3FD05F023
:1023400005F995A3D3E9002305F06AF994A3D3E92D
:10235000002305F08FFA94A3D3E9002304F0AAFF29
:102360000022A14B05F05CF905F06CFB01469F488B
:1023700006F04BFDDAE7012AD8D12B464FF4C071A5
:102380009B4A9C4802F04AFAD0E7882940F05F81D6
:10239000964806F055FD30B1914B1B781BB904F0FF
:1023A0002DF9C0218BE7834806F04AFD0028BDD0F7
:1023B0007F4F3B78033B012B00F29780002342F2D2
:1023C0000F78DFF820B28C4A9BF80000834215DBBF
:1023D00042F20F7398452FD10625884806F0BDFCC0
:1023E000874C07203D7000F0D1FA012000F0C6FABA
:1023F0002378012B0AD80023237097E732F8021BB9
:102400004145BCBFDDB288460133DFE734210DEB27
:1024100001008DF8345003F0C7F80125794FDFF83B
:10242000B481237802379D42E5DA032239464046DB
:1024300006F0ADFF0135F4E7DFF8C8A1724C504655
:1024400004EB850107F073F89AF801309AF8002040
:102450009BF800106D4801F0B3FD6D4901A807F02D
:1024600066F851460DF1060007F061F89BF8003060
:10247000A2468DF8083023464FEA85090DF10A027D
:1024800004F1280153F8040B8B4242F8040BF9D1F4
:1024900004230EAD0DEB03048DF834300FCC0FC5C3
:1024A0000FCC0FC594E80F0007C534212B800DEB2E
:1024B000010003F079F803225249464806F067FF0D
:1024C000D144544806F049FCB9F9020003F074FD08
:1024D000514B404480B2188004F04EFA0223002190
:1024E0004E483B7002F0BCFB20E701234C483B7098
:1024F00006F033FC072000F049FA042000F03EFA11
:10250000484B1B78002B7FF411AFDFF8D88040498F
:1025100001A807F00CF898F8003002AC8DF80630EE
:10252000394B03F12805224618685968083303C25D
:10253000AB421446F7D100270EAD01AC8DF83470D4
:102540000FCC0FC50FCC0FC594E8070085E8070036
:1025500034210DEB010003F027F803222A491D481E
:1025600006F015FF304806F0F8FB98F800802F4879
:1025700006F0F3FB41462E4801F022FD3C46224D79
:102580002C4FE3B2984505F1040555D80A2006F012
:10259000CBFBCBE6AFF300809A9999999999C93F03
:1025A00000000000E0FFEF40666666666666E63F94
:1025B000BB1800207C0F002070992000F8982000A4
:1025C000F89A200064100020E49A2000240F0020D4
:1025D000EC9A2000E00F002000B00D407EA020000B
:1025E000BC180020BF18002000006040900F0020A1
:1025F0001D6220005C0F00202A17002098A02000F8
:10260000BE180020EE16002002170020B7A0200000
:10261000EA160020EAA0200056090020200500202C
:1026200007A12000BD1800201DA1200031A120001D
:1026300057A1200067A12000384635F9023C15F863
:10264000032C15F8041C01F0BBFC013499E7454B41
:102650001B788B4248D1444B9A427FF467AE2846A0
:102660005368984700287FF461AE404B1B782BBB22
:1026700001243F4A3F4F14703F4A4049404813806D
:1026800006F055FF3C7003F0B9FF3E4B04211420C7
:102690001C7005F0AFFC3C4B051F186000F14C04AA
:1026A0000221142005F0A6FC45F8040FA542F7D13D
:1026B000012336483B7006F050FB72E6022B7FF494
:1026C00035AE2B4B1B78002B3FF430AE0925274C41
:1026D0002F4806F042FB257003F0B0FF0023402195
:1026E0002C4A2D4825704DE62C4B1B788B427FF4ED
:1026F0001DAE10462A4906F085F838BB01241C4B54
:102700001C4D1C701C4B1D4918801D4806F00FFF06
:102710002C7003F073FF1B4B042114201C7005F078
:1027200069FC194B071F186000F14C0402211420AA
:1027300005F060FC47F8040FA742F7D114231348B3
:102740002B7006F00AFB01232B702AE62046154960
:1027500006F058F800287FF4E9ADB7E705800320BC
:10276000E8E500BF93180020F8982000BB1800206F
:10277000BD180020C018002056090020EA160020CD
:1027800052170020BC180020000F00207CA1200060
:10279000799E20001D602000C00F002091180020AD
:1027A00089A120004F9C2000FF22002408B5094B7E
:1027B0000948C3F8B420094A636E0949121A9847B8
:1027C0000848094A2146236E121A984700F00EF86D
:1027D000FEE700BF00200D40400000205A09002005
:1027E0001CA3200060090020D518002073B500F05C
:1027F00085FC00F03FFD00F09BFC00F0B5FA01F015
:1028000083FB06F028FB00F02DFD00F0ADF8012061
:1028100006F02EFA02F098F900F054FC002000F0C7
:1028200077FB012000F074FB00203D4900F034FCF0
:1028300002F0BEFA62B6042006F01AFA394806F031
:102840008CFA394806F089FA00F02CFA002002F0E0
:1028500057FB01F055FA0021344802F001FA01F06B
:10286000A7FF06F033FA00F08FFD00F0ABFD02F099
:1028700003FF0821684601F06DFB2D4DBDF80640B1
:102880002C482C8001F09CFB2B4E29782B4801F022
:1028900097FB69782A4801F093FBF56A4AF6CD3137
:1028A0000220A84761BA89B20320A8471A21012053
:1028B000A84708226946736B0B209847214801F00E
:1028C0007FFB214B186806F048FA204801F078FB9E
:1028D0001F4B186806F041FA1E4801F071FB1E4BB1
:1028E000186806F03AFA00211C4802F0B9F91C4BAE
:1028F00001219B688120984706F086FA194806F066
:1029000079FA00F0E5FB022006F0B2F900F0E6FBF0
:1029100002F032F9C0B20028F8D101F08DFAF5E7E3
:10292000694D2000029B2000149B2000A004002081
:10293000EA160020399B200070992000579B200048
:102940005D9B2000639B20005C9A20006A9B200016
:10295000849A2000719B2000A09A2000C0040020CF
:10296000F8982000DC9A200008B500F043F9002216
:10297000014B1A7008BD00BF7C170020024B1A786B
:102980001043187000F058B97C170020034A1378E0
:1029900023EA0000107000F04FB900BF7C17002040
:1029A00008B50B4B1B7803420FD020280BD004280E
:1029B0000BD10220074B80211A7800F085FC20EA19
:1029C000E07000B208BD0520F4E74FF00040F9E7E1
:1029D0007E1700207D170020802810B50C4605D0FA
:1029E000B0F5807F2BD04FF0004027E08B1E222BCC
:1029F000F9D8194BD3F8202422EA0102C3F8202485
:102A0000D3F8002422EA0102C3F800248A0604D580
:102A100001220521002000F03BFC630704D50122C0
:102A20000221002000F034FC00F046FC30220B4B69
:102A30001A700B4B187820431870002010BDC8B2D4
:102A4000202803D005D810F0EF0FCCD1034B18701D
:102A5000F4E73028FAD0C6E700900D407D1700203B
:102A60007E17002018B1012804D000207047034BC6
:102A7000186A7047024B1878704700BF00900D40ED
:102A80008017002010B5094A002013780133137015
:102A9000074B197802F0BCF8BDE810400549002347
:102AA000054A0968054801F0B9BE00BF801700203B
:102AB0007F17002098090020852A2000780900202F
:102AC00008B50346812B08462DD0B3F5807F3ED054
:102AD000802B26D102F02AF81E4B032118701E4BC2
:102AE0000020D3F8202422F00802C3F82024D3F8D1
:102AF000002422F00802C3F80024D3F8042422F0B2
:102B00000802C3F80424D3F8082442F00802C3F8EA
:102B10000824042200F0BCFB032200210F4800F02F
:102B20005BFB01200AE00C4B0D49D3F8102430B1B7
:102B300042F00802C3F8102401230B6008BD22F004
:102B40000802C3F810240123C1F88030F6E7054BD2
:102B50001960E6E77F17002000900D40692B2000E8
:102B600000E100E09809002008B50F4806F087F959
:102B7000C8B108210C4806F070F90C4B196849B12E
:102B800000220B4B1A700B4B1B6A43B90A4A0B48C5
:102B900001F044FEBDE80840094802F085B9074845
:102BA00001F07EFEF6E708BD7009002098090020BC
:102BB0008017002000900D40852A20007809002011
:102BC000F8982000094BD3F8202422F00402C3F81F
:102BD0002024D3F8002442F00402C3F80024002289
:102BE0001A610122024B1A70704700BF00C00D40ED
:102BF0008517002000210F4BD3F8202422F0C002BB
:102C0000C3F82024D3F8002442F0C002C3F8002403
:102C1000C3F8001303F50053D3F8202422F0100268
:102C2000C3F82024D3F8002442F01002C3F8002493
:102C30001964704700A00D4010F0020218BFFF2277
:102C4000084BC3F8002210F0040218BFFF2210F056
:102C50000100C3F8002118BFFF22034B14BF1A6400
:102C60001864704700A00D4000C00D40044BDB69A4
:102C7000C3F3072013F4704F04BF1030C0B2704785
:102C800000300D40064B5869C00910F0060F03BF15
:102C900000F00700C0F1020040034FF4004070470D
:102CA00000300D402DE9F047002488B0FFF7DEFF2B
:102CB000164B0646DF69236D9847E36C80469847BC
:102CC0000446FFF7DFFF054600F06EFA814600F08C
:102CD00077FA824600F022FAAD0A07F00103A40A4F
:102CE000C7F34007CDE905A003934146CDF8109006
:102CF00002970195009406F00F03C6F307120448EB
:102D000001F05EF908B0BDE8F08700BF00300D406B
:102D1000949B20002DE9784800F06EF81049024697
:102D2000D1E900BC6646584538BF0CF10106334670
:102D3000C1E900230B4ED6E90001B0EB0B0461EBB7
:102D40000C05A01845EB0301C6E9000101F058FE8F
:102D500018B1BDE8784801F0D9BDBDE8788800BF5A
:102D600068090020600900204FF0E023E0210B4AB1
:102D70005A610B4A82F82310002207219A611961D7
:102D800008498B6843F001038B60074BDA6004222B
:102D90001A6001225A600F229A63704747E80100C7
:102DA00000ED00E000200D4000000340034BD3E99C
:102DB0000023100A40EA0360704700BF6809002042
:102DC000034BD3E90023D00B40EA4340704700BFD8
:102DD00060090020044B9862DA6842F00102DA6070
:102DE000DA68D207FCD4704700000340014B186832
:102DF000704700BF9C090020054A106C516C936C11
:102E00001B0443EA01230343D06C43EA006070478C
:102E100000500D4010B504460E4A136DDB07FCD57B
:102E200072B6FFF7E9FF231A062BD8BFC41D094B62
:102E3000220EDA64C4F307429A64C4F307225A6488
:102E4000E2B21A6462B64FF40032034B1C60034BCB
:102E50001A6110BD00500D409C09002000E100E007
:102E600008B500F0D5FF0022064B1A604FF400327F
:102E7000054BC3F89021C3F89020BDE8084001F04D
:102E800013BF00BF9C09002000E100E0064B9B69D6
:102E90001B075FBF054B986980F00800C0F3C000B6
:102EA00048BF0020704700BF00C0004000D0004075
:102EB0002C22154B70B502FB00334FF6BF72DC6855
:102EC0000546236C626413F050020DD00F4EA369C7
:102ED000DB0600D570BD56F825301BB12068C0B2A6
:102EE0009847F4E72368F2E713F4D06FF2D04FF479
:102EF00040732363FF236360E36AE262E362236B50
:102F000043F001032363E5E708992000A0090020AE
:102F100001282DE9F74F804600F2AD802C2545436E
:102F2000564F7C1994F92090B9F1000FC0F2A3809C
:102F300094F92260002EC0F29E80514800F0D2FF2A
:102F4000504B79599A6A94F921A00A439A62DA6A35
:102F50006168E5680A43DA621A6BA168F0B20A4355
:102F60001A63002322690AEBC901C5F8C83F116042
:102F700094F82310227DCDE9000194F923B000F0EC
:102F800091F9DDE90001082200F082F90122310304
:102F90003D4E02FA0BFB88594FEA09394BEA000013
:102FA000885159F8061002FA0AFA4AEA010149F86A
:102FB00006105021A963A96B94F9240041F4D06153
:102FC000A963022169634FF440712963A169002854
:102FD0006962E169A9624FF07001E96216DB0023C2
:102FE00094F92510294C41EAC005C4F804510403A2
:102FF000A5598A402A43A251C9B21A46C0B200F06C
:1030000047F9234A136B43F4004313632C2303FB58
:10301000087393F92640002C1ADB93F82790E5B249
:1030200001224946284693F927A000F03BF90123E5
:103030002403A25903FA0AF31343A3510822494671
:10304000284600F025F9124A136B43F480431363BA
:103050002C2000FB0877FA68136B43F0010313631D
:10306000012297F82830590903F01F0302FA03F3ED
:10307000084A42F8213003B0BDE8F08F08992000DB
:103080008D2E200000200D4020940D4000400D406A
:1030900000D0004000E100E001289CBF014B43F854
:1030A00020107047A0090020012808D82C22044BCA
:1030B00002FB0030C3689A699206FCD4196070471D
:1030C000089920000022014B1A60704700500D4003
:1030D0000822014B1A60704700500D40A022024B9D
:1030E0001A6050221A60704700500D4072B60B22D1
:1030F000014B1A60FEE700BF00500D40014A024B31
:103100009A6070470020200000ED00E0024B5868F4
:10311000C0F38150704700BF00200D4008B5FFF795
:10312000F5FF024B53F8200008BD00BF6099200056
:1031300010B5194C0122D4F82034062123F04003A5
:10314000C4F82034D4F80034032023F04003C4F83A
:10315000003400F09DF8D4F82034012223F08003DD
:10316000C4F82034D4F80034072123F08003C4F8D5
:103170000034032000F08CF8084A094B1A60094A11
:1031800059681142FCD15A685201FCD4044A536870
:103190005B01FCD510BD00BF00C00D400101020065
:1031A00000200D4000000101034B04485B6803F060
:1031B00007031841704700BF00200D400048E80198
:1031C000034B04485B68C3F302231841704700BFF8
:1031D00000200D400048E801024B02EBC10243F819
:1031E00022007047A8090020F8B507460D460024C4
:1031F000084E06EB411647FA04F3DB07E1B204D5AB
:1032000056F824300BB1284698470134082CF2D1E7
:10321000F8BD00BFA80900202DE9F8430546DFF8F6
:10322000388000F0F5FD0D4B2E03F75856F8084096
:103230004FEAC50924FA09F447EA04002946C0B256
:10324000FFF7D2FFE4B2064BFFB204FA09F4F750DD
:1032500046F80840BDE8F88318970D4018940D40D3
:103260001C940D4080220021014805F05BBA00BF8C
:10327000A8090020034B044A1A60044B803A1A60E4
:10328000704700BF280A002080400D402C0A002013
:10329000034B01EBC0011B6843F82120704700BFBE
:1032A000280A0020034B01EBC0011B6843F82120D2
:1032B000704700BF2C0A0020024A136843F0300315
:1032C0001360704700700D400E2870B506460DD192
:1032D000134B5C6B44F0020058631248D0F8F4566C
:1032E00025F03F0343F00103C0F8F4360E4883682D
:1032F00023F0FF031A4311433143816003681B0627
:10330000FCD5C368006903F0FC0343EA00230E2EDA
:1033100018B201BF034BC3F8F456014B5C6370BD98
:10332000000001440080084000700D40034BD3F8BA
:103330000007B0FA80F04009704700BF00B00840B5
:103340004FF40042064B10B5064CC3F89021C3F869
:103350009020206818B101F09BFC0023236010BD71
:1033600000E100E0300A0020064B9A6C42F00202B5
:103370009A64DA6C42F00202DA641A6D42F00202D8
:103380001A65704700200D4007B50C4800F0AAFDF3
:10339000FFF7EAFF0A4B5A6D42F002025A6500221B
:1033A0000192019A0F2A06DD5A6D22F002025A6537
:1033B00003B05DF804FB019A0132F1E72D332000E0
:1033C00000200D40064B9A6C22F002029A64DA6CDF
:1033D00022F00202DA641A6D22F002021A657047C6
:1033E00000200D400D4BD3F84C269107FBD4D3F8A9
:1033F0004C2652065EBFED22C3F83828C3F83828A1
:10340000D3F82C2612B1EF22C3F83828044A012041
:10341000137803F07F031370704700BF00800840EB
:1034200088170020044BD3F84C0600F02200A0F1CE
:10343000200358425841704700800840024BD3F89F
:103440004C0600F04000704700800840054BD3F860
:10345000002620B142F00102C3F80026704722F096
:103460000102F9E700800840284B1870002841D07D
:10347000274A53681B03FCD5264BD3F8042842F097
:103480000202C3F80428D3F8042842F00102C3F86A
:103490000428D3F804285007FBD5D3F8042822F0D9
:1034A0000102C3F804281B4BD3F804285107FBD4AE
:1034B000D3F8042842F00202C3F80428D3F8042801
:1034C00042F00102C3F80428D3F804285207FBD5C0
:1034D000D3F88C2622F00402C3F88C26D3F83428C3
:1034E00022F00402C3F834284FF400520A4BC3F808
:1034F00090207047074AD2F88C3643F00403C2F894
:103500008C364FF40052044B1A6170478717002025
:1035100000200D400080084000E100E0094B93F9D5
:103520000020002A0CDBED21074AC2F83818C2F847
:103530003818E321C2F838181A7862F07F021A703E
:1035400001207047881700200080084070B5A0F166
:103550000B05EBB20F2B044614D80C4ED6F84836A8
:1035600013F03F0302D0FFF73DFF012305EB850574
:103570000B35C6F83C560BB1FFF7D0FF044B60B2D9
:103580001C7070BD4FF0FF30FBE700BF00800840AB
:103590005809002038B50C46002900F09180102809
:1035A00000F29080DFE800F009111D252B434C60EC
:1035B000667D818E8E86885D8A00434BD3F82C36DB
:1035C000003B18BF012323602BE005223E4BD3F8BC
:1035D0003C3603F07F030B3B93FBF2F30B33DBB280
:1035E000F1E7394AD2F8CC15D2F8C83543EA0123BD
:1035F000E9E7354AD2F8D415D2F8D035F6E70023FA
:10360000314A0B60D2F8003603F001030B60D2F8A8
:103610002426900644BF43F002030B602B4B1B781B
:103620000BB900200BE00B6843F00403CBE700204C
:10363000274B08601B78002BF3D001230B6038BDAB
:10364000214B2449D3F840260023D2B201EBC3001A
:103650000079904202D851F83330B4E701330E2B91
:10366000F4D16FF01703AEE7174BD3F858365BB2BF
:10367000493BA8E7144DD5F8483699060FD1FFF716
:103680004DFF0123D5F86426D207FBD5D5F8605647
:10369000493D6DB20BB1FFF7A5FE2560C1E70023E0
:1036A000F0E70D4B93F900308DE70C4B1B7803F0DE
:1036B0007F0388E70B2386E71A2384E7072382E743
:1036C0000220BCE70120BAE70080084087170020ED
:1036D00059090020A899200089170020861700208A
:1036E00010B50B4CD4F8483699060FD1FFF716FFEA
:1036F0000123D4F86426D207FBD5D4F84C46C4F392
:1037000000140BB1FFF76EFE204610BD0023F0E75A
:103710000080084010B50C46072865D8DFE800F0A7
:10372000040F1A232C444A5E012903D1FFF7F6FE49
:1037300000203EE0002959D1FFF754FEF8E7A1F13F
:103740000B030F2B52D8C8B2FFF700FF0130EFD1A7
:1037500003202EE0264BCAB2C1F30724C3F8C825C4
:10376000C3F8CC45E4E7224BCAB2C1F30724C3F83F
:10377000D025C3F8D445DBE731F0070336D101F09B
:103780000100FFF763FE1A4B11F0020FD3F8242655
:10379000C1F3800014BF42F0200222F02002C3F8DF
:1037A0002426FFF761FEC3E731F001001ED1114B63
:1037B000197010BD01F118031F2B17D80D230E4AE5
:1037C00052F833108C4206DC02EBC3031A79084B23
:1037D000C3F84026ACE7013BF2D2A9E7044BCCB2D8
:1037E0004934C3F85846A3E70120E2E70220E0E7A6
:1037F0000080084059090020A899200070B50546AE
:103800000C46144ED6F84C369B07FBD4124B93F95A
:103810000030002B01DBFFF781FEEE23691EC6F8A6
:103820003838C6F83838A31CC6F828382144022096
:1038300000F080FA0949013C41EA0411022000F03D
:103840008BFA022000F092FA022000F0A7FA002082
:1038500070BD00BF008008408817002002C001C072
:1038600070B5264B93F90030002B19DBFFF7C4FA33
:103870000446FFF753FEC4F1FF2404F57F04F63439
:10388000FFF7BAFAC442FBD401261D4B1B784BB993
:103890001C4CD4F84C36990609D50224204670BD3C
:1038A0000026F2E7FFF71CFF0028F1D1F5E7E92336
:1038B0000425C4F83838D4F84C369A0703D4013DAF
:1038C00015F0FF050AD1D4F84C369B070AD50D4BED
:1038D000D3F84C4614F00204FAD109E00620FFF7B1
:1038E00079FAE8E7EE23C4F83838C4F83838012408
:1038F000002ED3D0FFF776FDD0E700BF8817002059
:1039000059090020008008400B280DD1082A0DD14C
:1039100061B1074B074A083111F8010D43F8040B58
:103920009342F9D100207047012070470220704770
:10393000A8850840C885084070B5384A0546D2F8C1
:103940004C0610F0400009D0D2F82808040606D52D
:10395000ED23C2F83838C2F83838002070BDC0B244
:103960000428F5D902388842F2DCC4B2032C24D1F1
:10397000D2F828382B70D2F828386B70D2F8283853
:10398000AB70264D264BD5F82818264E493949B23A
:103990001970D5F828381806337026D589B2042056
:1039A00001F040FE3178032001F07F0101F03AFE82
:1039B0001D4B1B78FBB12046D0E7291903200139A4
:1039C00000F0C0F91949631E032041EA031100F019
:1039D000C3F9032000F0CAF9032000F0DFF9032047
:1039E00000F0E8F90028FAD1CBE7ED23C5F8383824
:1039F000C5F83838B1E7D5F84C365A06DBD5D5F8D6
:103A00004C361B0603D50A4801F042F9D3E7ED23F3
:103A1000C5F83838C5F83838CDE700BF0080084011
:103A200089170020861700208717002002C0010C8C
:103A3000780400202DE9F041294F3E7816F0010668
:103A40004CD10125274B284CC3F8A850C3F8AC50E3
:103A5000C3F8B050F823C4F858360923C4F8E8373F
:103A600015230B22C4F8C836204B4FF07F085A604C
:103A70004023C4F82436D4F8243643F02003C4F895
:103A80002436D523C4F80866C4F85086C4F84036F6
:103A9000174B1878FFF75AFD4FF48042154B022060
:103AA000C4F894861A6100F06DF91349022000F001
:103AB00049F9032000F066F90F49032000F03AF9B4
:103AC0000E4B1878FFF7D0FC0D48314601F0C8F8CE
:103AD00028463B782B433B70BDE8F0810020FBE794
:103AE0008817002000200D400080084000600D4035
:103AF0005809002000E100E02888084087170020CE
:103B00007804002038B50388044653B340F20342DA
:103B1000934233D11B4B1A7842BB822924D11B78A4
:103B200073B901F031FD01F0C3FC8021FFF704FF00
:103B3000002805DD80B201F07BFC134B1B69984720
:103B4000124B1A7852060CD500221A70104BD3F87B
:103B50004856FFF747FCFFF76DFFAB0601D0FFF7B4
:103B6000DDFC40F20343238001200AE01A78002A9A
:103B7000FAD0064A12785006F6D5CEE70023038025
:103B8000032038BD87170020A09A20008817002046
:103B9000008008400B282DE9F8430D460FD1082A74
:103BA0007CD100297AD03E4B3E4A4D1E53F8041971
:103BB000934205F8011FF9D10020BDE8F8830C28D5
:103BC0006AD1042A6AD1002968D0374BD3F810286B
:103BD00022F00702C3F81028D3F8042842F00802A4
:103BE000C3F80428D3F81428D3F81818D3F8100809
:103BF000D2B220F07000C3F81008D3F82448D3F8EC
:103C00002008090242EA006289B224040A4304F44B
:103C10007F04D3F81C7842EA0408D3F81028FFB2D6
:103C200022F0070242F00102C3F81028D3F804285A
:103C300042F00802C3F80428D3F81448D3F818282F
:103C4000D3F81018E4B221F0700141F01001C3F86C
:103C50001018D3F82418D3F82008120292B244EABC
:103C600000640904144301F47F010C43D3F81C18C9
:103C70005FFA81F9FFF7C0F8B8EB040467EB0907B6
:103C8000FF0306460023094AE00347EA544104F0D3
:103C90002DF8361A2E608FE701208EE702208CE780
:103CA000C4850840A4850840008008400048E80119
:103CB00008B5054B1B7813B9044800F0E9FF002252
:103CC000034BC3F8342808BD871700207804002070
:103CD00000800840074A0848D2F82C38042B1FBF40
:103CE00006490B7843F040030B700023C2F82C38D0
:103CF00000F0CEBF00800840780400208817002024
:103D000010B5094C40220021204604F00BFD012291
:103D1000064B5A604FF480429C60054B5A604FF44A
:103D200000425A6010BD00BF0000002000F00F40AC
:103D300000E100E003289EBF014B000119507047CD
:103D40000000002003289EBF024B03EB00104160DF
:103D5000704700BF0000002003289EBF024B03EB0A
:103D600000108160704700BF00000020032806D8C3
:103D70000123034A03FA00F0916A084390627047F6
:103D800000F00F40032806D80123034A03FA00F08D
:103D9000116A08431062704700F00F40032806D8EC
:103DA0000123034A03FA00F0516908435061704748
:103DB00000F00F4003289FBF044B03EB0010806806
:103DC00000F0070088BF0020704700BF00000020FF
:103DD0004FF0FF32014BC3F80425704700F00F404D
:103DE0000122014BDA64704700F00F40074B5A681C
:103DF000D102FCD41A6822F480321A605A68D203C5
:103E0000FCD41A6842F400321A60704700200D405A
:103E100010B5084CA36D99070BD063685A01FCD408
:103E200063685B01FCD504F053FFFFF7DFFF00235D
:103E3000A36510BD00200D4070B5264BD3F8484651
:103E400014F03F0414D1244D55F8043B23B1984796
:103E500070B10134052CF7D1204E337843B1FEF711
:103E6000C5FF0446FEF7C8FF201A092800D90CB97F
:103E700030BF26E01A4B1A6822F400321A605A68E2
:103E8000D202FCD41A68164D42F480321A606B6874
:103E9000DB03FCD5FEF7B0FF241A092C03D8BDE8DC
:103EA0007040FFF7A3BF632C0CD93378022B09D1E4
:103EB000AB6500F0A3FE38B1FFF798FF0022084B76
:103EC0009A6570BD0123F3E7FEF790FF0028F3D059
:103ED000CEE700BF00800840340A00208A17002087
:103EE00000200D40074A10B50023144652F8041B69
:103EF000814202D011B944F8230010BD0133052BD3
:103F0000F4D1FAE7340A00200022054B05499A65EE
:103F10000B6943F004030B61034B1A70704700BF39
:103F200000200D4000ED00E08A1700204FF48032A1
:103F3000064B10B5064CC3F89021C3F890202068BA
:103F400018B100F0A5FE0023236010BD00E100E0E1
:103F5000480A00204FF4201270B592F82B40431EFF
:103F600054B101F52011154A273191421AD011F8A8
:103F7000010903F8010FF8E792F82A40122CF0D15A
:103F800092F829204B2AECD14C0804F520120B4D55
:103F90002732AA4207D1002301F5201120442731FE
:103FA000A34205DB70BD12F8016903F8016FF0E769
:103FB000CA1A1278013300F8012BF1E72700280014
:103FC0000FB407B504AA52F8041B0448019200F08C
:103FD00021F803B05DF804EB04B0704788040020BA
:103FE00070B505460C460A4E102C07D874B122460F
:103FF0002B6868680649BDE87040184710223146B2
:104000002B686868984710B9103CEDE7204670BDF2
:10401000B29C20002DE9F04F8046154600278DB058
:104020000491049B1B78002B00F07983049B1A7881
:104030001C460133002A00F06183252AF7D1049B36
:104040009C4205D05DE323783744002B00F0678362
:104050006278631C002A00F062830024184610F87E
:10406000012B19462B2A15D009D8202A15D0232A2E
:1040700016D0A2F13106082E40D8002219E02D2AD0
:1040800004D0302AF5D144F0100401E044F00104DA
:104090000346E3E744F00604FAE744F00204F7E7D6
:1040A00044F00804F4E70A21019A01FB0299A9F1FE
:1040B0003002194613F8019B0192A9F13002092A36
:1040C000F1D90B782E2B36D14A784B1CA2F1300057
:1040D000092828D84FF0000B1A781946A2F13000B1
:1040E000092803F1010318D90B786C2B6BD14B789D
:1040F0006C2B23D144F08004023122E02A2A09D11A
:104100002B680146002B019305F10405B8BF44F06C
:104110000104D6E700230193D3E70A2101FB0B2B0F
:10412000ABF1300BD8E72A2A04D1D5F800B0023120
:104130000435D9E719464FF0FF3BD5E7013144F08C
:1041400060040B78782B0CD8572B48D8472B08D80D
:10415000402B00F28D80002B00F0E182252B00F037
:10416000D0804B1C049304F4E063B3F5A06F00F01F
:10417000A28200F2C980B3F5407F00F06882B3F5F7
:10418000806F00F02F82B3F5807F7FF44AAFBBF1E0
:10419000000FACBF24F010044FF0010B14F40059D1
:1041A00004F0E00300F07A81402B00F0728100F20D
:1041B000C280002B00F07081202B00F0CB80002605
:1041C000B2460023D3E0682BBBD14B78682B02D1D9
:1041D00044F0200490E7013144F04004B1E7583B3B
:1041E000202BBED801A252F823F000BFB542200018
:1041F00063412000634120006341200063412000AF
:10420000634120006341200063412000634120009E
:10421000DF42200063412000EB4220009D4220004D
:10422000C7422000BB422000D3422000634120004F
:104230009D42200063412000634120006341200033
:1042400063412000FD422000A9422000F7422000E7
:104250006341200063412000F142200063412000BF
:10426000A34220006341200063412000AF422000B0
:10427000413B062B3FF675AF01A252F823F000BF79
:10428000E54220006341200063412000634120009B
:10429000CD422000C1422000D942200044F42454E1
:1042A0005FE744F410645CE744F4885459E744F44D
:1042B000C85456E744F4B24453E744F4007450E75A
:1042C00044F484444DE744F402444AE744F442444D
:1042D00047E744F4813444E744F4A13441E744F42B
:1042E000C1343EE744F4E1343BE744F4A06438E7EA
:1042F00044F4806435E744F4407432E744F4E06405
:104300002FE744F4C0642CE7B3F5C06F07D0B3F5D2
:10431000E06F7FF486AE2B6804351F6081E60122D2
:10432000D8F80030A649D8F804009847002840F093
:10433000F481013775E6602B00F0AE80802B7FF4AE
:104340003EAFEA1D22F007021546D2F804A055F848
:10435000086B04E095F9006004354FEAE67ABAF19B
:10436000000FBFF62EAF012376426AEB4A0A029392
:1043700004F4C053B3F5805F00F0E480B3F5C05F90
:1043800000F0E680B3F5006F00F0C6800DF12E035B
:10439000009300230393039B41F608029B4588BFCB
:1043A000ABEB030B41F2080304EA020198BF4FF0A4
:1043B000000B994204D1BBF1010F38BF4FF0010B44
:1043C000039B91425B4440F0DF8056EA0A0200F012
:1043D000DB807C497C4A14F4804F4FF0020614BF06
:1043E0008A469246B9F1000F0DD0029A002A40F099
:1043F000CE8004F00602022A00F0CD80062A734A1D
:1044000004BF0126924606EB0309019B4B4594BF6E
:104410004FF00009A3EB090914F00103019304D143
:10442000E20640F1BC80CB4499464EB1324651463B
:10443000D8F80030D8F804009847002840F06D8183
:104440005C46039BDFF888A11F44102CD8E900309C
:1044500000F2AD802CB122465D499847002840F01B
:104460005C81D8F80030039A0099D8F804003744EA
:104470009847002840F05181019B5F44002B00F0D9
:10448000E08049464046FFF7ABFD002800F0D980A8
:1044900043E1B5F900605FE72E685DE7402B1BD074
:1044A00007D8DBB1202B11D04E46CA46CDF8089074
:1044B0005EE7602B12D0802BF6D1EA1D22F00702B6
:1044C0001546D2F804A055F8086B02E02E78CA46CB
:1044D0000435CDF808904BE72E88F8E72E68F6E70C
:1044E000039805990A22002303F000FC009B303258
:1044F00003F8012D0398059900930A22002303F085
:10450000F5FB03900591039B059A1343E8D1009AAC
:104510000DF12E039B1A3DE70DF12E030396CDF806
:1045200014A00093EFE7009803F00701303100F882
:10453000011DDB0843EA42730090D20853EA0201EE
:10454000F1D1E4E70DF12E01334652460091F5E733
:10455000204B14F4804F2049524608BF1946334679
:104560000DF12E00009053EA0200D0D003F00F00AE
:10457000DDF800C0085C1B090CF8010D43EA02736A
:10458000CDF800C01209EEE70026B2462AE7012660
:10459000DFF848A037E70126DFF844A033E74946B3
:1045A0004046FFF71DFD00283FF43FAFB5E0102265
:1045B00051469847002840F0B080103C45E700BFC6
:1045C000B09C2000A19C2000A49C2000A79C20005F
:1045D000C29C2000909C20007F9C200080A2200094
:1045E0006F9B20002E6804356EB333469A469AF8C6
:1045F00000200133002AF9D1AAEB060ABBF1000F13
:1046000002DBDA4528BFDA46019B534594BF4FF0E1
:104610000009A3EB0A0914F0010405D149464046FC
:10462000FFF7DEFC002878D152463146D8F800303A
:10463000D8F80400984700286FD15744002C7FF425
:1046400020AF4F44EDE44FF0060A374ED6E7374B24
:1046500014F4804F364808BF18460DF12B03002292
:104660009A462968043551EA02061AD1BAEB030AC0
:1046700004BF302203F8012C4FF0780208BF03F189
:10468000FF3303F8012C4FF0300208BF4FF0010A4E
:1046900003F8022C2322DE1E03F8032C0AF1030A7E
:1046A000B2E701F00F06865D090941EA027103F8DD
:1046B000016D1209D7E7DDF804902B68B9F1010FFD
:1046C00038BF4FF0010914F0010405F104058DF81D
:1046D000183009F1FF3605D131464046FFF780FC1E
:1046E000D8B937440122D8F80030D8F8040006A918
:1046F000984790B9002CA4D03146C3E6049B9C4255
:104700000DD0049B0499E61A3246D8F80030D8F848
:104710000400984700283FF496AC4FF0FF37384626
:104720000DB0BDE8F08F00BFA99C2000909C200038
:104730007F9C2000F8B5038805461646CBB14A2B6E
:104740002BD188291FD1174804F0AAFB0446C4B115
:10475000231D9E421FD12146124804F0ABFB124E8E
:10476000636937683360A3690BB1E06998473760C4
:1047700007E00C4804F094FB044634B901220B4BCB
:104780001A704A232B8001200AE0A168201D04F042
:104790003CFB2468F1E72468D9E700230380032069
:1047A000F8BD00BF4C0A0020D80B00208B1700205A
:1047B00010B50024054B06481C7004F06EFB214622
:1047C000BDE81040034800F04BBA00BF8B17002033
:1047D0004C0A00209004002070B50446E3610B4BA6
:1047E000049D1B78C4E905526BB1094D094B2E6835
:1047F000201D2B6004F009FB2E602146BDE87040AF
:10480000054804F06ABBA160F7E700BF8B170020E2
:10481000D80B0020900400204C0A002013B5034C54
:1048200024680094FFF7D8FF02B010BDD80B002019
:1048300070B5094B04461B783BB1084D084B2E68F8
:1048400004302B6004F0EAFA2E602146BDE8704087
:10485000044804F042BB00BF8B170020D80B002097
:10486000900400204C0A002070B5094B04461B78C8
:104870003BB1084D084B2E6804302B6004F0D7FA8A
:104880002E602146BDE87040044804F026BB00BFFE
:104890008B170020D80B0020900400204C0A002029
:1048A00010B5084B04461B7843B1043000F0B0F853
:1048B0002146BDE81040044804F0FCBAC0E90333C7
:1048C000F6E700BF8B1700204C0A002010B50D4CF6
:1048D000236813B90C4A136010BDFEF767FA22680B
:1048E000D2E900310B441B1A92681AB91844064BDE
:1048F0001860F1E7D2E900142144091A8B4228BF5D
:104900000B46F1E7540A0020500A0020014800F04D
:10491000BFB900BFA00400202DE9F041038805467F
:1049200053B1592B46D1872921D1002023490B6847
:1049300063B918B10B6001E0204A136059230120CC
:104940002B80BDE8F08101203346F1E7D3E9026412
:104950009442F8D000B10B6019460B4689680029D3
:10496000ECD0C8689042F8D189689960F4E7822950
:10497000E4D14FF00008114F00263C68002CDDD038
:10498000204604F07CFA90B122468821E06800F0CD
:104990003FF950B9A368E0602EB1B360C4F8088055
:1049A000FFF794FFE8E73B60F8E7FFF7AFFF264625
:1049B000A468E3E7002303800320C2E7540A002031
:1049C00010B50446FFF7A2FFE3680B4A0BB113686A
:1049D00033B90A4B1B68E36013681460A36004E0FA
:1049E000A34206D1054A1268DA60BDE81040FFF71D
:1049F0006DBF9B68ECE700BF540A0020D80B002075
:104A0000024B1868003818BF01207047540A002074
:104A100010B50B4A04461368834208D183681360BB
:104A2000FFF754FF0023C4E9023310BD1346002BE7
:104A3000F8D09A68A242F9D1A2689A60F0E700BF64
:104A4000540A002038B5836804460D469BB10A48D5
:104A500004600220A07304F10C009847023801287A
:104A600001D9832D05D121462046BDE8384000F00C
:104A700005B80123A37338BDD80B00202DE9F843F6
:104A80001C4F04463D6888462B46A34204D00BB910
:104A9000BDE8F8831B68F8E7002CF9D0164EA37B1D
:104AA000D6F8009063B10023A3738DB9A3683BB11E
:104AB000444505D02A468321346004F10C00984710
:104AC0003B68A3420ED123683B60C6F80090DFE745
:104AD000A54204D022468721284604F0B6F92D6865
:104AE000E3E71346002BF0D01A68A242F9D12268FE
:104AF0001A60EAE7DC0B0020D80B0020002238B552
:104B00000125084B1A70084B1C6804B938BDE37BBB
:104B10002BB1002282212046E581FFF793FF246814
:104B2000F3E700BF8F170020DC0B0020024B187842
:104B3000421C1A70704700BF8D170020014B196886
:104B4000FFF79CBFD80B00208A22064B1A70002367
:104B5000054A1370054A1370054A1360054A13602D
:104B6000704700BF8D1700208C1700208E17002083
:104B7000DC0B0020D80B00202DE9F0411A4E3378D1
:104B80000BB1FFF7BBFF194D2C7894B10C221849DB
:104B9000184F0B78013C5A430133B81803F01F0338
:104BA000BF5C0B702C70D0E9018090B9124B1C686F
:104BB00024B9337828781844BDE8F08133780BB1F4
:104BC000FFF79CFF20464246394604F03EF9246830
:104BD000EEE7812F08BF01234246394608BF8373A1
:104BE00004F033F9E5E700BF8F1700208E1700208F
:104BF0008C170020580A0020DC0B0020024A034BCF
:104C000010781B78184470478E1700208F170020EB
:104C1000F0B50B4D2C78202C0FD00C26094B0A4FE9
:104C20001B78234403F01F037343FE18C6E90120D9
:104C300000200134F9542C70F0BD0120FCE700BFC6
:104C40008E1700208C170020580A002038B5034C1E
:104C5000256804F0FAF8256038BD00BFD80B0020A5
:104C600010B40A4609490C68234683420CD04BB95C
:104C700050B104600860012110BC817383818121DF
:104C8000FFF7E4BF1B68F0E710BC7047DC0B0020A7
:104C900038B1837B013B012B9FBF0123014AC373C2
:104CA000137070478F17002010B5084C206858B15A
:104CB00000232360D0E901319847236823B1BDE880
:104CC00010401868FEF7A6B810BD00BFE00B00202A
:104CD00070B505880446672D09D0792D2FD0002D99
:104CE00033D1FFF723FF1B4B18701B4B1D601B4E6E
:104CF000194D08E00A282B680ED07E2B03DC5A1CC5
:104D00002A60174AD054304604F067F9431CF1D1A9
:104D10006723238001201BE05A1C2A600025104ACB
:104D20002846D5540B4B1978FFF772FF0D4B2A46D6
:104D300085211868FFF76CFF18B97923E9E7852901
:104D4000E8D10022044B1A60D1E70023038003203E
:104D500070BD00BF91180020E40B0020E80B00207C
:104D600090170020D80B00200D28014610B516D052
:104D70000C4C237853B90C4804F01CF908B90123F2
:104D800023700A48FFF784FF012010BD0A28F8D1DC
:104D9000054804F00FF90028F3D00023F0E70020C5
:104DA000F3E700BF10180020E80B0020B00400203B
:104DB00008B505490548802204F0F5F8BDE808402B
:104DC00000210348FFF74CBF11180020E80B00201A
:104DD000B00400202DE9F04105880446772D20D04D
:104DE0007E2D3DD0002D4ED1FFF7A0FE284E294B41
:104DF000294FDFF8A88018703560336857F82320F2
:104E00002AB9274A13707723238001203EE008F84F
:104E10000350936800218020984733680133336042
:104E2000EBE700231F4A1360194A1360184B1C4A12
:104E30001B6812789A4204DC1A4B1B68002BF0D1D5
:104E4000E1E7164AD256002A19DA134A002052F82E
:104E50002320104B1978FFF7DBFE28B97E23D3E718
:104E60000C4B1B788B42D0D1094B0C491A688B5CD8
:104E700003F07F038B540B4A136801331360044A19
:104E800013680133D1E7002303800320BDE8F081DC
:104E9000F40B0020931800206804002081170020E4
:104EA00092180020F00B002010B40A4B0A4A19781F
:104EB00000238B4203DA52F8044BA04208D1074981
:104EC0000748CA5C62F07F02CA5410BCFFF7E0BE1C
:104ED0000133EEE7921800206804002081170020BB
:104EE000C0040020054B1A6842F004021A60586999
:104EF0009B6940EA032080B2704700BF00700D40FC
:104F0000184A136823F00C0313600122164BC3F8F0
:104F1000A820D3F8A820012AFBD10822134BC3F8FC
:104F20002426E322C3F83828D3F86426D207FBD519
:104F30000E4810220023D0F89C16013A01F001011E
:104F400043EA01034FEA43039BB2F4D1002BF0D0B4
:104F5000044A190A03F0FE0351615361EF23C0F8BC
:104F60003838704700700D4000200D400080084028
:104F70000088064B40BA80B28840995CC2F10802B2
:104F800001EA20201041C0B2704700BF039D2000FD
:104F900070B50B4C0023616E0A4A04F13800FFF72C
:104FA0003DFCFFF79FFF656E0023B0FBF5F1064A5D
:104FB00001FB150104F11800BDE87040FFF72EBC9D
:104FC000F80B0020CD4F2000E54F2000044B5A6E17
:104FD000196E5200914294BF59665A66FFF7D8BFC6
:104FE000F80B002010B500F0CFFA00F061FA0023B2
:104FF0000380044600F04EF82288930008B1017B3C
:1050000051B9023398B200F013FA238873B1BDE8A6
:105010001040074800F04EB9818823445980C18868
:1050200001329980228003F073FFE5E710BD00BFD5
:10503000F80B00209DF80030012B04D1024B9A6D33
:105040005A66FFF7A5BF7047F80B0020F8B50F466A
:1050500016461D46064C0146064A204600F018F941
:10506000C4E9167625660448BDE8F84000F00CB89F
:10507000F80B0020449A200035502000014803F02E
:105080000CBF00BF640C0020014B1860704700BFCC
:10509000680C0020014803F003BF00BF640C00202F
:1050A0002DE9F04105460C480C46164603F0F8FE83
:1050B00008B9BDE8F0818388A34209D18768002F31
:1050C000F7D0334622462946BC46BDE8F04160474A
:1050D00003F01EFFECE700BF640C002070B50E4625
:1050E0001546074A044600F00FF83046054904F01B
:1050F000A6F90023A564A4F84C3084F84E3070BDA6
:105100004C9A20000C9D200038B504461546024AF2
:1051100000F0F4F8256438BD549A2000F8B5044630
:10512000C06B0E46154608B100F040F900F01CF9BE
:10513000E06388B104F144073146384604F0F7F9DA
:1051400023462946054A04F11C00FFF767FB394650
:10515000204604F0BBF90120F8BD00BFF793200002
:10516000054B10B51B689847044618B1818801208B
:1051700000F058FA204610BD389A200038B5064B8A
:1051800005465B6898470446A988012000F04AFA62
:10519000201E18BF012038BD389A2000014B9B68A3
:1051A000184700BF389A2000014803F076BE00BFC0
:1051B0006C0C002081800146014803F08EBE00BFC8
:1051C0006C0C002010B50446054803F069FE00B9D8
:1051D00010BD8388A342FBD003F09AFEF7E700BF1F
:1051E0006C0C002070B505460C461646FFF7E2FF32
:1051F00020462E610249BDE8704004F020B900BF8E
:10520000169D2000F8B506460A480D46174603F0DD
:1052100047FE044630B93A4629463046BDE8F840D4
:1052200004F020B9A3680BB128469847204603F044
:105230006FFEEEE7700C002038B5FFF791FF0546D2
:10524000094803F02DFE044628B95DB12846BDE8A3
:10525000384004F002B9636803B19847204603F070
:1052600057FEF0E738BD00BF700C002010B50446B3
:10527000FFF784FF38B100F0F7F8034B03482146ED
:105280009B689847012010BDCC9A20000552200051
:1052900070B505460C461646044AFFF7A3FF2046A4
:1052A0006E610349BDE8704004F0C9B8689A2000F7
:1052B0001D9D200010B5044604491A2000F0C0F9D5
:1052C0002046BDE8104004F0C6B800BFEA16002032
:1052D00070B504461B200D4600F0BEF9064904F0E7
:1052E00029F938B1A3691B6823B129462046BDE8D6
:1052F0007040184770BD00BFEA16002070B5054623
:105300000C461646044AFFF7C3FF2046AE61034928
:10531000BDE8704004F093B8709A2000219D2000F1
:105320000346074A0749106803448B4281BF0C2299
:10533000054B4FF0FF301A6098BF1360704700BFF5
:10534000D004002000800020B410002008B50448DC
:1053500003F0E1FDBDE80840024803F0DCBD00BFFA
:10536000E0040020D404002038B50E4803F0E3FD2B
:10537000054650B10C4803F0DEFD0446286030B904
:105380002946084803F0EBFD2546284638BD00F0C5
:1053900097F804F1B601A4F8800004F1820000F04F
:1053A00019F9F2E7D4040020E004002010B501460A
:1053B0000446074803F0E9FD48B12168054803F0B9
:1053C000CEFD2146BDE81040014803F0C8BD10BD28
:1053D000D4040020E004002010B50146044609482A
:1053E00003F0D3FD68B12468B4F88010204600F0C3
:1053F000DBF804F1B60104F18200BDE8104000F0D2
:10540000FDB810BDD404002010B507490B888342B5
:1054100008DB064C80B222880244181A088001205A
:10542000228010BD0020FCE7AA160020AC16002048
:10543000014B1880704700BFAA1600200048704733
:10544000940C0020014B1888704700BFAA1600205A
:10545000034A044B10781B881844C0B2704700BF41
:10546000A4180020AC1600202DE9F0410C4E338822
:1054700073B100240B4B0C4FB3F800800B4B1D781D
:105480003D4421B2414504F1010403DB0023338094
:10549000BDE8F081FFF7DCFF3844435C6B54F0E774
:1054A000AC160020AA160020940C0020A41800209E
:1054B00008B5FFF7CDFF014B184408BD940C002040
:1054C000F8B50C4B04461E780B4B1F88F519802D40
:1054D0000DDC3246094903F0AFF8FFF7E9FF344429
:1054E00001463A46204603F0A7F82846F8BD0025B5
:1054F000FBE700BFA4180020AA160020940C00208F
:1055000008B5FFF7A5FF024B1B88184480B208BD01
:10551000AA16002010B50146FFF7F2FF4318802BB2
:1055200012DC431E094A1BB21A44481C002B05DA40
:10553000074B187801440120197010BD12F8014979
:10554000013B14541BB2F1E70020F6E7940C002055
:10555000A418002070B534220021084803F0E2F8B6
:105560000024074D074E28463146013403F0DFFF83
:10557000042C05F10205F6D170BD00BFB61600205F
:10558000AE160020009B20000023044A1380044A2A
:105590001380044A1370FFF7DDBF00BFAC16002074
:1055A000AA160020A418002038B50C460546FFF7BF
:1055B000EBFF802C28BF802429462246034803F0B5
:1055C0003BF8034B20461C8038BD00BF940C0020E4
:1055D000AA16002010B5074B03F1340253F8044B10
:1055E000934240F8044BF9D1034A13680B605368A7
:1055F0004B6010BDB6160020AE16002010B5074B4C
:1056000000F1340250F8044B904243F8044BF9D1B6
:105610000B68034A13604B68536010BDB616002038
:10562000AE160020024B23F810100120704700BF77
:10563000B6160020014B33F810007047B616002054
:1056400008B5044B1A3803EB400003F070FF01204B
:1056500008BD00BFAE160020024B1A3803EB400015
:10566000704700BFAE1600200149024803F062BF38
:10567000009B2000B0160020084B10B51B6898470F
:10568000074B5B689847074B5B689847064B5B681E
:105690009847BDE81040054B5B681847709920009B
:1056A000A09A2000CC9A2000849A20005C9A2000C6
:1056B000F8B5FDF77BFB114D074600242E461A2056
:1056C000FFF7CAFF294603F035FF80B10A20FFF734
:1056D000B1FF0C2303FB0464237A83420CD160687E
:1056E000381AB0F5206F8CBF00200120F8BD0134BE
:1056F000102C05F10C05E2D10020F7E7140D002075
:1057000070B5194D00242E461A20FFF7A5FF294633
:1057100003F010FF013418B9102C05F10C05F3D17A
:105720000C23621E03FB0464A4F10C057AB90A2061
:10573000FFF780FF3072FDF739FB70601A20FFF72A
:105740008BFFBDE870400146074803F0F0BE2B46D2
:1057500054F8180C54F8141C013A03C354F8100CF4
:105760002C461860E0E700BF140D0020014B18889C
:10577000704700BF540900202DE9F0410129064679
:105780000F46144686B003DC002006B0BDE8F08169
:1057900003A904F00FF80B4603CB1B882061238379
:1057A0009DF811306161002B45D0B51C02AA01A9FA
:1057B00003A803F0C7FE9DF81380B8F1000F4DD089
:1057C000029B2BB16A7815F8023B03EB02239BB2D4
:1057D000B8F1020FA38332D12046314903F0A7FE6E
:1057E0006B78237015F8023B63709DF81580B8F153
:1057F000000F4DD0019B002B37D06A7815F8023B83
:1058000003EB0223029A9BB2E38302B9A383B8F1AC
:10581000020F2DD1224904F1080003F088FE6B78B5
:10582000237215F8023B6372A81B3B1A8742C4E936
:105830000E53A9DBA9E7B378F51CA376B6E7B8F158
:10584000030FD2D105F108021346611E13F8010DB2
:105850009D4201F8010FF9D11546C6E720461049CF
:1058600003F065FEA4F81C80BFE7A38BE383CEE7BB
:10587000B8F1030FD8D105F10802134604F108016D
:1058800013F8010DAB4201F8010BF9D11546CBE736
:10589000034904F1080003F04AFEA4F81E80C3E7A0
:1058A000009B200030B591B00546FFF75FFF4FF633
:1058B000FF73984204D14FF0FF34204611B030BD41
:1058C00040220021684602F02DFF404B1A782AB989
:1058D00001221A70FFF706FB3D4B18701420FFF7EA
:1058E000A9FE8DF810001320FFF7A4FE8DF812001A
:1058F000FFF7BAFE0446002848D000238DF8133085
:105900008DF81530002301248DF814308DF81840DF
:105910004DB10A20FFF78EFE00283FD00A20FFF786
:1059200089FE8DF81A0002248DF81940FFF71EFF3A
:10593000ADF81C00FFF798FE00283CD04FF6FF732F
:105940008DF81740ADF80030FFF710FFADF81E00DE
:105950001A20FFF781FE014602A803F0E8FDFFF7D9
:10596000A7FD0E90FFF76EFD0F90684603F094FEC2
:105970000446002DA1D0FFF7CDFD00289BD0FFF7F6
:105980005DFD0146684603F0CFFE96E70B20FFF76A
:1059900051FE8DF815408DF81300B3E70C4B1A78C3
:1059A00002B91C7019780A204A1C1A708DF81A1056
:1059B000FFF738FEB7E71B20FFF74EFE01466846AB
:1059C00003F0B5FD8DF81740BEE700BFA518002015
:1059D000A6180020014BDB68184700BFCC9A2000B6
:1059E000014B5B69184700BFA09A2000014B9B69DF
:1059F000184700BFA09A2000024BD86900B10047A9
:105A0000704700BFA09A200070B590F829400F4B56
:105A1000042C214628BF04210124DB698C40054663
:105A20009847012838BF0120013C444305D0FFF7C7
:105A300059FAB0FBF4F303FB14042B46214605F19D
:105A40000800034ABDE87040FEF7E8BEA09A2000B7
:105A5000C55B20002DE9F04106461B200F46FFF7ED
:105A6000FBFD494B05461A78484C22B901221A70B1
:105A7000FFF738FA208023880BB90123238021887F
:105A80000A204B1C2380FFF7CDFD414803F008FAA4
:105A90000446002847D13F4803F04DFA0446002849
:105AA00068D02946201D03F042FD002304F12C009C
:105AB000C4E90B30238503F0F0F92146344803F0A4
:105AC0000CFA206B03F01DFA072853DC324803F070
:105AD00032FA0546002841D0304803F02CFAA8607D
:105AE000C0B3FFF741FC686080B30920D5F8088097
:105AF000FFF7A0FD08BB082388F808300D20C8E98F
:105B00000067FFF797FD01282946206B1BD103F0A2
:105B1000F1F9206B03F0C4F9854233D12046BDE88A
:105B2000F041FFF771BF2946201D03F003FD002857
:105B3000C7D1204603F0ECF9AAE70920FFF77AFD68
:105B400088F80800DAE703F0C8F9E2E7A968134823
:105B500003F005FA2946104803F001FA206B03F020
:105B6000D0F938B921460A4803F0A4F9214609487A
:105B700003F0F5F939463046BDE8F041012304222F
:105B800003F038BEBDE8F081A7180020EC16002015
:105B9000340E0020F804002004050020EC0400204E
:105BA00008B5054803F0B7F9044803F0B4F9BDE8B7
:105BB0000840034803F0AFB904050020EC040020BE
:105BC000F804002013B5044668B1006B03F068F9CF
:105BD000024640B12146054B0548DB68019302B0FF
:105BE000BDE81040184702B010BD00BFA09A2000C9
:105BF000715C20002DE9F0470D4614468B6806467F
:105C0000D3E90078106B92F8289003F053F9686894
:105C1000FFF7CCFBA968124803F0A1F92946114807
:105C200003F09DF9206B03F03BF960B1002320469F
:105C30002385FFF7E9FE4B46324641463846BDE82C
:105C4000F04703F0D7BD04F10800FEF729FE214616
:105C5000054803F02FF92146044803F080F9EAE7EC
:105C6000EC04002004050020340E0020F80400207D
:105C70002DE9F0410E461746044620B1006B03F0B3
:105C80000FF9054608B9BDE8F0810A21686803F0FC
:105C900048FC80460A20FFF7CDFC804546D02846C8
:105CA00003F036F9EDE794F8282000203A4484F810
:105CB00028202946224684F82900BDE8F041FFF754
:105CC00099BF002384F8293094F82830DA19D2B229
:105CD00084F828200B7A93421CD8224629460220B9
:105CE000EBE794F82930DA19D2B2052A84F8292092
:105CF00007D9002294F8283084F82920013384F849
:105D0000283094F828200B7A9A4203D32246294659
:105D10000120D2E72046FFF777FE6868BDE8F04132
:105D200003F0F9BB224629463046C6E7A968002998
:105D3000A9D0032EF6D801A353F826F0A75C2000C3
:105D4000E35C2000C35C2000875C2000014B1B6AE1
:105D5000184700BF709920002DE9FF47804689460B
:105D60001A203F49FFF76CFC01210B20FFF75AFC7A
:105D70003C4B5B689847002870DBFFF75FFB3A4DB0
:105D800090F802A06C68FFF759FB0646FFF7B8FBD6
:105D900001463046A047FFF767FCAF690646B847A3
:105DA000044610B1012200240CE0A6B1AB680193B7
:105DB000FFF7A6FB019B9847024688B1022814BF53
:105DC0000422012240460123494603F013FD2046E8
:105DD00004B0BDE8F087EB6998470028E2D1E5E719
:105DE000002E39D1FDF708F80446FDF777F9C4F124
:105DF000FF2404F57F04F334FCF7FEFFC442FBD418
:105E0000B847EE69E8B1FCF7F7FF0446FDF766F91D
:105E1000C4F1FF2404F57F04EB34FCF7EDFFC4422A
:105E2000FBD4B0470446A0B103212B6903A89847CF
:105E3000032803D19DF80E3053450CD000240122D5
:105E4000C0E7B04704460028DDD16B6998470028B9
:105E5000D9D00222B6E700220124B3E70522A2E747
:105E6000EA160020C09A200070992000044B82B0EE
:105E700018B11B6A019302B018475B6AFAE700BFCA
:105E80007099200007B5FFF7DDFA03281BD00F4BF0
:105E90009B689847002816DB1B20FFF7DDFB0C49A9
:105EA00003F048FB58B1FFF703FC60B9FFF728FC8B
:105EB000084BDB68019303B05DF804EB1847FFF76C
:105EC000D3FB0028EFD103B05DF804FBC09A20009B
:105ED000EA160020849A200008B5024B1B689847F8
:105EE000023008BD789A200038B50C4B9B68984763
:105EF000041E02DA4FF0FF3038BDFFF7D9FA0378FD
:105F00000546002BF6D10220FFF77EFA0028F1D0DB
:105F10006878FFF78DFAA01CEEE700BF789A2000A2
:105F200070B50220FFF7F6FA10B94FF0FF3070BDE0
:105F3000FFF784FA002606700446FFF783FA6070C4
:105F4000FFF7DEFA0446FFF7C7FF20442A2812DCD9
:105F5000C0F12B00C4B2FFF7ABFA0546FFF772FAA7
:105F600022463146284402F0DDFBFFF76BFA20445D
:105F700080B2FFF75DFA044B5B689847041ED4DBE0
:105F8000FFF772FAA01CD2E7789A2000014B9B68B9
:105F9000184700BF5C9A200070B504460D461420D7
:105FA0000121FFF73FFB034B29462046BDE8704027
:105FB0009B681847849A200008B501F01DFE084927
:105FC00001F0BEF801F06CFE01F016FE054901F08B
:105FD0005DFD01F065FE3228B8BF322080B208BDF9
:105FE000CA5455C04D558542F8B50024084D094E98
:105FF000094F2B78013BA34200DCF8BD33681B5DE1
:106000000134012BF5D121463846FDF7D9FFF0E7E1
:10601000C01800208C0F00203C9D200008B5FDF723
:1060200065F8BDE80840014802F097BE519D200088
:106030002DE9F0470A2002F077FE1A48FDF7C0FF6D
:106040000024194E194F3378A34204DCBDE8F04711
:106050000A2002F069BE3B684FEA840853F82430F6
:106060001B887BB9302002F05FFE0125DFF84090ED
:10607000DFF840A03378AB4206DC3B2002F054FE50
:106080000134E0E73120EEE73B6853F8083033F89D
:10609000153023B95046FDF793FF0135EAE748462E
:1060A000F9E700BF5D9D2000C0180020000F002010
:1060B000759D2000729D2000F8B50E4D0E486A783F
:1060C0002978FDF77DFF01240C4E0D4F3378A34254
:1060D00004D8BDE8F8400A2002F026BE05EB4403D0
:1060E00015F8141038465A780134FDF769FFE4B208
:1060F000ECE700BF52170020789D2000C018002058
:10610000979D200001222DE9F043DFF8F0803C4C00
:1061100098F800103B48675C9BB030F81730DFF808
:10612000E890ADF84E30134699F80050AA424BDB88
:106130000026364A30F8115032F81120DBB2ADF8A3
:1061400034500DF1340C002F4BD165468DF848606A
:10615000ADF84A208DF84C308DF84D1001AC0FCDC4
:106160000FC40FCD0FC495E80F0007C401AD238005
:106170000EAC0FCD0FC40FCD0FC495E80F0007C4B0
:10618000238001238DF834301AAB03EB460636F832
:10619000643C34216046ADF80030FFF705FA032275
:1061A00069461B4803F0F3F899F8002098F800308E
:1061B000013A93421CDA0133164888F80030FEF7A2
:1061C00037FB1BB0BDE8F083A55C8D4207D130F8EA
:1061D00012601AAD05EB430525F81A6C0133013244
:1061E000A2E730F817500136E75D2CF81650AAE701
:1061F00039460948FEF734FDE3E700BFBA1800202E
:10620000C118002052170020C01800202A170020B3
:10621000E00F002030100020300500202DE9F04F65
:1062200083B0654C00AF21786448FDF7C9FE4CF29D
:106230005030FCF7CFFDFFF7FBFE4CF25030FCF77F
:10624000C9FDFFF739FF4CF25030FCF7C3FD5C4845
:1062500002F083FD6A462478C7F804D0631E3B60D1
:1062600004FB04F39B000733DB08A2EBC3039D464A
:10627000EA46A600F31D03F4FF63ADEB030D514B9B
:106280006D46D3F800E050460023DFF83C919C4275
:106290000BDCDFF8389100234A469C421BDD5AF89C
:1062A0002310013322F8021BF7E7014600225EF8B3
:1062B00023B03BF812C0BCF1000F09D1C1F8009027
:1062C0000132944201F10401F3DC01333044DEE792
:1062D000C1F800C0F4E7224600213D4802F022FA4E
:1062E00032460021284602F01DFA0023A9F80030AA
:1062F00001232B603A689A4242DC354ED7F804D02D
:106300003448FDF75DFE31783348FDF759FE01242E
:10631000294DDFF8C8802B78A34247DC0A2002F021
:1063200003FD4CF25030FCF755FD2D4802F015FDF1
:106330002B78012B08D901222A4B40211A702A48B8
:1063400000232A4AFEF76AFA0C37BD46BDE8F08FF3
:1063500030F802EBE64505DA55F82120002A04BFA3
:106360008846F44601318C42F2DC0122484645F869
:106370002820002206FB08AE944206DC0133B9E770
:1063800048460021DFF840C0EDE755F8221051B92A
:106390005EF82210B0F800B061445945BEBF0180DC
:1063A0000B4902F8018001320230E5E7315D4046D9
:1063B000FDF706FE0134AEE7C01800209F9D2000C7
:1063C000C19D2000000F00207F9698002A17002012
:1063D000C1180020DB9D2000F59D2000F49D2000C9
:1063E000F89D2000BA180020301000200561200020
:1063F000F7B50F4D00242F460E4EADF8040030784F
:1064000001A9A0420BDC07EB400003F090F83478C0
:106410000134E4B23470013C204603B0F0BD28469C
:1064200003F088F802350028F6D10134E7E700BF11
:1064300052170020C01800202DE9F74F1D460446D2
:1064400008461746FFF7D4FF012D4FEA80084FEAB0
:10645000400505D00026B74215DC03B0BDE8F08F3B
:10646000194B1E78194B1A680023194602EB080CC9
:106470009E42EFDDDCF8000020F8131052F82300F4
:1064800001334153F4E72088FFF7B2FF0F4B8346F7
:10649000D3F8009059F808A03AF81030B4F9020087
:1064A00001936BB1FFF788FD019B0344581083B241
:1064B0002AF81B3059F82B20013653530434CAE70D
:1064C000FFF77AFDF3E700BFC0180020000F00209F
:1064D0002DE9F04100242546144E154FDFF8548075
:1064E0003378013BA3420EDC012D05D1FFF7A0FD5F
:1064F0004CF25030FCF76EFCFFF776FDBDE8F04142
:106500000D48FEF795B9FCF75BFC3B6853F8243067
:10651000C01A052808DDD8F800301A5D002A4FF0AF
:10652000010208BF01251A550134D9E7C01800201F
:10653000601000208C0F00203C0F00202DE9F3415B
:10654000E846174E0025344688E80300154F3B788F
:10655000AB420DDCBDF80020042024F82320FFF717
:1065600069F83B7804EB8304013360803B7012E0F0
:106570003146404602F0DEFF043678B104EB850474
:106580000420B4F90250FFF755F800B2284400EB9C
:10659000D0704010608002B0BDE8F0810135D6E7D0
:1065A00002170020BF18002013B500240E4B6846C8
:1065B0000E491C7002F0BBFF02238DF8043042F23A
:1065C0000F7306216846ADF80230FEF7EDFF08486C
:1065D000FEF770FE074802F0C0FB224686210648FF
:1065E000FEF716FB02B010BDBF180020EA1600200F
:1065F000240F00200E9E20001005002007B50B4937
:10660000684602F094FF0023062168468DF80430A6
:10661000FEF7CAFF0648FEF74DFE064802F09DFB56
:106620000122054B1A7003B05DF804FBEA16002046
:10663000240F0020279E2000BC180020092307B546
:10664000062168468DF80430FEF7AEFF0248FEF7DB
:1066500031FE03B05DF804FB240F002007B50C49A0
:10666000684602F064FF0B4B06211B886846ADF8B4
:10667000023001238DF80430FEF796FF0648FEF73E
:1066800019FE0648FEF7D4F803B05DF804FB00BF1E
:10669000EA16002056090020240F0020040F0020D5
:1066A00070B5734C92B02578002D53D103AE3046AF
:1066B000FEF706FF9DF8103013BB0420FEF7BAFF6B
:1066C00000B2413003DA6B4802F047FB16E096E86F
:1066D0000300FFF733FF684905A802F028FF0621F1
:1066E00005A8FEF761FF3146644802F0EFFE644BF7
:1066F0001A781AB986216348FEF78AFA12B070BD7B
:10670000012BFBD10420FEF795FF00B24130F5DBF1
:1067100042F2AC63BDF80E209A42EFD8042607205F
:106720002670FCF733F93046FCF728F9524905A8E2
:1067300002F0FDFE02238DF8183042F20F7306219D
:1067400005A8ADF81630FEF72FFF4F48FEF7B2FD53
:106750002A46CFE7022D3BD10420FEF76BFF00B2A3
:106760004130CBDB01AE3046FEF7AAFE9DF8085063
:10677000022D20D196E8030003ACFFF7DFFE204690
:106780003D4902F0D4FE8DF8105003253F4B8DF8A3
:1067900014501B88ADF80E3094E803000690ADF855
:1067A0001C1005A83421FEF7FFFE2A463146384862
:1067B00002F0EDFDA2E7092DA0D1FFF73FFF35481C
:1067C00000234021344A2570FEF728F833487BE740
:1067D000062D3BD103A8FEF773FE9DF81060012E35
:1067E00027D10420FEF726FF00B2413086DB42F2BB
:1067F000AC63BDF80E209A4280D80426072026708C
:10680000FCF7C4F83046FCF7B9F81B4905A802F0BC
:106810008EFE02238DF8183042F20F73294605A828
:10682000ADF81630FEF7C0FE1748FEF743FD002214
:1068300060E7092E7FF462AFFFF700FF26700023A8
:106840004021154A1348FDF7E9FF57E7092D3FF4AA
:1068500055AF05A8FEF734FE9DF81850092D7FF4BA
:106860004DAF0F4802F079FAFFF7E8FE2570E6E732
:10687000BB1800203F9E2000EA1600206410002074
:10688000BC18002010050020240F0020560900200D
:10689000E00F0020C00F00201D6020006B9E200034
:1068A000799E20002DE9F047048805464CB140F25E
:1068B00039539C4247D1862934D1254802F04DFAFC
:1068C00030E04FF002090720DFF88880FCF75EF81F
:1068D0000220FCF753F8204888F8009002F03DFAB7
:1068E0004C2001F0C1FB1D4E1D4F3060132001F004
:1068F000BBFB88F80090A146DFF86880386098F804
:106900000030013BA34213DC00234FF40071164A10
:106910001648FDF783FF00234FF42071144A1548F1
:10692000FDF77CFF40F2395301202B80BDE8F08752
:10693000D6F800A0FCF744FA3B684AF8240003F8B4
:1069400004900134DBE7002303800320EEE700BF5F
:106950009F9E2000BB180020889E20006010002011
:106960008C0F0020C0180020D16420003C0F0020B4
:106970005D662000040F0020F0B5144E0546337804
:1069800091B0012B19D901AC2046114902F0CFFD7D
:106990000523ADF808508DF80C3094E803000490FE
:1069A000ADF8141003A83421FEF7FEFD0124094DB3
:1069B000094F337802359C4201DB11B0F0BD032250
:1069C0002946384602F0E3FC0134F2E7BE18002005
:1069D000EA160020EE160020E00F00202DE9F04F0F
:1069E000A5B017A80C46FEF76BFD9DF85C6036BBA2
:1069F0008C4B1B78CBB10BAC18AD0FCD0FC40FCDAA
:106A00000FC495E8070084E8070033469DF82E2060
:106A1000BDF82C100CA8FFF70FFD0122862182483B
:106A2000FEF7F6F825B0BDE8F08F342117A8FEF781
:106A3000BBFD03227D497E4802F0A9FCF2E7012E4E
:106A40005CD19DF87430002B3FD17A4918A802F030
:106A500071FD002839D00BAD18AC0FCC0FC50FCC91
:106A60000FC594E80F0007C5734ABDF876101446A9
:106A70009DF878009DF879602B800DF146030DF1AB
:106A80005A0553F8047BAB4242F8047BF9D16B4DB5
:106A90006B4B28706B481980FDF792FA2B780296A1
:106AA0005A1E04EB420149786748019114F81220FC
:106AB000009262782178FDF783FA0222634B00216D
:106AC00063481A70FEF7CCF8ACE79DF874308BB1D0
:106AD000013B24AADBB28DF8743002EB430333F898
:106AE000303C342117A8ADF82C30FEF75DFD0322B1
:106AF0000BA9A0E7574802F030F993E7022E62D1C4
:106B0000524B1B78022B8DD1464B0BAE1B78002BC2
:106B10004BD007AC18AB0FCB84E80F009DF860A0FA
:106B20009DF861B08DF81CA08DF81DB0BDF81C005B
:106B300089461746BDF96C80FFF75AFC464AC5B234
:106B4000126805F18043013B05930492FCF738F984
:106B5000DDE9042342F82300404B013D1B685A5DE8
:106B6000012A03D100225A55FFF762FACDE90897AE
:106B7000ADF8288094E80F0086E80F00BDF82C00DF
:106B8000FFF736FC5A46C3B251463548FDF718FAAE
:106B900049463448FDF714FA41463348FDF710FAE8
:106BA00039463248FDF70CFA3CE7314802F0D5F897
:106BB000214B34211B8817A8ADF82C30FEF7F4FCCC
:106BC0000322314637E7032E58D1DDE91801174D6E
:106BD00000272C46ADF820100899264E07900B9000
:106BE000ADF8301033789F4212DBBDF82C20042022
:106BF00024F82320FEF71EFD33781F4ABDF82E101F
:106C000004EB830422F8131001336080337009E72A
:106C100029460BA802F08EFC043500287FF402AF51
:106C20000137DFE7BD180020100500200217002003
:106C3000E00F0020EA160020EE160020BE1800200B
:106C400056090020A49E2000BA9E2000BB180020F8
:106C500020050020269F2000601000208C0F0020BF
:106C60004A9F2000809F2000969F2000AC9F20001C
:106C7000C39F2000BF1800202A170020042E40F0D8
:106C80008280664B1B78002B60D00BAC18AD0FCD0B
:106C90000FC40FCD0FC495E80F0007C42380BDF8C3
:106CA0002C00FFF7A5FB00215D4B5E4A1B680446E4
:106CB000034403F8011C176800F18045FCF780F8D5
:106CC000013D47F8250001239DF83020BDF82C1028
:106CD0000DF13200FFF7B0FBBDF82E00FFF788FB87
:106CE000514D524E28550A2002F01EF83178504876
:106CF000FDF766F94CF25030FCF76CF8FFF798F9A5
:106D00004CF25030FCF766F8FFF7D6F94CF25030F1
:106D1000FCF760F84748FDF753F929784648FDF736
:106D20004FF90124454F33789C4209DB0A2001F0DA
:106D3000FBFF4CF25030FCF74DF8FFF755F971E6C8
:106D4000295D3846FDF73CF90134ECE73C490DF18B
:106D5000620002F0EFFB78B13A4B3B4A187818A971
:106D60000130C0B218701378013801331370374BFB
:106D700003EB400002F0DBFB342117A8FEF714FC04
:106D80000322324957E6052E24D1304818A902F0D3
:106D9000D1FB00283FF446AE0420FEF74BFC00B2C6
:106DA000FFF70AF9BDF864402044294C80B22080E6
:106DB000FFF7E2FD42F2AC63228807209A4205D930
:106DC000FBF7E4FD0120FBF7D9FD2BE6FBF7DEFD29
:106DD0000220F8E7062E7FF425AE1E4D2B78022BFD
:106DE0007FF420AE2146194802F0A4FB00283FF4AE
:106DF00019AE032300242B70124B07201C70FBF7E5
:106E0000C5FD0120FBF7BAFD134801F0A6FF1348AA
:106E1000FDF794FE2046FFF7C7FB03E6BD180020F0
:106E20008C0F002060100020C1180020C018002026
:106E30009F9D2000DB9D2000F59D2000F49D2000FB
:106E4000EA160020BE180020BF180020EE16002011
:106E500056090020BB180020DD9F200020050020DF
:106E600070B5144E13460C464A7813480978FDF75E
:106E7000A7F83378022B1CD1104B1D78CDB92146D1
:106E80000F4802F057FBA0B10720FBF77FFD012060
:106E9000FBF774FD42F20F700A4B18800323337026
:106EA000FFF76AFD2A46BDE8704086210648FDF7D7
:106EB000AFBE70BDBB18002000A02000BD18002090
:106EC000EE160020560900202005002073B5114B56
:106ED0000C461B78BBB96D462846FEF7F1FA042034
:106EE00026786478FEF7A6FB224603B231460A48AC
:106EF000FDF766F80420FEF79DFB00B2413004DA8E
:106F0000064801F02AFF02B070BD95E80300FFF7C4
:106F100015FBF8E7BB1800204EA020003F9E200084
:106F20002DE9F04105880746144696B0002D64D03F
:106F300040F2F4439D4240F09C80882940F08480D8
:106F40004E4801F07DFF00286ED04D4B04205B6859
:106F500098474C4B00115B68ADF830000120984712
:106F6000494B0B905B680120984709AE47490A904E
:106F700001AD304602F0DBFA96E80F0085E80F001D
:106F800008461146BDF93020414BB2F5FA7F52DA7E
:106F9000FF244FF002081C62CDE90201ADF8102079
:106FA00005AC95E80F000AAD84E80F00394C8DF868
:106FB000248085E80F0034213046FEF7F5FA627828
:106FC00021783548FCF7FCFF03222146334802F0C4
:106FD000DEF942F20573324C22889A4205D8072026
:106FE000FBF7D4FC4046FBF7C9FC21882D48FCF791
:106FF000E7FF224801F012FF16E00720FBF7C6FC6E
:107000000220FBF7BBFC1E4B24219B688020984785
:107010004FF48071194801F0F8FE2B464FF42071AF
:10702000214A2248FDF7FAFB40F2F44301203B805D
:1070300016B0BDE8F08149F64044A042A8DCB1F5A5
:107040007A7FA5DB0024A4E78629EDD1002AEBD1C5
:10705000174B1B78032BE7D1164801F07EFE234621
:107060008021154A1548FDF7D9FB1548FDF766FD47
:10707000DAE7002303800320DAE700BF5010002086
:10708000E8982000289A2000189A2000EA1600208C
:1070900000B00D40EE1600208FA12000E00F002070
:1070A00056090020ACA120005D662000040F0020DE
:1070B000BB180020C1A12000A9652000A00F00205E
:1070C0002005002007B50C4B01A99B6A01209847B9
:1070D0000A4801F042FE0A4B0A4819785A78FCF730
:1070E0006FFF01990848FCF76BFF084801F035FE77
:1070F00003B05DF804FB00BF709920005BA2200084
:10710000EA16002082A2200097A22000AFA2200051
:10711000002310B50748084C0380214602F00AFA04
:1071200030B1627821780548BDE81040FCF748BFCF
:1071300010BD00BF7A170020EA160020D7A2200059
:107140004FF0FF0C1CEAD0521EBF1CEAD15392EA4A
:107150000C0F93EA0C0F6FD01A4480EA010C400226
:1071600018BF5FEA41211ED04FF0006343EA501080
:1071700043EA5111A0FB01310CF00040B1F5000FC2
:107180003EBF490041EAD3715B0040EA010062F171
:107190007F02FD2A1DD8B3F1004F40EBC25008BF5B
:1071A00020F00100704790F0000F0CF0004C08BF79
:1071B00049024CEA502040EA51207F3AC2BFD2F146
:1071C000FF0340EAC250704740F400004FF0000354
:1071D000013A5DDC12F1190FDCBF00F0004070478E
:1071E000C2F10002410021FA02F1C2F1200200FACC
:1071F00002FC5FEA310040F1000053EA4C0308BF93
:1072000020EADC70704792F0000F00F0004C02BFE3
:10721000400010F4000F013AF9D040EA0C0093F05E
:10722000000F01F0004C02BF490011F4000F013BB8
:10723000F9D041EA0C018FE70CEAD15392EA0C0F26
:1072400018BF93EA0C0F0AD030F0004C18BF31F091
:10725000004CD8D180EA010000F00040704790F067
:10726000000F17BF90F0004F084691F0000F91F00B
:10727000004F14D092EA0C0F01D142020FD193EAD1
:107280000C0F03D14B0218BF084608D180EA010059
:1072900000F0004040F0FE4040F40000704740F035
:1072A000FE4040F44000704781F0004102E000BF22
:1072B00083F0004330B54FEA41044FEA430594EAB6
:1072C000050F08BF90EA020F1FBF54EA000C55EAF1
:1072D000020C7FEA645C7FEA655C00F0E2804FEAC2
:1072E0005454D4EB5555B8BF6D420CDD2C4480EAA4
:1072F000020281EA030382EA000083EA010180EAD4
:10730000020281EA0303362D88BF30BD11F0004F21
:107310004FEA01314FF4801C4CEA113102D0404257
:1073200061EB410113F0004F4FEA03334CEA133392
:1073300002D0524263EB430394EA050F00F0A780AA
:10734000A4F10104D5F1200E0DDB02FA0EFC22FAA5
:1073500005F2801841F1000103FA0EF2801843FA99
:1073600005F359410EE0A5F120050EF1200E012A8A
:1073700003FA0EFC28BF4CF0020C43FA05F3C018C8
:1073800051EBE37101F0004507D54FF0000EDCF141
:10739000000C7EEB00006EEB0101B1F5801F1BD3EA
:1073A000B1F5001F0CD349085FEA30004FEA3C0CEE
:1073B00004F101044FEA445212F5800F80F09A80E4
:1073C000BCF1004F08BF5FEA500C50F1000041EBE8
:1073D000045141EA050130BD5FEA4C0C404141EBEC
:1073E0000101013C28BFB1F5801FE9D291F0000FE7
:1073F00004BF01460020B1FA81F308BF2033A3F196
:107400000B03B3F120020CDA0C3208DD02F1140C8C
:10741000C2F10C0201FA0CF021FA02F10CE002F1C7
:107420001402D8BFC2F1200C01FA02F120FA0CFCC0
:10743000DCBF41EA0C019040E41AA2BF01EB045109
:10744000294330BD6FEA04041F3C1CDA0C340EDC07
:1074500004F11404C4F1200220FA04F001FA02F34A
:1074600040EA030021FA04F345EA030130BDC4F108
:107470000C04C4F1200220FA02F001FA04F340EAFD
:107480000300294630BD21FA04F0294630BD94F0AE
:10749000000F83F4801306BF81F480110134013D95
:1074A0004EE77FEA645C18BF7FEA655C29D094EA06
:1074B000050F08BF90EA020F05D054EA000C04BF84
:1074C0001946104630BD91EA030F1EBF002100206F
:1074D00030BD5FEA545C05D14000494128BF41F00E
:1074E000004130BD14F580043CBF01F5801130BD72
:1074F00001F0004545F0FE4141F470014FF00000FD
:1075000030BD7FEA645C1ABF194610467FEA655CAD
:107510001CBF0B46024650EA013406BF52EA03354F
:1075200091EA030F41F4002130BD00BF90F0000F3D
:1075300004BF0021704730B54FF4806404F1320479
:107540004FF000054FF0000150E700BF90F0000F32
:1075500004BF0021704730B54FF4806404F1320459
:1075600010F0004548BF40424FF000013EE700BF29
:1075700042004FEAE2014FEA31014FEA02701FBFB9
:1075800012F07F4393F07F4F81F06051704732F0EB
:107590007F4208BF704793F07F4F04BF41F4002142
:1075A000704730B54FF4607401F0004521F00041A0
:1075B0001CE700BF50EA010208BF704730B54FF02A
:1075C00000050AE050EA010208BF704730B511F02B
:1075D000004502D5404261EB41014FF4806404F163
:1075E00032045FEA915C3FF4D8AE4FF003025FEAE9
:1075F000DC0C18BF03325FEADC0C18BF033202EB6D
:10760000DC02C2F1200300FA03FC20FA02F001FAC6
:1076100003FE40EA0E0021FA02F11444BDE600BF69
:1076200070B54FF0FF0C4CF4E06C1CEA11541DBF18
:107630001CEA135594EA0C0F95EA0C0F00F0DEF8E3
:107640002C4481EA030621EA4C5123EA4C5350EAC8
:10765000013518BF52EA033541F4801143F4801319
:1076600038D0A0FB02CE4FF00005E1FB02E506F0AA
:107670000042E0FB03E54FF00006E1FB03569CF0FF
:10768000000F18BF4EF0010EA4F1FF04B6F5007F05
:1076900064F5407404D25FEA4E0E6D4146EB060677
:1076A00042EAC62141EA55514FEAC52040EA5E5000
:1076B0004FEACE2EB4F1FD0C88BFBCF5E06F1ED8AA
:1076C000BEF1004F08BF5FEA500E50F1000041EBE1
:1076D000045170BD06F0004646EA010140EA02008E
:1076E00081EA0301B4EB5C04C2BFD4EB0C0541EAB0
:1076F000045170BD41F480114FF0000E013C00F3C5
:10770000AB8014F1360FDEBF002001F0004170BDE8
:10771000C4F10004203C35DA0C341BDC04F1140401
:10772000C4F1200500FA05F320FA04F001FA05F28D
:1077300040EA020001F0004221F0004110EBD3705A
:1077400021FA04F642EB06015EEA430E08BF20EA86
:10775000D37070BDC4F10C04C4F1200500FA04F329
:1077600020FA05F001FA04F240EA020001F00041BB
:1077700010EBD37041F100015EEA430E08BF20EA2E
:10778000D37070BDC4F1200500FA05F24EEA020E76
:1077900020FA04F301FA05F243EA020321FA04F0A5
:1077A00001F0004121FA04F220EA020000EBD3705C
:1077B0005EEA430E08BF20EAD37070BD94F0000F5C
:1077C0000FD101F00046400041EB010111F4801F90
:1077D00008BF013CF7D041EA060195F0000F18BF41
:1077E000704703F00046520043EB030313F4801F7D
:1077F00008BF013DF7D043EA0603704794EA0C0F37
:107800000CEA135518BF95EA0C0F0CD050EA41064C
:1078100018BF52EA4306D1D181EA030101F00041C9
:107820004FF0000070BD50EA410606BF10461946F1
:1078300052EA430619D094EA0C0F02D150EA0136FD
:1078400013D195EA0C0F05D152EA03361CBF10463E
:1078500019460AD181EA030101F0004141F0FE41DD
:1078600041F470014FF0000070BD41F0FE4141F461
:10787000780170BD70B54FF0FF0C4CF4E06C1CEA61
:1078800011541DBF1CEA135594EA0C0F95EA0C0F16
:1078900000F0A7F8A4EB050481EA030E52EA0335D1
:1078A0004FEA013100F088804FEA03334FF08055F2
:1078B00045EA131343EA12634FEA022245EA11151F
:1078C00045EA10654FEA00260EF000419D4208BFD0
:1078D000964244F1FD0404F5407402D25B084FEA7D
:1078E0003202B61A65EB03055B084FEA32024FF429
:1078F00080104FF4002CB6EB020E75EB030E22BF86
:10790000B61A754640EA0C005B084FEA3202B6EB45
:10791000020E75EB030E22BFB61A754640EA5C00F4
:107920005B084FEA3202B6EB020E75EB030E22BF84
:10793000B61A754640EA9C005B084FEA3202B6EB85
:10794000020E75EB030E22BFB61A754640EADC0044
:1079500055EA060E18D04FEA051545EA16754FEAA6
:1079600006164FEAC30343EA52734FEAC2025FEAC4
:107970001C1CC0D111F4801F0BD141EA00014FF053
:1079800000004FF0004CB6E711F4801F04BF014324
:107990000020B4F1FD0C88BFBCF5E06F3FF6AFAE40
:1079A000B5EB030C04BFB6EB020C5FEA500C50F1D0
:1079B000000041EB045170BD0EF0004E4EEA113153
:1079C00014EB5C04C2BFD4EB0C0541EA045170BD5A
:1079D00041F480114FF0000E013C90E645EA060E9E
:1079E0008DE60CEA135594EA0C0F08BF95EA0C0FCC
:1079F0003FF43BAF94EA0C0F0AD150EA01347FF414
:107A000034AF95EA0C0F7FF425AF104619462CE7EA
:107A100095EA0C0F06D152EA03353FF4FDAE10464D
:107A2000194622E750EA410618BF52EA43067FF49E
:107A3000C5AE50EA41047FF40DAF52EA43057FF42E
:107A4000EBAE12E74A0011D212F5001211D20DD599
:107A50006FF47873B3EB62520ED44FEAC12343F054
:107A6000004343EA505323FA02F070474FF00000FE
:107A7000704750EA013002D14FF0FF3070474FF0AD
:107A80000000704780F0004002E000BF81F000413C
:107A900042001FBF5FEA410392EA030F7FEA226CB4
:107AA0007FEA236C6AD04FEA1262D2EB1363C1BF44
:107AB000D218414048404140B8BF5B42192B88BFB3
:107AC000704710F0004F40F4000020F07F4018BFD6
:107AD000404211F0004F41F4000121F07F4118BFF6
