:020000040020DA
:102000009020002089252000DB862000D986200032
:10201000D9862000D9862000D98620000000000043
:10202000000000000000000000000000518F2000B0
:10203000D9862000000000006F8F20005D872000FF
:102040006F872000758720007B8720008187200014
:10205000000000006387200069872000D9862000E7
:10206000D9862000000000000000000000000000F1
:102070000000000000000000D986200000000000E1
:102080000000000000000000D9862000D986200052
:10209000D9862000D9862000D9862000D986200044
:1020A000D9862000D9862000D9862000D986200034
:1020B000D9862000D9862000D9862000D986200024
:1020C000D9862000D9862000D9862000D986200014
:1020D000D986200000000000000000000000000081
:1020E00000000000000000000000000000000000F0
:1020F0000000000000000000B13B2000C13B2000B8
:1021000000000000000000000000000000000000CF
:1021100000000000000000000000000000000000BF
:1021200000000000000000000000000000000000AF
:10213000000000000000000000000000000000009F
:10214000000000000000000000000000000000008F
:10215000000000000000000000000000000000007F
:10216000000000000000000000000000000000006F
:10217000000000000000000000000000000000005F
:10218000000000000000000000000000000000004F
:10219000000000000000000000000000000000003F
:1021A000000000000000000000000000000000002F
:1021B000000000000000000000000000000000001F
:1021C000000000000000000000000000000000000F
:1021D00000000000000000000000000000000000FF
:1021E00000000000000000000000000000000000EF
:1021F00000000000000000000000000000000000DF
:1022000000000000000000000000000000000000CE
:1022100000000000000000000000000000000000BE
:1022200000000000000000000000000000000000AE
:10223000000000000000000000000000000000009E
:10224000000000000000000000000000000000008E
:10225000000000000000000000000000000000007E
:10226000000000000000000000000000000000006E
:10227000D9862000913A2000B53A20002131200073
:102280000D3D2000412C2000D986200000000000D8
:10229000F0B50488064699B07CB140F28D339C427B
:1022A00040F02581862964D1002A58D1984B1B78AB
:1022B000042B36D1802197484EE0974B0F21DB6AE3
:1022C00001209847954B80219B684FF48070984778
:1022D00004F00EFD04F032FD8221914A914802F093
:1022E000EDFE8121904A914802F062FE8321904ADE
:1022F000904802F047FE864B07201C7000F036FA2B
:10230000172000F02BFA8C4B34211C708B4B8C481F
:102310001C7001F045FD40F28D330120338019B06F
:10232000F0BD02F0CFFC04F027FF73A3D3E9002334
:1023300004F08CFF72A3D3E9002305F0B1F872A377
:10234000D3E9002304F0CCFD00227E4B04F07EFF95
:1023500005F08EF901467C4806F08FFADBE7012A8A
:10236000D9D100234FF42071784A794802F046F918
:10237000D1E7882954D1744806F09AFA30B16E4BEF
:102380001B781BB904F0B8F8C02194E7614806F047
:102390008FFA0028BFD05E4A1378033B012B02D886
:1023A00004F0FCF9B7E701236A48137006F00DFA50
:1023B000072000F0DBF9042000F0D0F9664B1B7811
:1023C000002BA8D16846654906F0E9FD5B4B01ACDE
:1023D0001B788DF80230624B03F1280522461868FD
:1023E0005968083303C2AB421446F7D100236C4648
:1023F0000CAD8DF82C300FCC0FC50FCC0FC594E869
:10240000070085E8070034210BA802F0BDFF022277
:102410005349484806F013FD524806F0D6F97AE7CA
:10242000514B1B788B422FD13C4B9A427FF473AFB8
:1024300000205368984700287FF46DAF0124464B75
:102440004A4F1C704A4B454918804A4806F0A7FD80
:102450003C7004F051F8384B042114201C7005F036
:10246000DFFB454B051F186000F14C0402211420CE
:1024700005F0D6FB45F8040FAC42F7D101233F48E5
:102480003B7006F0A2F97FE73D4B1B788B427FF44F
:1024900042AF01240022304B344D1C70344B2F4985
:1024A00034481A8006F07BFD2C7004F025F8224B8E
:1024B000042114201C7005F0B3FB2F4B071F18607C
:1024C00000F14C040221142005F0AAFB47F8040F88
:1024D000A742F7D1142329482B7006F076F9294832
:1024E00006F073F900F0F2FC01232B704CE7002397
:1024F0000380032013E700BF9A9999999999C93FDE
:1025000000000000E0FFEF40666666666666E63F34
:10251000731800207C0F0020E093200068932000B7
:10252000689520004410002054952000240F0020BE
:102530005C952000C00F0020741800207718002040
:102540005F99200000006040900F0020A55F2000F0
:102550005C0F00207999200075180020CA16002011
:10256000E21600208F9920004B18002078180020D8
:10257000560900200A170020000F0020A399200010
:1025800049180020B0992000FF22002408B5094B0B
:102590000948C3F8B420094A636E0949121A9847DA
:1025A0000848094A2146236E121A984700F00EF88F
:1025B000FEE700BF00200D40400000205A09002027
:1025C0009C9C2000600900208D18002073B500F04D
:1025D00085FC00F03FFD00F09BFC00F0B5FA01F037
:1025E00083FB06F070F900F02DFD00F0ADF801203E
:1025F00006F076F802F098F900F054FC002000F0A4
:1026000077FB012000F074FB00203D4900F034FC12
:1026100002F0BEFA62B6042006F062F8394806F00D
:10262000D4F8394806F0D1F800F02CFA002002F076
:1026300057FB01F055FA0021344802F001FA01F08D
:10264000A7FF06F07BF800F08FFD00F0ABFD02F075
:1026500003FF0821684601F06DFB2D4DBDF80640D3
:102660002C482C8001F09CFB2B4E29782B4801F044
:1026700097FB69782A4801F093FBF56A4AF6CD3159
:102680000220A84761BA89B20320A8471A21012075
:10269000A84708226946736B0B209847214801F030
:1026A0007FFB214B186806F090F8204801F078FB7A
:1026B0001F4B186806F089F81E4801F071FB1E4B8D
:1026C000186806F082F800211C4802F0B9F91C4B8A
:1026D00001219B688120984706F0CEF8194806F042
:1026E000C1F800F0E5FB022005F0FAFF00F0E6FB80
:1026F00002F032F9C0B20028F8D101F08DFAF5E706
:10270000494B20007295200084952000A0040020F1
:10271000CA160020A9952000E0932000C79520004C
:10272000CD952000D3952000B4942000DA952000A8
:10273000F4942000E195200010952000C0040020B2
:10274000689320004C95200008B500F043F9002262
:10275000014B1A7008BD00BF34170020024B1A78D5
:102760001043187000F058B934170020034A13784A
:1027700023EA0000107000F04FB900BF34170020AA
:1027800008B50B4B1B7803420FD020280BD0042830
:102790000BD10220074B80211A7800F085FC20EA3B
:1027A000E07000B208BD0520F4E74FF00040F9E703
:1027B0003617002035170020802810B50C4605D0AC
:1027C000B0F5807F2BD04FF0004027E08B1E222BEE
:1027D000F9D8194BD3F8202422EA0102C3F82024A7
:1027E000D3F8002422EA0102C3F800248A0604D5A3
:1027F00001220521002000F03BFC630704D50122E3
:102800000221002000F034FC00F046FC30220B4B8B
:102810001A700B4B187820431870002010BDC8B2F6
:10282000202803D005D810F0EF0FCCD1034B18703F
:10283000F4E73028FAD0C6E700900D4035170020A5
:102840003617002018B1012804D000207047034B30
:10285000186A7047024B1878704700BF00900D400F
:102860003817002010B5094A00201378013313707F
:10287000074B197802F0BCF8BDE810400549002369
:10288000054A0968054801F0B9BE00BF38170020A5
:1028900037170020980900206528200078090020BB
:1028A00008B50346812B08462DD0B3F5807F3ED076
:1028B000802B26D102F02AF81E4B032118701E4BE4
:1028C0000020D3F8202422F00802C3F82024D3F8F3
:1028D000002422F00802C3F80024D3F8042422F0D4
:1028E0000802C3F80424D3F8082442F00802C3F80D
:1028F0000824042200F0BCFB032200210F4800F052
:102900005BFB01200AE00C4B0D49D3F8102430B1D9
:1029100042F00802C3F8102401230B6008BD22F026
:102920000802C3F810240123C1F88030F6E7054BF4
:102930001960E6E73717002000900D404929200074
:1029400000E100E09809002008B50F4805F0CFFF2E
:10295000C8B108210C4805F0B8FF0C4B196849B103
:1029600000220B4B1A700B4B1B6A43B90A4A0B48E7
:1029700001F044FEBDE80840094802F085B9074867
:1029800001F07EFEF6E708BD7009002098090020DE
:102990003817002000900D4065282000780900209D
:1029A00068932000094BD3F8202422F00402C3F8D6
:1029B0002024D3F8002442F00402C3F800240022AB
:1029C0001A610122024B1A70704700BF00C00D400F
:1029D0003D17002000210F4BD3F8202422F0C00225
:1029E000C3F82024D3F8002442F0C002C3F8002426
:1029F000C3F8001303F50053D3F8202422F010028B
:102A0000C3F82024D3F8002442F01002C3F80024B5
:102A10001964704700A00D4010F0020218BFFF2299
:102A2000084BC3F8002210F0040218BFFF2210F078
:102A30000100C3F8002118BFFF22034B14BF1A6422
:102A40001864704700A00D4000C00D40044BDB69C6
:102A5000C3F3072013F4704F04BF1030C0B27047A7
:102A600000300D40064B5869C00910F0060F03BF37
:102A700000F00700C0F1020040034FF4004070472F
:102A800000300D402DE9F047002488B0FFF7DEFF4D
:102A9000164B0646DF69236D9847E36C80469847DE
:102AA0000446FFF7DFFF054600F06EFA814600F0AE
:102AB00077FA824600F022FAAD0A07F00103A40A71
:102AC000C7F34007CDE905A003934146CDF8109028
:102AD00002970195009406F00F03C6F3071204480D
:102AE00001F05EF908B0BDE8F08700BF00300D408E
:102AF000049620002DE9784800F06EF8104902464F
:102B0000D1E900BC6646584538BF0CF10106334692
:102B1000C1E900230B4ED6E90001B0EB0B0461EBD9
:102B20000C05A01845EB0301C6E9000101F058FEB1
:102B300018B1BDE8784801F0D9BDBDE8788800BF7C
:102B400068090020600900204FF0E023E0210B4AD3
:102B50005A610B4A82F82310002207219A611961F9
:102B600008498B6843F001038B60074BDA6004224D
:102B70001A6001225A600F229A63704747E80100E9
:102B800000ED00E000200D4000000340034BD3E9BE
:102B90000023100A40EA0360704700BF6809002064
:102BA000034BD3E90023D00B40EA4340704700BFFA
:102BB00060090020044B9862DA6842F00102DA6092
:102BC000DA68D207FCD4704700000340014B186854
:102BD000704700BF9C090020054A106C516C936C33
:102BE0001B0443EA01230343D06C43EA00607047AF
:102BF00000500D4010B504460E4A136DDB07FCD59E
:102C000072B6FFF7E9FF231A062BD8BFC41D094B84
:102C1000220EDA64C4F307429A64C4F307225A64AA
:102C2000E2B21A6462B64FF40032034B1C60034BED
:102C30001A6110BD00500D409C09002000E100E029
:102C400008B500F0D5FF0022064B1A604FF40032A1
:102C5000054BC3F89021C3F89020BDE8084001F06F
:102C600013BF00BF9C09002000E100E0064B9B69F8
:102C70001B075FBF054B986980F00800C0F3C000D8
:102C800048BF0020704700BF00C0004000D0004097
:102C90002C22154B70B502FB00334FF6BF72DC6877
:102CA0000546236C626413F050020DD00F4EA369E9
:102CB000DB0600D570BD56F825301BB12068C0B2C8
:102CC0009847F4E72368F2E713F4D06FF2D04FF49B
:102CD00040732363FF236360E36AE262E362236B72
:102CE00043F001032363E5E778932000A009002067
:102CF00001282DE9F74F804600F2AD802C25454391
:102D0000564F7C1994F92090B9F1000FC0F2A380BE
:102D100094F92260002EC0F29E80514800F0D2FF4C
:102D2000504B79599A6A94F921A00A439A62DA6A57
:102D30006168E5680A43DA621A6BA168F0B20A4377
:102D40001A63002322690AEBC901C5F8C83F116064
:102D500094F82310227DCDE9000194F923B000F00E
:102D600091F9DDE90001082200F082F90122310326
:102D70003D4E02FA0BFB88594FEA09394BEA000035
:102D8000885159F8061002FA0AFA4AEA010149F88C
:102D900006105021A963A96B94F9240041F4D06175
:102DA000A963022169634FF440712963A169002876
:102DB0006962E169A9624FF07001E96216DB0023E4
:102DC00094F92510294C41EAC005C4F804510403C4
:102DD000A5598A402A43A251C9B21A46C0B200F08E
:102DE00047F9234A136B43F4004313632C2303FB7B
:102DF000087393F92640002C1ADB93F82790E5B26C
:102E000001224946284693F927A000F03BF9012307
:102E10002403A25903FA0AF31343A3510822494693
:102E2000284600F025F9124A136B43F480431363DC
:102E30002C2000FB0877FA68136B43F0010313633F
:102E4000012297F82830590903F01F0302FA03F30F
:102E5000084A42F8213003B0BDE8F08F7893200093
:102E60006D2C200000200D4020940D4000400D40AE
:102E700000D0004000E100E001289CBF014B43F876
:102E800020107047A0090020012808D82C22044BEC
:102E900002FB0030C3689A699206FCD4196070473F
:102EA000789320000022014B1A60704700500D40BB
:102EB0000822014B1A60704700500D40A022024BBF
:102EC0001A6050221A60704700500D4072B60B22F3
:102ED000014B1A60FEE700BF00500D40014A024B53
:102EE0009A6070470020200000ED00E0024B586817
:102EF000C0F38150704700BF00200D4008B5FFF7B8
:102F0000F5FF024B53F8200008BD00BFD09320000E
:102F100010B5194C0122D4F82034062123F04003C7
:102F2000C4F82034D4F80034032023F04003C4F85C
:102F3000003400F09DF8D4F82034012223F08003FF
:102F4000C4F82034D4F80034072123F08003C4F8F7
:102F50000034032000F08CF8084A094B1A60094A33
:102F600059681142FCD15A685201FCD4044A536892
:102F70005B01FCD510BD00BF00C00D400101020087
:102F800000200D4000000101034B04485B6803F082
:102F900007031841704700BF00200D400048E801BA
:102FA000034B04485B68C3F302231841704700BF1A
:102FB00000200D400048E801024B02EBC10243F83B
:102FC00022007047A8090020F8B507460D460024E6
:102FD000084E06EB411647FA04F3DB07E1B204D5CD
:102FE00056F824300BB1284698470134082CF2D10A
:102FF000F8BD00BFA80900202DE9F8430546DFF819
:10300000388000F0F5FD0D4B2E03F75856F80840B8
:103010004FEAC50924FA09F447EA04002946C0B278
:10302000FFF7D2FFE4B2064BFFB204FA09F4F750FF
:1030300046F80840BDE8F88318970D4018940D40F5
:103040001C940D4080220021014805F081B900BF89
:10305000A8090020034B044A1A60044B803A1A6006
:10306000704700BF280A002080400D402C0A002035
:10307000034B01EBC0011B6843F82120704700BFE0
:10308000280A0020034B01EBC0011B6843F82120F4
:10309000704700BF2C0A0020024A136843F0300337
:1030A0001360704700700D400E2870B506460DD1B4
:1030B000134B5C6B44F0020058631248D0F8F4568E
:1030C00025F03F0343F00103C0F8F4360E4883684F
:1030D00023F0FF031A4311433143816003681B0649
:1030E000FCD5C368006903F0FC0343EA00230E2EFD
:1030F00018B201BF034BC3F8F456014B5C6370BDBB
:10310000000001440080084000700D40034BD3F8DC
:103110000007B0FA80F04009704700BF00B00840D7
:103120004FF40042064B10B5064CC3F89021C3F88B
:103130009020206818B101F09BFC0023236010BD93
:1031400000E100E0300A0020064B9A6C42F00202D7
:103150009A64DA6C42F00202DA641A6D42F00202FA
:103160001A65704700200D4007B50C4800F0AAFD15
:10317000FFF7EAFF0A4B5A6D42F002025A6500223D
:103180000192019A0F2A06DD5A6D22F002025A6559
:1031900003B05DF804FB019A0132F1E70D31200024
:1031A00000200D40064B9A6C22F002029A64DA6C01
:1031B00022F00202DA641A6D22F002021A657047E8
:1031C00000200D400D4BD3F84C269107FBD4D3F8CB
:1031D0004C2652065EBFED22C3F83828C3F83828C3
:1031E000D3F82C2612B1EF22C3F83828044A012064
:1031F000137803F07F031370704700BF008008400E
:1032000040170020044BD3F84C0600F02200A0F138
:10321000200358425841704700800840024BD3F8C1
:103220004C0600F04000704700800840054BD3F882
:10323000002620B142F00102C3F80026704722F0B8
:103240000102F9E700800840284B1870002841D09F
:10325000274A53681B03FCD5264BD3F8042842F0B9
:103260000202C3F80428D3F8042842F00102C3F88C
:103270000428D3F804285007FBD5D3F8042822F0FB
:103280000102C3F804281B4BD3F804285107FBD4D0
:10329000D3F8042842F00202C3F80428D3F8042823
:1032A00042F00102C3F80428D3F804285207FBD5E2
:1032B000D3F88C2622F00402C3F88C26D3F83428E5
:1032C00022F00402C3F834284FF400520A4BC3F82A
:1032D00090207047074AD2F88C3643F00403C2F8B6
:1032E0008C364FF40052044B1A6170473F17002090
:1032F00000200D400080084000E100E0094B93F9F8
:103300000020002A0CDBED21074AC2F83818C2F869
:103310003818E321C2F838181A7862F07F021A7060
:1033200001207047401700200080084070B5A0F1D0
:103330000B05EBB20F2B044614D80C4ED6F84836CA
:1033400013F03F0302D0FFF73DFF012305EB850596
:103350000B35C6F83C560BB1FFF7D0FF044B60B2FB
:103360001C7070BD4FF0FF30FBE700BF00800840CD
:103370005809002038B50C46002900F0918010282B
:1033800000F29080DFE800F009111D252B434C600E
:10339000667D818E8E86885D8A00434BD3F82C36FD
:1033A000003B18BF012323602BE005223E4BD3F8DE
:1033B0003C3603F07F030B3B93FBF2F30B33DBB2A2
:1033C000F1E7394AD2F8CC15D2F8C83543EA0123DF
:1033D000E9E7354AD2F8D415D2F8D035F6E700231C
:1033E000314A0B60D2F8003603F001030B60D2F8CB
:1033F0002426900644BF43F002030B602B4B1B783E
:103400000BB900200BE00B6843F00403CBE700206E
:10341000274B08601B78002BF3D001230B6038BDCD
:10342000214B2449D3F840260023D2B201EBC3003C
:103430000079904202D851F83330B4E701330E2BB3
:10344000F4D16FF01703AEE7174BD3F858365BB2E1
:10345000493BA8E7144DD5F8483699060FD1FFF738
:103460004DFF0123D5F86426D207FBD5D5F8605669
:10347000493D6DB20BB1FFF7A5FE2560C1E7002302
:10348000F0E70D4B93F900308DE70C4B1B7803F000
:103490007F0388E70B2386E71A2384E7072382E765
:1034A0000220BCE70120BAE7008008403F17002057
:1034B0005909002018942000411700203E170020D1
:1034C00010B50B4CD4F8483699060FD1FFF716FF0C
:1034D0000123D4F86426D207FBD5D4F84C46C4F3B4
:1034E00000140BB1FFF76EFE204610BD0023F0E77D
:1034F0000080084010B50C46072865D8DFE800F0CA
:10350000040F1A232C444A5E012903D1FFF7F6FE6B
:1035100000203EE0002959D1FFF754FEF8E7A1F161
:103520000B030F2B52D8C8B2FFF700FF0130EFD1C9
:1035300003202EE0264BCAB2C1F30724C3F8C825E6
:10354000C3F8CC45E4E7224BCAB2C1F30724C3F861
:10355000D025C3F8D445DBE731F0070336D101F0BD
:103560000100FFF763FE1A4B11F0020FD3F8242677
:10357000C1F3800014BF42F0200222F02002C3F801
:103580002426FFF761FEC3E731F001001ED1114B85
:10359000197010BD01F118031F2B17D80D230E4A07
:1035A00052F833108C4206DC02EBC3031A79084B45
:1035B000C3F84026ACE7013BF2D2A9E7044BCCB2FA
:1035C0004934C3F85846A3E70120E2E70220E0E7C8
:1035D00000800840590900201894200070B5054665
:1035E0000C46144ED6F84C369B07FBD4124B93F97D
:1035F0000030002B01DBFFF781FEEE23691EC6F8C9
:103600003838C6F83838A31CC6F8283821440220B8
:1036100000F080FA0949013C41EA0411022000F05F
:103620008BFA022000F092FA022000F0A7FA0020A4
:1036300070BD00BF008008404017002002C001C0DC
:1036400070B5264B93F90030002B19DBFFF7C4FA55
:103650000446FFF753FEC4F1FF2404F57F04F6345B
:10366000FFF7BAFAC442FBD401261D4B1B784BB9B5
:103670001C4CD4F84C36990609D50224204670BD5E
:103680000026F2E7FFF71CFF0028F1D1F5E7E92358
:103690000425C4F83838D4F84C369A0703D4013DD1
:1036A00015F0FF050AD1D4F84C369B070AD50D4B0F
:1036B000D3F84C4614F00204FAD109E00620FFF7D3
:1036C00079FAE8E7EE23C4F83838C4F8383801242A
:1036D000002ED3D0FFF776FDD0E700BF40170020C3
:1036E00059090020008008400B280DD1082A0DD16F
:1036F00061B1074B074A083111F8010D43F8040B7B
:103700009342F9D100207047012070470220704792
:10371000A8850840C885084070B5384A0546D2F8E3
:103720004C0610F0400009D0D2F82808040606D54F
:10373000ED23C2F83838C2F83838002070BDC0B266
:103740000428F5D902388842F2DCC4B2032C24D113
:10375000D2F828382B70D2F828386B70D2F8283875
:10376000AB70264D264BD5F82818264E493949B25C
:103770001970D5F828381806337026D589B2042078
:1037800001F040FE3178032001F07F0101F03AFEA4
:103790001D4B1B78FBB12046D0E7291903200139C6
:1037A00000F0C0F91949631E032041EA031100F03B
:1037B000C3F9032000F0CAF9032000F0DFF9032069
:1037C00000F0E8F90028FAD1CBE7ED23C5F8383846
:1037D000C5F83838B1E7D5F84C365A06DBD5D5F8F8
:1037E0004C361B0603D50A4801F042F9D3E7ED2316
:1037F000C5F83838C5F83838CDE700BF0080084034
:10380000411700203E1700203F17002002C0010C86
:10381000780400202DE9F041294F3E7816F001068A
:103820004CD10125274B284CC3F8A850C3F8AC5005
:10383000C3F8B050F823C4F858360923C4F8E83761
:1038400015230B22C4F8C836204B4FF07F085A606E
:103850004023C4F82436D4F8243643F02003C4F8B7
:103860002436D523C4F80866C4F85086C4F8403618
:10387000174B1878FFF75AFD4FF48042154B022082
:10388000C4F894861A6100F06DF91349022000F023
:1038900049F9032000F066F90F49032000F03AF9D6
:1038A0000E4B1878FFF7D0FC0D48314601F0C8F8F0
:1038B00028463B782B433B70BDE8F0810020FBE7B6
:1038C0004017002000200D400080084000600D409F
:1038D0005809002000E100E0288808403F17002038
:1038E0007804002038B50388044653B340F20342FD
:1038F000934233D11B4B1A7842BB822924D11B78C7
:1039000073B901F031FD01F0C3FC8021FFF704FF22
:10391000002805DD80B201F07BFC134B1B69984742
:10392000124B1A7852060CD500221A70104BD3F89D
:103930004856FFF747FCFFF76DFFAB0601D0FFF7D6
:10394000DDFC40F20343238001200AE01A78002ABC
:10395000FAD0064A12785006F6D5CEE70023038047
:10396000032038BD3F17002010952000401700208D
:10397000008008400B282DE9F8430D460FD1082A96
:103980007CD100297AD03E4B3E4A4D1E53F8041993
:10399000934205F8011FF9D10020BDE8F8830C28F7
:1039A0006AD1042A6AD1002968D0374BD3F810288D
:1039B00022F00702C3F81028D3F8042842F00802C6
:1039C000C3F80428D3F81428D3F81818D3F810082B
:1039D000D2B220F07000C3F81008D3F82448D3F80E
:1039E0002008090242EA006289B224040A4304F46E
:1039F0007F04D3F81C7842EA0408D3F81028FFB2F9
:103A000022F0070242F00102C3F81028D3F804287C
:103A100042F00802C3F80428D3F81448D3F8182851
:103A2000D3F81018E4B221F0700141F01001C3F88E
:103A30001018D3F82418D3F82008120292B244EADE
:103A400000640904144301F47F010C43D3F81C18EB
:103A50005FFA81F9FFF7C0F8B8EB040467EB0907D8
:103A6000FF0306460023094AE00347EA544103F0F6
:103A700053FF361A2E608FE701208EE702208CE775
:103A8000C4850840A4850840008008400048E8013B
:103A900008B5054B1B7813B9044800F0E9FF002274
:103AA000034BC3F8342808BD3F17002078040020DA
:103AB00000800840074A0848D2F82C38042B1FBF62
:103AC00006490B7843F040030B700023C2F82C38F2
:103AD00000F0CEBF0080084078040020401700208E
:103AE00010B5094C40220021204604F031FC01228F
:103AF000064B5A604FF480429C60054B5A604FF46D
:103B000000425A6010BD00BF0000002000F00F40CE
:103B100000E100E003289EBF014B000119507047EF
:103B20000000002003289EBF024B03EB0010416001
:103B3000704700BF0000002003289EBF024B03EB2C
:103B400000108160704700BF00000020032806D8E5
:103B50000123034A03FA00F0916A08439062704718
:103B600000F00F40032806D80123034A03FA00F0AF
:103B7000116A08431062704700F00F40032806D80E
:103B80000123034A03FA00F051690843506170476A
:103B900000F00F4003289FBF044B03EB0010806828
:103BA00000F0070088BF0020704700BF0000002021
:103BB0004FF0FF32014BC3F80425704700F00F406F
:103BC0000122014BDA64704700F00F40074B5A683E
:103BD000D102FCD41A6822F480321A605A68D203E7
:103BE000FCD41A6842F400321A60704700200D407D
:103BF00010B5084CA36D99070BD063685A01FCD42B
:103C000063685B01FCD504F09BFDFFF7DFFF002339
:103C1000A36510BD00200D4070B5264BD3F8484673
:103C200014F03F0414D1244D55F8043B23B19847B8
:103C300070B10134052CF7D1204E337843B1FEF733
:103C4000C5FF0446FEF7C8FF201A092800D90CB9A1
:103C500030BF26E01A4B1A6822F400321A605A6804
:103C6000D202FCD41A68164D42F480321A606B6896
:103C7000DB03FCD5FEF7B0FF241A092C03D8BDE8FE
:103C80007040FFF7A3BF632C0CD93378022B09D106
:103C9000AB6500F0A3FE38B1FFF798FF0022084B98
:103CA0009A6570BD0123F3E7FEF790FF0028F3D07B
:103CB000CEE700BF00800840340A002042170020F1
:103CC00000200D40074A10B50023144652F8041B8B
:103CD000814202D011B944F8230010BD0133052BF5
:103CE000F4D1FAE7340A00200022054B05499A6511
:103CF0000B6943F004030B61034B1A70704700BF5C
:103D000000200D4000ED00E0421700204FF480320B
:103D1000064B10B5064CC3F89021C3F890202068DC
:103D200018B100F0A5FE0023236010BD00E100E003
:103D3000480A00204FF4201270B592F82B40431E21
:103D400054B101F52011154A273191421AD011F8CA
:103D5000010903F8010FF8E792F82A40122CF0D17C
:103D600092F829204B2AECD14C0804F520120B4D77
:103D70002732AA4207D1002301F520112044273120
:103D8000A34205DB70BD12F8016903F8016FF0E78B
:103D9000CA1A1278013300F8012BF1E72700280036
:103DA0000FB407B504AA52F8041B0448019200F0AE
:103DB00021F803B05DF804EB04B0704788040020DC
:103DC00070B505460C460A4E102C07D874B1224631
:103DD0002B6868680649BDE87040184710223146D4
:103DE0002B686868984710B9103CEDE7204670BD15
:103DF000229720002DE9F04F8046154600278DB010
:103E00000491049B1B78002B00F07983049B1A78A3
:103E10001C460133002A00F06183252AF7D1049B58
:103E20009C4205D05DE323783744002B00F0678384
:103E30006278631C002A00F062830024184610F8A0
:103E4000012B19462B2A15D009D8202A15D0232A50
:103E500016D0A2F13106082E40D8002219E02D2AF2
:103E600004D0302AF5D144F0100401E044F00104FC
:103E70000346E3E744F00604FAE744F00204F7E7F8
:103E800044F00804F4E70A21019A01FB0299A9F120
:103E90003002194613F8019B0192A9F13002092A58
:103EA000F1D90B782E2B36D14A784B1CA2F1300079
:103EB000092828D84FF0000B1A781946A2F13000D3
:103EC000092803F1010318D90B786C2B6BD14B78BF
:103ED0006C2B23D144F08004023122E02A2A09D13C
:103EE0002B680146002B019305F10405B8BF44F08F
:103EF0000104D6E700230193D3E70A2101FB0B2B32
:103F0000ABF1300BD8E72A2A04D1D5F800B0023142
:103F10000435D9E719464FF0FF3BD5E7013144F0AE
:103F200060040B78782B0CD8572B48D8472B08D82F
:103F3000402B00F28D80002B00F0E182252B00F059
:103F4000D0804B1C049304F4E063B3F5A06F00F041
:103F5000A28200F2C980B3F5407F00F06882B3F519
:103F6000806F00F02F82B3F5807F7FF44AAFBBF102
:103F7000000FACBF24F010044FF0010B14F40059F3
:103F800004F0E00300F07A81402B00F0728100F22F
:103F9000C280002B00F07081202B00F0CB80002627
:103FA000B2460023D3E0682BBBD14B78682B02D1FB
:103FB00044F0200490E7013144F04004B1E7583B5D
:103FC000202BBED801A252F823F000BF954020005C
:103FD000433F2000433F2000433F2000433F200059
:103FE000433F2000433F2000433F2000433F200049
:103FF000BF402000433F2000CB4020007D402000F8
:10400000A74020009B402000B3402000433F2000F9
:104010007D402000433F2000433F2000433F2000DD
:10402000433F2000DD40200089402000D740200091
:10403000433F2000433F2000D1402000433F200069
:1040400083402000433F2000433F20008F4020005A
:10405000413B062B3FF675AF01A252F823F000BF9B
:10406000C5402000433F2000433F2000433F200045
:10407000AD402000A1402000B940200044F4245469
:104080005FE744F410645CE744F4885459E744F46F
:10409000C85456E744F4B24453E744F4007450E77C
:1040A00044F484444DE744F402444AE744F442446F
:1040B00047E744F4813444E744F4A13441E744F44D
:1040C000C1343EE744F4E1343BE744F4A06438E70C
:1040D00044F4806435E744F4407432E744F4E06427
:1040E0002FE744F4C0642CE7B3F5C06F07D0B3F5F5
:1040F000E06F7FF486AE2B6804351F6081E60122F5
:10410000D8F80030A649D8F804009847002840F0B5
:10411000F481013775E6602B00F0AE80802B7FF4D0
:104120003EAFEA1D22F007021546D2F804A055F86A
:10413000086B04E095F9006004354FEAE67ABAF1BD
:10414000000FBFF62EAF012376426AEB4A0A0293B4
:1041500004F4C053B3F5805F00F0E480B3F5C05FB2
:1041600000F0E680B3F5006F00F0C6800DF12E037D
:10417000009300230393039B41F608029B4588BFED
:10418000ABEB030B41F2080304EA020198BF4FF0C6
:10419000000B994204D1BBF1010F38BF4FF0010B66
:1041A000039B91425B4440F0DF8056EA0A0200F034
:1041B000DB807C497C4A14F4804F4FF0020614BF28
:1041C0008A469246B9F1000F0DD0029A002A40F0BB
:1041D000CE8004F00602022A00F0CD80062A734A3F
:1041E00004BF0126924606EB0309019B4B4594BF91
:1041F0004FF00009A3EB090914F00103019304D166
:10420000E20640F1BC80CB4499464EB1324651465D
:10421000D8F80030D8F804009847002840F06D81A5
:104220005C46039BDFF888A11F44102CD8E90030BE
:1042300000F2AD802CB122465D499847002840F03D
:104240005C81D8F80030039A0099D8F8040037440C
:104250009847002840F05181019B5F44002B00F0FB
:10426000E08049464046FFF7ABFD002800F0D980CA
:1042700043E1B5F900605FE72E685DE7402B1BD096
:1042800007D8DBB1202B11D04E46CA46CDF8089096
:104290005EE7602B12D0802BF6D1EA1D22F00702D8
:1042A0001546D2F804A055F8086B02E02E78CA46ED
:1042B0000435CDF808904BE72E88F8E72E68F6E72E
:1042C000039805990A22002303F026FB009B303255
:1042D00003F8012D0398059900930A22002303F0A7
:1042E0001BFB03900591039B059A1343E8D1009AA9
:1042F0000DF12E039B1A3DE70DF12E030396CDF829
:1043000014A00093EFE7009803F00701303100F8A4
:10431000011DDB0843EA42730090D20853EA020110
:10432000F1D1E4E70DF12E01334652460091F5E755
:10433000204B14F4804F2049524608BF194633469B
:104340000DF12E00009053EA0200D0D003F00F00D0
:10435000DDF800C0085C1B090CF8010D43EA02738C
:10436000CDF800C01209EEE70026B2462AE7012682
:10437000DFF848A037E70126DFF844A033E74946D5
:104380004046FFF71DFD00283FF43FAFB5E0102287
:1043900051469847002840F0B080103C45E700BFE8
:1043A00020972000119720001497200017972000D5
:1043B0003297200000972000EF962000029C2000FA
:1043C000DF9520002E6804356EB333469A469AF87E
:1043D00000200133002AF9D1AAEB060ABBF1000F35
:1043E00002DBDA4528BFDA46019B534594BF4FF004
:1043F0000009A3EB0A0914F0010405D1494640461F
:10440000FFF7DEFC002878D152463146D8F800305C
:10441000D8F80400984700286FD15744002C7FF447
:1044200020AF4F44EDE44FF0060A374ED6E7374B46
:1044300014F4804F364808BF18460DF12B030022B4
:104440009A462968043551EA02061AD1BAEB030AE2
:1044500004BF302203F8012C4FF0780208BF03F1AB
:10446000FF3303F8012C4FF0300208BF4FF0010A70
:1044700003F8022C2322DE1E03F8032C0AF1030AA0
:10448000B2E701F00F06865D090941EA027103F8FF
:10449000016D1209D7E7DDF804902B68B9F1010F1F
:1044A00038BF4FF0010914F0010405F104058DF83F
:1044B000183009F1FF3605D131464046FFF780FC40
:1044C000D8B937440122D8F80030D8F8040006A93A
:1044D000984790B9002CA4D03146C3E6049B9C4277
:1044E0000DD0049B0499E61A3246D8F80030D8F86B
:1044F0000400984700283FF496AC4FF0FF37384649
:104500000DB0BDE8F08F00BF199720000097200084
:10451000EF962000F8B5038805461646CBB14A2B26
:104520002BD188291FD1174804F0F2F90446C4B1F1
:10453000231D9E421FD12146124804F0F3F9124E6A
:10454000636937683360A3690BB1E06998473760E6
:1045500007E00C4804F0DCF9044634B901220B4BA7
:104560001A704A232B8001200AE0A168201D04F064
:1045700084F92468F1E72468D9E700230380032045
:10458000F8BD00BF4C0A0020D80B002043170020C4
:1045900010B50024054B06481C7004F0B6F92146FE
:1045A000BDE81040034800F04BBA00BF431700209D
:1045B0004C0A00209004002070B50446E3610B4BC8
:1045C000049D1B78C4E905526BB1094D094B2E6857
:1045D000201D2B6004F051F92E602146BDE870408B
:1045E000054804F0B2B9A160F7E700BF4317002007
:1045F000D80B0020900400204C0A002013B5034C77
:1046000024680094FFF7D8FF02B010BDD80B00203B
:1046100070B5094B04461B783BB1084D084B2E681A
:1046200004302B6004F032F92E602146BDE8704062
:10463000044804F08AB900BF43170020D80B0020BB
:10464000900400204C0A002070B5094B04461B78EA
:104650003BB1084D084B2E6804302B6004F01FF965
:104660002E602146BDE87040044804F06EB900BFDA
:1046700043170020D80B0020900400204C0A002093
:1046800010B5084B04461B7843B1043000F0B0F875
:104690002146BDE81040044804F044B9C0E90333A2
:1046A000F6E700BF431700204C0A002010B50D4C60
:1046B000236813B90C4A136010BDFEF767FA22682D
:1046C000D2E900310B441B1A92681AB91844064B00
:1046D0001860F1E7D2E900142144091A8B4228BF7F
:1046E0000B46F1E7540A0020500A0020014800F070
:1046F000BFB900BFA00400202DE9F04103880546A2
:1047000053B1592B46D1872921D1002023490B6869
:1047100063B918B10B6001E0204A136059230120EE
:104720002B80BDE8F08101203346F1E7D3E9026434
:104730009442F8D000B10B6019460B4689680029F5
:10474000ECD0C8689042F8D189689960F4E7822972
:10475000E4D14FF00008114F00263C68002CDDD05A
:10476000204604F0C4F890B122468821E06800F0A9
:104770003FF950B9A368E0602EB1B360C4F8088077
:10478000FFF794FFE8E73B60F8E7FFF7AFFF264647
:10479000A468E3E7002303800320C2E7540A002053
:1047A00010B50446FFF7A2FFE3680B4A0BB113688C
:1047B00033B90A4B1B68E36013681460A36004E01C
:1047C000A34206D1054A1268DA60BDE81040FFF73F
:1047D0006DBF9B68ECE700BF540A0020D80B002097
:1047E000024B1868003818BF01207047540A002097
:1047F00010B50B4A04461368834208D183681360DE
:10480000FFF754FF0023C4E9023310BD1346002B09
:10481000F8D09A68A242F9D1A2689A60F0E700BF86
:10482000540A002038B5836804460D469BB10A48F7
:1048300004600220A07304F10C009847023801289C
:1048400001D9832D05D121462046BDE8384000F02E
:1048500005B80123A37338BDD80B00202DE9F84318
:104860001C4F04463D6888462B46A34204D00BB932
:10487000BDE8F8831B68F8E7002CF9D0164EA37B3F
:10488000D6F8009063B10023A3738DB9A3683BB140
:10489000444505D02A468321346004F10C00984732
:1048A0003B68A3420ED123683B60C6F80090DFE767
:1048B000A54204D022468721284603F0FEFF2D683A
:1048C000E3E71346002BF0D01A68A242F9D1226820
:1048D0001A60EAE7DC0B0020D80B0020002238B574
:1048E0000125084B1A70084B1C6804B938BDE37BDE
:1048F0002BB1002282212046E581FFF793FF246837
:10490000F3E700BF47170020DC0B0020024B1878AC
:10491000421C1A70704700BF45170020014B1968F0
:10492000FFF79CBFD80B00208A22064B1A70002389
:10493000054A1370054A1370054A1360054A13604F
:10494000704700BF4517002044170020461700207D
:10495000DC0B0020D80B00202DE9F0411A4E3378F3
:104960000BB1FFF7BBFF194D2C7894B10C221849FD
:10497000184F0B78013C5A430133B81803F01F035A
:10498000BF5C0B702C70D0E9018090B9124B1C6891
:1049900024B9337828781844BDE8F08133780BB116
:1049A000FFF79CFF20464246394603F086FF246805
:1049B000EEE7812F08BF01234246394608BF8373C3
:1049C00003F07BFFE5E700BF4717002046170020F4
:1049D00044170020580A0020DC0B0020024A034B39
:1049E00010781B781844704746170020471700209E
:1049F000F0B50B4D2C78202C0FD00C26094B0A4F0C
:104A00001B78234403F01F037343FE18C6E90120FB
:104A100000200134F9542C70F0BD0120FCE700BFE8
:104A20004617002044170020580A002038B5034CD0
:104A3000256803F042FF256038BD00BFD80B002079
:104A400010B40A4609490C68234683420CD04BB97E
:104A500050B104600860012110BC81738381812101
:104A6000FFF7E4BF1B68F0E710BC7047DC0B0020C9
:104A700038B1837B013B012B9FBF0123014AC373E4
:104A8000137070474717002010B5084C206858B1C4
:104A900000232360D0E901319847236823B1BDE8A2
:104AA00010401868FEF7A6B810BD00BFE00B00204C
:104AB00070B505880446672D09D0792D2FD0002DBB
:104AC00033D1FFF723FF1B4B18701B4B1D601B4E90
:104AD000194D08E00A282B680ED07E2B03DC5A1CE7
:104AE0002A60174AD054304603F0AFFF431CF1D17F
:104AF0006723238001201BE05A1C2A600025104AEE
:104B00002846D5540B4B1978FFF772FF0D4B2A46F8
:104B100085211868FFF76CFF18B97923E9E7852923
:104B2000E8D10022044B1A60D1E700230380032060
:104B300070BD00BF49180020E40B0020E80B0020E6
:104B400048170020D80B00200D28014610B516D0BC
:104B50000C4C237853B90C4803F064FF08B90123C7
:104B600023700A48FFF784FF012010BD0A28F8D1FE
:104B7000054803F057FF0028F3D00023F0E700209A
:104B8000F3E700BFC8170020E80B0020B0040020A6
:104B900008B505490548802203F03DFFBDE80840FF
:104BA00000210348FFF74CBFC9170020E80B002085
:104BB000B00400202DE9F04105880446772D20D06F
:104BC0007E2D3DD0002D4ED1FFF7A0FE284E294B63
:104BD000294FDFF8A88018703560336857F8232014
:104BE0002AB9274A13707723238001203EE008F872
:104BF0000350936800218020984733680133336065
:104C0000EBE700231F4A1360194A1360184B1C4A34
:104C10001B6812789A4204DC1A4B1B68002BF0D1F7
:104C2000E1E7164AD256002A19DA134A002052F850
:104C30002320104B1978FFF7DBFE28B97E23D3E73A
:104C40000C4B1B788B42D0D1094B0C491A688B5CFA
:104C500003F07F038B540B4A136801331360044A3B
:104C600013680133D1E7002303800320BDE8F081FE
:104C7000F40B00204B180020680400203917002096
:104C80004A180020F00B002010B40A4B0A4A197889
:104C900000238B4203DA52F8044BA04208D10749A3
:104CA0000748CA5C62F07F02CA5410BCFFF7E0BE3E
:104CB0000133EEE74A18002068040020391700206D
:104CC000C0040020054B1A6842F004021A605869BB
:104CD0009B6940EA032080B2704700BF00700D401E
:104CE000184A136823F00C0313600122164BC3F813
:104CF000A820D3F8A820012AFBD10822134BC3F81F
:104D00002426E322C3F83828D3F86426D207FBD53B
:104D10000E4810220023D0F89C16013A01F0010140
:104D200043EA01034FEA43039BB2F4D1002BF0D0D6
:104D3000044A190A03F0FE0351615361EF23C0F8DE
:104D40003838704700700D4000200D40008008404A
:104D50000088064B40BA80B28840995CC2F10802D4
:104D600001EA20201041C0B2704700BF73972000B5
:104D7000F8B506460A480D46174603F0C9FD044635
:104D800030B93A4629463046BDE8F84004F0DBB871
:104D9000A3680BB128469847204603F0F1FDEEE7E3
:104DA000F80B002038B500F04FF90546094803F02C
:104DB000AFFD044628B95DB12846BDE8384004F08F
:104DC000BDB8636803B19847204603F0D9FDF0E70A
:104DD00038BD00BFF80B002010B5044600F042F9C2
:104DE00038B100F031FA034B034821469B689847DD
:104DF000012010BD3C952000714D200070B50B4C7A
:104E00000023616E0A4A04F13800FFF7F7FBFFF751
:104E100059FF656E0023B0FBF5F1064A01FB150151
:104E200004F11800BDE87040FFF7E8BBFC0B002060
:104E3000394E2000514E2000044B5A6E196E52001C
:104E4000914294BF59665A66FFF7D8BFFC0B002009
:104E500010B500F089FA00F01BFA00230380044625
:104E600000F04EF82288930008B1017B51B902335B
:104E700098B200F0CDF9238873B1BDE8104007481F
:104E800000F0A8B8818823445980C18801329980F4
:104E9000228003F075FDE5E710BD00BFFC0B00208C
:104EA0009DF80030012B04D1024B9A6D5A66FFF732
:104EB000A5BF7047FC0B0020F8B50F4616461D46EF
:104EC000064C0146064A204600F072F8C4E9167600
:104ED00025660448BDE8F84000F00CB8FC0B002043
:104EE000C0942000A14E2000014803F00EBD00BF79
:104EF000680C0020014B1860704700BF6C0C00204C
:104F0000014803F005BD00BF680C00202DE9F04109
:104F100005460C480C46164603F0FAFC08B9BDE8F5
:104F2000F0818388A34209D18768002FF7D03346E8
:104F300022462946BC46BDE8F041604703F020FD0B
:104F4000ECE700BF680C0020014803F0DEBC00BFA6
:104F5000700C002081800146014803F0F6BC00BFC0
:104F6000700C002010B50446054803F0D1FC00B9D0
:104F700010BD8388A342FBD003F002FDF7E700BF1A
:104F8000700C002070B50E461546074A044600F026
:104F90002FF83046054903F0C9FE0023A564A4F8A4
:104FA0004C3084F84E3070BDC894200081972000AA
:104FB00070B505460C461646044A00F091F82046A6
:104FC0006E610349BDE8704003F0B0BED09420008C
:104FD0008B97200010B5044604491A2000F020FAEF
:104FE0002046BDE8104003F0A7BF00BFCA1600204E
:104FF00038B504461546024A00F060F8256438BD0D
:10500000D8942000F8B50446C06B0E46154608B18A
:1050100000F0BCF800F098F8E06388B104F14407B0
:105020003146384603F0BBFF23462946054A04F1C2
:105030001C00FFF7E3FA3946204603F073FF012016
:10504000F8BD00BFD38E2000054B10B51B689847F4
:10505000044618B18188012000F0D4F9204610BD23
:10506000A894200038B5064B05465B68984704466F
:10507000A988012000F0C6F9201E18BF012038BD04
:10508000A8942000014B9B68184700BFA8942000FB
:1050900070B504461B200D4600F0CEF9064903F01A
:1050A00081FF38B1A3691B6823B129462046BDE8BA
:1050B0007040184770BD00BFCA16002070B5054685
:1050C0000C461646044AFFF773FF2046AE610349BB
:1050D000BDE8704003F02ABEE09420008F972000C6
:1050E00070B505460C461646FFF734FF20462E6184
:1050F0000249BDE8704003F019BE00BF959720003B
:105100000346074A0749106803448B4281BF0C22BB
:10511000054B4FF0FF301A6098BF1360704700BF17
:10512000D0040020008000209410002008B504481E
:1051300003F029FCBDE80840024803F024BC00BF8E
:10514000E0040020D404002038B50E4803F02BFC06
:10515000054650B10C4803F026FC0446286030B9DF
:105160002946084803F033FC2546284638BD00F0A0
:1051700097F804F1B601A4F8800004F1820000F071
:1051800019F9F2E7D4040020E004002010B501462C
:105190000446074803F031FC48B12168054803F094
:1051A00016FC2146BDE81040014803F010BC10BDBC
:1051B000D4040020E004002010B50146044609484C
:1051C00003F01BFC68B12468B4F88010204600F09E
:1051D000DBF804F1B60104F18200BDE8104000F0F4
:1051E000FDB810BDD404002010B507490B888342D8
:1051F00008DB064C80B222880244181A088001207D
:10520000228010BD0020FCE78A1600208C160020AA
:10521000014B1880704700BF8A1600200048704775
:10522000940C0020014B1888704700BF8A1600209C
:10523000034A044B10781B881844C0B2704700BF63
:105240005C1800208C1600202DE9F0410C4E3388AC
:1052500073B100240B4B0C4FB3F800800B4B1D783F
:105260003D4421B2414504F1010403DB00233380B6
:10527000BDE8F081FFF7DCFF3844435C6B54F0E796
:105280008C1600208A160020940C00205C18002048
:1052900008B5FFF7CDFF014B184408BD940C002062
:1052A000F8B50C4B04461E780B4B1F88F519802D62
:1052B0000DDC3246094902F0D5FFFFF7E9FF34441F
:1052C00001463A46204602F0CDFF2846F8BD0025AB
:1052D000FBE700BF5C1800208A160020940C002019
:1052E00008B5FFF7A5FF024B1B88184480B208BD24
:1052F0008A16002010B50146FFF7F2FF4318802BF5
:1053000012DC431E094A1BB21A44481C002B05DA62
:10531000074B187801440120197010BD12F801499B
:10532000013B14541BB2F1E70020F6E7940C002077
:105330005C18002070B534220021084803F008F8FA
:105340000024074D074E28463146013403F027FE5E
:10535000042C05F10205F6D170BD00BF96160020A1
:105360008E160020709520000023044A1380044A02
:105370001380044A1370FFF7DDBF00BF8C160020B6
:105380008A1600205C18002038B50C460546FFF749
:10539000EBFF802C28BF802429462246034802F0D8
:1053A00061FF034B20461C8038BD00BF940C0020D9
:1053B0008A16002010B5074B03F1340253F8044B52
:1053C000934240F8044BF9D1034A13680B605368C9
:1053D0004B6010BD961600208E16002010B5074BAE
:1053E00000F1340250F8044B904243F8044BF9D1D9
:1053F0000B68034A13604B68536010BD961600207B
:105400008E160020024B23F810100120704700BFB9
:1054100096160020014B33F81000704796160020B6
:1054200008B5044B1A3803EB400003F0B8FD012027
:1054300008BD00BF8E160020024B1A3803EB400057
:10544000704700BF8E1600200149024803F0AABD34
:105450007095200090160020084B10B51B689847E7
:10546000074B5B689847074B5B689847064B5B6840
:105470009847BDE81040054B5B681847E093200053
:10548000109520003C952000F4942000B494200056
:10549000F8B5FDF77BFB114D074600242E461A2078
:1054A000FFF7CAFF294603F07DFD80B10A20FFF710
:1054B000B1FF0C2303FB0464237A83420CD16068A0
:1054C000381AB0F5206F8CBF00200120F8BD0134E0
:1054D000102C05F10C05E2D10020F7E7140D002097
:1054E00070B5194D00242E461A20FFF7A5FF294656
:1054F00003F058FD013418B9102C05F10C05F3D157
:105500000C23621E03FB0464A4F10C057AB90A2083
:10551000FFF780FF3072FDF739FB70601A20FFF74C
:105520008BFFBDE870400146074803F038BD2B46AD
:1055300054F8180C54F8141C013A03C354F8100C16
:105540002C461860E0E700BF140D002030B591B084
:10555000054600F093F84FF6FF73984204D14FF0E0
:10556000FF34204611B030BD40220021684602F0D1
:10557000EFFE404B1A782AB901221A70FFF7A2FBFE
:105580003D4B18701420FFF745FF8DF810001320D5
:10559000FFF740FF8DF81200FFF756FF0446002882
:1055A00048D000238DF813308DF8153000230124E6
:1055B0008DF814308DF818404DB10A20FFF72AFFFE
:1055C00000283FD00A20FFF725FF8DF81A0002249B
:1055D0008DF8194000F052F8ADF81C00FFF734FFC9
:1055E00000283CD04FF6FF738DF81740ADF800301F
:1055F00000F044F8ADF81E001A20FFF71DFF014629
:1056000002A803F0CCFCFFF743FE0E90FFF70AFE62
:105610000F90684603F0CDFD0446002DA1D0FFF7A2
:1056200069FE00289BD0FFF7F9FD0146684603F0AC
:1056300008FE96E70B20FFF7EDFE8DF815408DF87C
:105640001300B3E70C4B1A7802B91C7019780A20C2
:105650004A1C1A708DF81A10FFF7D4FEB7E71B200A
:10566000FFF7EAFE0146684603F099FC8DF8174003
:10567000BEE700BF5D1800205E180020014B1888AF
:10568000704700BF540900202DE9F041012906466A
:105690000F46144686B003DC002006B0BDE8F0815A
:1056A00003A903F014FE0B4603CB1B882061238360
:1056B0009DF811306161002B45D0B51C02AA01A9EB
:1056C00003A803F0CCFC9DF81380B8F1000F4DD077
:1056D000029B2BB16A7815F8023B03EB02239BB2C5
:1056E000B8F1020FA38332D12046314903F057FCB1
:1056F0006B78237015F8023B63709DF81580B8F144
:10570000000F4DD0019B002B37D06A7815F8023B73
:1057100003EB0223029A9BB2E38302B9A383B8F19D
:10572000020F2DD1224904F1080003F038FC6B78F8
:10573000237215F8023B6372A81B3B1A8742C4E927
:105740000E53A9DBA9E7B378F51CA376B6E7B8F149
:10575000030FD2D105F108021346611E13F8010DA3
:105760009D4201F8010FF9D11546C6E720461049C0
:1057700003F015FCA4F81C80BFE7A38BE383CEE7FE
:10578000B8F1030FD8D105F10802134604F108015E
:1057900013F8010DAB4201F8010BF9D11546CBE727
:1057A000034904F1080003F0FAFBA4F81E80C3E7E4
:1057B00070952000014BDB68184700BF3C95200026
:1057C000014B5B69184700BF10952000014B9B6996
:1057D000184700BF10952000024BD86900B1004760
:1057E000704700BF1095200070B590F829400F4B0E
:1057F000042C214628BF04210124DB698C40054686
:105800009847012838BF0120013C444305D0FFF7E9
:1058100059FAB0FBF4F303FB14042B46214605F1BF
:105820000800034ABDE87040FEF7E8BE109520006E
:10583000A55920002DE9F04106461B200F46FFF731
:10584000FBFD494B05461A78484C22B901221A70D3
:10585000FFF738FA208023880BB9012323802188A1
:105860000A204B1C2380FFF7CDFD414803F050F880
:105870000446002847D13F4803F095F80446002825
:1058800068D02946201D03F08AFB002304F12C0078
:10589000C4E90B30238503F038F82146344803F07F
:1058A00054F8206B03F065F8072853DC324803F006
:1058B0007AF80546002841D0304803F074F8A86013
:1058C000C0B3FFF741FC686080B30920D5F80880B9
:1058D000FFF7A0FD08BB082388F808300D20C8E9B1
:1058E0000067FFF797FD01282946206B1BD103F0C5
:1058F00039F8206B03F00CF8854233D12046BDE81F
:10590000F041FFF771BF2946201D03F04BFB002833
:10591000C7D1204603F034F8AAE70920FFF77AFD43
:1059200088F80800DAE703F010F8E2E7A9681348FE
:1059300003F04DF82946104803F049F8206B03F0B6
:1059400018F838B921460A4802F0ECFF2146094808
:1059500003F03DF839463046BDE8F041012304220A
:1059600003F0D5BCBDE8F0815F180020CC16002004
:10597000340E0020F804002004050020EC04002070
:1059800008B5054802F0FFFF044802F0FCFFBDE83F
:105990000840034802F0F7BF04050020EC04002093
:1059A000F804002013B5044668B1006B02F0B0FFA4
:1059B000024640B12146054B0548DB68019302B021
:1059C000BDE81040184702B010BD00BF1095200080
:1059D000515A20002DE9F0470D4614468B680646C3
:1059E000D3E90078106B92F8289002F09BFF68686A
:1059F000FFF7CCFBA968124802F0E9FF29461148DD
:105A000002F0E5FF206B02F083FF60B10023204627
:105A10002385FFF7E9FE4B46324641463846BDE84E
:105A2000F04703F074BC04F10800FEF729FE21469C
:105A3000054802F077FF2146044802F0C8FFEAE774
:105A4000EC04002004050020340E0020F80400209F
:105A50002DE9F0410E461746044620B1006B02F0D6
:105A600057FF054608B9BDE8F0810A21686803F0D0
:105A700090FA80460A20FFF7CDFC804546D02846A4
:105A800002F07EFFEDE794F8282000203A4484F8E5
:105A900028202946224684F82900BDE8F041FFF776
:105AA00099BF002384F8293094F82830DA19D2B24B
:105AB00084F828200B7A93421CD8224629460220DB
:105AC000EBE794F82930DA19D2B2052A84F82920B4
:105AD00007D9002294F8283084F82920013384F86B
:105AE000283094F828200B7A9A4203D3224629467C
:105AF0000120D2E72046FFF777FE6868BDE8F04155
:105B000003F041BA224629463046C6E7A968002973
:105B1000A9D0032EF6D801A353F826F0875A200007
:105B2000C35A2000A35A2000675A2000014B1B6A69
:105B3000184700BFE09320002DE9FF4780468946C3
:105B40001A203F49FFF76CFC01210B20FFF75AFC9C
:105B50003C4B5B689847002870DBFFF75FFB3A4DD2
:105B600090F802A06C68FFF759FB0646FFF7B8FBF8
:105B700001463046A047FFF767FCAF690646B847C5
:105B8000044610B1012200240CE0A6B1AB680193D9
:105B9000FFF7A6FB019B9847024688B1022814BF75
:105BA0000422012240460123494603F0B0FB20466F
:105BB00004B0BDE8F087EB6998470028E2D1E5E73B
:105BC000002E39D1FDF708F80446FDF777F9C4F146
:105BD000FF2404F57F04F334FCF7FEFFC442FBD43A
:105BE000B847EE69E8B1FCF7F7FF0446FDF766F940
:105BF000C4F1FF2404F57F04EB34FCF7EDFFC4424D
:105C0000FBD4B0470446A0B103212B6903A89847F1
:105C1000032803D19DF80E3053450CD000240122F7
:105C2000C0E7B04704460028DDD16B6998470028DB
:105C3000D9D00222B6E700220124B3E70522A2E769
:105C4000CA16002030952000E0932000044B82B05B
:105C500018B11B6A019302B018475B6AFAE700BFEC
:105C6000E093200007B5FFF7DDFA03281BD00F4BA8
:105C70009B689847002816DB1B20FFF7DDFB0C49CB
:105C800003F090F958B1FFF703FC60B9FFF728FC67
:105C9000084BDB68019303B05DF804EB1847FFF78E
:105CA000D3FB0028EFD103B05DF804FB3095200052
:105CB000CA160020F494200008B5024B1B689847D0
:105CC000023008BDE894200038B50C4B9B6898471B
:105CD000041E02DA4FF0FF3038BDFFF7D9FA03781F
:105CE0000546002BF6D10220FFF77EFA0028F1D0FE
:105CF0006878FFF78DFAA01CEEE700BFE89420005B
:105D000070B50220FFF7F6FA10B94FF0FF3070BD02
:105D1000FFF784FA002606700446FFF783FA6070E6
:105D2000FFF7DEFA0446FFF7C7FF20442A2812DCFB
:105D3000C0F12B00C4B2FFF7ABFA0546FFF772FAC9
:105D400022463146284402F003FBFFF76BFA204459
:105D500080B2FFF75DFA044B5B689847041ED4DB02
:105D6000FFF772FAA01CD2E7E8942000014B9B6871
:105D7000184700BFB494200070B504460D461420A7
:105D80000121FFF73FFB034B29462046BDE8704049
:105D90009B681847F494200008B501F043FD0849BA
:105DA00000F0E4FF01F092FD01F03CFD054901F037
:105DB00083FC01F08BFD3228B8BF322080B208BDD1
:105DC000CA5455C04D5585422DE9F8430A2002F0CA
:105DD000E3FC1648FDF7E4FF0024154E154F337819
:105DE000A34204DCBDE8F8430A2002F0D5BC3B68BE
:105DF000114853F8243001251988FDF7D1FFDFF849
:105E00003C904FEA84083378AB4204DC3B2002F03C
:105E1000C3FC0134E3E73B68484653F8083033F8E5
:105E20001510FDF7BDFF0135EDE700BFAC97200071
:105E300078180020000F0020C2972000C197200092
:105E4000F8B50E4D0E486A782978FDF7A9FF0124B0
:105E50000C4E0D4F3378A34204D8BDE8F8400A2019
:105E600002F09ABC05EB440315F8141038465A7832
:105E70000134FDF795FFE4B2ECE700BF0A170020FC
:105E8000C597200078180020E497200001222DE912
:105E9000F043DFF8F0803C4C98F800103B48675C1A
:105EA0009BB030F81730DFF8E890ADF84E3013466D
:105EB00099F80050AA424CDB0026364A30F81150BF
:105EC0001268DBB232F811200DF1340CADF8345009
:105ED000002F4BD165468DF84860ADF84A208DF80B
:105EE0004C308DF84D1001AC0FCD0FC40FCD0FC449
:105EF00095E80F0007C401AD23800EAC0FCD0FC491
:105F00000FCD0FC495E80F0007C4238001238DF83F
:105F100034301AAB03EB460636F8643C3421604655
:105F2000ADF80030FFF730FA022269461A4802F055
:105F300086FF99F8002098F80030013A93421CDA65
:105F40000133164888F80030FEF762FB1BB0BDE84D
:105F5000F083A55C8D4207D130F812601AAD05EBD5
:105F6000430525F81A6C01330132A1E730F81750C8
:105F70000136E75D2CF81650AAE739460848FEF7C7
:105F80005FFDE3E772180020791800200A1700204F
:105F9000781800208C0F0020C00F00201010002067
:105FA000300500202DE9F04F85B0DFF87CA100AF6F
:105FB0009AF800105D48FDF7F3FEFFF705FFFFF7C5
:105FC0003FFF5B4802F001FC6A469AF80040C7F8C0
:105FD0000CD0631EBB6004FB04F39B000733DB089B
:105FE000A2EBC3039D464FEA840808F1070303F4BC
:105FF000FF63E9466000ADEB030D01F04BFE4D4B36
:10600000054618604C4B6E46D3F800E04846002326
:106010009C4208DC00239C421DDD59F8232025F812
:1060200013200133F7E75EF8232001467A6000224F
:10603000D7F804C03CF812C0BCF1000F01D1DFF862
:10604000FCC001329442C1F800C001F10401EFDC50
:1060500001334044DCE722460021394802F078F958
:1060600042460021304602F073F9002301222B80C2
:106070003260BB6893423DDC314DD7F80CD03148DB
:10608000FDF78EFE29783048FDF78AFE01242F4E59
:106090009AF80030A34241DC0A2002F07DFB2C4834
:1060A00002F093FB9AF80030012B08D90122294B0A
:1060B00040211A7028480023284AFEF79FFA143717
:1060C000BD46BDE8F08F35F811C0844505DA56F8B5
:1060D0002130002B04BF8B46604601318C42F2DC3C
:1060E000012346F82B30002308FB0B9C9C4204DC68
:1060F0000132BEE700211148F0E756F8231059B9E4
:106100005CF8231035F813E001447145BEBF25F853
:1061100013100B4903F801B00133E7E7295D30465E
:10612000FDF73EFE0134B3E778180020EC9720001D
:106130000E9820008C0F0020000F00207F96980002
:106140007918002028982000C2972000C1972000CD
:106150004198200072180020101000208D5E200051
:10616000F7B50F4D00242F460E4EADF804003078E1
:1061700001A9A0420BDC07EB400002F010FF3478CD
:106180000134E4B23470013C204603B0F0BD28462F
:1061900002F008FF02350028F6D10134E7E700BF1E
:1061A0000A170020781800202DE9F74F044608460A
:1061B0001746FFF7D5FF00264FEA800A4500B74291
:1061C00002DC03B0BDE8F08F2088FFF7C9FF0E4B5B
:1061D0008346D3F8008058F80A9039F81030B4F9A3
:1061E000020001936BB1FFF7D7FD019B03445810E8
:1061F00083B229F81B3058F82B200136535304344E
:10620000DDE7FFF7C9FDF3E7000F00202DE9F041BE
:10621000048805464CB140F23E439C424ED186294B
:1062200038D1284802F0D1FA34E00720FCF79EFA72
:106230000220FCF793FA0222234B24481A7002F042
:10624000C4FA4C2001F026FD214F224E38603378ED
:10625000013BA34224DC204F2048FDF7A1FD397803
:106260001F48FDF79DFD0124DFF878803378A342B5
:106270001EDC0A2002F090FA00234FF400711A4A43
:106280001A48FEF7BBF900234FF42071184A194849
:10629000FEF7B4F940F23E4301202B80BDE8F081C7
:1062A000D7F80080FCF77CFC48F824000134CEE7E6
:1062B000395D4046FDF774FD0134D7E700230380C4
:1062C0000320EBE76E9820007318002057982000F9
:1062D000401000207818002079180020289820000D
:1062E000C2972000C1972000F96220003C0F0020D7
:1062F000A1652000040F0020F8B500240C4D0D4EC0
:106300000D4F2B78013BA34204DCBDE8F8400B485D
:10631000FEF77EB9FCF744FC336853F824300134AF
:10632000C01A0528EDDD21463846FDF739FDE8E7BE
:106330007818002040100020739820003C0F0020A7
:106340002DE9F341E846174E0025344688E803005E
:10635000154F3B78AB420DDCBDF80020042024F83B
:106360002320FFF757F83B7804EB83040133608068
:106370003B7012E03146404602F014FE043678B11C
:1063800004EB85040420B4F90250FFF743F800B28F
:10639000284400EBD0704010608002B0BDE8F0816E
:1063A0000135D6E7E21600207718002070B5484E78
:1063B00092B03578002D53D103AC2046FEF770FF24
:1063C0009DF810301BBB0420FFF724F800B24130C9
:1063D00004DA404802F0F9F912B070BD94E8030005
:1063E000FFF7AEFF3C4905A802F0D9FD062105A83C
:1063F000FEF7CAFF2146394802F094FD384B1A785F
:10640000002AE9D186213748FEF7F2FAE4E7012BAA
:10641000E2D10420FEF7FEFF00B24130D9DB0424B4
:1064200007203470FCF7A2F92046FCF797F91420F6
:1064300001F030FC2C4B2849186005A802F0AFFD94
:1064400002238DF8183042F20F73062105A8ADF82B
:106450001630FEF799FF2548FEF7BCFD2A46D1E726
:10646000022DB9D10420FEF7D5FF00B2413005DA84
:10647000184812B0BDE8704002F0A7B901AC204640
:10648000FEF70EFF9DF80850022DA5D194E80300F9
:1064900003AEFFF755FF30460F4902F080FD144B65
:1064A0008DF810501B88ADF80E30032396E80300DA
:1064B0000690ADF81C1005A834218DF81430FEF7B5
:1064C00063FF2A4621460B4802F0B9FC84E700BF6F
:1064D0007318002088982000CA160020441000205D
:1064E00074180020100500208C0F0020240F0020BD
:1064F00056090020C00F002007B50120FCF72EF937
:1065000068460C4902F04BFD0023062168468DF8D1
:106510000430FEF739FF0848FEF75CFD074802F03B
:1065200054F90120064B1870FCF720F903B05DF810
:1065300004FB00BFCA160020240F0020B4982000DE
:106540007418002007B50720FCF710F90420FCF7A9
:1065500005F9142001F09EFB0D4B0E4918606846AA
:1065600002F01DFD02238DF8043042F20F73062164
:106570006846ADF80230FEF707FF0748FEF72AFD30
:106580008021064802F079F903B05DF804FB00BFF2
:106590008C0F0020CA160020240F00207C0F002042
:1065A00013B501240120FCF7D9F868460B4902F025
:1065B000F6FC0B4B06211B886846ADF802308DF8BF
:1065C0000440FEF7E1FE0748FEF704FD0648FEF72B
:1065D0001FF82046FCF7CAF802B010BDCA1600200A
:1065E00056090020240F0020040F00202DE9F04F51
:1065F0000488074697B0002C4CD040F207439C42D9
:1066000078D1882964D13D4802F052F9002858D049
:106610003B4B04205B6898473A4B0011ADF83000C3
:106620005B6801209847384B0B905B6801209847C6
:1066300009AE4FF0020B0A903449304602F0AFFC2D
:1066400096E80F009246884601AD85E80F00BDF937
:10665000309005AC0AAD84E80F008DF824B02C4CC6
:1066600085E80F0034213046FEF78EFE53464A4639
:1066700041462848FDF794FB627821782648FDF7CB
:106680008FFB5A462146254802F0D9FB1B4802F0F1
:10669000FDF816E00720FCF769F80220FCF75EF829
:1066A000174B24219B68802098474FF48071134832
:1066B00002F0E3F823464FF42071194A1948FDF718
:1066C0009DFF40F2074301203B8017B0BDE8F08FEB
:1066D0008629F6D1002AF4D1134B1B78032BF0D175
:1066E00013468021114A1248FDF788FF1148FEF732
:1066F00015F9E6E7002303800320E6E730100020C9
:10670000589320009894200088942000CA160020F6
:10671000CE160020CC98200006992000C00F002043
:10672000A1652000040F002073180020456520009B
:10673000A00F002020050020F0B5144E0546337848
:1067400091B0012B19D901AC2046114902F027FC68
:106750000523ADF808508DF80C3094E80300049040
:10676000ADF8141003A83421FEF70EFE0124094DE4
:10677000094F337802359C4201DB11B0F0BD022293
:106780002946384602F05BFB0134F2E77618002018
:10679000CA160020CE160020C00F0020002170B5C0
:1067A000334B42F20F761C680B46324D9AB0287874
:1067B00098420BDC42F20F739E420FD12E4802F03A
:1067C00004F806222D4B1A701AB070BD34F813204D
:1067D000B242BCBFD9B216460133E9E7284C29487A
:1067E00004EB810102F0DBFB274901A802F0D7FB93
:1067F00024490DF1060002F0D2FB2B780DF10A02BC
:106800008DF80830234604F1280153F8040B8B421D
:1068100042F8040BF9D104230EAD0DEB03048DF8FF
:1068200034300FCC0FC50FCC0FC594E80F0007C54F
:1068300034210DEB01002B80FEF7A6FD0222114949
:10684000124802F0FCFA124801F0BFFF114B06F1AA
:10685000640080B21880FFF76FFF02220021074B0F
:106860000D481A701AB0BDE87040FEF7E9B800BFD5
:106870008C0F002077180020239920007318002027
:10688000E2160020CE160020CA160020C00F0020FD
:1068900042992000560900202005002008B50F4825
:1068A00013464A780978FDF77BFA0D4B1A78022ACD
:1068B0000CD142F20F700B4A108003221A70FFF7BE
:1068C0003BFF002286210848FEF792F80720FBF7DD
:1068D0004DFFBDE808400120FBF740BFB7992000FD
:1068E0007318002056090020200500202DE9F04FE4
:1068F000A5B017A8FEF7D4FC9DF85C302BBBB04BBD
:106900001B78C3B10BAC18AD0FCD0FC40FCD0FC4A6
:1069100095E8070084E807000CA89DF82E20BDF834
:106920002C10FFF741FC01228621A648FEF760F8F3
:1069300025B0BDE8F08F342117A8FEF725FD02220F
:10694000A149A24802F07BFAF2E7012B58D19DF849
:106950007430002B3BD19E4918A802F023FB00287D
:1069600035D00BAD18AC0FCC0FC50FCC0FC594E8CC
:106970000F0007C597482B800146BDF876509DF85B
:1069800078309DF879400DF146020DF15A0652F823
:10699000047BB24240F8047BF9D18F4A13708F4ACE
:1069A00015805A1E029401EB42004078019011F8C4
:1069B00012208B4800924A780978FDF7F1F90222FB
:1069C000884B002188481A70FEF73AF8B0E79DF826
:1069D00074308BB1013B24AADBB28DF8743002EB2A
:1069E000430333F8303C342117A8ADF82C30FEF7C0
:1069F000CBFC02220BA9A4E77C4801F0E6FE97E756
:106A0000022B56D1774B1C78022C91D16C4B0BAEDC
:106A10001B78002B3FD007AC18AB0FCB84E80F00DE
:106A20009DF860A09DF861B08DF81CA08DF81DB098
:106A3000BDF81C0089461746BDF96C80FFF790FB36
:106A40006B4BC5B21B6805F180450593FCF7A8F8B0
:106A5000CDE90897059BADF82880013D43F8250056
:106A600094E80F0086E80F00BDF82C00FFF778FBD4
:106A70005A46C3B251465F48FDF792F949465E480F
:106A8000FDF78EF941465D48FDF78AF939465C48C5
:106A9000FDF786F94CE75B4801F097FE4D4B34213A
:106AA0001B8817A8ADF82C30FEF76EFC2246314645
:106AB00047E7032B31D1DDE91801434C0027254678
:106AC000ADF820100899504E07900B90ADF830109B
:106AD00033789F4217DBBDF82C20042025F82320B3
:106AE000FEF798FC347800B205EB84056880FFF768
:106AF00053F9464BBDF82E501B68054423F814503B
:106B00000134347014E721460BA802F04BFA043428
:106B100000287FF40DAF0137DAE7042B40F0A180A5
:106B2000274B1B78002B7FD00BAC18AD0FCD0FC4BB
:106B30000FCD0FC495E80F0007C42380BDF82C00CB
:106B4000FFF70EFB9DF83020BDF82C1004460DF128
:106B50003200FFF729FBBDF82E00FFF701FB2C4E9A
:106B60002C4D30550A2001F017FE29782A48FDF7F0
:106B700017F9FFF729F9FFF763F92848FDF710F92E
:106B800031782748FDF70CF90124264F2B789C42D9
:106B900010DB0A2001F000FE0024154E2B78013B8B
:106BA0009C42BFF6C5AE3768FBF7FAFF47F82400F2
:106BB0000134F3E7315D3846FDF7F2F80134E5E7DB
:106BC0007518002010050020E2160020C00F0020DC
:106BD000CA160020CE160020761800205609002084
:106BE000049A20007318002020050020709A2000CD
:106BF00040100020949A2000CA9A2000E09A2000B9
:106C0000F69A20000D9B2000771800208C0F0020A2
:106C10007918002078180020EC9720002898200090
:106C2000C2972000C197200017490DF1620002F0C1
:106C3000B9F978B1154B164A187818A90130C0B2C5
:106C400018701378013801331370124B03EB4000B6
:106C500002F0A5F9342117A8FEF796FB02220D4990
:106C60006FE6052B7FF464AE0420FEF7D3FB00B281
:106C7000FFF792F8BDF86440074B204480B21880BB
:106C8000FFF75AFD54E600BFCA1600207618002010
:106C900077180020CE1600205609002073B5114B3E
:106CA0000C461B78BBB96D462846FEF7F9FA04205E
:106CB00026786478FEF7AEFB224603B231460A48D6
:106CC000FDF76EF80420FEF7A5FB00B2413004DAB0
:106CD000064801F07AFD02B070BD95E80300FFF7A9
:106CE0002FFBF8E773180020279B200088982000CE
:106CF00007B50C4B01A99B6A012098470A4801F08F
:106D000064FD0A4B0A4819785A78FDF749F8019949
:106D10000848FDF745F8084801F057FD03B05DF855
:106D200004FB00BFE0932000DD9B2000CA1600207A
:106D3000049C2000199C2000319C2000002310B5E9
:106D40000748084C0380214602F02CF930B16278E4
:106D500021780548BDE81040FDF722B810BD00BFFE
:106D600032170020CA160020599C20004FF0FF0C5B
:106D70001CEAD0521EBF1CEAD15392EA0C0F93EAD0
:106D80000C0F6FD01A4480EA010C400218BF5FEA72
:106D900041211ED04FF0006343EA501043EA5111E5
:106DA000A0FB01310CF00040B1F5000F3EBF4900DF
:106DB00041EAD3715B0040EA010062F17F02FD2AE3
:106DC0001DD8B3F1004F40EBC25008BF20F00100C6
:106DD000704790F0000F0CF0004C08BF49024CEADD
:106DE000502040EA51207F3AC2BFD2F1FF0340EA6F
:106DF000C250704740F400004FF00003013A5DDCE0
:106E000012F1190FDCBF00F000407047C2F1000220
:106E1000410021FA02F1C2F1200200FA02FC5FEA0D
:106E2000310040F1000053EA4C0308BF20EADC7057
:106E3000704792F0000F00F0004C02BF400010F4C9
:106E4000000F013AF9D040EA0C0093F0000F01F076
:106E5000004C02BF490011F4000F013BF9D041EA98
:106E60000C018FE70CEAD15392EA0C0F18BF93EA9A
:106E70000C0F0AD030F0004C18BF31F0004CD8D1C4
:106E800080EA010000F00040704790F0000F17BF4B
:106E900090F0004F084691F0000F91F0004F14D091
:106EA00092EA0C0F01D142020FD193EA0C0F03D1E9
:106EB0004B0218BF084608D180EA010000F00040EC
:106EC00040F0FE4040F40000704740F0FE4040F4C7
:106ED0004000704781F0004102E000BF83F00043B2
:106EE00030B54FEA41044FEA430594EA050F08BF65
:106EF00090EA020F1FBF54EA000C55EA020C7FEA29
:106F0000645C7FEA655C00F0E2804FEA5454D4EBA5
:106F10005555B8BF6D420CDD2C4480EA020281EA6F
:106F2000030382EA000083EA010180EA020281EAA7
:106F30000303362D88BF30BD11F0004F4FEA0131F9
:106F40004FF4801C4CEA113102D0404261EB410108
:106F500013F0004F4FEA03334CEA133302D052428E
:106F600063EB430394EA050F00F0A780A4F101044A
:106F7000D5F1200E0DDB02FA0EFC22FA05F2801884
:106F800041F1000103FA0EF2801843FA05F359416A
:106F90000EE0A5F120050EF1200E012A03FA0EFCE9
:106FA00028BF4CF0020C43FA05F3C01851EBE37113
:106FB00001F0004507D54FF0000EDCF1000C7EEB30
:106FC00000006EEB0101B1F5801F1BD3B1F5001F6E
:106FD0000CD349085FEA30004FEA3C0C04F101048D
:106FE0004FEA445212F5800F80F09A80BCF1004FB6
:106FF00008BF5FEA500C50F1000041EB045141EA38
:10700000050130BD5FEA4C0C404141EB0101013C00
:1070100028BFB1F5801FE9D291F0000F04BF0146EF
:107020000020B1FA81F308BF2033A3F10B03B3F1C1
:1070300020020CDA0C3208DD02F1140CC2F10C0251
:1070400001FA0CF021FA02F10CE002F11402D8BFAF
:10705000C2F1200C01FA02F120FA0CFCDCBF41EA7B
:107060000C019040E41AA2BF01EB0451294330BD4A
:107070006FEA04041F3C1CDA0C340EDC04F1140427
:10708000C4F1200220FA04F001FA02F340EA0300FE
:1070900021FA04F345EA030130BDC4F10C04C4F144
:1070A000200220FA02F001FA04F340EA0300294624
:1070B00030BD21FA04F0294630BD94F0000F83F46E
:1070C000801306BF81F480110134013D4EE77FEA51
:1070D000645C18BF7FEA655C29D094EA050F08BF9D
:1070E00090EA020F05D054EA000C04BF194610467E
:1070F00030BD91EA030F1EBF0021002030BD5FEAC2
:10710000545C05D14000494128BF41F0004130BDE9
:1071100014F580043CBF01F5801130BD01F000453D
:1071200045F0FE4141F470014FF0000030BD7FEAB0
:10713000645C1ABF194610467FEA655C1CBF0B46AB
:10714000024650EA013406BF52EA033591EA030FC2
:1071500041F4002130BD00BF90F0000F04BF0021BA
:10716000704730B54FF4806404F132044FF00005ED
:107170004FF0000150E700BF90F0000F04BF002166
:10718000704730B54FF4806404F1320410F00045CC
:1071900048BF40424FF000013EE700BF42004FEAC7
:1071A000E2014FEA31014FEA02701FBF12F07F4344
:1071B00093F07F4F81F06051704732F07F4208BFFB
:1071C000704793F07F4F04BF41F40021704730B502
:1071D0004FF4607401F0004521F000411CE700BF4E
:1071E00050EA010208BF704730B54FF000050AE0D1
:1071F00050EA010208BF704730B511F0004502D5D2
:10720000404261EB41014FF4806404F132045FEAD3
:10721000915C3FF4D8AE4FF003025FEADC0C18BF7C
:1072200003325FEADC0C18BF033202EBDC02C2F16E
:10723000200300FA03FC20FA02F001FA03FE40EA00
:107240000E0021FA02F11444BDE600BF70B54FF004
:10725000FF0C4CF4E06C1CEA11541DBF1CEA1355E2
:1072600094EA0C0F95EA0C0F00F0DEF82C4481EA4A
:10727000030621EA4C5123EA4C5350EA013518BF6A
:1072800052EA033541F4801143F4801338D0A0FB57
:1072900002CE4FF00005E1FB02E506F00042E0FB04
:1072A00003E54FF00006E1FB03569CF0000F18BF0A
:1072B0004EF0010EA4F1FF04B6F5007F64F54074B2
:1072C00004D25FEA4E0E6D4146EB060642EAC62145
:1072D00041EA55514FEAC52040EA5E504FEACE2EB2
:1072E000B4F1FD0C88BFBCF5E06F1ED8BEF1004FB5
:1072F00008BF5FEA500E50F1000041EB045170BD31
:1073000006F0004646EA010140EA020081EA030174
:10731000B4EB5C04C2BFD4EB0C0541EA045170BD70
:1073200041F480114FF0000E013C00F3AB8014F1EA
:10733000360FDEBF002001F0004170BDC4F1000433
:10734000203C35DA0C341BDC04F11404C4F12005B4
:1073500000FA05F320FA04F001FA05F240EA02000F
:1073600001F0004221F0004110EBD37021FA04F645
:1073700042EB06015EEA430E08BF20EAD37070BDFF
:10738000C4F10C04C4F1200500FA04F320FA05F05E
:1073900001FA04F240EA020001F0004110EBD37060
:1073A00041F100015EEA430E08BF20EAD37070BDD0
:1073B000C4F1200500FA05F24EEA020E20FA04F3A9
:1073C00001FA05F243EA020321FA04F001F0004158
:1073D00021FA04F220EA020000EBD3705EEA430EC9
:1073E00008BF20EAD37070BD94F0000F0FD101F0F8
:1073F0000046400041EB010111F4801F08BF013C31
:10740000F7D041EA060195F0000F18BF704703F06E
:107410000046520043EB030313F4801F08BF013DF5
:10742000F7D043EA0603704794EA0C0F0CEA1355B1
:1074300018BF95EA0C0F0CD050EA410618BF52EA6B
:107440004306D1D181EA030101F000414FF0000071
:1074500070BD50EA410606BF1046194652EA43067F
:1074600019D094EA0C0F02D150EA013613D195EAF3
:107470000C0F05D152EA03361CBF104619460AD13B
:1074800081EA030101F0004141F0FE4141F4700145
:107490004FF0000070BD41F0FE4141F4780170BD35
:1074A00070B54FF0FF0C4CF4E06C1CEA11541DBF9A
:1074B0001CEA135594EA0C0F95EA0C0F00F0A7F89C
:1074C000A4EB050481EA030E52EA03354FEA0131C9
:1074D00000F088804FEA03334FF0805545EA1313DC
:1074E00043EA12634FEA022245EA111545EA1065A4
:1074F0004FEA00260EF000419D4208BF964244F13B
:10750000FD0404F5407402D25B084FEA3202B61A59
:1075100065EB03055B084FEA32024FF480104FF42D
:10752000002CB6EB020E75EB030E22BFB61A7546A1
:1075300040EA0C005B084FEA3202B6EB020E75EB34
:10754000030E22BFB61A754640EA5C005B084FEA9C
:107550003202B6EB020E75EB030E22BFB61A754669
:1075600040EA9C005B084FEA3202B6EB020E75EB74
:10757000030E22BFB61A754640EADC0055EA060E35
:1075800018D04FEA051545EA16754FEA06164FEA78
:10759000C30343EA52734FEAC2025FEA1C1CC0D124
:1075A00011F4801F0BD141EA00014FF000004FF0B1
:1075B000004CB6E711F4801F04BF01430020B4F172
:1075C000FD0C88BFBCF5E06F3FF6AFAEB5EB030C2A
:1075D00004BFB6EB020C5FEA500C50F1000041EB27
:1075E000045170BD0EF0004E4EEA113114EB5C04F4
:1075F000C2BFD4EB0C0541EA045170BD41F48011C7
:107600004FF0000E013C90E645EA060E8DE60CEACE
:10761000135594EA0C0F08BF95EA0C0F3FF43BAFEB
:1076200094EA0C0F0AD150EA01347FF434AF95EAA2
:107630000C0F7FF425AF104619462CE795EA0C0F86
:1076400006D152EA03353FF4FDAE1046194622E753
:1076500050EA410618BF52EA43067FF4C5AE50EA2D
:1076600041047FF40DAF52EA43057FF4EBAE12E71D
:107670004A0011D212F5001211D20DD56FF47873B1
:10768000B3EB62520ED44FEAC12343F0004343EA06
:10769000505323FA02F070474FF00000704750EA51
:1076A000013002D14FF0FF3070474FF000007047BB
:1076B00080F0004002E000BF81F0004142001FBFA7
:1076C0005FEA410392EA030F7FEA226C7FEA236CB0
:1076D0006AD04FEA1262D2EB1363C1BFD2184140A5
:1076E00048404140B8BF5B42192B88BF704710F03B
:1076F000004F40F4000020F07F4018BF404211F0DE
:10770000004F41F4000121F07F4118BF494292EA45
:10771000030F3FD0A2F1010241FA03FC10EB0C0071
:10772000C3F1200301FA03F100F0004302D54942FE
:1077300060EB4000B0F5000F13D3B0F1807F06D3AB
:1077400040084FEA310102F10102FE2A51D2B1F1A3
:10775000004F40EBC25008BF20F0010040EA030098
:107760007047490040EB0000013A28BFB0F5000F18
:10777000EDD2B0FA80FCACF1080CB2EB0C0200FACE
:107780000CF0AABF00EBC25052421843BCBFD0401D
:107790001843704792F0000F81F4000106BF80F497
:1077A00000000132013BB5E74FEA41037FEA226C5A
:1077B00018BF7FEA236C21D092EA030F04D092F025
:1077C000000F08BF0846704790EA010F1CBF002059
:1077D000704712F07F4F04D1400028BF40F00040B6
:1077E000704712F100723CBF00F50000704700F0D6
:1077F000004343F0FE4040F4000070477FEA2262FD
:1078000016BF08467FEA23630146420206BF5FEACD
:10781000412390EA010F40F4800070474FF00003CD
:1078200004E000BF10F0004348BF40425FEA000C94
:1078300008BF704743F0964301464FF000001CE03C
:1078400050EA010208BF70474FF000030AE000BF92
:1078500050EA010208BF704711F0004302D54042D0
:1078600061EB41015FEA010C02BF84460146002042
:1078700043F0B64308BFA3F18053A3F50003BCFA5D
:107880008CF2083AA3EBC25310DB01FA02FC63440A
:1078900000FA02FCC2F12002BCF1004F20FA02F211
:1078A00043EB020008BF20F00100704702F1200204
:1078B00001FA02FCC2F1200250EA4C0021FA02F265
:1078C00043EB020008BF20EADC7070474FEA400239
:1078D000B2F1FE4F0FD34FF09E03B3EB12620DD9FE
:1078E0004FEA002343F0004310F0004F23FA02F068
:1078F00018BF404270474FF00000704712F1610F0F
:1079000001D1420205D110F0004008BF6FF00040E5
:1079100070474FF00000704753B94AB9002908BFBB
:1079200000281CBF4FF0FF314FF0FF3000F076B958
:10793000ADF1080C6DE904CE00F006F8DDF804E0C6
:10794000DDE9022304B070472DE9F047089E0D469B
:1079500004468846002B4DD18A42944668D9B2FA33
:1079600082F252B101FA02F3C2F1200120FA01F1D0
:107970000CFA02FC41EA030894404FEA1C41B8FBB0
:10798000F1F71FFA8CFE01FB178807FB0EF0230CA2
:1079900043EA084398420AD91CEB030307F1FF3579
:1079A00080F01E81984240F21B81023F63441B1A03
:1079B000B3FBF1F001FB103300FB0EFEA4B244EA6E
:1079C0000344A6450AD91CEB040400F1FF3380F000
:1079D0000981A64540F20681644402380021A4EBE7
:1079E0000E0440EA07401EB10023D440C6E900431C
:1079F000BDE8F0878B4208D9002E00F0EE80002110
:107A0000C6E900050846BDE8F087B3FA83F100290E
:107A10004AD1AB4202D3824200F2FC80841A65EB69
:107A2000030301209846002EE2D0C6E90048DFE7B4
:107A300002B9FFDEB2FA82F2002A40F09180A1EB97
:107A40000C0001214FEA1C471FFA8CFEB0FBF7F334
:107A500007FB1300250C45EA00450EFB03F0A84286
:107A600008D91CEB050503F1FF3802D2A84200F249
:107A7000CE8043462D1AB5FBF7F007FB10550EFBE1
:107A800000FEA4B244EA0544A64508D91CEB040450
:107A900000F1FF3502D2A64500F2B6802846A4EBDD
:107AA0000E0440EA03409EE7C1F120078B4022FA12
:107AB00007FC4CEA030C25FA07FA4FEA1C49BAFB0B
:107AC000F9F820FA07F309FB18AA8D401FFA8CFE7B
:107AD0001D4300FA01F308FB0EF02C0C44EA0A44A3
