:020000040020DA
:10200000781D00208D2220005B6D2000596D20007E
:10201000596D2000596D2000596D2000000000000E
:10202000000000000000000000000000817320009C
:10203000596D2000000000009F732000D96D200022
:10204000EB6D2000F16D2000F76D2000FD6D20008C
:1020500000000000DF6D2000E56D2000596D2000BC
:10206000596D20000000000000000000000000008A
:102070000000000000000000596D2000000000007A
:102080000000000000000000596D2000596D200084
:10209000596D2000596D2000596D2000596D2000A8
:1020A000596D2000596D2000596D2000596D200098
:1020B000596D2000596D2000596D2000596D200088
:1020C000596D2000596D2000596D2000596D200078
:1020D000596D20000000000000000000000000001A
:1020E00000000000000000000000000000000000F0
:1020F0000000000000000000BD372000CD372000A8
:1021000000000000000000000000000000000000CF
:1021100000000000000000000000000000000000BF
:1021200000000000000000000000000000000000AF
:10213000000000000000000000000000000000009F
:10214000000000000000000000000000000000008F
:10215000000000000000000000000000000000007F
:10216000000000000000000000000000000000006F
:10217000000000000000000000000000000000005F
:10218000000000000000000000000000000000004F
:10219000000000000000000000000000000000003F
:1021A000000000000000000000000000000000002F
:1021B000000000000000000000000000000000001F
:1021C000000000000000000000000000000000000F
:1021D00000000000000000000000000000000000FF
:1021E00000000000000000000000000000000000EF
:1021F00000000000000000000000000000000000DF
:1022000000000000000000000000000000000000CE
:1022100000000000000000000000000000000000BE
:1022200000000000000000000000000000000000AE
:10223000000000000000000000000000000000009E
:10224000000000000000000000000000000000008E
:10225000000000000000000000000000000000007E
:10226000000000000000000000000000000000006E
:10227000596D20009D362000C13620002D2D2000F4
:10228000193920006D282000596D2000FF220024FC
:1022900008B5094B0948C3F8B420094A636E0949D7
:1022A000121A98470848094A2146236E121A98477D
:1022B00000F00EF8FEE700BF00200D4040000020B7
:1022C000D4000020507D2000D8000020741500208C
:1022D00073B500F011FC00F0CBFC00F027FC00F01F
:1022E00053FA01F007FB04F023FE00F0B9FC00F004
:1022F000ADF8012004F034FD02F0DEF800F0E8FB58
:10230000002000F00BFB012000F008FB00203D49FD
:1023100000F0C8FB02F004FA62B6042004F020FDCD
:10232000394804F090FD394804F08DFD00F0CAF9F9
:10233000002002F09DFA01F0D9F90021344802F0A2
:1023400047F901F02BFF04F037FD00F013FD00F01A
:102350002FFD02F083FD0821684601F0F1FA2D4DB2
:10236000BDF806402C482C8001F020FB2B4E29782C
:102370002B4801F01BFB69782A4801F017FBF56A2E
:102380004AF6CD310220A84761BA89B20320A84796
:102390001A210120A84708226946736B0B20984731
:1023A000214801F003FB214B186804F04CFD204844
:1023B00001F0FCFA1F4B186804F045FD1E4801F0BF
:1023C000F5FA1E4B186804F03EFD00211C4802F08F
:1023D000FFF81C4B01219B688120984704F08AFD7F
:1023E000194804F07DFD00F079FB022004F0B8FCF0
:1023F00000F07AFB02F078F8C0B20028F8D101F0C2
:1024000011FAF5E7D9462000167A2000287A200034
:1024100078000020D00E00204D7A2000B0782000F7
:102420006B7A2000717A2000777A20008C79200066
:102430007E7A2000A0792000857A2000C8792000CB
:102440009800002038782000047A200008B500F0B9
:10245000E1F80022014B1A7008BD00BF4A140020A9
:10246000024B1A781043187000F0F6B84A14002096
:10247000034A137823EA0000107000F0EDB800BFA3
:102480004A14002018B1012804D000207047034BE3
:10249000186A7047024B1878704700BF00900D40D3
:1024A0004C14002010B5094A002013780133137032
:1024B000074B197802F064F8BDE810400549002385
:1024C000054A0968054801F09FBE00BF4C14002072
:1024D0004B14002010010020A5242000F000002053
:1024E00008B50346812B08462DD0B3F5807F3ED03A
:1024F000802B26D101F0D8FF1E4B032118701E4BF4
:102500000020D3F8202422F00802C3F82024D3F8B6
:10251000002422F00802C3F80024D3F8042422F097
:102520000802C3F80424D3F8082442F00802C3F8D0
:102530000824042200F0AAFB032200210F4800F027
:1025400049FB01200AE00C4B0D49D3F8102430B1AF
:1025500042F00802C3F8102401230B6008BD22F0EA
:102560000802C3F810240123C1F88030F6E7054BB8
:102570001960E6E74B14002000900D4089252000EB
:1025800000E100E01001002008B50F4804F0DEFC77
:10259000C8B108210C4804F0CDFC0C4B196849B1B6
:1025A00000220B4B1A700B4B1B6A43B90A4A0B48AB
:1025B00001F02AFEBDE80840094802F02DB907489D
:1025C00001F02CFEF6E708BDE80000201001002015
:1025D0004C14002000900D40A5242000F0000020A5
:1025E00038782000094BD3F8202422F00402C3F8E5
:1025F0002024D3F8002442F00402C3F8002400226F
:102600001A610122024B1A70704700BF00C00D40D2
:102610005114002000210F4BD3F8202422F0C002D7
:10262000C3F82024D3F8002442F0C002C3F80024E9
:10263000C3F8001303F50053D3F8202422F010024E
:10264000C3F82024D3F8002442F01002C3F8002479
:102650001964704700A00D4010F0020218BFFF225D
:10266000084BC3F8002210F0040218BFFF2210F03C
:102670000100C3F8002118BFFF22034B14BF1A64E6
:102680001864704700A00D4000C00D40044BDB698A
:10269000C3F3072013F4704F04BF1030C0B270476B
:1026A00000300D40064B5869C00910F0060F03BFFB
:1026B00000F00700C0F1020040034FF400407047F3
:1026C00000300D402DE9F047002488B0FFF7DEFF11
:1026D000164B0646DF69236D9847E36C80469847A2
:1026E0000446FFF7DFFF054600F05CFA814600F084
:1026F00065FA824600F010FAAD0A07F00103A40A59
:10270000C7F34007CDE905A003934146CDF81090EB
:1027100002970195009406F00F03C6F307120448D0
:1027200001F044F908B0BDE8F08700BF00300D406B
:10273000937A20002DE9784800F064F810490246A9
:10274000D1E900BC6646584538BF0CF10106334656
:10275000C1E900230B4ED6E90001B0EB0B0461EB9D
:102760000C05A01845EB0301C6E9000101F006FEC7
:1027700018B1BDE8784801F087BDBDE8788800BF92
:10278000E0000020D80000204FF0E023E0210B4AB9
:102790005A610B4A82F82310002207219A611961BD
:1027A00008498B6843F001038B60074BDA60042211
:1027B0001A6001225A600F229A63704747E80100AD
:1027C00000ED00E000200D4000000340034BD3E982
:1027D0000023100A40EA0360704700BFE0000020B9
:1027E000044B9862DA6842F00102DA60DA68D207D4
:1027F000FCD4704700000340014B1868704700BFCD
:1028000014010020054A106C516C936C1B0443EAC0
:1028100001230343D06C43EA0060704700500D4031
:1028200010B504460E4A136DDB07FCD572B6FFF7F0
:10283000E9FF231A062BD8BFC41D094B220EDA6408
:10284000C4F307429A64C4F307225A64E2B21A64DA
:1028500062B64FF40032034B1C60034B1A6110BD8B
:1028600000500D401401002000E100E008B500F028
:10287000C5FF0022064B1A604FF40032054BC3F827
:102880009021C3F89020BDE8084001F0C5BE00BF0C
:102890001401002000E100E0064B9B691B075FBFAD
:1028A000054B986980F00800C0F3C00048BF0020C5
:1028B000704700BF00C0004000D000402C22154BE4
:1028C00070B502FB00334FF6BF72DC680546236C1F
:1028D000626413F050020DD00F4EA369DB0600D5E1
:1028E00070BD56F825301BB12068C0B29847F4E798
:1028F0002368F2E713F4D06FF2D04FF440732363F0
:10290000FF236360E36AE262E362236B43F0010347
:102910002363E5E7487820001801002001282DE90D
:10292000F74F804600F2AD802C254543564F7C1969
:1029300094F92090B9F1000FC0F2A38094F92260BD
:10294000002EC0F29E80514800F0C2FF504B7959D2
:102950009A6A94F921A00A439A62DA6A6168E56882
:102960000A43DA621A6BA168F0B20A431A630023C1
:1029700022690AEBC901C5F8C83F116094F8231019
:10298000227DCDE9000194F923B000F089F9DDE959
:102990000001082200F07AF9012231033D4E02FACB
:1029A0000BFB88594FEA09394BEA0000885159F866
:1029B000061002FA0AFA4AEA010149F80610502103
:1029C000A963A96B94F9240041F4D061A9630221A1
:1029D00069634FF440712963A16900286962E16964
:1029E000A9624FF07001E96216DB002394F925100B
:1029F000294C41EAC005C4F804510403A5598A4092
:102A00002A43A251C9B21A46C0B200F03FF9234A84
:102A1000136B43F4004313632C2303FB087393F9F4
:102A20002640002C1ADB93F82790E5B20122494694
:102A3000284693F927A000F033F901232403A25973
:102A400003FA0AF31343A35108224946284600F02B
:102A50001DF9124A136B43F4804313632C2000FBCF
:102A60000877FA68136B43F001031363012297F8A8
:102A70002830590903F01F0302FA03F3084A42F809
:102A8000213003B0BDE8F08F48782000992820005D
:102A900000200D4020940D4000400D4000D000402B
:102AA00000E100E001289CBF014B43F82010704773
:102AB00018010020012808D82C22044B02FB00300A
:102AC000C3689A699206FCD4196070474878200060
:102AD0000022014B1A60704700500D400822014B44
:102AE0001A60704700500D40A022024B1A6050221D
:102AF0001A60704700500D40014A024B9A607047BF
:102B00000020200000ED00E0024B5868C0F3815027
:102B1000704700BF00200D4008B5FFF7F5FF024BDE
:102B200053F8200008BD00BFA078200010B5194C54
:102B30000122D4F82034062123F04003C4F82034C5
:102B4000D4F80034032023F04003C4F8003400F02C
:102B50009DF8D4F82034012223F08003C4F82034F7
:102B6000D4F80034072123F08003C4F80034032094
:102B700000F08CF8084A094B1A60094A596811425A
:102B8000FCD15A685201FCD4044A53685B01FCD55D
:102B900010BD00BF00C00D400101020000200D402B
:102BA00000000101034B04485B6803F00703184170
:102BB000704700BF00200D400048E801034B044867
:102BC0005B68C3F302231841704700BF00200D402B
:102BD0000048E801024B02EBC10243F822007047B3
:102BE00020010020F8B507460D460024084E06EBEC
:102BF000411647FA04F3DB07E1B204D556F8243056
:102C00000BB1284698470134082CF2D1F8BD00BF1B
:102C1000200100202DE9F8430546DFF8388000F058
:102C2000EDFD0D4B2E03F75856F808404FEAC50945
:102C300024FA09F447EA04002946C0B2FFF7D2FF9C
:102C4000E4B2064BFFB204FA09F4F75046F8084024
:102C5000BDE8F88318970D4018940D401C940D4062
:102C600080220021014803F0BBBE00BF20010020EC
:102C7000034B044A1A60044B803A1A60704700BF45
:102C8000A001002080400D40A4010020034B01EB77
:102C9000C0011B6843F82120704700BFA00100203D
:102CA000034B01EBC0011B6843F82120704700BFB4
:102CB000A40100200E2870B506460DD1134B5C6BA5
:102CC00044F0020058631248D0F8F45625F03F0350
:102CD00043F00103C0F8F4360E48836823F0FF0385
:102CE0001A4311433143816003681B06FCD5C36856
:102CF000006903F0FC0343EA00230E2E18B201BF63
:102D0000034BC3F8F456014B5C6370BD00000144F3
:102D10000080084000700D40034BD3F80007B0FA64
:102D200080F04009704700BF00B008404FF40042F7
:102D3000064B10B5064CC3F89021C3F890202068CC
:102D400018B101F05DFC0023236010BD00E100E03C
:102D5000A8010020064B9A6C42F002029A64DA6CD9
:102D600042F00202DA641A6D42F002021A657047FC
:102D700000200D4007B50C4800F0AAFDFFF7EAFF60
:102D80000A4B5A6D42F002025A6500220192019AE2
:102D90000F2A06DD5A6D22F002025A6503B05DF873
:102DA00004FB019A0132F1E7192D200000200D40AB
:102DB000064B9A6C22F002029A64DA6C22F002024C
:102DC000DA641A6D22F002021A65704700200D4085
:102DD0000D4BD3F84C269107FBD4D3F84C26520662
:102DE0005EBFED22C3F83828C3F83828D3F82C2664
:102DF00012B1EF22C3F83828044A0120137803F0F7
:102E00007F031370704700BF0080084054140020F7
:102E1000044BD3F84C0600F02200A0F120035842E6
:102E20005841704700800840024BD3F84C0600F030
:102E30004000704700800840054BD3F8002620B1C1
:102E400042F00102C3F80026704722F00102F9E7C0
:102E500000800840284B1870002841D0274A53684A
:102E60001B03FCD5264BD3F8042842F00202C3F81A
:102E70000428D3F8042842F00102C3F80428D3F848
:102E800004285007FBD5D3F8042822F00102C3F828
:102E900004281B4BD3F804285107FBD4D3F804288B
:102EA00042F00202C3F80428D3F8042842F00102D9
:102EB000C3F80428D3F804285207FBD5D3F88C268E
:102EC00022F00402C3F88C26D3F8342822F004023E
:102ED000C3F834284FF400520A4BC3F890207047CF
:102EE000074AD2F88C3643F00403C2F88C364FF40C
:102EF0000052044B1A6170475314002000200D400B
:102F00000080084000E100E0094B93F90020002A0E
:102F10000CDBED21074AC2F83818C2F83818E32153
:102F2000C2F838181A7862F07F021A7001207047D0
:102F3000541400200080084070B5A0F10B05EBB2DE
:102F40000F2B044614D80C4ED6F8483613F03F0326
:102F500002D0FFF73DFF012305EB85050B35C6F8D1
:102F60003C560BB1FFF7D0FF044B60B21C7070BD34
:102F70004FF0FF30FBE700BF00800840D200002088
:102F800038B50C46002900F09180102800F290809E
:102F9000DFE800F009111D252B434C60667D818E12
:102FA0008E86885D8A00434BD3F82C36003B18BFD1
:102FB000012323602BE005223E4BD3F83C3603F07F
:102FC0007F030B3B93FBF2F30B33DBB2F1E7394AA0
:102FD000D2F8CC15D2F8C83543EA0123E9E7354ADF
:102FE000D2F8D415D2F8D035F6E70023314A0B6079
:102FF000D2F8003603F001030B60D2F824269006C5
:1030000044BF43F002030B602B4B1B780BB900202D
:103010000BE00B6843F00403CBE70020274B08606C
:103020001B78002BF3D001230B6038BD214B2449C2
:10303000D3F840260023D2B201EBC30000799042BE
:1030400002D851F83330B4E701330E2BF4D16FF0CE
:103050001703AEE7174BD3F858365BB2493BA8E7E6
:10306000144DD5F8483699060FD1FFF74DFF0123CF
:10307000D5F86426D207FBD5D5F86056493D6DB228
:103080000BB1FFF7A5FE2560C1E70023F0E70D4B6C
:1030900093F900308DE70C4B1B7803F07F0388E732
:1030A0000B2386E71A2384E7072382E70220BCE785
:1030B0000120BAE70080084053140020D30000200C
:1030C000E8782000551400205214002010B50B4C55
:1030D000D4F8483699060FD1FFF716FF0123D4F82C
:1030E0006426D207FBD5D4F84C46C4F300140BB1C8
:1030F000FFF76EFE204610BD0023F0E70080084079
:1031000010B50C46072865D8DFE800F0040F1A2335
:103110002C444A5E012903D1FFF7F6FE00203EE071
:10312000002959D1FFF754FEF8E7A1F10B030F2B4B
:1031300052D8C8B2FFF700FF0130EFD103202EE0D4
:10314000264BCAB2C1F30724C3F8C825C3F8CC453F
:10315000E4E7224BCAB2C1F30724C3F8D025C3F871
:10316000D445DBE731F0070336D101F00100FFF76A
:1031700063FE1A4B11F0020FD3F82426C1F380002E
:1031800014BF42F0200222F02002C3F82426FFF7E9
:1031900061FEC3E731F001001ED1114B197010BD63
:1031A00001F118031F2B17D80D230E4A52F83310C4
:1031B0008C4206DC02EBC3031A79084BC3F84026A5
:1031C000ACE7013BF2D2A9E7044BCCB24934C3F8D7
:1031D0005846A3E70120E2E70220E0E7008008402C
:1031E000D3000020E878200070B505460C46144E48
:1031F000D6F84C369B07FBD4124B93F90030002BCA
:1032000001DBFFF781FEEE23691EC6F83838C6F8E9
:103210003838A31CC6F828382144022000F080FA70
:103220000949013C41EA0411022000F08BFA022016
:1032300000F092FA022000F0A7FA002070BD00BF53
:10324000008008405414002002C001C070B5264B15
:1032500093F90030002B19DBFFF7D4FA0446FFF78F
:1032600053FEC4F1FF2404F57F04F634FFF7CAFAD5
:10327000C442FBD401261D4B1B784BB91C4CD4F81F
:103280004C36990609D50224204670BD0026F2E787
:10329000FFF71CFF0028F1D1F5E7E9230425C4F866
:1032A0003838D4F84C369A0703D4013D15F0FF05A1
:1032B0000AD1D4F84C369B070AD50D4BD3F84C46AF
:1032C00014F00204FAD109E00620FFF789FAE8E7D2
:1032D000EE23C4F83838C4F838380124002ED3D08F
:1032E000FFF776FDD0E700BF54140020D300002084
:1032F000008008400B280DD1082A0DD161B1074B81
:10330000074A083111F8010D43F8040B9342F9D133
:10331000002070470120704702207047A8850840B0
:10332000C885084070B5384A0546D2F84C0610F0FA
:10333000400009D0D2F82808040606D5ED23C2F8CB
:103340003838C2F83838002070BDC0B20428F5D92A
:1033500002388842F2DCC4B2032C24D1D2F82838D7
:103360002B70D2F828386B70D2F82838AB70264D05
:10337000264BD5F82818264E493949B21970D5F888
:1033800028381806337026D589B2042001F03CFD98
:103390003178032001F07F0101F036FD1D4B1B78D1
:1033A000FBB12046D0E729190320013900F0C0F90C
:1033B0001949631E032041EA031100F0C3F90320F9
:1033C00000F0CAF9032000F0DFF9032000F0E8F96B
:1033D0000028FAD1CBE7ED23C5F83838C5F83838DE
:1033E000B1E7D5F84C365A06DBD5D5F84C361B0676
:1033F00003D50A4801F004F9D3E7ED23C5F83838BE
:10340000C5F83838CDE700BF0080084055140020CB
:10341000521400205314002002C0010C5000002060
:103420002DE9F041294F3E7816F001064CD10125D7
:10343000274B284CC3F8A850C3F8AC50C3F8B05081
:10344000F823C4F858360923C4F8E83715230B22AB
:10345000C4F8C836204B4FF07F085A604023C4F8A8
:103460002436D4F8243643F02003C4F82436D52378
:10347000C4F80866C4F85086C4F84036174B18786C
:10348000FFF75AFD4FF48042154B0220C4F8948692
:103490001A6100F06DF91349022000F049F9032088
:1034A00000F066F90F49032000F03AF90E4B187846
:1034B000FFF7D0FC0D48314601F08AF828463B78EA
:1034C0002B433B70BDE8F0810020FBE75414002043
:1034D00000200D400080084000600D40D200002018
:1034E00000E100E02888084053140020500000202C
:1034F00038B50388044653B340F20342934233D1B4
:103500001B4B1A7842BB822924D11B7873B901F076
:1035100041FC01F0D3FB8021FFF704FF002805DD0B
:1035200080B201F08BFB134B1B699847124B1A7842
:1035300052060CD500221A70104BD3F84856FFF7EC
:1035400047FCFFF76DFFAB0601D0FFF7DDFC40F253
:103550000343238001200AE01A78002AFAD0064AA1
:1035600012785006F6D5CEE700230380032038BD3D
:1035700053140020C8792000541400200080084013
:103580000B282DE9F8430D460FD1082A7CD10029DC
:103590007AD03E4B3E4A4D1E53F80419934205F82B
:1035A000011FF9D10020BDE8F8830C286AD1042A54
:1035B0006AD1002968D0374BD3F8102822F00702CF
:1035C000C3F81028D3F8042842F00802C3F80428EE
:1035D000D3F81428D3F81818D3F81008D2B220F072
:1035E0007000C3F81008D3F82448D3F82008090263
:1035F00042EA006289B224040A4304F47F04D3F847
:103600001C7842EA0408D3F81028FFB222F007021F
:1036100042F00102C3F81028D3F8042842F008024F
:10362000C3F80428D3F81448D3F81828D3F810188E
:10363000E4B221F0700141F01001C3F81018D3F882
:103640002418D3F82008120292B244EA0064090454
:10365000144301F47F010C43D3F81C185FFA81F97D
:10366000FFF7D0F8B8EB040467EB0907FF03064641
:103670000023094AE00347EA544102F083FF361A67
:103680002E608FE701208EE702208CE7C48508407A
:10369000A4850840008008400048E80108B5054BB3
:1036A0001B7813B9044800F0ABFF0022034BC3F8AA
:1036B000342808BD5314002050000020008008402A
:1036C000074A0848D2F82C38042B1FBF06490B784C
:1036D00043F040030B700023C2F82C3800F090BF79
:1036E00000800840500000205414002010B5094C00
:1036F00040220021204603F073F90122064B5A6054
:103700004FF480429C60054B5A604FF400425A606F
:1037100010BD00BF0000002000F00F4000E100E0FD
:1037200003289EBF014B0001195070470000002084
:1037300003289EBF024B03EB00104160704700BF9F
:103740000000002003289EBF024B03EB00108160A5
:10375000704700BF00000020032806D80123034A59
:1037600003FA00F0916A08439062704700F00F403E
:10377000032806D80123034A03FA00F0116A08431C
:103780001062704700F00F40032806D80123034A57
:1037900003FA00F0516908435061704700F00F4090
:1037A00003289FBF044B03EB0010806800F0070064
:1037B00088BF0020704700BF000000204FF0FF329C
:1037C000014BC3F80425704700F00F400122014B64
:1037D000DA64704700F00F40074B5A68D102FCD4FE
:1037E0001A6822F480321A605A68D203FCD41A682C
:1037F00042F400321A60704700200D4010B5084CAA
:10380000A36D99070BD063685A01FCD463685B0110
:10381000FCD503F0D3FAFFF7DFFF0023A36510BD4B
:1038200000200D4070B5264BD3F8484614F03F04F5
:1038300014D1244D55F8043B23B1984770B101349D
:10384000052CF7D1204E337843B1FEF7D5FF04465F
:10385000FEF7D8FF201A092800D90CB930BF26E09E
:103860001A4B1A6822F400321A605A68D202FCD449
:103870001A68164D42F480321A606B68DB03FCD57F
:10388000FEF7C0FF241A092C03D8BDE87040FFF7EB
:10389000A3BF632C0CD93378022B09D1AB6500F0A0
:1038A00065FE38B1FFF798FF0022084B9A6570BD9E
:1038B0000123F3E7FEF7A0FF0028F3D0CEE700BF17
:1038C00000800840AC0100205614002000200D406C
:1038D000074A10B50023144652F8041B814202D057
:1038E00011B944F8230010BD0133052BF4D1FAE7D8
:1038F000AC0100200022054B05499A650B6943F095
:1039000004030B61034B1A70704700BF00200D4089
:1039100000ED00E0561400204FF48032064B10B545
:10392000064CC3F89021C3F89020206818B100F02D
:1039300067FE0023236010BD00E100E0C00100200D
:103940004FF4201270B592F82B40431E54B101F58C
:103950002011154A273191421AD011F8010903F8B4
:10396000010FF8E792F82A40122CF0D192F82920A2
:103970004B2AECD14C0804F520120B4D2732AA42F9
:1039800007D1002301F5201120442731A34205DB94
:1039900070BD12F8016903F8016FF0E7CA1A1278D6
:1039A000013300F8012BF1E7270028000FB407B519
:1039B00004AA52F8041B0448019200F021F803B055
:1039C0005DF804EB04B070476000002070B5054658
:1039D0000C460A4E102C07D874B122462B68686832
:1039E0000649BDE870401847102231462B686868C8
:1039F000984710B9103CEDE7204670BDB37B20001E
:103A00002DE9F04F8046154600278DB00491049BA8
:103A10001B78002B00F07983049B1A781C46013335
:103A2000002A00F06183252AF7D1049B9C4205D02F
:103A30005DE323783744002B00F067836278631CD2
:103A4000002A00F062830024184610F8012B194662
:103A50002B2A15D009D8202A15D0232A16D0A2F156
:103A60003106082E40D8002219E02D2A04D0302A31
:103A7000F5D144F0100401E044F001040346E3E70B
:103A800044F00604FAE744F00204F7E744F00804BF
:103A9000F4E70A21019A01FB0299A9F130021946C3
:103AA00013F8019B0192A9F13002092AF1D90B7890
:103AB0002E2B36D14A784B1CA2F13000092828D889
:103AC0004FF0000B1A781946A2F13000092803F1D3
:103AD000010318D90B786C2B6BD14B786C2B23D14D
:103AE00044F08004023122E02A2A09D12B680146E1
:103AF000002B019305F10405B8BF44F00104D6E79B
:103B000000230193D3E70A2101FB0B2BABF1300B10
:103B1000D8E72A2A04D1D5F800B002310435D9E714
:103B200019464FF0FF3BD5E7013144F060040B78B4
:103B3000782B0CD8572B48D8472B08D8402B00F2AD
:103B40008D80002B00F0E182252B00F0D0804B1CF3
:103B5000049304F4E063B3F5A06F00F0A28200F2D6
:103B6000C980B3F5407F00F06882B3F5806F00F044
:103B70002F82B3F5807F7FF44AAFBBF1000FACBF5B
:103B800024F010044FF0010B14F4005904F0E0038A
:103B900000F07A81402B00F0728100F2C280002B8D
:103BA00000F07081202B00F0CB800026B24600236D
:103BB000D3E0682BBBD14B78682B02D144F02004B2
:103BC00090E7013144F04004B1E7583B202BBED8C8
:103BD00001A252F823F000BFA13C20004F3B20007F
:103BE0004F3B20004F3B20004F3B20004F3B20002D
:103BF0004F3B20004F3B20004F3B2000CB3C2000A0
:103C00004F3B2000D73C2000893C2000B33C2000E3
:103C1000A73C2000BF3C20004F3B2000893C2000F7
:103C20004F3B20004F3B20004F3B20004F3B2000EC
:103C3000E93C2000953C2000E33C20004F3B200065
:103C40004F3B2000DD3C20004F3B20008F3C2000FC
:103C50004F3B20004F3B20009B3C2000413B062B6C
:103C60003FF675AF01A252F823F000BFD13C20000F
:103C70004F3B20004F3B20004F3B2000B93C200031
:103C8000AD3C2000C53C200044F424545FE744F4DC
:103C900010645CE744F4885459E744F4C85456E788
:103CA00044F4B24453E744F4007450E744F48444C9
:103CB0004DE744F402444AE744F4424447E744F4FD
:103CC000813444E744F4A13441E744F4C1343EE78D
:103CD00044F4E1343BE744F4A06438E744F48064FE
:103CE00035E744F4407432E744F4E0642FE744F4E9
:103CF000C0642CE7B3F5C06F07D0B3F5E06F7FF475
:103D000086AE2B6804351F6081E60122D8F80030AA
:103D1000A649D8F804009847002840F0F4810137FC
:103D200075E6602B00F0AE80802B7FF43EAFEA1D7D
:103D300022F007021546D2F804A055F8086B04E0FB
:103D400095F9006004354FEAE67ABAF1000FBFF644
:103D50002EAF012376426AEB4A0A029304F4C05361
:103D6000B3F5805F00F0E480B3F5C05F00F0E6805B
:103D7000B3F5006F00F0C6800DF12E030093002311
:103D80000393039B41F608029B4588BFABEB030BF3
:103D900041F2080304EA020198BF4FF0000B994278
:103DA00004D1BBF1010F38BF4FF0010B039B9142CF
:103DB0005B4440F0DF8056EA0A0200F0DB807C4979
:103DC0007C4A14F4804F4FF0020614BF8A46924694
:103DD000B9F1000F0DD0029A002A40F0CE8004F015
:103DE0000602022A00F0CD80062A734A04BF01268B
:103DF000924606EB0309019B4B4594BF4FF0000927
:103E0000A3EB090914F00103019304D1E20640F188
:103E1000BC80CB4499464EB132465146D8F800306A
:103E2000D8F804009847002840F06D815C46039B59
:103E3000DFF888A11F44102CD8E9003000F2AD80D3
:103E40002CB122465D499847002840F05C81D8F8A3
:103E50000030039A0099D8F80400374498470028A6
:103E600040F05181019B5F44002B00F0E080494607
:103E70004046FFF7ABFD002800F0D98043E1B5F9DB
:103E800000605FE72E685DE7402B1BD007D8DBB1F1
:103E9000202B11D04E46CA46CDF808905EE7602B25
:103EA00012D0802BF6D1EA1D22F007021546D2F877
:103EB00004A055F8086B02E02E78CA460435CDF808
:103EC00008904BE72E88F8E72E68F6E703980599E7
:103ED0000A22002302F056FB009B303203F8012D2A
:103EE0000398059900930A22002302F04BFB0390EC
:103EF0000591039B059A1343E8D1009A0DF12E0317
:103F00009B1A3DE70DF12E030396CDF814A0009304
:103F1000EFE7009803F00701303100F8011DDB08DE
:103F200043EA42730090D20853EA0201F1D1E4E778
:103F30000DF12E01334652460091F5E7204B14F463
:103F4000804F2049524608BF194633460DF12E00D6
:103F5000009053EA0200D0D003F00F00DDF800C05B
:103F6000085C1B090CF8010D43EA0273CDF800C090
:103F70001209EEE70026B2462AE70126DFF848A03C
:103F800037E70126DFF844A033E749464046FFF70C
:103F90001DFD00283FF43FAFB5E010225146984781
:103FA000002840F0B080103C45E700BFB17B200006
:103FB000A07B2000A37B2000A87B2000C37B2000E7
:103FC0008F7B20007E7B2000A67B2000837A200050
:103FD0002E6804356EB333469A469AF800200133B2
:103FE000002AF9D1AAEB060ABBF1000F02DBDA4581
:103FF00028BFDA46019B534594BF4FF00009A3EB5D
:104000000A0914F0010405D149464046FFF7DEFCD9
:10401000002878D152463146D8F80030D8F804004C
:10402000984700286FD15744002C7FF420AF4F44AD
:10403000EDE44FF0060A374ED6E7374B14F4804FC5
:10404000364808BF18460DF12B0300229A4629680E
:10405000043551EA02061AD1BAEB030A04BF302232
:1040600003F8012C4FF0780208BF03F1FF3303F887
:10407000012C4FF0300208BF4FF0010A03F8022C68
:104080002322DE1E03F8032C0AF1030AB2E701F033
:104090000F06865D090941EA027103F8016D1209F4
:1040A000D7E7DDF804902B68B9F1010F38BF4FF066
:1040B000010914F0010405F104058DF8183009F127
:1040C000FF3605D131464046FFF780FCD8B937446A
:1040D0000122D8F80030D8F8040006A9984790B912
:1040E000002CA4D03146C3E6049B9C420DD0049B17
:1040F0000499E61A3246D8F80030D8F804009847F8
:1041000000283FF496AC4FF0FF3738460DB0BDE8BD
:10411000F08F00BFAA7B20008F7B20007E7B2000D9
:10412000F8B5038805461646CBB14A2B2BD1882912
:104130001FD1174802F01BFF0446C4B1231D9E4245
:104140001FD12146124802F01CFF124E63693768E6
:104150003360A3690BB1E0699847376007E00C480A
:1041600002F005FF044634B901220B4B1A704A23B2
:104170002B8001200AE0A168201D02F0BCFE24680B
:10418000F1E72468D9E7002303800320F8BD00BFCE
:10419000C4010020500300205714002010B5002453
:1041A000054B06481C7002F0DFFE2146BDE81040BA
:1041B000034800F00DBA00BF57140020C4010020CE
:1041C0006800002070B50446E3610B4B049D1B782A
:1041D000C4E905526BB1094D094B2E68201D2B60B7
:1041E00002F089FE2E602146BDE87040054802F0CD
:1041F000DBBEA160F7E700BF57140020500300208A
:1042000068000020C401002013B5034C246800940A
:10421000FFF7D8FF02B010BD5003002010B5084BC7
:1042200004461B7843B1043000F0B0F82146BDE8E5
:104230001040044802F0A5BEC0E90333F6E700BF12
:1042400057140020C401002010B50D4C236813B989
:104250000C4A136010BDFEF7B9FA2268D2E90031AA
:104260000B441B1A92681AB91844064B1860F1E700
:10427000D2E900142144091A8B4228BF0B46F1E70A
:10428000CC010020C8010020014800F0B9B900BFEE
:10429000780000202DE9F0410388054653B1592BE1
:1042A00046D1872921D1002023490B6863B918B171
:1042B0000B6001E0204A1360592301202B80BDE8E8
:1042C000F08101203346F1E7D3E902649442F8D04B
:1042D00000B10B6019460B4689680029ECD0C8680C
:1042E0009042F8D189689960F4E78229E4D14FF0CF
:1042F0000008114F00263C68002CDDD0204602F05B
:1043000025FE90B122468821E06800F039F950B9C5
:10431000A368E0602EB1B360C4F80880FFF794FF93
:10432000E8E73B60F8E7FFF7AFFF2646A468E3E75E
:10433000002303800320C2E7CC01002010B504460F
:10434000FFF7A2FFE3680B4A0BB1136833B90A4BBE
:104350001B68E36013681460A36004E0A34206D105
:10436000054A1268DA60BDE81040FFF76DBF9B6830
:10437000ECE700BFCC01002050030020024B18687E
:10438000003818BF01207047CC01002010B50B4A3F
:1043900004461368834208D183681360FFF754FF13
:1043A0000023C4E9023310BD1346002BF8D09A68ED
:1043B000A242F9D1A2689A60F0E700BFCC010020C8
:1043C00038B5836804460D469BB10A480460022054
:1043D000A07304F10C0098470238012801D9832DFD
:1043E00005D121462046BDE8384000F005B801233C
:1043F000A37338BD500300202DE9F8431C4F044639
:104400003D6888462B46A34204D00BB9BDE8F8832B
:104410001B68F8E7002CF9D0164EA37BD6F8009065
:1044200063B10023A3738DB9A3683BB1444505D0A4
:104430002A468321346004F10C0098473B68A3426C
:104440000ED123683B60C6F80090DFE7A54204D098
:1044500022468721284602F065FD2D68E3E71346D2
:10446000002BF0D01A68A242F9D122681A60EAE75C
:104470005403002050030020002238B50125084BCA
:104480001A70084B1C6804B938BDE37B2BB10022BD
:1044900082212046E581FFF793FF2468F3E700BF00
:1044A0005B14002054030020024B1878421C1A7041
:1044B000704700BF591400208A22064B1A7000234F
:1044C000054A1370054A1370054A1360054A1360C4
:1044D000704700BF59140020581400205A140020BF
:1044E00054030020500300202DE9F0411A4E337888
:1044F0000BB1FFF7C1FF194D2C7894B10C2218496C
:10450000184F0B78013C5A430133B81803F01F03CE
:10451000BF5C0B702C70D0E9018090B9124B1C6805
:1045200024B9337828781844BDE8F08133780BB18A
:10453000FFF7A2FF20464246394602F0F3FC24680A
:10454000EEE7812F08BF01234246394608BF837337
:1045500002F0E8FCE5E700BF5B1400205A140020DD
:1045600058140020D001002054030020024A034BBD
:1045700010781B78184470475A1400205B140020F0
:10458000F0B50B4D2C78202C0FD00C26094B0A4F80
:104590001B78234403F01F037343FE18C6E9012070
:1045A00000200134F9542C70F0BD0120FCE700BF5D
:1045B0005A14002058140020D001002038B5034CB4
:1045C000256802F0AFFC256038BD00BF5003002015
:1045D00010B40A4609490C68234683420CD04BB9F3
:1045E00050B104600860012110BC81738381812176
:1045F000FFF7E4BF1B68F0E710BC704754030020CE
:1046000038B1837B013B012B9FBF0123014AC37358
:10461000137070475B14002010B5084C206858B127
:1046200000232360D0E901319847236823B1BDE816
:1046300010401868FEF7F4B810BD00BF5803002002
:1046400070B505880446672D09D0792D2FD0002D2F
:1046500033D1FFF729FF1B4B18701B4B1D601B4EFE
:10466000194D08E00A282B680ED07E2B03DC5A1C5B
:104670002A60174AD054304602F0DEFC431CF1D1C8
:104680006723238001201BE05A1C2A600025104A62
:104690002846D5540B4B1978FFF772FF0D4B2A466D
:1046A00085211868FFF76CFF18B97923E9E7852998
:1046B000E8D10022044B1A60D1E7002303800320D5
:1046C00070BD00BF5D1500205C030020600300206A
:1046D0005C140020500300200D28014610B516D0B0
:1046E0000C4C237853B90C4802F093FC08B9012311
:1046F00023700A48FFF784FF012010BD0A28F8D173
:10470000054802F086FC0028F3D00023F0E70020E3
:10471000F3E700BFDC1400206003002088000020C5
:1047200008B505490548802202F06CFCBDE8084048
:1047300000210348FFF74CBFDD1400206003002078
:10474000880000202DE9F04105880446772D20D00F
:104750007E2D3DD0002D4ED1FFF7A6FE284E294BD1
:10476000294FDFF8A88018703560336857F8232088
:104770002AB9274A13707723238001203EE008F8E6
:1047800003509368002180209847336801333360D9
:10479000EBE700231F4A1360194A1360184B1C4AA9
:1047A0001B6812789A4204DC1A4B1B68002BF0D16C
:1047B000E1E7164AD256002A19DA134A002052F8C5
:1047C0002320104B1978FFF7DBFE28B97E23D3E7AF
:1047D0000C4B1B788B42D0D1094B0C491A688B5C6F
:1047E00003F07F038B540B4A136801331360044AB0
:1047F00013680133D1E7002303800320BDE8F08173
:104800006C0300205F150020400000204D140020A4
:104810005E1500206803002010B40A4B0A4A19787C
:1048200000238B4203DA52F8044BA04208D1074917
:104830000748CA5C62F07F02CA5410BCFFF7E0BEB2
:104840000133EEE75E150020400000204D140020EB
:1048500098000020054B1A6842F004021A6058695B
:104860009B6940EA032080B2704700BF00700D4092
:10487000184A136823F00C0313600122164BC3F887
:10488000A820D3F8A820012AFBD10822134BC3F893
:104890002426E322C3F83828D3F86426D207FBD5B0
:1048A0000E4810220023D0F89C16013A01F00101B5
:1048B00043EA01034FEA43039BB2F4D1002BF0D04B
:1048C000044A190A03F0FE0351615361EF23C0F853
:1048D0003838704700700D4000200D4000800840BF
:1048E0000088064B40BA80B28840995CC2F1080249
:1048F00001EA20201041C0B2704700BF047C2000B4
:1049000070B50B4C0023616E0A4A04F13800FFF7C2
:104910007BFCFFF79FFF656E0023B0FBF5F1064AB5
:1049200001FB150104F11800BDE87040FFF76CBCF5
:10493000700300203D49200055492000044B5A6E69
:10494000196E5200914294BF59665A66FFF7D8BF5C
:104950007003002010B500F01DFA00F0AFF900233D
:104960000380044600F04EF82288930008B1017BD2
:1049700051B9023398B200F061F9238873B1BDE8F0
:104980001040074800F012B9818823445980C1883B
:1049900001329980228002F014FBE5E710BD00BFD0
:1049A000700300209DF80030012B04D1024B9A6D5A
:1049B0005A66FFF7A5BF704770030020F8B50F4691
:1049C00016461D46064C0146064A204600F0DCF815
:1049D000C4E9167625660448BDE8F84000F00CB836
:1049E0007003002084792000A5492000014802F0CE
:1049F000BBBA00BFDC030020014B1860704700BF4A
:104A0000E0030020014802F0B2BA00BFDC0300203E
:104A10002DE9F04105460C480C46164602F0A7FA6F
:104A200008B9BDE8F0818388A34209D18768002FC7
:104A3000F7D0334622462946BC46BDE8F0416047E0
:104A400002F0BFFAECE700BFDC030020054B10B515
:104A50001B689847044618B18188012000F0D4F9FA
:104A6000204610BD7879200038B5064B05465B68B6
:104A700098470446A988012000F0C6F9201E18BFF7
:104A8000012038BD78792000014B9B68184700BF92
:104A900078792000014802F067BA00BFE4030020E3
:104AA00081800146014802F07FBA00BFE403002084
:104AB0000146014802F065BAE403002010B504463F
:104AC000054802F054FA00B910BD8388A342FBD018
:104AD00002F077FAF7E700BFE403002070B505465F
:104AE0000C461646FFF7DCFF20462E610249BDE862
:104AF000704002F000BC00BF0D7C2000F8B50646F7
:104B00000A480D46174602F032FA044630B93A46D2
:104B100029463046BDE8F84002F002BCA3680BB15C
:104B200028469847204602F04CFAEEE7E8030020BA
:104B300038B5FFF78BFF0546094802F018FA04461E
:104B400028B95DB12846BDE8384002F0E4BB63688F
:104B500003B19847204602F034FAF0E738BD00BFB1
:104B6000E803002010B50446FFF77EFF38B100F0DF
:104B700081F8034B034821469B689847012010BDEC
:104B8000F4792000FD4A200070B505460C46164613
:104B9000044AFFF7A3FF20466E610349BDE8704059
:104BA00002F0A9BB98792000147C200010B50446BF
:104BB00004491A2000F036F92046BDE8104002F002
:104BC000A8BB00BFD00E002008B5044802F0FCF9D5
:104BD000BDE80840024802F0F7B900BFB400002069
:104BE000A800002010B501460446094802F0FCF96F
:104BF00068B12468B4F88010204600F0DBF804F1B6
:104C0000B60104F18200BDE8104000F0E9B810BD23
:104C1000A800002010B507490B88834208DB064C2A
:104C200080B222880244181A08800120228010BD18
:104C30000020FCE7900E0020920E0020014B18800F
:104C4000704700BF900E0020004870470C04002001
:104C5000014B1888704700BF900E0020034A044B98
:104C600010781B881844C0B2704700BF7015002030
:104C7000920E00202DE9F0410C4E338873B10024D0
:104C80000B4B0C4FB3F800800B4B1D783D4421B209
:104C9000414504F1010403DB00233380BDE8F081CA
:104CA000FFF7DCFF3844435C6B54F0E7920E0020C2
:104CB000900E00200C0400207015002008B5FFF7AE
:104CC000CDFF014B184408BD0C040020F8B50C4B77
:104CD00004461E780B4B1F88F519802D0DDC3246DB
:104CE000094901F007FEFFF7E9FF344401463A465F
:104CF000204601F0FFFD2846F8BD0025FBE700BF78
:104D000070150020900E00200C04002008B5FFF75D
:104D1000A5FF024B1B88184480B208BD900E0020EE
:104D200010B50146FFF7F2FF4318802B12DC431E3B
:104D3000094A1BB21A44481C002B05DA074B1878A5
:104D400001440120197010BD12F80149013B1454AF
:104D50001BB2F1E70020F6E70C04002070150020DC
:104D600070B534220021084801F03AFE0024074DB6
:104D7000074E28463146013402F01DFB042C05F194
:104D80000205F6D170BD00BF9C0E0020940E0020DD
:104D9000147A20000023044A1380044A1380044A32
:104DA0001370FFF7DDBF00BF920E0020900E0020B1
:104DB0007015002038B50C460546FFF7EBFF802C38
:104DC00028BF802429462246034801F093FD034B67
:104DD00020461C8038BD00BF0C040020900E00202F
:104DE00010B5074B00F1340250F8044B904243F8E1
:104DF000044BF9D10B68034A13604B68536010BD34
:104E00009C0E0020940E0020024B23F8101001206D
:104E1000704700BF9C0E0020014B33F81000704714
:104E20009C0E002008B5044B1A3803EB400002F03A
:104E3000C2FA012008BD00BF940E0020024B1A38B0
:104E400003EB4000704700BF940E00200149024868
:104E500002F0B4BA147A2000960E0020084B10B568
:104E60001B689847074B5B689847074B5B689847F8
:104E7000064B5B689847BDE81040054B5B681847D8
:104E8000B0782000C8792000F4792000A0792000B3
:104E90008C792000014B9B68184700BFC87920001F
:104EA000014BDB68184700BFF4792000014B5B69B8
:104EB000184700BFC8792000014B9B69184700BF05
:104EC000C8792000F8B5FDF781FC114D0746002494
:104ED0002E461A20FFF7B2FF294602F06FFA80B182
:104EE0000A20FFF799FF0C2303FB0464237A834213
:104EF0000CD16068381AB0F5206F8CBF00200120FB
:104F0000F8BD0134102C05F10C05E2D10020F7E7C3
:104F10008C04002070B5194D00242E461A20FFF78E
:104F20008DFF294602F04AFA013418B9102C05F118
:104F30000C05F3D10C23621E03FB0464A4F10C05E1
:104F40007AB90A20FFF768FF3072FDF73FFC706006
:104F50001A20FFF773FFBDE870400146074802F0D2
:104F60002ABA2B4654F8180C54F8141C013A03C3FF
:104F700054F8100C2C461860E0E700BF8C040020A9
:104F8000014B1888704700BFD00000202DE9F04188
:104F9000012906460F46144686B003DC002006B001
:104FA000BDE8F08103A902F04CFB0B4603CB1B8844
:104FB000206123839DF811306161002B45D0B51C21
:104FC00002AA01A903A802F004FA9DF81380B8F11F
:104FD000000F4DD0029B2BB16A7815F8023B03EB12
:104FE00002239BB2B8F1020FA38332D1204631498C
:104FF00002F0E1F96B78237015F8023B63709DF8BD
:105000001580B8F1000F4DD0019B002B37D06A7886
:1050100015F8023B03EB0223029A9BB2E38302B929
:10502000A383B8F1020F2DD1224904F1080002F048
:10503000C2F96B78237215F8023B6372A81B3B1A06
:105040008742C4E90E53A9DBA9E7B378F51CA37620
:10505000B6E7B8F1030FD2D105F108021346611E7D
:1050600013F8010D9D4201F8010FF9D11546C6E76D
:105070002046104902F09FF9A4F81C80BFE7A38BDB
:10508000E383CEE7B8F1030FD8D105F10802134648
:1050900004F1080113F8010DAB4201F8010BF9D13D
:1050A0001546CBE7034904F1080002F084F9A4F89F
:1050B0001E80C3E7147A200030B591B00546FFF793
:1050C0005FFF4FF6FF73984204D14FF0FF34204644
:1050D00011B030BD40220021684601F081FC404BF8
:1050E0001A782AB901221A70FFF7B4FB3D4B1870E9
:1050F0001420FFF791FE8DF810001320FFF78CFEAF
:105100008DF81200FFF7A2FE0446002848D00023C5
:105110008DF813308DF81530002301248DF81430EC
:105120008DF818404DB10A20FFF776FE00283FD0D9
:105130000A20FFF771FE8DF81A0002248DF819403D
:10514000FFF71EFFADF81C00FFF780FE00283CD0E3
:105150004FF6FF738DF81740ADF80030FFF710FFE2
:10516000ADF81E001A20FFF769FE014602A802F002
:1051700022F9FFF7A3FD0E90FFF76AFD0F90684636
:1051800002F0D1F90446002DA1D0FFF7C9FD002897
:105190009BD0FFF759FD0146684602F00CFA96E7EE
:1051A0000B20FFF739FE8DF815408DF81300B3E79B
:1051B0000C4B1A7802B91C7019780A204A1C1A7014
:1051C0008DF81A10FFF720FEB7E71B20FFF736FE19
:1051D0000146684602F0EFF88DF81740BEE700BFC1
:1051E0007115002072150020014B1B6A184700BF83
:1051F000B07820002DE9FF47804689461A203F49B4
:10520000FFF710FE01210B20FFF7FEFD3C4B5B6812
:105210009847002870DBFFF717FD3A4D90F802A081
:105220006C68FFF711FD0646FFF770FD014630463A
:10523000A047FFF70BFEAF690646B847044610B11A
:10524000012200240CE0A6B1AB680193FFF75EFDDC
:10525000019B9847024688B1022814BF042201220C
:1052600040460123494602F00CFA204604B0BDE84E
:10527000F087EB6998470028E2D1E5E7002E39D1A5
:10528000FDF7C0FA0446FDF72FFCC4F1FF2404F536
:105290007F04F334FDF7B6FAC442FBD4B847EE6995
:1052A000E8B1FDF7AFFA0446FDF71EFCC4F1FF2498
:1052B00004F57F04EB34FDF7A5FAC442FBD4B047F4
:1052C0000446A0B103212B6903A89847032803D102
:1052D0009DF80E3053450CD000240122C0E7B047A2
:1052E00004460028DDD16B6998470028D9D00222F6
:1052F000B6E700220124B3E70522A2E7D00E002082
:10530000E8792000B0782000044B82B018B11B6A05
:10531000019302B018475B6AFAE700BFB07820003B
:1053200007B5FFF795FC03281BD00F4B9B689847E8
:10533000002816DB1B20FFF781FD0C4902F03EF828
:1053400058B1FFF7BFFD60B9FFF7E4FD084BDB681C
:10535000019303B05DF804EB1847FFF777FD0028D1
:10536000EFD103B05DF804FBE8792000D00E0020F7
:10537000A079200008B5024B1B689847023008BD91
:10538000BC79200038B50C4B9B689847041E02DAA4
:105390004FF0FF3038BDFFF791FC03780546002B36
:1053A000F6D10220FFF736FC0028F1D06878FFF72D
:1053B00045FCA01CEEE700BFBC79200070B50220C0
:1053C000FFF7AEFC10B94FF0FF3070BDFFF73CFCAB
:1053D000002606700446FFF73BFC6070FFF796FC62
:1053E0000446FFF7C7FF20442A2812DCC0F12B0037
:1053F000C4B2FFF763FC0546FFF72AFC224631469C
:10540000284401F0EDFAFFF723FC204480B2FFF7B7
:1054100015FC044B5B689847041ED4DBFFF72AFC9D
:10542000A01CD2E7BC792000014B9B68184700BF45
:105430008C79200070B504460D4614200121FFF739
:10544000E3FC034B29462046BDE870409B681847A3
:10545000A07920002DE9F0410446012500291FDA3A
:1054600020460131FFF7F6FF8046204600F0ECFAB7
:1054700002460B4600200F4900F07AFC06464046E3
:105480000F4600F0E1FA02460B463046394600F07E
:1054900045FB00F055FD044605FB04F0BDE8F08136
:1054A00006D0012905FB04F3F6D01D460139D5E7E6
:1054B0000124F1E70000F03F2DE9F04F8329054674
:1054C0000C46164687B002D16D4801F057FF2B8875
:1054D000AC2B00F0868007D8002B60D09F2B56D0D5
:1054E000002303202B8057E0C72BF9D1654801F03A
:1054F00014FD00284FD00024DFF88C814FF0650A9E
:10550000C346A14623460021604E614F34603C6093
:10551000BAF1010A40F09A800BB164233B600CB1F0
:10552000C6F8009034684FF06509C4F1640000F0DB
:10553000E9FD584900F0EEFE564900F037FE022220
:1055400004A902F04AF9214600245348FEF72EFA36
:10555000524804A9FEF72AFA0023A2463B60B9F19B
:1055600001097FD10BB164233B603068C0F1640056
:1055700000F0C8FD0146204600F0CCFE02A903223F
:1055800002F02BF902A94648FEF710FA1AE0454B43
:105590001B78A34219D0012007B0BDE8F08F424B21
:1055A00019219B684FF480709847404B0F21DC6AAB
:1055B0000120A04703210620A04781213C4A304812
:1055C000FFF7E2FA9F232B80E5E7374B9E42E2D1BB
:1055D0000022384B1A7002212A4801F08CFCAC23BF
:1055E000F1E7284801F099FC0028D4D00E26314C70
:1055F0000120FCF735FF22782F4806FB02F3C25248
:10560000C718023318442D4901F01AFB31463846B9
:10561000FFF7D0FB1A48FFF7C9FA2678FDF7F2F832
:10562000274B43F82600174801F06EFC0120FCF7D9
:105630001FFF23780133DBB2632B2370CBD94FF4E8
:105640002071104801F057FCC723BCE75BF8040B3E
:10565000019100F03FFF019910B1012409F1010906
:10566000012355E758F804BB5146584600F032FF75
:1056700020B92046594600F091FC044601236EE70C
:105680004C050020640500207C05002078050020E2
:10569000740500200000C842387C20005D7C20009A
:1056A0007B7C20005F15002038782000B078200037
:1056B0000C7A200073150020D20E0020307C2000D0
:1056C0001007002008B50E21FFF774FBBDE8084065
:1056D0000148FFF76BBA00BF4C0500202DE9F041EF
:1056E00088B004A80E46FFF7F1FAFDF78BF8DFF853
:1056F0009480C8F80000FFF7E1FA01F0FFFA0746CE
:105700000420FFF789FB0446022024B29DF81050C4
:10571000FCF7A6FE317872781B480094FBB2FEF7C6
:1057200045F91A490DF1120001F0ACF988B9184990
:105730000DF1120001F084FA04A8FFF7C3FF294617
:105740001448FEF733F90220FCF792FE08B0BDE8DA
:10575000F081114BD8F8000053F82530C01A00F042
:10576000CDFC4FF0605100F021FD0C4B02A943F835
:105770002500032202F031F8294602AA0848FEF764
:1057800015F9E0E70C070020A07C2000307C200009
:10579000DC7C2000E27C2000100700207C0500203B
:1057A000047D200081F0004102E000BF83F000434F
:1057B00030B54FEA41044FEA430594EA050F08BFAC
:1057C00090EA020F1FBF54EA000C55EA020C7FEA70
:1057D000645C7FEA655C00F0E2804FEA5454D4EBED
:1057E0005555B8BF6D420CDD2C4480EA020281EAB7
:1057F000030382EA000083EA010180EA020281EAEF
:105800000303362D88BF30BD11F0004F4FEA013140
:105810004FF4801C4CEA113102D0404261EB41014F
:1058200013F0004F4FEA03334CEA133302D05242D5
:1058300063EB430394EA050F00F0A780A4F1010491
:10584000D5F1200E0DDB02FA0EFC22FA05F28018CB
:1058500041F1000103FA0EF2801843FA05F35941B1
:105860000EE0A5F120050EF1200E012A03FA0EFC30
:1058700028BF4CF0020C43FA05F3C01851EBE3715A
:1058800001F0004507D54FF0000EDCF1000C7EEB77
:1058900000006EEB0101B1F5801F1BD3B1F5001FB5
:1058A0000CD349085FEA30004FEA3C0C04F10104D4
:1058B0004FEA445212F5800F80F09A80BCF1004FFD
:1058C00008BF5FEA500C50F1000041EB045141EA7F
:1058D000050130BD5FEA4C0C404141EB0101013C48
:1058E00028BFB1F5801FE9D291F0000F04BF014637
:1058F0000020B1FA81F308BF2033A3F10B03B3F109
:1059000020020CDA0C3208DD02F1140CC2F10C0298
:1059100001FA0CF021FA02F10CE002F11402D8BFF6
:10592000C2F1200C01FA02F120FA0CFCDCBF41EAC2
:105930000C019040E41AA2BF01EB0451294330BD91
:105940006FEA04041F3C1CDA0C340EDC04F114046E
:10595000C4F1200220FA04F001FA02F340EA030045
:1059600021FA04F345EA030130BDC4F10C04C4F18B
:10597000200220FA02F001FA04F340EA030029466B
:1059800030BD21FA04F0294630BD94F0000F83F4B5
:10599000801306BF81F480110134013D4EE77FEA98
:1059A000645C18BF7FEA655C29D094EA050F08BFE4
:1059B00090EA020F05D054EA000C04BF19461046C5
:1059C00030BD91EA030F1EBF0021002030BD5FEA09
:1059D000545C05D14000494128BF41F0004130BD31
:1059E00014F580043CBF01F5801130BD01F0004585
:1059F00045F0FE4141F470014FF0000030BD7FEAF8
:105A0000645C1ABF194610467FEA655C1CBF0B46F2
:105A1000024650EA013406BF52EA033591EA030F09
:105A200041F4002130BD00BF90F0000F04BF002101
:105A3000704730B54FF4806404F132044FF0000534
:105A40004FF0000150E700BF90F0000F04BF0021AD
:105A5000704730B54FF4806404F1320410F0004513
:105A600048BF40424FF000013EE700BF42004FEA0E
:105A7000E2014FEA31014FEA02701FBF12F07F438B
:105A800093F07F4F81F06051704732F07F4208BF42
:105A9000704793F07F4F04BF41F40021704730B549
:105AA0004FF4607401F0004521F000411CE700BF95
:105AB00050EA010208BF704730B54FF000050AE018
:105AC00050EA010208BF704730B511F0004502D519
:105AD000404261EB41014FF4806404F132045FEA1B
:105AE000915C3FF4D8AE4FF003025FEADC0C18BFC4
:105AF00003325FEADC0C18BF033202EBDC02C2F1B6
:105B0000200300FA03FC20FA02F001FA03FE40EA47
:105B10000E0021FA02F11444BDE600BF70B54FF04B
:105B2000FF0C4CF4E06C1CEA11541DBF1CEA135529
:105B300094EA0C0F95EA0C0F00F0DEF82C4481EA91
:105B4000030621EA4C5123EA4C5350EA013518BFB1
:105B500052EA033541F4801143F4801338D0A0FB9E
:105B600002CE4FF00005E1FB02E506F00042E0FB4B
:105B700003E54FF00006E1FB03569CF0000F18BF51
:105B80004EF0010EA4F1FF04B6F5007F64F54074F9
:105B900004D25FEA4E0E6D4146EB060642EAC6218C
:105BA00041EA55514FEAC52040EA5E504FEACE2EF9
:105BB000B4F1FD0C88BFBCF5E06F1ED8BEF1004FFC
:105BC00008BF5FEA500E50F1000041EB045170BD78
:105BD00006F0004646EA010140EA020081EA0301BC
:105BE000B4EB5C04C2BFD4EB0C0541EA045170BDB8
:105BF00041F480114FF0000E013C00F3AB8014F132
:105C0000360FDEBF002001F0004170BDC4F100047A
:105C1000203C35DA0C341BDC04F11404C4F12005FB
:105C200000FA05F320FA04F001FA05F240EA020056
:105C300001F0004221F0004110EBD37021FA04F68C
:105C400042EB06015EEA430E08BF20EAD37070BD46
:105C5000C4F10C04C4F1200500FA04F320FA05F0A5
:105C600001FA04F240EA020001F0004110EBD370A7
:105C700041F100015EEA430E08BF20EAD37070BD17
:105C8000C4F1200500FA05F24EEA020E20FA04F3F0
:105C900001FA05F243EA020321FA04F001F000419F
:105CA00021FA04F220EA020000EBD3705EEA430E10
:105CB00008BF20EAD37070BD94F0000F0FD101F03F
:105CC0000046400041EB010111F4801F08BF013C78
:105CD000F7D041EA060195F0000F18BF704703F0B6
:105CE0000046520043EB030313F4801F08BF013D3D
:105CF000F7D043EA0603704794EA0C0F0CEA1355F9
:105D000018BF95EA0C0F0CD050EA410618BF52EAB2
:105D10004306D1D181EA030101F000414FF00000B8
:105D200070BD50EA410606BF1046194652EA4306C6
:105D300019D094EA0C0F02D150EA013613D195EA3A
:105D40000C0F05D152EA03361CBF104619460AD182
:105D500081EA030101F0004141F0FE4141F470018C
:105D60004FF0000070BD41F0FE4141F4780170BD7C
:105D700070B54FF0FF0C4CF4E06C1CEA11541DBFE1
:105D80001CEA135594EA0C0F95EA0C0F00F0A7F8E3
:105D9000A4EB050481EA030E52EA03354FEA013110
:105DA00000F088804FEA03334FF0805545EA131323
:105DB00043EA12634FEA022245EA111545EA1065EB
:105DC0004FEA00260EF000419D4208BF964244F182
:105DD000FD0404F5407402D25B084FEA3202B61AA1
:105DE00065EB03055B084FEA32024FF480104FF475
:105DF000002CB6EB020E75EB030E22BFB61A7546E9
:105E000040EA0C005B084FEA3202B6EB020E75EB7B
:105E1000030E22BFB61A754640EA5C005B084FEAE3
:105E20003202B6EB020E75EB030E22BFB61A7546B0
:105E300040EA9C005B084FEA3202B6EB020E75EBBB
:105E4000030E22BFB61A754640EADC0055EA060E7C
:105E500018D04FEA051545EA16754FEA06164FEABF
:105E6000C30343EA52734FEAC2025FEA1C1CC0D16B
:105E700011F4801F0BD141EA00014FF000004FF0F8
:105E8000004CB6E711F4801F04BF01430020B4F1B9
:105E9000FD0C88BFBCF5E06F3FF6AFAEB5EB030C71
:105EA00004BFB6EB020C5FEA500C50F1000041EB6E
:105EB000045170BD0EF0004E4EEA113114EB5C043B
:105EC000C2BFD4EB0C0541EA045170BD41F480110E
:105ED0004FF0000E013C90E645EA060E8DE60CEA16
:105EE000135594EA0C0F08BF95EA0C0F3FF43BAF33
:105EF00094EA0C0F0AD150EA01347FF434AF95EAEA
:105F00000C0F7FF425AF104619462CE795EA0C0FCD
:105F100006D152EA03353FF4FDAE1046194622E79A
:105F200050EA410618BF52EA43067FF4C5AE50EA74
:105F300041047FF40DAF52EA43057FF4EBAE12E764
:105F40004FEA410212F5001215D211D56FF47873A1
:105F5000B3EB625212D94FEAC12343F0004343EA44
:105F6000505311F0004F23FA02F018BF404270471F
:105F70004FF00000704750EA013005D111F00040A9
:105F800008BF6FF0004070474FF00000704700BF3F
:105F900080F0004002E000BF81F0004142001FBFDE
:105FA0005FEA410392EA030F7FEA226C7FEA236CE7
:105FB0006AD04FEA1262D2EB1363C1BFD2184140DC
:105FC00048404140B8BF5B42192B88BF704710F072
:105FD000004F40F4000020F07F4018BF404211F015
:105FE000004F41F4000121F07F4118BF494292EA7D
:105FF000030F3FD0A2F1010241FA03FC10EB0C00A9
:10600000C3F1200301FA03F100F0004302D5494235
:1060100060EB4000B0F5000F13D3B0F1807F06D3E2
:1060200040084FEA310102F10102FE2A51D2B1F1DA
:10603000004F40EBC25008BF20F0010040EA0300CF
:106040007047490040EB0000013A28BFB0F5000F4F
:10605000EDD2B0FA80FCACF1080CB2EB0C0200FA05
:106060000CF0AABF00EBC25052421843BCBFD04054
:106070001843704792F0000F81F4000106BF80F4CE
:1060800000000132013BB5E74FEA41037FEA226C91
:1060900018BF7FEA236C21D092EA030F04D092F05C
:1060A000000F08BF0846704790EA010F1CBF002090
:1060B000704712F07F4F04D1400028BF40F00040ED
:1060C000704712F100723CBF00F50000704700F00D
:1060D000004343F0FE4040F4000070477FEA226234
:1060E00016BF08467FEA23630146420206BF5FEA05
:1060F000412390EA010F40F4800070474FF0000305
:1061000004E000BF10F0004348BF40425FEA000CCB
:1061100008BF704743F0964301464FF000001CE073
:1061200050EA010208BF70474FF000030AE000BFC9
:1061300050EA010208BF704711F0004302D5404207
:1061400061EB41015FEA010C02BF84460146002079
:1061500043F0B64308BFA3F18053A3F50003BCFA94
:106160008CF2083AA3EBC25310DB01FA02FC634441
:1061700000FA02FCC2F12002BCF1004F20FA02F248
:1061800043EB020008BF20F00100704702F120023B
:1061900001FA02FCC2F1200250EA4C0021FA02F29C
:1061A00043EB020008BF20EADC7070474FF0FF0CA1
:1061B0001CEAD0521EBF1CEAD15392EA0C0F93EA9C
:1061C0000C0F6FD01A4480EA010C400218BF5FEA3E
:1061D00041211ED04FF0006343EA501043EA5111B1
:1061E000A0FB01310CF00040B1F5000F3EBF4900AB
:1061F00041EAD3715B0040EA010062F17F02FD2AAF
:106200001DD8B3F1004F40EBC25008BF20F0010091
:10621000704790F0000F0CF0004C08BF49024CEAA8
:10622000502040EA51207F3AC2BFD2F1FF0340EA3A
:10623000C250704740F400004FF00003013A5DDCAB
:1062400012F1190FDCBF00F000407047C2F10002EC
:10625000410021FA02F1C2F1200200FA02FC5FEAD9
:10626000310040F1000053EA4C0308BF20EADC7023
:10627000704792F0000F00F0004C02BF400010F495
:10628000000F013AF9D040EA0C0093F0000F01F042
:10629000004C02BF490011F4000F013BF9D041EA64
:1062A0000C018FE70CEAD15392EA0C0F18BF93EA66
:1062B0000C0F0AD030F0004C18BF31F0004CD8D190
:1062C00080EA010000F00040704790F0000F17BF17
:1062D00090F0004F084691F0000F91F0004F14D05D
:1062E00092EA0C0F01D142020FD193EA0C0F03D1B5
:1062F0004B0218BF084608D180EA010000F00040B8
:1063000040F0FE4040F40000704740F0FE4040F492
:10631000400070474FF0FF0C1CEAD0521EBF1CEA31
:10632000D15392EA0C0F93EA0C0F69D0A2EB03024F
:1063300080EA010C49024FEA402037D04FF08053E9
:1063400043EA111143EA10130CF000408B4238BFAE
:106350005B0042F17D024FF4000C8B4224BF5B1ABC
:1063600040EA0C00B3EB510F24BFA3EB510340EA0A
:106370005C00B3EB910F24BFA3EB910340EA9C00B8
:10638000B3EBD10F24BFA3EBD10340EADC001B0128
:1063900018BF5FEA1C1CE0D1FD2A3FF650AF8B42CC
:1063A00040EBC25008BF20F0010070470CF0004CD9
:1063B0004CEA50207F32C2BFD2F1FF0340EAC25004
:1063C000704740F400004FF00003013A37E792F0C5
:1063D000000F00F0004C02BF400010F4000F013A23
:1063E000F9D040EA0C0093F0000F01F0004C02BF1E
:1063F000490011F4000F013BF9D041EA0C0195E787
:106400000CEAD15392EA0C0F08D142027FF47DAF1F
:1064100093EA0C0F7FF470AF084676E793EA0C0F0F
:1064200004D14B023FF44CAF08466EE730F0004C0D
:1064300018BF31F0004CCAD130F000427FF45CAF9D
:1064400031F000437FF43CAF5FE700BF4FF0FF3C0B
:1064500006E000BF4FF0010C02E000BF4FF0010C5E
:106460004DF804CD4FEA40024FEA41037FEA226C27
:1064700018BF7FEA236C11D001B052EA530C18BF49
:1064800090EA010F58BFB2EB030088BFC81738BFAE
:106490006FEAE17018BF40F0010070477FEA226C9C
:1064A00002D15FEA402C05D17FEA236CE4D15FEA98
:1064B000412CE1D05DF8040B704700BF84460846CC
:1064C0006146FFE70FB5FFF7C9FF002848BF10F18D
:1064D000000F0FBD4DF808EDFFF7F4FF0CBF0120D2
:1064E00000205DF808FB00BF4DF808EDFFF7EAFF5C
:1064F00034BF012000205DF808FB00BF4DF808ED17
:10650000FFF7E0FF94BF012000205DF808FB00BF0B
:106510004DF808EDFFF7D2FF94BF012000205DF891
:1065200008FB00BF4DF808EDFFF7C8FF34BF01209E
:1065300000205DF808FB00BF4FEA4002B2F1FE4FB9
:106540000FD34FF09E03B3EB12620DD94FEA002335
:1065500043F0004310F0004F23FA02F018BF40420E
:1065600070474FF00000704712F1610F01D14202F5
:1065700005D110F0004008BF6FF0004070474FF0A9
:106580000000704753B94AB9002908BF00281CBF52
:106590004FF0FF314FF0FF3000F076B9ADF1080C4D
:1065A0006DE904CE00F006F8DDF804E0DDE9022331
:1065B00004B070472DE9F047089E0D460446884612
:1065C000002B4DD18A42944668D9B2FA82F252B178
:1065D00001FA02F3C2F1200120FA01F10CFA02FCE7
:1065E00041EA030894404FEA1C41B8FBF1F71FFA57
:1065F0008CFE01FB178807FB0EF0230C43EA0843CF
:1066000098420AD91CEB030307F1FF3580F01E8185
:10661000984240F21B81023F63441B1AB3FBF1F026
:1066200001FB103300FB0EFEA4B244EA0344A6456E
:106630000AD91CEB040400F1FF3380F00981A64560
:1066400040F20681644402380021A4EB0E0440EAC3
:1066500007401EB10023D440C6E90043BDE8F087DF
:106660008B4208D9002E00F0EE800021C6E900051B
:106670000846BDE8F087B3FA83F100294AD1AB425E
:1066800002D3824200F2FC80841A65EB03030120EE
:106690009846002EE2D0C6E90048DFE702B9FFDEE7
:1066A000B2FA82F2002A40F09180A1EB0C000121A5
:1066B0004FEA1C471FFA8CFEB0FBF7F307FB1300F1
:1066C000250C45EA00450EFB03F0A84208D91CEB57
:1066D000050503F1FF3802D2A84200F2CE804346FE
:1066E0002D1AB5FBF7F007FB10550EFB00FEA4B208
:1066F00044EA0544A64508D91CEB040400F1FF3523
:1067000002D2A64500F2B6802846A4EB0E0440EA69
:1067100003409EE7C1F120078B4022FA07FC4CEAB8
:10672000030C25FA07FA4FEA1C49BAFBF9F820FADC
:1067300007F309FB18AA8D401FFA8CFE1D4300FACF
:1067400001F308FB0EF02C0C44EA0A44A04202FAC2
:1067500001F20BD91CEB040408F1FF3A80F08880A9
:10676000A04240F28580A8F102086444241AB4FBD8
:10677000F9F009FB104400FB0EFEADB245EA0444FB
:10678000A64508D91CEB040400F1FF356CD2A645E0
:106790006AD90238644440EA0840A0FB0295A4EBA1
:1067A0000E04AC42C846AE4656D353D0002E69D034
:1067B000B3EB080264EB0E0422FA01F304FA07F7C4
:1067C0001F43CC40C6E90074002147E70CFA02FCE5
:1067D000C2F1200125FA01F34FEA1C4720FA01F12A
:1067E00095400D43B3FBF7F107FB11331FFA8CFE05
:1067F000280C40EA034001FB0EF3834204FA02F442
:1068000008D91CEB000001F1FF382FD283422DD9AB
:1068100002396044C01AB0FBF7F307FB1300ADB2B6
:1068200045EA004503FB0EF0A84208D91CEB05051C
:1068300003F1FF3816D2A84214D9023B6544281A46
:1068400043EA014138E73146304607E72F46E4E6A0
:106850001846F9E64B45A9D2B9EB020865EB0C0ED8
:106860000138A3E74346EAE7284694E74146D1E7E3
:10687000D0467BE76444023847E7023B65442FE794
:10688000084606E73146E9E6704700BF032A10B51F
:1068900016D940EA010C1CF0030F04460B4622D126
:1068A00019462046D1F800E0D0F800C00433F44582
:1068B00004F1040417D1043A032A20461946EFD8FC
:1068C000541EA2B100F1FF3C013901E0C3180CD005
:1068D0001CF801EF11F8012FA4EB0C039645F5D03D
:1068E000AEEB020010BD541EECE7184610BD10467A
:1068F00010BD00BF844641EA000313F0030349D1F1
:10690000403A23D30B6803604B6843608B68836015
:10691000CB68C3600B6903614B6943618B69836119
:10692000CB69C3610B6A03624B6A43628B6A836201
:10693000CB6AC3620B6B03634B6B43638B6B8363E9
:10694000CB6BC36340304031403ADBD230320BD3A3
:106950000B6803604B6843608B688360CB68C360DF
:1069600010301031103AF3D20C3205D351F8043BF9
:1069700040F8043B043AF9D2043208D0D2071CBFD5
:1069800011F8013B00F8013B01D30B8803806046FE
:10699000704700BF082A13D38B07B1D010F0030350
:1069A000AED0C3F10403D21ADB071CBF11F8013BC0
:1069B00000F8013BA4D331F8023B20F8023B9FE7EB
:1069C000043AD9D3013A11F8013B00F8013BF9D25E
:1069D0000B7803704B7843708B78837060467047F8
:1069E000830730B548D0541E002A3FD00346CAB2B0
:1069F00001E0013C3AD303F8012B9D07F9D1032CA8
:106A00002DD9CDB245EA05250F2C45EA054536D9E5
:106A1000A4F1100222F00F0C03F1200EE6444FEA1D
:106A2000121C03F1100242E9045542E902551032EA
:106A30007245F8D10CF1010214F00C0F03EB0212B5
:106A400004F00F0C13D0ACF1040323F00303043360
:106A5000134442F8045B9342FBD10CF003042CB1C5
:106A6000CAB21C4403F8012B9C42FBD130BD6446E2
:106A70001346002CF4D1F9E703461446BFE71A4643
:106A8000A446E0E780EA010C1CF0030F37D110F0B8
:106A9000030C20F0030021F0030150F8042B08BF81
:106AA00051F8043B0ED08CF0030C6FF07F434FEA9B
:106AB000CC0C23FA0CFC51F8043B42EA0C0243EAEA
:106AC0000C0300BFA2F1013C9A4201BF2CEA020C68
:106AD0001CF0803F50F8042B51F8043BF2D04FEAF1
:106AE00002604FEA1222012828BFB0EB036F08BFF3
:106AF0001B0AF4D003F0FF03000EC01A704710F019
:106B0000030F0AD010F8012B11F8013B012A28BF0E
:106B10009A42F4D0A2EB030070474DF8045D50F8A0
:106B2000042B01F0030521F0030151F8043B022D71
:106B300026D04DD822F07F45B5EB132FA2F1013CB2
:106B40002CEA020C0DD11CF0803C08BF51F8043B2C
:106B50000AD185EA0205B5EB036F0CD150F8042B7E
:106B6000E8E74FEA13235BE03CF07F4C54D10B780D
:106B70004FEA126554E04FEA126503F0FF034FE05D
:106B80004FEA0245A2F1013C4FEA15452CEA020CFE
:106B9000B5EB134F18D11CF0803C08BF51F8043BF3
:106BA00007D185EA0205B5EB034F09D150F8042B54
:106BB000E6E75FEA0C4C2FD10B884FEA12452FE035
:106BC0004FEA03434FEA12454FEA134328E000BF60
:106BD00002F0FF05B5EB136FA2F1013C2CEA020CA9
:106BE0000DD11CF0803C08BF51F8043B0AD185EA66
:106BF0000205B5EB032F0AD150F8042BE8E74FEA62
:106C000013630DE012F0FF0F06D051F8043B4FEA7A
:106C1000122523F07F4303E04FF0000020BC7047B3
:106C200005F0FF0203F0FF00012828BF904204BFD7
:106C30002D0A1B0AF4D0A2EB000020BC704700BF55
:106C400080EA0102844612F0030F4FD111F0030FC6
:106C500032D14DF8044D11F0040F51F8043B0BD024
:106C6000A3F101329A4312F0803F04BF4CF8043B79
:106C700051F8043B16D100BF51F8044BA3F1013287
:106C80009A4312F0803FA4F101320BD14CF8043B3F
:106C9000A24312F0803F04BF51F8043B4CF8044B70
:106CA000EAD023460CF8013B13F0FF0F4FEA3323E1
:106CB000F8D15DF8044B704711F0010F06D011F8C0
:106CC000012B0CF8012B002A08BF704711F0020FAE
:106CD000BFD031F8022B12F0FF0F16BF2CF8022B99
:106CE0008CF8002012F47F4FB3D1704711F8012BBC
:106CF0000CF8012B002AF9D1704700BF20F00301E6
:106D000010F00300C0F1000051F8043B00F1040C46
:106D10004FEACC0C6FF000021CBF22FA0CF21343B6
:106D20004FF0010C4CEA0C2C4CEA0C4CA3EB0C027F
:106D300022EA030212EACC1204BF51F8043B0430E9
:106D4000F4D0C2F1000102EA0102B2FA82F2C2F109
:106D50001F0200EBD2007047FEE708B5FBF796FA7A
:106D6000F7B500240646254627463046FBF778FB54
:106D70000197019BAB4215DB3046FBF779FBC5F56C
:106D8000C8750197019B9D4211DC0134B4F5487F21
:106D900001D103B0F0BDB4F5C87FD4BF2546C4F51A
:106DA0004875E2E700BF019B01330193E1E700BFB3
:106DB000019B01330193E5E7FBF714BC10B54FF0DD
:106DC000E024236923F001032361FBF7B3FC23696B
:106DD00043F00103236110BDFBF7ACBC70470020FA
:106DE000FBF76CBD0120FBF769BD0020FBF712BF6C
:106DF0000120FBF70FBF0220FBF70CBF0320FBF7BE
:106E000009BF10B50C46FCF7EFF92046BDE810406D
:106E1000FCF71CBA10B50446C1B20020FBF74AFECD
:106E2000204610BD70B50E460025441E631C02D0DE
:106E300014F8010F08B9284670BDB542FBD0FFF722
:106E4000E9FF0135F2E738B505460024285D20B991
:106E50000A20FFF7DFFF204638BDFFF7DBFF0134D4
:106E6000F4E7002070470120704710B50446302237
:106E700000210E20FBF71EFF6CB1012C0CD142F259
:106E800010730011A0F28E5058432A2390FBF3F0A8
:106E900000F5C340283010BD4FF00040FBE7002054
:106EA00070470120704710B50446302200210F20A2
:106EB000FBF700FF5CB1012C03BF40F6F2535843CF
:106EC00047F6F0734FF0004008BF90FBF3F010BDA1
:106ED000084608B511460AB1FFF7A4FF002008BD17
:106EE00010B5041F54F8040F00B910BD0021FDF7C0
:106EF0006FFBF7E7704710B5044600F01BF820461B
:106F0000BDE81040FDF71ABA10B5044600F019F8B4
:106F10002046BDE81040FDF711BAC068B0FA80F015
:106F200040097047837BDB0701D5FDF749BA7047FD
:106F3000FFF754BF10B541600446FBF747FC2060E3
:106F400010BDD0E9003213440360704710B5044609
:106F5000FBF73CFC2368C3F10103034460689842DB
:106F60002CBF0020012010BD002303607047006883
:106F70007047006820B1034600680028FBD118461E
:106F80007047036810B53BB1002499421A6806D1D6
:106F90001CB9026000221A6010BD2260FAE71C468C
:106FA000002AF9D01346F0E738B5FFF7EAFF0023CF
:106FB0000B600546FFF7DDFF08B9296038BD0160A9
:106FC000FCE700B10068704710B504464288002114
:106FD0004068FFF705FD23886288A0680021BDE8AE
:106FE00010405A43FFF7FCBC83688B4208D84288A4
:106FF000008800FB023081422CBF00200120704736
:10700000002070470023013A0160027143718371CF
:10701000704710B5427983790479D31A34EA0303AF
:1070200008D00368995443790279013313404371BE
:10703000012010BD0020FCE7837942790179D21A42
:107040000A421FBF0268D25C01330B401ABF837132
:1070500010464FF0FF307047831C002013F8022CBD
:10706000023302B9704713F8032C1044F6E7072BDC
:107070002DE9F84306460F4615461C4607DC1A461E
:1070800029463846FDF72CFC3070BDE8F8834FEAFE
:10709000E3087AB97B5D735501354545FADB14F099
:1070A0000702F2D0002107EB0800FDF719FC06F8F3
:1070B0000800EAE74FF0000907EB0900082229461B
:1070C000FDF70EFC06F8090009F10109C145F3DBE3
:1070D00014F00702D9D02946E5E72DE9F743FDF77B
:1070E000EDFD04460220FDF795FD20B90025284658
:1070F00003B0BDE8F0836378207800EB032080B212
:10710000FDF7DCFC05460028F0D0FDF7D7FD07466B
:10711000287B10F0070318BF012303EBD000FDF715
:1071200079FD0028E2D00026B146AC68023414F89C
:10713000023C002BDBD0192B14F8018C07EBE60185
:1071400006F007020BD901A84346FFF790FF14F899
:10715000020C01A9FDF766FE46440234E7E701A8E8
:107160004346ADF80490FFF782FFBDF8041014F811
:10717000020CFDF749FEEFE7072B2DE9F0410FDC8C
:107180001478C1F11001CB1A04FA03F30178C3F3A8
:1071900007220A43417802700B434370BDE8F08137
:1071A000DC10C9B9555C45540131A142FADB13F03A
:1071B0000703F3D0125DC3F108052A41C3F11003A0
:1071C000055D02FA03F3C3F307222A4301190255AE
:1071D0004A7813434B70E1E705460026C1F1080EDB
:1071E000975D95F800C007FA0EF7C7F307284CEA39
:1071F000080C05F801CB95F800C001364CEA0707EA
:10720000A6422F70ECDB13F00703C7D0125DC3F169
:10721000080631440A41D2B2C3F11003015D02FAFB
:1072200003F3C3F307220A43051902556A7813438F
:107230006B70B3E72DE9F743057B044615F00702B1
:1072400018BF012202EBD505A81CFDF769FDA8B106
:10725000FDF7FAFCA3880370A3881B0A4370FDF7AF
:10726000F3FC2A460025861C00213046FFF7B8FBB8
:10727000A468023414F8020C18B9012003B0BDE868
:10728000F083192814F8017C06EBE50805F00709DE
:107290000AD9FDF7D3FD3B46024649464046FFF773
:1072A0006BFF3D440234E5E7FDF7B6FD8DF80400C1
:1072B000000A3B468DF8050001AAEEE77047F8B5D5
:1072C0000E46FDF7FBFC07880446FDF7C1FCBB003A
:1072D0000233834203D800250234AF4200DCF8BDFC
:1072E00054F8041B30460A0C89B2FDF791FB0135B6
:1072F000F3E7FDF7CFBB38B50D46FDF7DFFB0446DE
:1073000020B185602846FDF7BFFB207338BDFDF72F
:10731000CFBBFDF727BC03691B6803B11847704753
:1073200003695B6803B11847704710B5FDF74CFC63
:10733000FDF730FDFDF75AFBFFF7DBFFBDE810401E
:107340004FF4E1234FF4F05210210220FDF736BB39
:1073500043695B6803B11847704713B504461A20A8
:10736000FDF76CFD014601A800F025F863691B6874
:1073700013B1204601A9984702B010BDFFF7C7BF5F
:107380000EF00F000D2808BF00F00EB800982DE990
:10739000F04F00F1240181F3098890E8F08F0EF09E
:1073A0000F000D2818BF7047EFF3098020E9F04F58
:1073B0000990BDE8F08F0B8803807047022208B562
:1073C000FFF764FAB0FA80F0400908BD002070476A
:1073D000704730B530B3037A022B2CD1C579437A8C
:1073E00004792DB9002B4AD1012C48D1204615E053
:1073F00053EA04001DD0032D2FD1032B2FD1B4FA53
:1074000084F04009002309E0181E18BF0120002C59
:10741000F8D1023B012B8CBF0023012301B10B608B
:1074200002B1106030BD023B012B8CBF0023012351
:10743000DCE701201BE00378022B22D0037953B94B
:10744000437A13F0030318BF0123C07910F003003F
:1074500018BF0120E2E70023F7E7022DD4D0A3F103
:10746000020CDCF1000040EB0C00002CCAD1022D14
:10747000CFD0032DC6D19C1E63426341CEE7002CC2
:10748000D1D000200346C9E7002337B50B608B80BD
:10749000437D0D46D9075CBF01232B70037E044654
:1074A000012B0BD8C37D9A072CD0437E9B0729D094
:1074B000C28B838B9A4225D101232375694601AA89
:1074C00004F11000FFF785FF009B0BB10223EB7066
:1074D000019B0BB102236B70E37D03F00303022BCE
:1074E00003D0032B14BF00230823AB70637E03F08B
:1074F0000303022B03D0032B14BF002308232B719B
:1075000003B030BD0023D8E702280CBF02230823B4
:107510000B448B4201D10120704713F8012DFF2A43
:10752000F7D00020704707B56946FFF7ADFF9DF81B
:1075300000309DF80100023303449DF8020003442B
:107540009DF8030003449DF8040003449DF80500E2
:10755000184403B05DF804FB43788278DB00120125
:1075600002F0100203F008031343027802F007024E
:107570001343C278520102F02002134302799201B0
:1075800002F0400213430B704379427A03F0010387
:1075900043EA82138279520002F002021343C27955
:1075A000920002F00C021343027A120102F0300240
:1075B00013434B70704737B504460D466946FFF7D5
:1075C00063FF294604F11000FFF7C6FF9DF8003065
:1075D0009DF80120012B09BFA37E0223AB7003237A
:1075E000022A08D1A18B5A1CE954A18BD2B20233D2
:1075F000090ADBB2A9549DF802201344DBB2991AA0
:10760000C9B2B2B99DF80320022A08D1E18B5A1CF5
:10761000E954E18BD2B20233090ADBB2A9549DF8D6
:10762000042008341344D8B2831ADBB22AB903B059
:1076300030BD013AA05C6854E1E7013AA15CE9542D
:10764000F2E70278437802F007000870C2F3C00046
:107650004870C2F300108870C2F34010C2F3801269
:107660000A7103F001024A71C3F340028A71C3F345
:107670008102CA71C3F301129B09C8700A724B726E
:10768000704710B40446084611461A4614B1234602
:1076900010BC184710BC704730B591B0FDF70EFB19
:1076A0000446FDF7D5FA6A4601462046FDF76EFC12
:1076B000044620B94FF0FF34204611B030BDFDF72D
:1076C000A9FA0028F6D014209DF81010FDF79CFBB5
:1076D0009DF81730ABB1BDF81C50FDF751FC854249
:1076E00005D04FF6FF73BDF81C209A42E2D16946DF
:1076F0009DF81700FFF708FF18B969461B20FDF732
:1077000091FB02A91A20FDF78DFB13209DF81210A2
:10771000FDF77AFB9DF8153053B99DF81A100A2031
:10772000FDF772FB9DF81A100E20FDF76DFBC3E705
:107730004FF6FF71F3E70020FDF7BEBC0120FDF717
:10774000BBBC00207047FDF74FBD70B504460D4629
:1077500002B970BDD2E90060FDF744FA294620461F
:10776000FDF748FD0028F4D03246F1E7FDF742BDB1
:107770007047002330B5421E08440139CC1AA34299
:1077800000DB30BD12F8014F10F8015D01331570B8
:107790000470F3E7F8B50E464B1EC1F1010504462F
:1077A0000A21EF1884B9D51BBA42B8BF0025302191
:1077B0002A46F0193D44FFF713F930462946FFF7F2
:1077C000D8FF28467455F8BD94FBF1F001FB104436
:1077D000303403F8014F0446E3E72DE9F8430C4643
:1077E00016460746FEF7A8FE002221468146FFF70F
:1077F000D1FF0546F6B12E23314623540A20FDF76A
:1078000029FE80464846FEF77DFC01463846FEF7D5
:10781000C3FB07464046FEF775FC01353946FEF7C7
:10782000C5FC2C44FEF788FE32462146BDE8F843ED
:10783000FFF7B0BFBDE8F8838C7A200085242000D4
:10784000E124200000000000010000000100000011
:107850000100000000C0004000410D400000000099
:10786000080000002C00000000000001FFFFFFFFE7
:1078700005000000020000000200000002000000FD
:1078800000D0004008410D40020000000800000048
:107890002C00000002010200FFFFFFFF06000000B5
:1078A000277B20002B7B20003A7B20003E7B2000A2
:1078B00021342000E93120004D322000036E2000E9
:1078C00025332000CD302000112E2000292E20004D
:1078D000092F2000D12D2000812F20000131200010
:1078E00081352000F532200007000000FF00000075
:1078F00005000000ED00000003000000D5000000BE
:1079000001000000C500000000000000B6000000FB
:10791000FFFFFFFFB0000000FDFFFFFFA100000020
:10792000FBFFFFFF91000000F9FFFFFF8800000050
:10793000F7FFFFFF72000000F5FFFFFF620000008D
:10794000F3FFFFFF58000000F1FFFFFF42000000BF
:10795000E8FFFFFF00000000657B20006B6E200049
:10796000636E2000676E2000797B2000A76E2000E8
:107970009F6E2000A36E2000DB7020003572200077
:1079800059702000BF722000BD7220000F7C2000C3
:107990002B732000314B20005B73200051732000BB
:1079A000187C2000D1732000954E2000A14E2000AD
:1079B000AD4E2000B94E2000CD7320003777200057
:1079C0003D77200099762000207C2000477720001A
:1079D0006D7720004B77200021532000E9512000D3
:1079E000095320004377200075532000BD53200029
:1079F00085532000287C200071772000355420001A
:107A000029542000C000002000000000DD562000A6
:107A1000000000000000436F6E74696B692D373100
:107A200033373638356332005A6F6C65727469616A
:107A30002052452D4D6F7465207265766973696FAC
:107A40006E204220706C6174666F726D0052696DB9
:107A50006520636F6E666967757265642077697407
:107A60006820616464726573732000253032783A4F
:107A700000253032780A00204E65743A2000204DEF
:107A800041433A2000205244433A20004275747426
:107A90006F6E004343323533383A2049443A203040
:107AA000782530346C782C207265762E3A20504739
:107AB00025642E25642C20466C6173683A20256C61
:107AC00075204B69422C205352414D3A20256C754C
:107AD000204B69422C204145532F5348413A2025E1
