:020000040020DA
:10200000783100208D222000E7AE2000E5AE2000D0
:10201000E5AE2000E5AE2000E5AE200000000000A7
:102020000000000000000000000000003FC0200091
:10203000E5AE2000000000005DC0200065AF20007C
:1020400077AF20007DAF200083AF200089AF200054
:10205000000000006BAF200071AF2000E5AE200053
:10206000E5AE2000000000000000000000000000BD
:102070000000000000000000E5AE200000000000AD
:102080000000000000000000E5AE2000E5AE2000EA
:10209000E5AE2000E5AE2000E5AE2000E5AE200074
:1020A000E5AE2000E5AE2000E5AE2000E5AE200064
:1020B000E5AE2000E5AE2000E5AE2000E5AE200054
:1020C000E5AE2000E5AE2000E5AE2000E5AE200044
:1020D000E5AE20000000000000000000000000004D
:1020E00000000000000000000000000000000000F0
:1020F00000000000000000001938200029382000EE
:1021000000000000000000000000000000000000CF
:1021100000000000000000000000000000000000BF
:1021200000000000000000000000000000000000AF
:10213000000000000000000000000000000000009F
:10214000000000000000000000000000000000008F
:10215000000000000000000000000000000000007F
:10216000000000000000000000000000000000006F
:10217000000000000000000000000000000000005F
:10218000000000000000000000000000000000004F
:10219000000000000000000000000000000000003F
:1021A000000000000000000000000000000000002F
:1021B000000000000000000000000000000000001F
:1021C000000000000000000000000000000000000F
:1021D00000000000000000000000000000000000FF
:1021E00000000000000000000000000000000000EF
:1021F00000000000000000000000000000000000DF
:1022000000000000000000000000000000000000CE
:1022100000000000000000000000000000000000BE
:1022200000000000000000000000000000000000AE
:10223000000000000000000000000000000000009E
:10224000000000000000000000000000000000008E
:10225000000000000000000000000000000000007E
:10226000000000000000000000000000000000006E
:10227000E5AE2000F93620001D372000892D200012
:1022800075392000C9282000E5AE2000FF22002477
:1022900008B5094B0948C3F8B420094A636E0949D7
:1022A000121A98470848094A2146236E121A98477D
:1022B00000F00EF8FEE700BF00200D4040000020B7
:1022C0000D020020E4C92000100200207329002024
:1022D0002DE9F34100F03EFC00F0F8FC00F054FC66
:1022E00000F076FA01F034FB08F00BFF00F0E6FC9A
:1022F00000F0C8F8012008F0F9FD02F049F900F0FB
:1023000015FC002000F038FB012000F035FB002018
:10231000484900F0F5FB02F081FA62B6042008F0AB
:10232000E5FD454808F055FE444808F052FE00F02F
:10233000EDF9002002F01AFB01F006FA00214048F6
:1023400002F0B2F901F058FF08F0FCFD00F040FD8A
:1023500000F05CFD07F0CCFA0821684601F01EFB96
:102360006B46384C03CB206061603748BDF806509F
:10237000002601F049FB27466DBADFF8D080ADB2E8
:10238000404614F8011B013601F03EFB072EF7D141
:102390002F4EF9792F4801F037FBF46A4AF6CD3118
:1023A0000220A04729460320A0471A210120A04768
:1023B00069460822736B0B209847274801F024FBDD
:1023C000264B186808F005FE254801F01DFB254B3B
:1023D000186808F0FEFD244801F016FB234B18682E
:1023E00008F0F7FD224A3B6813607B68536006F0F3
:1023F000A9FF00211F4802F057F900211E4802F0F2
:1024000053F91E4B01219B688120984708F038FE44
:102410001B4808F02BFE00F08FFB022008F066FD41
:1024200000F090FB02F0CCF8C0B20028F8D101F027
:1024300027FAF5E7D547200018C720002AC7200053
:10244000780000204E2900204FC720006DC72000D3
:10245000E0C5200073C7200079C72000A8C620006F
:1024600080C72000C0C6200087C72000DCC620002F
:1024700098230020180100209800002068C5200043
:102480000CC7200008B500F0E9F80022014B1A70D3
:1024900008BD00BF52220020024B1A78104318706A
:1024A00000F0FEB852220020034A137823EA00000D
:1024B000107000F0F5B800BF52220020024B1A78CD
:1024C0005040187000F0ECB85222002018B10128DA
:1024D00004D000207047034B186A7047024B1878ED
:1024E000704700BF00900D405422002010B5094AEB
:1024F0000020137801331370074B197802F0ACF801
:10250000BDE8104005490023054A0968054801F067
:10251000A9BE00BF54220020532200204802002000
:10252000ED2420002802002008B50346812B084630
:102530002DD0B3F5807F3ED0802B26D102F01AF843
:102540001E4B032118701E4B0020D3F8202422F0CC
:102550000802C3F82024D3F8002422F00802C3F8AC
:102560000024D3F8042422F00802C3F80424D3F88A
:10257000082442F00802C3F80824042200F0B4FB47
:10258000032200210F4800F053FB01200AE00C4B0E
:102590000D49D3F8102430B142F00802C3F81024DA
:1025A00001230B6008BD22F00802C3F810240123A8
:1025B000C1F88030F6E7054B1960E6E753220020AA
:1025C00000900D40D125200000E100E048020020ED
:1025D00008B50F4808F0A9FDC8B108210C4808F05B
:1025E00092FD0C4B196849B100220B4B1A700B4B32
:1025F0001B6A43B90A4A0B4801F034FEBDE80840A3
:10260000094802F087B9074801F06EFEF6E708BDF9
:1026100020020020480200205422002000900D409B
:10262000ED2420002802002068C52000094BD3F8C3
:10263000202422F00402C3F82024D3F8002442F01E
:102640000402C3F8002400221A610122024B1A700E
:10265000704700BF00C00D405922002000210F4BE1
:10266000D3F8202422F0C002C3F82024D3F8002499
:1026700042F0C002C3F80024C3F8001303F500536E
:10268000D3F8202422F01002C3F82024D3F8002429
:1026900042F01002C3F800241964704700A00D40F6
:1026A00010F0020218BFFF22084BC3F8002210F0FE
:1026B000040218BFFF2210F00100C3F8002118BF68
:1026C000FF22034B14BF1A641864704700A00D402A
:1026D00000C00D40044BDB69C3F3072013F4704FB7
:1026E00004BF1030C0B2704700300D40064B58692F
:1026F000C00910F0060F03BF00F00700C0F1020090
:1027000040034FF40040704700300D402DE9F04782
:10271000002488B0FFF7DEFF164B0646DF69236D05
:102720009847E36C804698470446FFF7DFFF05466D
:1027300000F066FA814600F06FFA824600F01AFA5D
:10274000AD0A07F00103A40AC7F34007CDE905A0CD
:1027500003934146CDF8109002970195009406F03E
:102760000F03C6F30712044801F04EF908B0BDE8A4
:10277000F08700BF00300D4095C720002DE9784854
:1027800000F06EF810490246D1E900BC6646584593
:1027900038BF0CF101063346C1E900230B4ED6E9E0
:1027A0000001B0EB0B0461EB0C05A01845EB030135
:1027B000C6E9000101F048FE18B1BDE8784801F013
:1027C000C9BDBDE8788800BF1802002010020020B3
:1027D0004FF0E023E0210B4A5A610B4A82F82310A4
:1027E000002207219A61196108498B6843F00103AF
:1027F0008B60074BDA6004221A6001225A600F22B4
:102800009A63704747E8010000ED00E000200D40AA
:1028100000000340034BD3E90023100A40EA0360A1
:10282000704700BF18020020034BD3E90023D00BF0
:1028300040EA4340704700BF10020020044B9862FA
:10284000DA6842F00102DA60DA68D207FCD4704735
:1028500000000340014B1868704700BF4C02002085
:10286000054A106C516C936C1B0443EA012303432B
:10287000D06C43EA0060704700500D4010B504462C
:102880000E4A136DDB07FCD572B6FFF7E9FF231A7A
:10289000062BD8BFC41D094B220EDA64C4F30742CD
:1028A0009A64C4F307225A64E2B21A6462B64FF41F
:1028B0000032034B1C60034B1A6110BD00500D40E9
:1028C0004C02002000E100E008B500F0C5FF002246
:1028D000064B1A604FF40032054BC3F89021C3F841
:1028E0009020BDE8084001F015BF00BF4C02002059
:1028F00000E100E0064B9B691B075FBF054B986931
:1029000080F00800C0F3C00048BF0020704700BF3F
:1029100000C0004000D000402C22154B70B502FBD7
:1029200000334FF6BF72DC680546236C626413F017
:1029300050020DD00F4EA369DB0600D570BD56F8CE
:1029400025301BB12068C0B29847F4E72368F2E74E
:1029500013F4D06FF2D04FF440732363FF2363600E
:10296000E36AE262E362236B43F001032363E5E77A
:1029700078C520005002002001282DE9F74F80463D
:1029800000F2AD802C254543564F7C1994F92090D8
:10299000B9F1000FC0F2A38094F92260002EC0F2BA
:1029A0009E80514800F0C2FF504B79599A6A94F9C1
:1029B00021A00A439A62DA6A6168E5680A43DA622A
:1029C0001A6BA168F0B20A431A63002322690AEB6A
:1029D000C901C5F8C83F116094F82310227DCDE9E4
:1029E000000194F923B000F089F9DDE90001082223
:1029F00000F07AF9012231033D4E02FA0BFB8859AF
:102A00004FEA09394BEA0000885159F8061002FADA
:102A10000AFA4AEA010149F806105021A963A96B94
:102A200094F9240041F4D061A963022169634FF451
:102A300040712963A16900286962E169A9624FF0C8
:102A40007001E96216DB002394F92510294C41EA54
:102A5000C005C4F804510403A5598A402A43A25171
:102A6000C9B21A46C0B200F03FF9234A136B43F4CF
:102A7000004313632C2303FB087393F92640002CB7
:102A80001ADB93F82790E5B201224946284693F9CC
:102A900027A000F033F901232403A25903FA0AF313
:102AA0001343A35108224946284600F01DF9124A53
:102AB000136B43F4804313632C2000FB0877FA6800
:102AC000136B43F001031363012297F8283059096F
:102AD00003F01F0302FA03F3084A42F8213003B05F
:102AE000BDE8F08F78C52000F528200000200D40BB
:102AF00020940D4000400D4000D0004000E100E077
:102B000001289CBF014B43F8201070475002002061
:102B1000012808D82C22044B02FB0030C3689A69B4
:102B20009206FCD41960704778C520000022014B42
:102B30001A60704700500D400822014B1A60704720
:102B400000500D40A022024B1A6050221A607047BC
:102B500000500D40014A024B9A607047002020004F
:102B600000ED00E0024B5868C0F38150704700BF91
:102B700000200D4008B5FFF7F5FF024B53F8200089
:102B800008BD00BFD0C5200010B5194C0122D4F8F3
:102B90002034062123F04003C4F82034D4F8003454
:102BA000032023F04003C4F8003400F09DF8D4F86B
:102BB0002034012223F08003C4F82034D4F80034F8
:102BC000072123F08003C4F80034032000F08CF8C0
:102BD000084A094B1A60094A59681142FCD15A68DF
:102BE0005201FCD4044A53685B01FCD510BD00BF00
:102BF00000C00D400101020000200D400000010155
:102C0000034B04485B6803F007031841704700BF9B
:102C100000200D400048E801034B04485B68C3F303
:102C200002231841704700BF00200D400048E80112
:102C3000024B02EBC10243F8220070475802002009
:102C4000F8B507460D460024084E06EB411647FA34
:102C500004F3DB07E1B204D556F824300BB1284663
:102C600098470134082CF2D1F8BD00BF580200206B
:102C70002DE9F8430546DFF8388000F0EDFD0D4BF7
:102C80002E03F75856F808404FEAC50924FA09F40C
:102C900047EA04002946C0B2FFF7D2FFE4B2064B70
:102CA000FFB204FA09F4F75046F80840BDE8F8838B
:102CB00018970D4018940D401C940D40802200215F
:102CC000014808F0BDB800BF58020020034B044A79
:102CD0001A60044B803A1A60704700BFD802002087
:102CE00080400D40DC020020034B01EBC0011B685B
:102CF00043F82120704700BFD8020020034B01EBAE
:102D0000C0011B6843F82120704700BFDC0200208F
:102D10000E2870B506460DD1134B5C6B44F00200D3
:102D200058631248D0F8F45625F03F0343F00103EE
:102D3000C0F8F4360E48836823F0FF031A431143AA
:102D40003143816003681B06FCD5C368006903F04A
:102D5000FC0343EA00230E2E18B201BF034BC3F855
:102D6000F456014B5C6370BD0000014400800840D4
:102D700000700D40034BD3F80007B0FA80F0400913
:102D8000704700BF00B008404FF40042064B10B53A
:102D9000064CC3F89021C3F89020206818B101F0C8
:102DA0009BFC0023236010BD00E100E0E002002056
:102DB000064B9A6C42F002029A64DA6C42F002020C
:102DC000DA641A6D42F002021A65704700200D4065
:102DD00007B50C4800F0AAFDFFF7EAFF0A4B5A6D51
:102DE00042F002025A6500220192019A0F2A06DD82
:102DF0005A6D22F002025A6503B05DF804FB019A95
:102E00000132F1E7752D200000200D40064B9A6C31
:102E100022F002029A64DA6C22F00202DA641A6D7D
:102E200022F002021A65704700200D400D4BD3F8C6
:102E30004C269107FBD4D3F84C2652065EBFED22F8
:102E4000C3F83828C3F83828D3F82C2612B1EF225B
:102E5000C3F83828044A0120137803F07F03137065
:102E6000704700BF008008405C220020044BD3F86C
:102E70004C0600F02200A0F1200358425841704750
:102E800000800840024BD3F84C0600F04000704729
:102E900000800840054BD3F8002620B142F0010223
:102EA000C3F80026704722F00102F9E700800840CD
:102EB000284B1870002841D0274A53681B03FCD5C3
:102EC000264BD3F8042842F00202C3F80428D3F8B2
:102ED000042842F00102C3F80428D3F8042850075C
:102EE000FBD5D3F8042822F00102C3F804281B4BB9
:102EF000D3F804285107FBD4D3F8042842F0020287
:102F0000C3F80428D3F8042842F00102C3F80428C7
:102F1000D3F804285207FBD5D3F88C2622F00402FC
:102F2000C3F88C26D3F8342822F00402C3F83428DE
:102F30004FF400520A4BC3F890207047074AD2F86A
:102F40008C3643F00403C2F88C364FF40052044B25
:102F50001A6170475B22002000200D40008008406D
:102F600000E100E0094B93F90020002A0CDBED2181
:102F7000074AC2F83818C2F83818E321C2F83818DE
:102F80001A7862F07F021A70012070475C220020DC
:102F90000080084070B5A0F10B05EBB20F2B044682
:102FA00014D80C4ED6F8483613F03F0302D0FFF782
:102FB0003DFF012305EB85050B35C6F83C560BB1EB
:102FC000FFF7D0FF044B60B21C7070BD4FF0FF30B4
:102FD000FBE700BF008008400A02002038B50C461D
:102FE000002900F09180102800F29080DFE800F0C6
:102FF00009111D252B434C60667D818E8E86885D70
:103000008A00434BD3F82C36003B18BF01232360C2
:103010002BE005223E4BD3F83C3603F07F030B3BFD
:1030200093FBF2F30B33DBB2F1E7394AD2F8CC155C
:10303000D2F8C83543EA0123E9E7354AD2F8D41576
:10304000D2F8D035F6E70023314A0B60D2F80036CB
:1030500003F001030B60D2F82426900644BF43F02E
:1030600002030B602B4B1B780BB900200BE00B68A5
:1030700043F00403CBE70020274B08601B78002BAC
:10308000F3D001230B6038BD214B2449D3F84026EF
:103090000023D2B201EBC3000079904202D851F86C
:1030A0003330B4E701330E2BF4D16FF01703AEE7E2
:1030B000174BD3F858365BB2493BA8E7144DD5F807
:1030C000483699060FD1FFF74DFF0123D5F8642646
:1030D000D207FBD5D5F86056493D6DB20BB1FFF76D
:1030E000A5FE2560C1E70023F0E70D4B93F9003002
:1030F0008DE70C4B1B7803F07F0388E70B2386E7F3
:103100001A2384E7072382E70220BCE70120BAE7FD
:10311000008008405B2200200B02002018C620001F
:103120005D2200205A22002010B50B4CD4F84836FE
:1031300099060FD1FFF716FF0123D4F86426D207B2
:10314000FBD5D4F84C46C4F300140BB1FFF76EFE68
:10315000204610BD0023F0E70080084010B50C4663
:10316000072865D8DFE800F0040F1A232C444A5ED4
:10317000012903D1FFF7F6FE00203EE0002959D1D6
:10318000FFF754FEF8E7A1F10B030F2B52D8C8B29A
:10319000FFF700FF0130EFD103202EE0264BCAB22B
:1031A000C1F30724C3F8C825C3F8CC45E4E7224B94
:1031B000CAB2C1F30724C3F8D025C3F8D445DBE76E
:1031C00031F0070336D101F00100FFF763FE1A4B1F
:1031D00011F0020FD3F82426C1F3800014BF42F08F
:1031E000200222F02002C3F82426FFF761FEC3E785
:1031F00031F001001ED1114B197010BD01F11803FF
:103200001F2B17D80D230E4A52F833108C4206DCC0
:1032100002EBC3031A79084BC3F84026ACE7013B25
:10322000F2D2A9E7044BCCB24934C3F85846A3E71D
:103230000120E2E70220E0E7008008400B020020C6
:1032400018C6200070B505460C46144ED6F84C360C
:103250009B07FBD4124B93F90030002B01DBFFF7E7
:1032600081FEEE23691EC6F83838C6F83838A31C2C
:10327000C6F828382144022000F080FA0949013CB0
:1032800041EA0411022000F08BFA022000F092FAC9
:10329000022000F0A7FA002070BD00BF00800840A7
:1032A0005C22002002C001C070B5264B93F90030AB
:1032B000002B19DBFFF7D4FA0446FFF753FEC4F1E5
:1032C000FF2404F57F04F634FFF7CAFAC442FBD4A6
:1032D00001261D4B1B784BB91C4CD4F84C36990673
:1032E00009D50224204670BD0026F2E7FFF71CFF37
:1032F0000028F1D1F5E7E9230425C4F83838D4F8DB
:103300004C369A0703D4013D15F0FF050AD1D4F8D5
:103310004C369B070AD50D4BD3F84C4614F00204EB
:10332000FAD109E00620FFF789FAE8E7EE23C4F8AE
:103330003838C4F838380124002ED3D0FFF776FD92
:10334000D0E700BF5C2200200B0200200080084074
:103350000B280DD1082A0DD161B1074B074A08315E
:1033600011F8010D43F8040B9342F9D10020704786
:103370000120704702207047A8850840C885084092
:1033800070B5384A0546D2F84C0610F0400009D016
:10339000D2F82808040606D5ED23C2F83838C2F85A
:1033A0003838002070BDC0B20428F5D902388842F0
:1033B000F2DCC4B2032C24D1D2F828382B70D2F816
:1033C00028386B70D2F82838AB70264D264BD5F8CC
:1033D0002818264E493949B21970D5F828381806E8
:1033E000337026D589B2042006F058FA31780320CC
:1033F00001F07F0106F052FA1D4B1B78FBB120460D
:10340000D0E729190320013900F0C0F91949631EDA
:10341000032041EA031100F0C3F9032000F0CAF9C8
:10342000032000F0DFF9032000F0E8F90028FAD1CA
:10343000CBE7ED23C5F83838C5F83838B1E7D5F80B
:103440004C365A06DBD5D5F84C361B0603D50A4850
:1034500001F042F9D3E7ED23C5F83838C5F838381C
:10346000CDE700BF008008405D2200205A220020E6
:103470005B22002002C0010C500000202DE9F04129
:10348000294F3E7816F001064CD10125274B284CD8
:10349000C3F8A850C3F8AC50C3F8B050F823C4F830
:1034A00058360923C4F8E83715230B22C4F8C83668
:1034B000204B4FF07F085A604023C4F82436D4F8DC
:1034C000243643F02003C4F82436D523C4F8086614
:1034D000C4F85086C4F84036174B1878FFF75AFDE9
:1034E0004FF48042154B0220C4F894861A6100F014
:1034F0006DF91349022000F049F9032000F066F944
:103500000F49032000F03AF90E4B1878FFF7D0FC72
:103510000D48314601F0C8F828463B782B433B70F4
:10352000BDE8F0810020FBE75C22002000200D4078
:103530000080084000600D400A02002000E100E029
:10354000288808405B2200205000002038B50388FE
:10355000044653B340F20342934233D11B4B1A78D3
:1035600042BB822924D11B7873B906F03DF906F0DD
:10357000CFF88021FFF704FF002805DD80B206F0B8
:10358000ABF8134B1B699847124B1A7852060CD5AF
:1035900000221A70104BD3F84856FFF747FCFFF78C
:1035A0006DFFAB0601D0FFF7DDFC40F20343238043
:1035B00001200AE01A78002AFAD0064A127850064A
:1035C000F6D5CEE700230380032038BD5B22002020
:1035D000DCC620005C220020008008400B282DE97A
:1035E000F8430D460FD1082A7CD100297AD03E4BF2
:1035F0003E4A4D1E53F80419934205F8011FF9D1B4
:103600000020BDE8F8830C286AD1042A6AD1002979
:1036100068D0374BD3F8102822F00702C3F81028DF
:10362000D3F8042842F00802C3F80428D3F8142879
:10363000D3F81818D3F81008D2B220F07000C3F8ED
:103640001008D3F82448D3F82008090242EA00629F
:1036500089B224040A4304F47F04D3F81C7842EAB4
:103660000408D3F81028FFB222F0070242F001024A
:10367000C3F81028D3F8042842F00802C3F804283D
:10368000D3F81448D3F81828D3F81018E4B221F06E
:10369000700141F01001C3F81018D3F82418D3F8C2
:1036A0002008120292B244EA00640904144301F4AF
:1036B0007F010C43D3F81C185FFA81F9FFF7D0F8AB
:1036C000B8EB040467EB0907FF0306460023094A29
:1036D000E00347EA544107F009F9361A2E608FE7F4
:1036E00001208EE702208CE7C4850840A4850840AD
:1036F000008008400048E80108B5054B1B7813B965
:10370000044800F0E9FF0022034BC3F8342808BD49
:103710005B2200205000002000800840074A084833
:10372000D2F82C38042B1FBF06490B7843F0400316
:103730000B700023C2F82C3800F0CEBF0080084088
:10374000500000205C22002010B5094C40220021CE
:10375000204607F075FB0122064B5A604FF4804269
:103760009C60054B5A604FF400425A6010BD00BF88
:103770000000002000F00F4000E100E003289EBFA1
:10378000014B0001195070470000002003289EBF24
:10379000024B03EB00104160704700BF00000020A7
:1037A00003289EBF024B03EB00108160704700BFEF
:1037B00000000020032806D80123034A03FA00F082
:1037C000916A08439062704700F00F40032806D8C2
:1037D0000123034A03FA00F0116A0843106270479C
:1037E00000F00F40032806D80123034A03FA00F033
:1037F000516908435061704700F00F4003289FBF94
:10380000044B03EB0010806800F0070088BF002025
:10381000704700BF000000204FF0FF32014BC3F89B
:103820000425704700F00F400122014BDA64704715
:1038300000F00F40074B5A68D102FCD41A6822F4FA
:1038400080321A605A68D203FCD41A6842F40032FB
:103850001A60704700200D4010B5084CA36D990701
:103860000BD063685A01FCD463685B01FCD507F098
:103870006BFBFFF7DFFF0023A36510BD00200D40A9
:1038800070B5264BD3F8484614F03F0414D1244DAC
:1038900055F8043B23B1984770B10134052CF7D19A
:1038A000204E337843B1FEF7D5FF0446FEF7D8FF2C
:1038B000201A092800D90CB930BF26E01A4B1A6823
:1038C00022F400321A605A68D202FCD41A68164DEB
:1038D00042F480321A606B68DB03FCD5FEF7C0FF50
:1038E000241A092C03D8BDE87040FFF7A3BF632C4E
:1038F0000CD93378022B09D1AB6500F0A3FE38B1A7
:10390000FFF798FF0022084B9A6570BD0123F3E78B
:10391000FEF7A0FF0028F3D0CEE700BF00800840EC
:10392000E40200205E22002000200D40074A10B56E
:103930000023144652F8041B814202D011B944F806
:10394000230010BD0133052BF4D1FAE7E402002077
:103950000022054B05499A650B6943F004030B618E
:10396000034B1A70704700BF00200D4000ED00E0CF
:103970005E2200204FF48032064B10B5064CC3F88F
:103980009021C3F89020206818B100F0A5FE002314
:10399000236010BD00E100E0F80200204FF4201287
:1039A00070B592F82B40431E54B101F52011154A11
:1039B000273191421AD011F8010903F8010FF8E7F5
:1039C00092F82A40122CF0D192F829204B2AECD1FF
:1039D0004C0804F520120B4D2732AA4207D10023D0
:1039E00001F5201120442731A34205DB70BD12F8F8
:1039F000016903F8016FF0E7CA1A1278013300F881
:103A0000012BF1E7270028000FB407B504AA52F8EC
:103A1000041B0448019200F021F803B05DF804EBA8
:103A200004B070476000002070B505460C460A4E91
:103A3000102C07D874B122462B6868680649BDE887
:103A400070401847102231462B686868984710B9B3
:103A5000103CEDE7204670BDB5C820002DE9F04FC1
:103A60008046154600278DB00491049B1B78002BDF
:103A700000F07983049B1A781C460133002A00F079
:103A80006183252AF7D1049B9C4205D05DE323780E
:103A90003744002B00F067836278631C002A00F033
:103AA00062830024184610F8012B19462B2A15D0E2
:103AB00009D8202A15D0232A16D0A2F13106082EC3
:103AC00040D8002219E02D2A04D0302AF5D144F044
:103AD000100401E044F001040346E3E744F0060467
:103AE000FAE744F00204F7E744F00804F4E70A2197
:103AF000019A01FB0299A9F13002194613F8019BC2
:103B00000192A9F13002092AF1D90B782E2B36D176
:103B10004A784B1CA2F13000092828D84FF0000B3E
:103B20001A781946A2F13000092803F1010318D9C7
:103B30000B786C2B6BD14B786C2B23D144F0800429
:103B4000023122E02A2A09D12B680146002B019379
:103B500005F10405B8BF44F00104D6E70023019342
:103B6000D3E70A2101FB0B2BABF1300BD8E72A2A54
:103B700004D1D5F800B002310435D9E719464FF029
:103B8000FF3BD5E7013144F060040B78782B0CD86B
:103B9000572B48D8472B08D8402B00F28D80002B9C
:103BA00000F0E182252B00F0D0804B1C049304F43C
:103BB000E063B3F5A06F00F0A28200F2C980B3F514
:103BC000407F00F06882B3F5806F00F02F82B3F57C
:103BD000807F7FF44AAFBBF1000FACBF24F010042C
:103BE0004FF0010B14F4005904F0E00300F07A8167
:103BF000402B00F0728100F2C280002B00F0708137
:103C0000202B00F0CB800026B2460023D3E0682BA7
:103C1000BBD14B78682B02D144F0200490E70131EE
:103C200044F04004B1E7583B202BBED801A252F823
:103C300023F000BFFD3C2000AB3B2000AB3B20004D
:103C4000AB3B2000AB3B2000AB3B2000AB3B20005C
:103C5000AB3B2000AB3B2000273D2000AB3B2000CE
:103C6000333D2000E53C20000F3D2000033D2000B7
:103C70001B3D2000AB3B2000E53C2000AB3B20007F
:103C8000AB3B2000AB3B2000AB3B2000453D200080
:103C9000F13C20003F3D2000AB3B2000AB3B20002F
:103CA000393D2000AB3B2000EB3C2000AB3B20002B
:103CB000AB3B2000F73C2000413B062B3FF675AFA5
:103CC00001A252F823F000BF2D3D2000AB3B2000A5
:103CD000AB3B2000AB3B2000153D2000093D200000
:103CE000213D200044F424545FE744F410645CE771
:103CF00044F4885459E744F4C85456E744F4B244B1
:103D000053E744F4007450E744F484444DE744F42A
:103D100002444AE744F4424447E744F4813444E728
:103D200044F4A13441E744F4C1343EE744F4E134BF
:103D30003BE744F4A06438E744F4806435E744F496
:103D4000407432E744F4E0642FE744F4C0642CE7A5
:103D5000B3F5C06F07D0B3F5E06F7FF486AE2B6884
:103D600004351F6081E60122D8F80030A649D8F852
:103D700004009847002840F0F481013775E6602B75
:103D800000F0AE80802B7FF43EAFEA1D22F00702E8
:103D90001546D2F804A055F8086B04E095F90060C8
:103DA00004354FEAE67ABAF1000FBFF62EAF0123D1
:103DB00076426AEB4A0A029304F4C053B3F5805F7B
:103DC00000F0E480B3F5C05F00F0E680B3F5006F6B
:103DD00000F0C6800DF12E03009300230393039B94
:103DE00041F608029B4588BFABEB030B41F2080389
:103DF00004EA020198BF4FF0000B994204D1BBF1D5
:103E0000010F38BF4FF0010B039B91425B4440F020
:103E1000DF8056EA0A0200F0DB807C497C4A14F419
:103E2000804F4FF0020614BF8A469246B9F1000F48
:103E30000DD0029A002A40F0CE8004F00602022A39
:103E400000F0CD80062A734A04BF0126924606EB95
:103E50000309019B4B4594BF4FF00009A3EB0909EF
:103E600014F00103019304D1E20640F1BC80CB447D
:103E700099464EB132465146D8F80030D8F8040081
:103E80009847002840F06D815C46039BDFF888A1CD
:103E90001F44102CD8E9003000F2AD802CB122462E
:103EA0005D499847002840F05C81D8F80030039ABB
:103EB0000099D8F8040037449847002840F0518111
:103EC000019B5F44002B00F0E08049464046FFF72D
:103ED000ABFD002800F0D98043E1B5F900605FE751
:103EE0002E685DE7402B1BD007D8DBB1202B11D00B
:103EF0004E46CA46CDF808905EE7602B12D0802B64
:103F0000F6D1EA1D22F007021546D2F804A055F8B2
:103F1000086B02E02E78CA460435CDF808904BE7CE
:103F20002E88F8E72E68F6E7039805990A22002301
:103F300006F0DCFC009B303203F8012D0398059954
:103F400000930A22002306F0D1FC03900591039B05
:103F5000059A1343E8D1009A0DF12E039B1A3DE711
:103F60000DF12E030396CDF814A00093EFE700980F
:103F700003F00701303100F8011DDB0843EA42730A
:103F80000090D20853EA0201F1D1E4E70DF12E01CD
:103F9000334652460091F5E7204B14F4804F2049F8
:103FA000524608BF194633460DF12E00009053EAE1
:103FB0000200D0D003F00F00DDF800C0085C1B0940
:103FC0000CF8010D43EA0273CDF800C01209EEE7C8
:103FD0000026B2462AE70126DFF848A037E7012687
:103FE000DFF844A033E749464046FFF71DFD0028AF
:103FF0003FF43FAFB5E0102251469847002840F00B
:10400000B080103C45E700BFB3C82000A2C8200024
:10401000A5C82000AAC82000C5C8200091C820005B
:1040200080C82000A8C8200085C720002E6804355D
:104030006EB333469A469AF800200133002AF9D12C
:10404000AAEB060ABBF1000F02DBDA4528BFDA460D
:10405000019B534594BF4FF00009A3EB0A0914F0EC
:10406000010405D149464046FFF7DEFC002878D11F
:1040700052463146D8F80030D8F804009847002856
:104080006FD15744002C7FF420AF4F44EDE44FF044
:10409000060A374ED6E7374B14F4804F364808BF30
:1040A00018460DF12B0300229A462968043551EA7F
:1040B00002061AD1BAEB030A04BF302203F8012C1E
:1040C0004FF0780208BF03F1FF3303F8012C4FF0E3
:1040D000300208BF4FF0010A03F8022C2322DE1E33
:1040E00003F8032C0AF1030AB2E701F00F06865D1C
:1040F000090941EA027103F8016D1209D7E7DDF8F9
:1041000004902B68B9F1010F38BF4FF0010914F08A
:10411000010405F104058DF8183009F1FF3605D1C9
:1041200031464046FFF780FCD8B937440122D8F821
:104130000030D8F8040006A9984790B9002CA4D004
:104140003146C3E6049B9C420DD0049B0499E61AB9
:104150003246D8F80030D8F80400984700283FF4D9
:1041600096AC4FF0FF3738460DB0BDE8F08F00BF7A
:10417000ACC8200091C8200080C82000F8B5038892
:1041800005461646CBB14A2B2BD188291FD117489B
:1041900006F0DCFF0446C4B1231D9E421FD1214618
:1041A000124806F0DDFF124E636937683360A36979
:1041B0000BB1E0699847376007E00C4806F0C6FF8E
:1041C000044634B901220B4B1A704A232B8001207C
:1041D0000AE0A168201D06F054FF2468F1E7246876
:1041E000D9E7002303800320F8BD00BFFC020020B4
:1041F000880400205F22002010B50024054B0648EB
:104200001C7006F0A0FF2146BDE81040034800F0F6
:104210004BBA00BF5F220020FC0200206800002093
:1042200070B50446E3610B4B049D1B78C4E905524D
:104230006BB1094D094B2E68201D2B6006F021FF44
:104240002E602146BDE87040054806F09CBFA16085
:10425000F7E700BF5F2200208804002068000020EC
:10426000FC02002013B5034C24680094FFF7D8FF2C
:1042700002B010BD8804002070B5094B04461B78BD
:104280003BB1084D084B2E6804302B6006F002FF4E
:104290002E602146BDE87040044806F074BF00BFA0
:1042A0005F2200208804002068000020FC0200201B
:1042B00070B5094B04461B783BB1084D084B2E687E
:1042C00004302B6006F0EFFE2E602146BDE8704002
:1042D000044806F058BF00BF5F2200208804002079
:1042E00068000020FC02002010B5084B04461B7833
:1042F00043B1043000F0B0F82146BDE81040044856
:1043000006F02EBFC0E90333F6E700BF5F220020AE
:10431000FC02002010B50D4C236813B90C4A136041
:1043200010BDFEF777FA2268D2E900310B441B1A60
:1043300092681AB91844064B1860F1E7D2E90014E4
:104340002144091A8B4228BF0B46F1E704030020E1
:1043500000030020014800F0BFB900BF7800002032
:104360002DE9F0410388054653B1592B46D18729E1
:1043700021D1002023490B6863B918B10B6001E01B
:10438000204A1360592301202B80BDE8F0810120D1
:104390003346F1E7D3E902649442F8D000B10B60F0
:1043A00019460B4689680029ECD0C8689042F8D1BC
:1043B00089689960F4E78229E4D14FF00008114F31
:1043C00000263C68002CDDD0204606F0AEFE90B101
:1043D00022468821E06800F03FF950B9A368E06008
:1043E0002EB1B360C4F80880FFF794FFE8E73B60A4
:1043F000F8E7FFF7AFFF2646A468E3E70023038052
:104400000320C2E70403002010B50446FFF7A2FF13
:10441000E3680B4A0BB1136833B90A4B1B68E360BE
:1044200013681460A36004E0A34206D1054A126831
:10443000DA60BDE81040FFF76DBF9B68ECE700BF96
:104440000403002088040020024B1868003818BFBD
:10445000012070470403002010B50B4A044613687E
:10446000834208D183681360FFF754FF0023C4E937
:10447000023310BD1346002BF8D09A68A242F9D13E
:10448000A2689A60F0E700BF0403002038B5836893
:1044900004460D469BB10A4804600220A07304F153
:1044A0000C0098470238012801D9832D05D12146F7
:1044B0002046BDE8384000F005B80123A37338BD9D
:1044C000880400202DE9F8431C4F04463D688846C7
:1044D0002B46A34204D00BB9BDE8F8831B68F8E76C
:1044E000002CF9D0164EA37BD6F8009063B10023C0
:1044F000A3738DB9A3683BB1444505D02A468321F7
:10450000346004F10C0098473B68A3420ED1236845
:104510003B60C6F80090DFE7A54204D02246872121
:10452000284606F0E8FD2D68E3E71346002BF0D09F
:104530001A68A242F9D122681A60EAE78C040020C6
:1045400088040020002238B50125084B1A70084B5A
:104550001C6804B938BDE37B2BB1002282212046C0
:10456000E581FFF793FF2468F3E700BF6322002093
:104570008C040020024B1878421C1A70704700BF50
:1045800061220020014B1968FFF79CBF88040020BE
:104590008A22064B1A700023054A1370054A1370CD
:1045A000054A1360054A1360704700BF612200206E
:1045B00060220020622200208C0400208804002059
:1045C0002DE9F0411A4E33780BB1FFF7BBFF194DBF
:1045D0002C7894B10C221849184F0B78013C5A439F
:1045E0000133B81803F01F03BF5C0B702C70D0E9C7
:1045F000018090B9124B1C6824B93378287818448C
:10460000BDE8F08133780BB1FFF79CFF20464246AE
:10461000394606F070FD2468EEE7812F08BF0123BC
:104620004246394608BF837306F065FDE5E700BFE3
:104630006322002062220020602200200803002064
:104640008C040020024A034B10781B7818447047F2
:104650006222002063220020F0B50B4D2C78202C24
:104660000FD00C26094B0A4F1B78234403F01F037D
:104670007343FE18C6E9012000200134F9542C7060
:10468000F0BD0120FCE700BF622200206022002074
:104690000803002038B5034C256806F02CFD256082
:1046A00038BD00BF8804002010B40A4609490C68D0
:1046B000234683420CD04BB950B1046008600121FD
:1046C00010BC817383818121FFF7E4BF1B68F0E791
:1046D00010BC70478C04002038B1837B013B012B58
:1046E0009FBF0123014AC3731370704763220020E8
:1046F0000246084610B5064953600C68029B1060DC
:1047000093600A600CB9FEF7B9F8002010BD00BF35
:104710009004002010B5084C206858B10023236095
:10472000D0E901319847236823B1BDE810401868EB
:10473000FEF7A4B810BD00BF9004002070B5058836
:104740000446672D09D0792D2FD0002D33D1FFF7E6
:1047500011FF1B4B18701B4B1D601B4E194D08E0C1
:104760000A282B680ED07E2B03DC5A1C2A60174ABD
:10477000D054304606F095FD431CF1D167232380C9
:1047800001201BE05A1C2A600025104A2846D554F7
:104790000B4B1978FFF760FF0D4B2A4685211868EF
:1047A000FFF75AFF18B97923E9E78529E8D10022F4
:1047B000044B1A60D1E700230380032070BD00BFC3
:1047C0006523002094040020980400206422002027
:1047D000880400200D28014610B516D00C4C237813
:1047E00053B90C4806F04AFD08B9012323700A4862
:1047F000FFF772FF012010BD0A28F8D1054806F026
:104800003DFD0028F3D00023F0E70020F3E700BFD0
:10481000E4220020980400208800002008B5054903
:104820000548802206F023FDBDE80840002103482A
:10483000FFF73ABFE52200209804002088000020FE
:104840002DE9F04105880446772D20D07E2D3DD0FE
:10485000002D4ED1FFF78EFE284E294B294FDFF851
:10486000A88018703560336857F823202AB9274A82
:1048700013707723238001203EE008F803509368EB
:10488000002180209847336801333360EBE7002331
:104890001F4A1360194A1360184B1C4A1B68127890
:1048A0009A4204DC1A4B1B68002BF0D1E1E7164A50
:1048B000D256002A19DA134A002052F82320104B4E
:1048C0001978FFF7C9FE28B97E23D3E70C4B1B7874
:1048D0008B42D0D1094B0C491A688B5C03F07F03E3
:1048E0008B540B4A136801331360044A1368013375
:1048F000D1E7002303800320BDE8F081A404002059
:10490000672300204000002055220020662300205D
:10491000A004002010B40A4B0A4A197800238B42E5
:1049200003DA52F8044BA04208D107490748CA5C91
:1049300062F07F02CA5410BCFFF7CEBE0133EEE72F
:10494000662300204000002055220020980000200F
:10495000054B1A6842F004021A6058699B6940EAE4
:10496000032080B2704700BF00700D40184A1368E2
:1049700023F00C0313600122164BC3F8A820D3F8D0
:10498000A820012AFBD10822134BC3F82426E322D6
:10499000C3F83828D3F86426D207FBD50E48102276
:1049A0000023D0F89C16013A01F0010143EA01030B
:1049B0004FEA43039BB2F4D1002BF0D0044A190A0A
:1049C00003F0FE0351615361EF23C0F8383870479C
:1049D00000700D4000200D40008008402DE9FF4789
:1049E0006E46224D224F05F108030FCB86E80F00DB
:1049F0003B7895F80780BBB13A221E49AA710A8814
:104A0000D21A92B20A80A2F128010812287103F189
:104A100028002844C3F1040369712C3A011D18448D
:104A200006F092F900233B70134806F08FFB044612
:104A3000DFF840A02CB90F4B3C701C8004B0BDE8DF
:104A4000F087D4F80490B9F1000F09D0BAF800301B
:104A50003A782C3B3832414630469BB22A44C8470C
:104A6000204606F0ABFB0446E4E700BFF409002053
:104A700095230020721B0020A8040020F8B52C4EBE
:104A80002C4B34461B7906F10805F37114F8183FD6
:104A9000FF2B31D195E80F0084E80F00214628460E
:104AA00000F0BCFA244C2378BBB13A222349B271FE
:104AB0000A8803F12800D21A92B20A80C3F10403D3
:104AC000A2F1280130440D1271712C3A011D1844D5
:104AD000357106F039F900232370812123782833BA
:104AE000F218F1520023538006F066FCC04323788D
:104AF000134A13445880F8BD2F46124A3B4603CB55
:104B0000A342106051601F4602F10802F6D194E8FA
:104B10000F0085E80F000B4B0B4C03F110052246EC
:104B200018685968083303C2AB421446F7D1B9E795
:104B3000F4090020BC04002095230020721B0020F3
:104B40001C0A0020501B00200C0A002038B5044627
:104B50000B480D4606F0FAFA38B10379A34208D1A2
:104B600043799D4203D1836833B9012006E0FF2BCE
:104B7000F9D006F023FBEFE79847002038BD00BFCF
:104B8000AC0400200146014806F0FDBAAC04002048
:104B90002DE9F74F474D81462B788846934653B110
:104BA000454A9B5C3A2B0ED10023444A2B7013805C
:104BB00003B0BDE8F08F424B9A793A2A03D193F9BA
:104BC0002830002BF0DA3F4C03F0F2FDA2463E4ABB
:104BD00004F11006234603CBB342106051601C461B
:104BE00002F10802F6D1354F354C3B88214630336F
:104BF0009BB2B3F5A06F88BF4FF4A0633B803A88A7
:104C00002B78D21A04EB4300303A3030019306F08F
:104C10009BF86022019B22603A22002B47D084F847
:104C200028202A4B62891B79E37123891343A289C7
:104C30001343E2891343228A1343628A1343A28AED
:104C40001343E28A13439BB2002BADD0204B0FCB12
:104C50008AE80F001C4B1B78FF2B05D1B9F1040F1C
:104C6000A2D1B8F1020F9FD11749194800F0D6F927
:104C700095F800A058460AF12803E21804F80390BA
:104C800082F8018006F0A1FB124B43F80A003B8832
:104C9000283B1A122271002263712B7833445A8008
:104CA00006F08AFBC0432B781E44708080E7A27117
:104CB000B7E700BF952300201C0A0020721B0020CC
:104CC000F40900200C0A0020501B0020BC04002026
:104CD000FC090020200A00202DE9F0411E46602337
:104CE0001A4C0F4623603A230546A371184B904691
:104CF0001B7900F1100CE371331D1A1222716371DC
:104D000004F11802134628686968083503C365452D
:104D10001A46F7D10F49104DA1F1100000F07EF9AD
:104D20002B782C362833E218E754002382F80180D0
:104D3000538006F041FBC0432B78084A1344588047
:104D4000074B1E80BDE8F04102F02EBEF4090020A2
:104D5000BC0400200C0A0020952300201C0A00201F
:104D6000721B002008B50448FFF70CFFBDE808409F
:104D70000248FFF707BF00BFB4000020A8000020D2
:104D80002DE9F341144E0446CDE900160D46904638
:104D90001F46202203460321104806F092FA0128FC
:104DA00018D1336818702046316804F110030231BD
:104DB00050F8042B984241F8042BF9D13068089B35
:104DC00085744361099B80F813800777836102B083
:104DD000BDE8F0810020FAE7B8040020B405002007
:104DE000F8B507460B4D0C4E356060353468AC4263
:104DF00001D30020F8BD237833B1A27C3946D20814
:104E0000A01C05F0F7FE10B120343460EEE701205D
:104E1000F0E700BFB4050020B8040020802213B5DD
:104E2000074C03460092032120220648019406F015
:104E300048FA10B9206802B010BD0020FBE700BF9F
:104E4000B0040020D404002030B5014648F2FE052D
:104E50000A4A0B4C226060322068904201D3002045
:104E600030BD03783BB14B1C02D0837C8B4202D116
:104E70004388AB42F4D020302060EDE7D40400201A
:104E8000B0040020802337B50E4D0093044603463E
:104E9000122205210C48019506F013FA01280FD1C2
:104EA0002B6804F11001187023462A68023253F867
:104EB000040B8B4242F8040BF9D1286803B030BDD3
:104EC0000020FBE7B4040020580500208023F7B53C
:104ED000214D0093044603460E4617460321202227
:104EE0001E48019506F0EDF9012832D122462B68C3
:104EF00004F1100118702B68023352F8040B8A4237
:104F000043F8040BF9D12868C774DEB9012303758F
:104F100001222B6812489A7440F2FF230380002379
:104F200043808380C38003814FF480734381FF23D8
:104F30000373637B4373E389C381FFF7A3FF28688F
:104F400003B0F0BD002331460375183006F0BDF8FC
:104F5000DEE70020F4E700BFB0040020D404002006
:104F6000601B0020802213B5074C034600920521E8
:104F700012220648019406F0A4F910B9206802B084
:104F800010BD0020FBE700BFB4040020580500203E
:104F900038B50446C8B140F2FF230C480025038011
:104FA0004FF480734381FF230373E37B4580437396
:104FB000238A8580C5800581C381FFF7D3FF044A1A
:104FC000106008B106F0A1F9257038BD601B002003
:104FD000B404002038B50E4D0E4C256060352068B5
:104FE000A84206D300F0FEFABDE838400A4806F0B1
:104FF00051B8037843B1037D33B9183006F06CF82B
:1050000010B12068FFF7C4FF236820332360E6E770
:10501000D4040020B0040020140600202DE9F84F2D
:1050200048F2FE0A0B88054653450F462ED00B78F2
:10503000FF2B2BD00024A1461B4BDFF8708003F11F
:10504000600BC8F80030D8F800605E450AD314BB86
:105050002C806C80AC80EC802C816C81AC81EC81EC
:10506000BDE8F88F33786BB1B37C012B0AD173881C
:10507000534507D03846B11C06F054F981459CBF12
:10508000344681462036C8F80060DCE70120FFF78F
:10509000DBFE0446DBE7A31C123453F8042BA342C7
:1050A00045F8042BF9D1DBE7D4040020B00400203C
:1050B00070B5094EB0684508FFF74AFC0446FFF793
:1050C00047FC2402B368A4B22044B0FBF3F203FB14
:1050D0001200284470BD00BFBC04002073B52F4CE3
:1050E00001F00AFA00F092F8602200212C4805F045
:1050F000A7FE0021F422201D05F0A2FE2022294B4C
:1051000040261A701822284B26711A704FF4A0639B
:105110002360264B0025A360FFF7CAFF42F21073FD
:10512000236148F2FE03E0602575214C2A46238066
:1051300031462B466580A580E5802046CDE90055A7
:10514000FFF71EFE20461B4906F0E3F80122294620
:10515000FFF7BCFE40F2FF264FF480732046E38148
:1051600026806580A580E58025816581A581FFF782
:1051700089FE4FF40073204626806580A580E58077
:1051800025816581A581E381FFF77CFE0C210A481A
:1051900002B0BDE8704005F074BF00BFBC04002041
:1051A000B40500206823002069230020C0270900DF
:1051B000601B002098230020140600202DE9F845EC
:1051C00005460F480F46904605F0C0FF04460D4EB9
:1051D000DFF834A00CB9BDE8F885012D0EDC50468F
:1051E00005F0E5FF0346D4F804C042463946284698
:1051F000E047204605F0E2FF0446EBE73368F2E7BC
:10520000680700206C070020A406002008B50B48A2
:1052100005F0D7FF0A4805F096FF0A4B0A491868BF
:1052200004F074F9094805F0CCFF094805F08BFF3C
:10523000BDE80840074805F086BF00BFEC0000202D
:1052400070070020CC00002063B32000C0000020C5
:10525000A40600206807002008B540B1044B41684F
:10526000186806F081FFBDE8084006F0B0B808BD38
:10527000CC000020014805F069BF00BF7007002086
:1052800008B506F0A6F8014630B1044B186806F0E0
:1052900058FF003818BF012008BD00BFCC00002017
:1052A0002DE9F04180460027FFF7E4FF3D46044624
:1052B00084B965B1124805F049FF854207D02946F7
:1052C0000F4805F04DFF29460D4805F069FF2846B7
:1052D000BDE8F08194F82460BE420AD34046F2084B
:1052E00004F1080105F086FC18B9802E06D0374677
:1052F0002546204606F031F80446D9E72546D9E789
:105300007007002038B5044600283FD04368002BC2
:105310003CD001461E4805F023FF6368586805F03D
:1053200015FF054668B343689C4226D16368294649
:10533000586805F015FF6368586805F007FF28B93D
:1053400063685968134B186804F08CF921461248B9
:1053500005F05BFF2946114805F057FF104A20462B
:105360001368013B1360FFF777FF04F10801024661
:10537000BDE838400320FFF721BF284605F01EFF97
:10538000CFE704F1080002F075FACFE738BD00BF9F
:1053900070070020CC000020EC000020E00000207E
:1053A0006C07002010B5044680B1406870B105F06C
:1053B000CDFE30B9064B2146BDE81040186804F018
:1053C00051B94068FFF79EFF6068F0E710BD00BF6D
:1053D000CC0000202DE9F84F07461046894690463C
:1053E00005F0F7FF064618B900252846BDE8F88FF6
:1053F0003846FFF755FF054660B1FFF72DFF014620
:1054000028B11022404605F0F5FB0028EDD02846D3
:10541000FFF778FFDFF8B4B0DBF80030102BE3D0F3
:10542000DFF8ACA03146DAF8000006F08AFE044648
:1054300070B9034604223146DAF8000004F096F809
:1054400004460028D0D000234060036005F07BFEB6
:10545000204805F0C6FE06460028C5D001461E4875
:1054600005F09EFE1D4805F0BCFE054620B93146FC
:10547000184805F0CAFEB8E746600146606805F0C6
:1054800082FEDBF80030214601337460DAF8000058
:10549000CBF8003004F0FCF83B4606F1080407F1B5
:1054A0001005224618685968083303C2AB421446F7
:1054B000F7D1002342463946022086F82490B36192
:1054C000F3613362FFF77AFE35468EE76C07002002
:1054D000CC000020EC00002070070020E00000203D
:1054E00038B505460D4805F031FE044600B938BD13
:1054F000AC420ED12146094805F032FE214608484B
:1055000005F083FE221D1146BDE838400120FFF75B
:1055100055BE204605F052FEE7E700BFA406002076
:10552000C000002038B50546084805F00FFE0446C7
:1055300008B9204638BD10222946201D05F05AFB27
:105540000028F6D0204605F039FEF0E7A40600203A
:10555000F8B505460E46FFF7E5FF044640B9134887
:1055600005F03FFE0446E0B10146114805F018FE83
:105570002B46271D05F1100C3A4618685968083368
:1055800003C263451746F7D16EB1314604F11400EA
:1055900005F09BFD00232A46294600202377FFF7CC
:1055A0000DFE2046F8BD0123F5E700BFC000002036
:1055B000A406002038B50A4805F0C8FD00250446B9
:1055C0000CB9284638BD251D284600F0C9FF10B18A
:1055D000437C002BF5D1204605F0F0FD0446EFE7B3
:1055E000A406002038B50D4805F0B0FD04460B4D6B
:1055F00004B938BD237F63B904F1140005F06CFDD4
:1056000038B12046FFF76CFF284605F09FFD0446A1
:10561000EEE7204605F0D2FDF9E700BFA406002022
:1056200037B5124B124D1C782B7905F10801C4EBEC
:1056300003226B7913449BB2ADF80630BDF80630F7
:105640002022184480B205F08EFEBDF8062004F139
:10565000280192B2294405F086FE18B140BA80B202
:1056600003B030BD4FF6FF70FAE700BF952300206E
:10567000F409002002200021F8B5274E274C32788B
:10568000274D2832A3185F782870FF00073787421C
:1056900002DAF1B128701CE0131804EB030CE35C90
:1056A000012B33D0632B04D0ABB901300121C0B240
:1056B000EDE701B1287003F007F808B90120F8BD43
:1056C0002B7832781C44144494F829200233134474
:1056D0002B700020F3E703F0C003802B07D0C02B12
:1056E0000ED0402B12D10029E8D02870E6E701B196
:1056F0002870024402210420FFF74AFA0220DEE764
:1057000001B12870237EFF2BF3D1D7E79CF801303D
:1057100002301844CAE700BF95230020F409002096
:105720009623002070B5C578124A0D44EDB2D570AD
:10573000837803EB1123DBB293704478B3EB112F22
:1057400054700678167005D2601CC0B2507008B94B
:1057500001361670C9B28D420BDA0133DBB2937099
:105760003BB953780133DBB2537013B9137801336B
:10577000137070BD9023002010B5084C01462068BE
:105780001430FFF7CFFF064A236811781975517856
:1057900059759178D2789975DA7510BD0C0F002083
:1057A0009023002008B5FFF799FCFFF7DBFA01F022
:1057B00053F8102200210C4805F042FB0023194643
:1057C0000A4A01330A2B82F8251002F13002F8D17F
:1057D0004FF48061064A11800021064A013B118284
:1057E00002F12002FAD108BD741B0020100F002026
:1057F000701B0020041100202DE9F041114E357876
:105800005DB1DFF8448005F12703B8F80040A342FA
:1058100005DB0023A8F800303370BDE8F0810B4FA2
:10582000A4F1280207F12800641BA4B2521B4119FD
:1058300005F08AFAA8F80040283C23123B717C71DD
:105840000023E9E795230020721B0020F4090020C3
:10585000074A0023114610B532F8024B844203D1A7
:10586000002221F8132010BD0133082BF4D1FAE7F0
:10587000741B002004282DE9F74FAC4E00F01E8168
:10588000AB4CDFF8B0A2DFF8B092AC4A04F13C03B5
:105890000328DAF80050C9F8003013605AD195F89F
:1058A000253003F00F03032B13D1AB8B002B7ED1DC
:1058B0000822A34B1A7002F0ABF9A14B1A78A14B46
:1058C00012F0200100F0788500221A8085F825204A
:1058D00093E0022B6BD1002384F8353094F83530F7
:1058E00043F0020384F83530974BE3634023338061
:1058F000602384F834302B7D944F84F830306B7DF6
:1059000084F83130AB7D84F83230EB7D84F833306D
:105910002B7E84F82C306B7E84F82D30AB7E84F89F
:105920002E30EB7E84F82F302B8A23856B8A63859B
:1059300095E80F0087E80F003946A7F11000FFF740
:105940006DFB95F82530DB064CBF00234FF48043F8
:10595000E38634E3022840F09A8000237C4A3380B7
:105960001370784A13807B4BDA780132D2B2DA7046
:1059700062B99A780132D2B29A703AB95A78013241
:10598000D2B25A7012B91A7801321A7095F82530CD
:1059900003F0FD02052A13D195F826300133DBB25E
:1059A000782B85F8263002D1002385F82530002396
:1059B000674A33801370684A1370614A13705CE160
:1059C000002BF4D0AA8B5E49002A59D095F82620E6
:1059D000501E85F82600002AE9D195F82720082ACC
:1059E00004D0581E01280ED8052A0CD1002385F8B2
:1059F000253080230B7002F00BF9142384F8353026
:105A00003C2333803AE0042A17464FF0030028BFB6
:105A1000042703F00F03B8400132013B85F826004C
:105A200085F82720072BC2D801A252F823F000BF27
:105A3000A5602000D7582000515A2000596320004B
:105A4000AF59200059632000AF592000596320004E
:105A500004230B7002F0DCF8384B1B68C9F80030E7
:105A6000384B1B88002B00F0C784AB8B002B00F059
:105A7000C3843C333380182384F83530502338E70F
:105A800003F00F03032B92D108230B7013E70528B3
:105A900066D1324B1B681B8A002B88D00023274A13
:105AA00030341460274ACAF800301380082233804B
:105AB000234BC9F800401A7002F0AAF8214B1A884B
:105AC000002A3FF474AF02F13003194C9BB23380CB
:105AD000283B19126371214B08321B6852BA21719D
:105AE000197DA2850022E1711121E2851A8AA17136
:105AF00022855A8A04F1180562850FCB85E80F00CC
:105B0000294604F10800FFF789FA0B4B04F13C0227
:105B10001A6005F057FCC04380B2002800F0F28103
:105B2000E0856022024B1A60A4E000BF721B0020D7
:105B3000F40900200C0F0020080F0020FC100020AA
:105B400097230020841B0020020400400C0A002040
:105B5000952300208C230020942300200011002096
:105B6000237803F0F003602B7FF421AF227963796F
:105B70003088110203EB022282423FF718AF28332C
:105B80000B443380237AFF2B3FF411AF0022B24F36
:105B9000DFF8C8B2DFF8C8823A708BF80020A2792B
:105BA000A31DC8F80030AAB901228BF80020FFF726
:105BB00061FD01283FF4FBAE02285BD050B93A7872
:105BC00002F128012144C8F800104978083202EB9C
:105BD000C1023A70A348FFF721F9002840F028815C
:105BE000A048FFF7BFF9002840F02281217E2389D9
:105BF000FF2945D048F2FE00228B824240D08342EA
:105C000043D061890B43A1890B43E1890B43218A6E
:105C10000B43618A0B43A18A0B43E18A0B439BB27E
:105C2000002B3FF4C4AE638B1343A28B1343E28B70
:105C30001343228C1343628C1343A28C13439BB2F5
:105C400023B9E38CB3F5807F3FF4B1AE3388B3F56D
:105C5000A06F06D94FF4A06200210220FEF798FF42
:105C600008E0E379012B03D8002203201146F5E771
:105C7000013BE37100227C4B1A7003B0BDE8F08F4A
:105C800048F2FE0293427FF492AE628B238B134361
:105C9000A28B1343E28B1343228C1343628C134376
:105CA000A28C13439BB223B9E38CB3F5807F3FF4FE
:105CB0007EAEFF293FF47BAE6A48FFF791F80246BB
:105CC00000287FF474AE02210120C7E72B2D40F09D
:105CD000C0809BF8000010F0040140F0BA803A78D0
:105CE00040F004008BF8000002F128002044C57841
:105CF000002D00F0CF802A320420AFE73B2D3FF487
:105D000056AE3C2D00F0BA803A2D40F0A28005F04E
:105D100053FB4FF6FF7398427FF449AE3B78234420
:105D200093F8280001F01AFE3B782833E2185178E6
:105D3000E05CFEF70BFF01283FF439AE3388002BFF
:105D400098D134E6FFF758FDA57105F038FB4FF602
:105D5000FF7398427FF42BAE638D002B3FF427AE88
:105D6000228D9346002A3FF422AE4FF00A083F4DA1
:105D700095F825200092002A00F0C8802A8A9A42CD
:105D800040F0C4806A8A5A4540F0C08010222946FB
:105D90003748019304F02EFF019B0246002840F093
:105DA000B580DFF8C4B0CAF800508BF8000094F852
:105DB0003500410740F17C81202385F825208BF8B0
:105DC000003001F025FFF2E5FFF716FDE38DA57128
:105DD000002B63D1678D002F3FF4E9AD254B264D95
:105DE000B4F828802B6003F5A074214B2968A142E8
:105DF0005CD30022042167E79BF80010CB0728D46E
:105E000041F001018BF80010FFF734FC01283FF44A
:105E1000CEAD02283FF42EAF50B93A7802F12801F6
:105E20002144C8F800104978083202EBC1023A70E8
:105E3000D8F8002015782C2D3FF4B9AD3FF65EAFB1
:105E4000112DC1D03FF642AF002DD5D0062D3FF425
:105E500079AF0121121B4FE79523002094230020E6
:105E6000F81000200C0A002097230020100F0020BB
:105E7000FC09002004110020001100209BF80010F4
:105E80008D0704D54806E4D441F04001BAE741F05B
:105E90000201B7E74178C8F80000C5E705F092FABB
:105EA0004FF6FF7398427FF482AD93E70A8A32B3CC
:105EB000974224D14A8A0AB1424520D10A682AB9B8
:105EC0004A681AB98A680AB9CA683AB118461022EB
:105ED000009104F08FFE8C4B009980B9022033882A
:105EE0008A49303B33800023894A08708949C9F8C0
:105EF00000200A60884ACAF800301380DCE52031AF
:105F0000296073E74FF6FF73E3850AE6B8F10108ED
:105F100005F130057FF42CAF94F8352002F03F02F4
:105F2000022A09D17D4A32F8021B8B4258D008F16F
:105F30000108B8F1080FF6D194F835305A073FF54B
:105F400036AD3C23338041F2504394F8310094F84D
:105F50002F10A386638E94F82E2094F83050E3859A
:105F6000013194F82D3084F82D0094F82C00C9B23A
:105F700084F8322084F8313084F82C5084F83000D2
:105F800084F8331061B90132D2B284F832203AB9C0
:105F90000133DBB284F8313013B9013084F83000BA
:105FA0005F4D238D628DA5F110072285638597E8EB
:105FB0000F0085E80F0029463846FFF72FF8062323
:105FC000A371584B1B79E3713388283B1A12637114
:105FD00000232271A36305F0F2F9C0432087A0E5F6
:105FE00000252946504A92F82500002834D1302552
:105FF0004D4A05FB01252B82434BA5F812B00FCB70
:1060000085E80F004FF4806301206B84474BA88321
:106010006B62474BCAF800501A782A765A786A762B
:106020009A78DB78AA76EB76E36A6B61FFF7A4FBDC
:1060300094F8343003F0F002502A33D900221B09BF
:10604000053B9B00A11891F83C705FB3012F18D15C
:1060500001329342F6DC25E0072807D17DB192F8A2
:10606000267095F82600874288BF154601310A2917
:1060700002F13002B7D1002D3FF499ACBBE71546D1
:10608000F4E7022F91F83D000ED104280CD191F8CD
:106090003E2091F83F3043EA0223402B28BF4023A3
:1060A000EB832B84102317E40028FBD00244D0E7B5
:1060B000338894F83410283B0909A3EB8103009935
:1060C0009BB201F00F0CBCF1020F338015D100F030
:1060D0003F0112292ED00BB983072BD0E16A6B69DF
:1060E000994227D0800706D5BCF1010FDAD0BCF168
:1060F000020F3FF4F3AB102380E4BCF1010FEAD1AF
:1061000000F03F010229E5E7FC0900209723002069
:10611000240A0020FC100020841B0020741B002097
:106120000C0A0020BC040020100F00200301030013
:106130008C230020C10654D5A98B002951D005F12C
:1061400018000092FFF7EEFAB64B94F830C01978B9
:10615000009A8C4545D1597894F83100884240D155
:1061600093F802E094F8321071453AD193F803E0C5
:1061700094F83330734534D1EB7695F8273085F8B1
:1061800018C06876A9761BBB95F8261095F824E010
:1061900095F822C0AEEB0103A3EBDC0358B2002854
:1061A0004FEADC08BEBFA8EB0E00091848B295F80C
:1061B00023106344A1EB9101084403F0FF03C0B234
:1061C00085F8223000EBD30385F8230085F82430CE
:1061D0000121954B197095F8243085F8263000235D
:1061E000AB8395F82510DFF8408201F00F000138ED
:1061F00007283FF6DCAB01A353F820F01D62200016
:106200005D6220000D632000396420009964200045
:10621000BB642000F76020000D64200098F8002087
:10622000D20713D5032285F82520402288F80020C4
:1062300000223088AA8320B1422288F80020FFF78C
:106240009BFA0022794B1A80FFF735BB94F8353062
:1062500003F03F03022B7FF4AAAB23E798F800106A
:10626000CB0748D594F8351001F03F01122942D1EF
:1062700094F8343003F0F001502924D91B09053B70
:10628000DFF8ACE19B000EEB020191F83CC0BCF1E1
:10629000000F18D0BCF1010F03D101329A42F2DB9A
:1062A00011E0BCF1020F91F83D0020D104281ED16D
:1062B00091F83E2091F83F3043EA0223402B28BF5B
:1062C0004023EB832B84032385F82530E36A0120E8
:1062D0006B61FFF751FA42238BF800300023554AD7
:1062E000AB831380514A3B701380FFF7E4BA002858
:1062F000E9D00244D2E7202288F8002001F088FC8F
:106300000022DAF8003083F8252015E694F83520CD
:10631000D70724D5C80622D4AA8B002A7FF447AB1E
:10632000444F3888013080B2FFF726FA98F80020F1
:1063300042F0100188F80010398819B142F01202B9
:1063400088F8002001F064FC0123AB83082385F862
:106350002530002385F827301123FFF74FBB930624
:106360000AD5628F3788D9F8000052BA92B2104429
:10637000BA1AC9F800003280308848B1CF0607D475
:1063800098F8002042F0020288F80020FFF7F4F9A4
:1063900094F8361094F8372002EB0122298C92B23F
:1063A000914202D3002A18BF114698F80030E983C1
:1063B00099073FF4FCAA44E712F0100008D01980B6
:1063C0000123AB83042385F8271085F82530C3E724
:1063D000198851B1D20748BFA883AA8B52B9EA8B5A
:1063E000914288BF1A801B88AB83002385F8273031
:1063F000FFF732BB1A80F8E70B4B1B789F077FF53E
:10640000D6AA3C2333801023FFF736BB98F8002030
:10641000D0077FF5CCAA002285F82520102288F825
:106420000020CEE49023002097230020841B00202E
:10643000F4090020721B0020308808B1FFF79CF996
:1064400094F8352098F8001012F0010201F00101D3
:1064500014D079B1072285F82520002285F826205E
:10646000AA830120FFF788F9102288F8002001F0A4
:10647000CFFB40E6062285F82520F2E729B1052367
:10648000AA8385F82530FFF792BA124B1B88002BA0
:106490007FF431AEFFF78BBA308808B1FFF76CF9A3
:1064A00094F83520D10706D5072285F8252000224B
:1064B00085F82620D5E73388E9E798F80030DA0731
:1064C0007FF575AA072385F82530002385F8263047
:1064D000FFF76DBA721B002010B5044640B102F000
:1064E00039FA044B2146BDE81040186803F0BAB8E9
:1064F00010BD00BFF800002008B503F095FA034B6B
:1065000003491868BDE8084003F000B8F80000200F
:10651000D964200070B504460C481E469DF8102032
:10652000059B006803F022F8054668B12246034641
:1065300004F1100152F8040B8A4243F8040BF9D11C
:1065400028466E7402F006FA284670BDF800002056
:10655000024B0146186805F007BE00BFF800002096
:1065600070B50C4E0546306802F0E4FF044675B97C
:106570000024204670BD10222946204604F03AFB34
:106580000028F6D02146306805F0C0FD0446002CF6
:10659000F1D1EDE7F8000020024B0146186805F044
:1065A000D0BD00BFF800002070B5054610200E4693
:1065B00003F08EF90849044605F005FE58B9324645
:1065C0002946204603F0CEF9324629462046BDE84A
:1065D000704002F095B970BD58C920002DE9F04F08
:1065E0008F4C904EE37987B0FF2B40F013813378C6
:1065F00004F12C055A191279FF2A00F00B8104F1DD
:10660000280213445B78002B40F00481DFF81882E5
:10661000864FC8F800301423DFF814923B7004F161
:10662000080A3078834A3B7812882C30034493421E
:10663000C0F2838020440430FEF7F0FBDFF8F8A1BD
:10664000CAF80000002800F0E5806289238913431E
:10665000A2891343E2891343228A1343628A1343B4
:10666000A28A1343E28A13439BB2002B00F0D2802C
:10667000724F3846FEF7D2FBB846002840F0CA8079
:1066800040F2FF23228B07F110099A4240F0AF80BD
:10669000A28B638B1343E28B1343228C13439BB275
:1066A000002B40F0A480638CB3F5807F40F09F8086
:1066B00094F82430FF2B40F09A8097E80F0089E887
:1066C0000F0033781D44043595E80F0087E80F006C
:1066D0000023602233705A4B5A4FC4E900238823A9
:1066E0002385E023DAF8002084F82C30931C123242
:1066F0003D4618685968083303C593422F46F7D1C1
:1067000040F202235049A4F840300A684F4BC4F8C5
:1067100042204A685A600022C4F84A209A81628561
:1067200004F04AFEC0434A4A337813445880502349
:10673000404A138007B0BDE8F08FE2185178002975
:1067400068D014F803B0BBF1010F28D16189238907
:10675000C8F800200B43A1890B43E1890B43218A30
:106760000B43618A0B43A18A0B43E18A0B439BB223
:10677000002B4FD0D2F80200D2F8061004AB03C3AE
:106780005046FFF7EDFE0246C9F8000080B9052328
:10679000019000935046022304A9FFF7BBFE3A780C
:1067A000337813442B445B7802EBC3023A7038E72A
:1067B000FFF7CEFE034668B3D8F80000194608225A
:1067C0000230039304F016FA039B50B15A46184660
:1067D00004A905F0D1FCE8B1D9F8003002225A74BE
:1067E000DDE7D9F800305A7C002AD8D1F6E71948FD
:1067F000FEF714FBDAF8003083420BD198E80F0063
:1068000089E80F0033781D44043595E80F0088E8C7
:106810000F005DE70023074A337013808AE700BF4B
:10682000F4090020952300204C120020A023002012
:1068300048120020721B002044120020FC09002096
:1068400000283AFF240A002098230020360A00205E
:106850001C0A00200C0A00200148FEF793B900BF73
:106860000C010020B8210B4B024601FB0033002035
:1068700030B5014604465882074B9D7825B11D78F6
:10688000954204BF9C70013001310C2903F1710362
:10689000F3D130BD58120020AB23002008B50648C4
:1068A00001F056F80122054BFD211A700022997063
:1068B0005A70DA7008BD00BF316C2000A12300209F
:1068C00030B513780446087A83F0020398421FD14A
:1068D000487A537898421BD1887A9378984217D196
:1068E000C87AD378984213D1087B137998420FD194
:1068F000487B537998420BD1887B9379984207D192
:10690000C87BD379984203D10320A040C0B230BDE8
:106910000D4D0B892A6863B94B89B3F57F4F08D1B8
:106920008B89FE2B05D1CB89022022F8023B2A60FD
:10693000EBE701F1080303CB083242F8080C42F8F8
:10694000041C01202A60E0E7C813002010B50E4C9B
:106950000220A17902F0A2FFA379112B09D1218D88
:10696000638D994228BF1946BDE81040012002F00E
:1069700095BF062BF3D03A2B03D1218D49BA89B2AA
:10698000F2E70021F0E700BFF409002010B5084C41
:1069900001462378012B08D10822A01C04F02AF913
:1069A00000280CBF2046002010BD0020FCE700BFDF
:1069B000A123002008B50146102002F07DFF044B02
:1069C00000219B6803489847BDE80840FCF7BAB827
:1069D000FCC62000D969200010B50C46114620469F
:1069E000FFF7E2FD044B1B6813B120469B689847F4
:1069F000024B1C6010BD00BF50120020D0130020BD
:106A0000164A2DE9F0410023054616469078E0B974
:106A100071245C433719797002F068FEDFF840801A
:106A2000104B98F800103555401A1D68B8700D4489
:106A300002F05CFE98F800200334821A29463019CF
:106A400004F00CF9B878BDE8F08101330C2B02F1A9
:106A50007102DBD14FF0FF30F5E700BFAB23002020
:106A6000F7280020D81300202DE9F84380468946F6
:106A700017464C4D002A3BD16B8A53BB0024B5F816
:106A8000CA30002B00F08A80474804F04EFB10B15A
:106A90000120FFF7E7FE631C40F08280B5F8CA30A2
:106AA000A3B90124B8266643AF190F20A7F81290A6
:106AB000A7F8108002F00CFF0146384605F07EFB77
:106AC00006F118004021284404F01DFB2046BDE8D3
:106AD000F88305F1180004F028FB28B96B8A002B15
:106AE000CCD04FF0FF34CAE73846FFF7BBFEF5E7DE
:106AF0002B8A83420AD16B8A43B10F2002F0E8FE51
:106B00000146284605F05FFB002840D1B5F8C830A3
:106B100043453ED1B5F8CA30002B3AD00F2002F0E1
:106B2000D7FE0146214805F04EFB90B301245FFAE1
:106B300084F839464046FFF763FF00281DDA6E8A65
:106B40004EB14CB31A4804F0F0FA064618B10020D2
:106B5000FFF788FE0646B5F8CA3043B13CB9124883
:106B600004F0E3FA18B10120FFF77CFE0644002E82
:106B70000FDD39464046FFF743FF002809DDB82303
:106B800003FB0455AB8A64B21844A8829EE7002434
:106B9000CDE74FF0FF3499E72646DCE7013480D09B
:106BA00000247FE758120020281300201013002033
:106BB000701200202DE9F04116090F2E08BF102693
:106BC00002F00F040F2C07461D4608BF102416B113
:106BD000324604F043F832190F2A05DC0021C2F1D5
:106BE0001002B81904F02CF9BCB1DFF84080C4F1F0
:106BF0001000D8F8005022462946384404F02EF8F8
:106C0000022C05D10A2E9FBFFF23FB72FE233B738C
:106C10002C44C8F80040BDE8F081002EFBD0294686
:106C20003846BDE8F04104F074BB00BFC813002033
:106C300000232DE9F04FBC4ABC4E85B01370337071
:106C4000044602F0D1FD02F063FDB94B1860B94B68
:106C50001B680BB1FFF77AFE002C40F02481B64987
:106C600002A805F0ABFAB24B96F800B01D68B34B22
:106C7000DFF8CCA21B883E2B40F25682B14FAB1CF2
:106C80003B6000230BF1020905F809300AF11800F6
:106C9000FFF77CFE28B90AF10800FFF777FE0446EB
:106CA00010B18024EB1C3B609AF801709AF8000048
:106CB0003B0943EA0013DAB2C3F3850343EA8213C4
:106CC00000F00F0027F00F0217F00F0F4FFA83FEAE
:106CD0009C49DBB240EA020040F0E780BAF80220AB
:106CE000002A40F0E280002800F0F88070270A684F
:106CF00002F8013B0A60924A9079112817BF0B688D
:106D000047F0040703F8010B0B60D379402B00F028
:106D1000E780FF2B00F0E780012B40F0E78047F091
:106D20000107BAF80830BAF80A20BAF80C101A436A
:106D30000A43BAF80E10DFF80C820A43BAF81010B2
:106D40000A43BAF812100A43BAF814100A43BAF800
:106D500016100A4392B2002A40F0CD8044F040045D
:106D6000DFF8DCA19AF81830FF2B40F074819AF814
:106D70001900BAF81A100228D8F8003044F00802B6
:106D800040F01581002940F05181BAF81EC0BAF8D0
:106D90001C1041EA0C01BAF820C041EA0C01BAF813
:106DA00022C041EA0C01BAF824C041EA0C0189B2C0
:106DB000002940F0FE809AF82610002940F0F98062
:106DC0009AF8272044F00B0403F8012BC8F8003090
:106DD0002823554A13705A4A9379112B30D14FF218
:106DE000B008118D508D49BA89B221F00F0EDFF82D
:106DF00054C140BAC645DCF8003080B21FFA8EF9A3
:106E000040F06F8120F00F0ECE4540F06A81F321F3
:106E10001970118D528D090A120A02EB011202F546
:106E2000AA625A700233CCF80030454BDA8DDCF898
:106E3000003023F8022BCCF8003030233A4A13708C
:106E4000404B05F80B701B68AB445D1B8BF8014091
:106E500035700DF1080A5146102002F02DFD3A4B15
:106E6000DFF8D8801B689847041EB8BF15242E4A47
:106E7000B8F80030157896F80090C4F17D075A1BD9
:106E8000A7EB09018A4240F31F82C4F1780493FB07
:106E9000F4F502F065FA01388542C0F25F81002006
:106EA00005B0BDE8F08F2146DAE60A68DFF890C049
:106EB00060B92EF03F0E4EEA07071770BCF802309B
:106EC000033222F8023C68270A6014E7DCF800006D
:106ED0006027106002F8043B0A600CE778270AE795
:106EE00047F002071DE747F003071AE70A6802F8B0
:106EF000013B0A6015E715480193FFF747FD144A67
:106F0000019B106040B3427815F80930042043EA31
:106F100002130E490F4A05F80930FFF7D1FC60F063
:106F20003F04E4B21CE700BFF8280020F728002047
:106F3000D81300205012002058C92000721B0020D6
:106F4000F4090020C8130020B4C62000FC0900206A
:106F5000541200209823002048F2FE02934210D1E0
:106F6000BAF81C20BAF81A301343BAF81E2013439B
:106F70009BB233B90420AF4AAF49FFF7A1FC0443E9
:106F8000CFE7D8F80020DFF8B0E294460EF1100AFF
:106F9000734603CB5345CCF80000CCF804109E4652
:106FA0000CF1080CF4D11032C8F80020D8E6002902
:106FB0003CD1A249B1F81EE0B1F81CC04CEA0E0C5D
:106FC000B1F820E04CEA0E0CB1F822E01FFA8CFC7C
:106FD0005CEA0E0E14D191F824C0BCF1000F12D15E
:106FE0001A4602F8010BB1F8250044F00A04A3F890
:106FF000010091F8271004339170914A1360E7E67D
:10700000BCF1000F12D191F822C0BCF1000F0DD1DC
:107010001A4602F8010BD1F8231044F00904C3F812
:1070200001108849063309791171E6E79C46DFF8BB
:1070300018E20EF11008744603CC4445CCF8000069
:10704000CCF80410A6460CF1080CF4D17C4910339E
:1070500014460B60BCE60AF11800FFF797FC7B4A68
:10706000106080B115F8092043780AF11801134324
:10707000002005F8093002AAFFF722FC0443E4B21D
:1070800044F00404A4E648F2FE03BAF818209A4239
:1070900011D1BAF81C20BAF81A301343BAF81E20DE
:1070A00013439BB23BB902AA0AF11801FFF708FC8F
:1070B0000443E4B28CE6D8F80020DFF88CE1944673
:1070C0000EF11008734603CB4345CCF80000CCF812
:1070D00004109E460CF1080CF4D1594B10321A6082
:1070E00076E600F47F40B0F5704F09D1F1211970B8
:1070F000118DA3F80110528D120ADA70043392E652
:1071000001F47F41B1F5704F07D1F2211970118D53
:10711000090A5970528D5A80F0E7F0211970926A6D
:10712000053343F8042C7EE641232B700BF1010359
:10713000DBB21D440AF12802534603CB9342286078
:1071400069609A4605F10805F6D1414A0BF1290B11
:10715000137886F800B0283313707AE60023DFF83E
:10716000F4B03578CBF800303B4B2A46D3F800908A
:107170000435494609F1040003F0E6FDB8F8003093
:10718000364A1B0A63F03F0389F80030B8F8003034
:10719000EDB289F8013013882848591C11802C4918
:1071A0001A0A097889F802207A1B2D4F22F007026B
:1071B000014489F8033009EB050035703A6001920B
:1071C00003F04CFD019AA81880B202F085FA02F093
:1071D000CDF8054600283FF462AE5046FFF7EAFBC3
:1071E000284602F0FBF8284602F0E2F8DBF800201F
:1071F000012A3FF454AE043A012A7FF650AE1449F6
:107200003A680D78144B154405223270B8F8002006
:107210001968120A62F01F020A70B8F8002024F000
:107220000704ADB24A703C60B8F80020AA4219D8F1
:10723000012035E698230020FC090020F4090020F5
:10724000C8130020170A00200C0A00205412002046
:10725000F8280020D0130020D8130020A61C0020FE
:10726000D4130020214BE9081868521B01713968BA
:1072700034788A42B8BF3A601D4BD7F8009059194C
:107280004A46204403F0EAFC04EB090080B202F015
:1072900023FA02F06BF8044600283FF400AE504693
:1072A000FFF788FB204602F099F8204602F080F8AC
:1072B0003A681544DBF80020ADB2012A3FF4EFAD87
:1072C000043A012AB0D8EAE5084B0949186829446C
:1072D000484403F0C3FCB8F800004844401B80B2A7
:1072E00002F0FAF95046FFF765FBA1E7D81300203A
:1072F000F40900202DE9F04F002485B00F20BC4E8A
:10730000BC4D02F0E5FA02F069FB34702C7002F01B
:10731000FFF9DFF8E4A2CAF80000042002F0C6FA80
:10732000B64B00B21860DAF800301A8852BA1FFA69
:1073300082F8C2F3072202F0F802C02A78D0E02ACD
:1073400000F08E802746B846A146AD4CDAF8002002
:107350002B78D15C01F0E000602840F053829D1C46
:10736000134493F901A0A748BAF1000F02EB050CF2
:107370005E78B8BF0CF10103C0F800C0B8BF03606D
:10738000CB0601F0080E00F115810368BEF1000F75
:1073900040F0F980B3F801C0A4F801C093F803C02D
:1073A00084F803C013F804CB0360CCF3830040F0EF
:1073B00060004FEA9C032070607803F0300343EADA
:1073C0008C1300F00F000343637011F0040B06D11F
:1073D0008C48036813F801CB84F806C0036011F0F1
:1073E00003010BBF8749884B0B685B5C09BF13F82F
:1073F000010BE3710B60E0717106C6F3011340F1FC
:107400006681BAF1000FB6BF525D00221209002B4F
:1074100000F00B817D48017801297D4903D1457831
:10742000954200F0018100254B460D602E4634E068
:1074300058882B78C8F30A0840BA414604332246DC
:1074400080B22B70FFF710FB411C074600F0F5815E
:10745000B823704C4FF0010903FB0044223475E758
:1074600058881E792B7840BAC8F30A08324605338B
:10747000414680B22B70FFF7F7FA421C074600F036
:10748000DC81B822634B4FF0010902FB00339D8A77
:107490002346454534BF00250125009302F026F917
:1074A000DFF850B19BF80020824200F2C68102F062
:1074B0001DF99BF80010584AA0EB010AC2F800A081
:1074C0004B4A92F800B040F214520BEBC6065644F9
:1074D000964200F2B281009B44B1474A106852467E
:1074E000014404EB0B0003F0B9FB009BB8F1000F63
:1074F00000F09C8143B1B821464B0BEB0A0201FB23
:10750000073392B29A821A84002D00F09981B82331
:107510007B4340493A48CA182233A2F814801944E0
:10752000128C03F09BFB00253C4C354E14F8012CCB
:1075300052B114F8033C9F4206D114F8020C2146C4
:1075400006EBC00003F08AFB01350C2D04F1710439
:10755000ECD1F8B2FFF786F9B9F1000F03D10BEBCC
:107560000A081FFA88F82E4B2E4CA3F800802368D7
:1075700023B1FFF7EBF923685B68984705B0BDE8D6
:10758000F04F00F0FFB94FF0600C84F800C093F8A2
:1075900000E003334FEA9E0C0CF0300C0EF00F0E9F
:1075A0004CEA0E0C84F801C033F802CCA4F802C0F7
:1075B00003600AE7BEF1000F15D1036893F800C01D
:1075C000CCF3830C4CF0600C84F800C013F801BBC2
:1075D000A4F802E04FEA9B0C0CF0300C4CEA8B1C38
:1075E00084F801C0E4E76023238000236380ECE695
:1075F000F8280020F7280020D8130020CC13002002
:10760000F4090020C813002013C92000A123002082
:107610005412002058120020D4130020AE23002062
:10762000721B002050120020086004F10805002B96
:107630004BD0864A11680231854A0F20D25C0191F5
:10764000009202F045F9DDE9002103462846FFF7E4
:10765000B1FA06F0030206F0040316F008067D4DA9
:1076600040D0ABB940F2FF23ADF80C30531E012BD4
:1076700006D879490B6813F8010B8DF80D000B60E3
:10768000002376498A5C03A904F11800FFF792FAF7
:10769000734E7149307800F128033370BBF1000F4D
:1076A00064D00B681A7802F0F802F02A5ED1112239
:1076B000A2711A7802F0040C02F0F302F03A032AE5
:1076C0006AD8DFE802F0416C79831946B4E7654A6D
:1076D0000F20D55C02F0FCF82A460346624904F10B
:1076E0000800B4E73BB3BAF1000FBEBF5F4B297887
:1076F0001B68DFF87CA1BCBF5B189B789AF8001070
:10770000ACBF334603F00F030129504903D00025D5
:107710004B460D60C1E69AF801009842F7D14C4BF8
:1077200010209E5CC1F800A002F0D2F83246034659
:107730000AF10201A8E74B4B10209E5C02F0C8F84A
:107740003246034648499FE7B3F8012005332285B6
:1077500033F8022C62850B60BCF1000F04D10B687A
:1077600033F8022BE2850B60303030703F4A0B68F3
:1077700012689B1A2B70B8F1000F3DD101F0B6FFD3
:107780002B78C31A30780344283B5BBAA380A379D3
:10779000112B01D1A388A3854B46002546E6B3F8FB
:1077A00001202285DA78A2F5805292B2120242F0CC
:1077B000F00262850433CEE75A78A2F5805292B285
:1077C000120242F0F00222855A88F2E75A78023318
:1077D0001209A2F5756292B2120242F0F0022285FD
:1077E00013F8012C02F00F02A2F5756292B2120298
:1077F00042F0F0026285AEE7A8F128031A12227166
:107800006371C4E7412918D1591CC9B20A44214601
:1078100002F1280052F804CB824241F804CBF9D19E
:1078200029332B70337828333370B5E7B9F1000F63
:107830003FF495AE002D7FF496AE05B0BDE8F08F15
:10784000B9F1000F3FF48BAEF7E700BF54120020F0
:1078500017C92000F7280020C81300201FC92000E6
:10786000F82800201BC9200011C92000D8130020CF
:10787000A12300202DE9F347054628B9254802B089
:10788000BDE8F047FCF7C0B80488BCB94388B3B979
:1078900084889CB9C38893B9048934BB4FF6FF73BD
:1078A00042899A420BD1C37B0093837B427B017B4D
:1078B0001948FCF7A9F802B0BDE8F0870024264675
:1078C000DFF85890DFF858A005F10108A95D18F815
:1078D000067007EB0127BFB277B9002C0EDB06D08C
:1078E00001340236102EF1D1E5E71C46E7E7504699
:1078F000FCF78AF80124F4E7002C08DC16B13A20E2
:1079000003F04EFB39464846FCF77EF8E9E74FF0B6
:10791000FF34F7E723C9200032C9200048C92000FE
:1079200045C9200008B5054803F0C6FB20B1BDE8F5
:107930000840024803F0B7BB08BD00BFE0130020B9
:10794000024B1B6803B1184718467047DC13002030
:10795000014B1860704700BFDC13002007B5074BD0
:107960008DF80700186828B1054B0DF1070219784A
:10797000FCF790FE03B05DF804FB00BFF0100020A0
:10798000FA280020002208B502210448FCF782FEF4
:107990000023034A1380034A137008BD1801002016
:1079A000721B00209523002038B52A4D2B88002B10
:1079B00034D0B3F5A06F04D90023274A2B8013706D
:1079C0002CE0264C628B238B1343A28B1343E28B58
:1079D0001343228C1343628C1343A28C1343E28C17
:1079E00013439BB2002BE7D000F01CFF0028E3D02C
:1079F000237EFF2B2BD004F11800FDF7F1F9F0B92D
:107A000004F11800FDF74CFC044640B9FDF7D2FD27
:107A10000028D1D0FEF7A4FDA0B9288038BDFDF71D
:107A20001BFC0028F6D1E36923B11B6A93F894008C
:107A300003F005FF2046BDE83840FDF763BC04F1C4
:107A40001800E7E7FEF784FDFFF77AFFB4E70020B0
:107A5000FAE700BF721B002095230020F4090020E4
:107A60002DE9F041038806461446002B00F095806E
:107A700040F24B32934240F0AD80022978D00CD8CE
:107A800000296DD16CB1554B03201C60FDF7F2FE4F
:107A9000FFF78AFFFFF746FF03E0872907D0882911
:107AA00032D040F24B3301203380BDE8F08108250D
:107AB0004FF000084A4F57F8043C9C4207D137F872
:107AC000080CFDF7C5FE27F8088C47F8048C013D2B
:107AD00015F0FF0507F10807EDD10823414A916A27
