:020000040020DA
:10200000301700208D2220007B62200079622000A2
:1020100079622000796220007962200000000000CF
:1020200000000000000000000000000029692000FE
:10203000796220000000000047692000F96220005A
:102040000B63200011632000176320001D63200034
:1020500000000000FF62200005632000796220007C
:102060007962200000000000000000000000000075
:102070000000000000000000796220000000000065
:10208000000000000000000079622000796220005A
:102090007962200079622000796220007962200054
:1020A0007962200079622000796220007962200044
:1020B0007962200079622000796220007962200034
:1020C0007962200079622000796220007962200024
:1020D0007962200000000000000000000000000005
:1020E00000000000000000000000000000000000F0
:1020F0000000000000000000CD372000DD37200088
:1021000000000000000000000000000000000000CF
:1021100000000000000000000000000000000000BF
:1021200000000000000000000000000000000000AF
:10213000000000000000000000000000000000009F
:10214000000000000000000000000000000000008F
:10215000000000000000000000000000000000007F
:10216000000000000000000000000000000000006F
:10217000000000000000000000000000000000005F
:10218000000000000000000000000000000000004F
:10219000000000000000000000000000000000003F
:1021A000000000000000000000000000000000002F
:1021B000000000000000000000000000000000001F
:1021C000000000000000000000000000000000000F
:1021D00000000000000000000000000000000000FF
:1021E00000000000000000000000000000000000EF
:1021F00000000000000000000000000000000000DF
:1022000000000000000000000000000000000000CE
:1022100000000000000000000000000000000000BE
:1022200000000000000000000000000000000000AE
:10223000000000000000000000000000000000009E
:10224000000000000000000000000000000000008E
:10225000000000000000000000000000000000007E
:10226000000000000000000000000000000000006E
:1022700079622000AD362000D13620003D2D2000AF
:10228000293920007D28200079622000FF220024C7
:1022900008B5094B0948C3F8B420094A636E0949D7
:1022A000121A98470848094A2146236E121A98477D
:1022B00000F00EF8FEE700BF00200D4040000020B7
:1022C000480100202C742000480100202F0F00201E
:1022D00073B500F019FC00F0D3FC00F02FFC00F007
:1022E0005BFA01F00FFB04F0AAF800F0C1FC00F06B
:1022F000ADF8012003F0C4FF02F0ECF800F0F0FBB1
:10230000002000F013FB012000F010FB00203D49ED
:1023100000F0D0FB02F012FA62B6042003F0B0FF26
:10232000394804F020F8394804F01DF800F0D2F9DB
:10233000002002F0ABFA01F0E1F90021344802F08C
:1023400055F901F039FF03F0C7FF00F01BFD00F065
:1023500037FD02F005FE0821684601F0F9FA2D4D1F
:10236000BDF806402C482C8001F02EFB2B4E29781E
:102370002B4801F029FB69782A4801F025FBF56A12
:102380004AF6CD310220A84761BA89B20320A84796
:102390001A210120A84708226946736B0B20984731
:1023A000214801F011FB214B186803F0DCFF2048A5
:1023B00001F00AFB1F4B186803F0D5FF1E4801F01F
:1023C00003FB1E4B186803F0CEFF00211C4802F0EF
:1023D0000DF91C4B01219B688120984704F01AF8E5
:1023E000194804F00DF800F081FB022003F048FFCB
:1023F00000F082FB02F086F8C0B20028F8D101F0AC
:1024000019FAF5E7F5462000B66F2000C86F2000E6
:1024100078000020E00D0020ED6F2000406E2000CD
:102420000B70200011702000177020001C6F20001E
:102430001E702000446F200025702000606F200077
:1024400098000020C86D20009C6F200008B500F0A7
:10245000E9F80022014B1A7008BD00BFEA0D002008
:10246000024B1A781043187000F0FEB8EA0D0020F5
:10247000034A137823EA0000107000F0F5B800BF9B
:10248000EA0D0020024B1A785040187000F0ECB8AA
:10249000EA0D002018B1012804D000207047034B3A
:1024A000186A7047024B1878704700BF00900D40C3
:1024B000EC0D002010B5094A002013780133137089
:1024C000074B197802F06AF8BDE81040054900236F
:1024D000054A0968054801F0A5BE00BFEC0D0020C3
:1024E000EB0D002080010020B524200060010020B9
:1024F00008B50346812B08462DD0B3F5807F3ED02A
:10250000802B26D101F0DEFF1E4B032118701E4BDD
:102510000020D3F8202422F00802C3F82024D3F8A6
:10252000002422F00802C3F80024D3F8042422F087
:102530000802C3F80424D3F8082442F00802C3F8C0
:102540000824042200F0AAFB032200210F4800F017
:1025500049FB01200AE00C4B0D49D3F8102430B19F
:1025600042F00802C3F8102401230B6008BD22F0DA
:102570000802C3F810240123C1F88030F6E7054BA8
:102580001960E6E7EB0D002000900D409925200032
:1025900000E100E08001002008B50F4803F058FF7B
:1025A000C8B108210C4803F04CFF0C4B196849B125
:1025B00000220B4B1A700B4B1B6A43B90A4A0B489B
:1025C00001F030FEBDE80840094802F033B9074881
:1025D00001F032FEF6E708BD58010020800100201E
:1025E000EC0D002000900D40B5242000600100207B
:1025F000C86D2000094BD3F8202422F00402C3F850
:102600002024D3F8002442F00402C3F8002400225E
:102610001A610122024B1A70704700BF00C00D40C2
:10262000F10D002000210F4BD3F8202422F0C0022E
:10263000C3F82024D3F8002442F0C002C3F80024D9
:10264000C3F8001303F50053D3F8202422F010023E
:10265000C3F82024D3F8002442F01002C3F8002469
:102660001964704700A00D4010F0020218BFFF224D
:10267000084BC3F8002210F0040218BFFF2210F02C
:102680000100C3F8002118BFFF22034B14BF1A64D6
:102690001864704700A00D4000C00D40044BDB697A
:1026A000C3F3072013F4704F04BF1030C0B270475B
:1026B00000300D40064B5869C00910F0060F03BFEB
:1026C00000F00700C0F1020040034FF400407047E3
:1026D00000300D402DE9F047002488B0FFF7DEFF01
:1026E000164B0646DF69236D9847E36C8046984792
:1026F0000446FFF7DFFF054600F05CFA814600F074
:1027000065FA824600F010FAAD0A07F00103A40A48
:10271000C7F34007CDE905A003934146CDF81090DB
:1027200002970195009406F00F03C6F307120448C0
:1027300001F04AF908B0BDE8F08700BF00300D4055
:10274000337020002DE9784800F064F81049024603
:10275000D1E900BC6646584538BF0CF10106334646
:10276000C1E900230B4ED6E90001B0EB0B0461EB8D
:102770000C05A01845EB0301C6E9000101F00CFEB1
:1027800018B1BDE8784801F08DBDBDE8788800BF7C
:1027900050010020480100204FF0E023E0210B4AC7
:1027A0005A610B4A82F82310002207219A611961AD
:1027B00008498B6843F001038B60074BDA60042201
:1027C0001A6001225A600F229A63704747E801009D
:1027D00000ED00E000200D4000000340034BD3E972
:1027E0000023100A40EA0360704700BF5001002038
:1027F000044B9862DA6842F00102DA60DA68D207C4
:10280000FCD4704700000340014B1868704700BFBC
:1028100084010020054A106C516C936C1B0443EA40
:1028200001230343D06C43EA0060704700500D4021
:1028300010B504460E4A136DDB07FCD572B6FFF7E0
:10284000E9FF231A062BD8BFC41D094B220EDA64F8
:10285000C4F307429A64C4F307225A64E2B21A64CA
:1028600062B64FF40032034B1C60034B1A6110BD7B
:1028700000500D408401002000E100E008B500F0A8
:10288000C5FF0022064B1A604FF40032054BC3F817
:102890009021C3F89020BDE8084001F0CBBE00BFF6
:1028A0008401002000E100E0064B9B691B075FBF2D
:1028B000054B986980F00800C0F3C00048BF0020B5
:1028C000704700BF00C0004000D000402C22154BD4
:1028D00070B502FB00334FF6BF72DC680546236C0F
:1028E000626413F050020DD00F4EA369DB0600D5D1
:1028F00070BD56F825301BB12068C0B29847F4E788
:102900002368F2E713F4D06FF2D04FF440732363DF
:10291000FF236360E36AE262E362236B43F0010337
:102920002363E5E7D86D20008801002001282DE908
:10293000F74F804600F2AD802C254543564F7C1959
:1029400094F92090B9F1000FC0F2A38094F92260AD
:10295000002EC0F29E80514800F0C2FF504B7959C2
:102960009A6A94F921A00A439A62DA6A6168E56872
:102970000A43DA621A6BA168F0B20A431A630023B1
:1029800022690AEBC901C5F8C83F116094F8231009
:10299000227DCDE9000194F923B000F089F9DDE949
:1029A0000001082200F07AF9012231033D4E02FABB
:1029B0000BFB88594FEA09394BEA0000885159F856
:1029C000061002FA0AFA4AEA010149F806105021F3
:1029D000A963A96B94F9240041F4D061A963022191
:1029E00069634FF440712963A16900286962E16954
:1029F000A9624FF07001E96216DB002394F92510FB
:102A0000294C41EAC005C4F804510403A5598A4081
:102A10002A43A251C9B21A46C0B200F03FF9234A74
:102A2000136B43F4004313632C2303FB087393F9E4
:102A30002640002C1ADB93F82790E5B20122494684
:102A4000284693F927A000F033F901232403A25963
:102A500003FA0AF31343A35108224946284600F01B
:102A60001DF9124A136B43F4804313632C2000FBBF
:102A70000877FA68136B43F001031363012297F898
:102A80002830590903F01F0302FA03F3084A42F8F9
:102A9000213003B0BDE8F08FD86D2000A9282000B8
:102AA00000200D4020940D4000400D4000D000401B
:102AB00000E100E001289CBF014B43F82010704763
:102AC00088010020012808D82C22044B02FB00308A
:102AD000C3689A699206FCD419607047D86D2000CB
:102AE0000022014B1A60704700500D400822014B34
:102AF0001A60704700500D40A022024B1A6050220D
:102B00001A60704700500D40014A024B9A607047AE
:102B10000020200000ED00E0024B5868C0F3815017
:102B2000704700BF00200D4008B5FFF7F5FF024BCE
:102B300053F8200008BD00BF306E200010B5194CBE
:102B40000122D4F82034062123F04003C4F82034B5
:102B5000D4F80034032023F04003C4F8003400F01C
:102B60009DF8D4F82034012223F08003C4F82034E7
:102B7000D4F80034072123F08003C4F80034032084
:102B800000F08CF8084A094B1A60094A596811424A
:102B9000FCD15A685201FCD4044A53685B01FCD54D
:102BA00010BD00BF00C00D400101020000200D401B
:102BB00000000101034B04485B6803F00703184160
:102BC000704700BF00200D400048E801034B044857
:102BD0005B68C3F302231841704700BF00200D401B
:102BE0000048E801024B02EBC10243F822007047A3
:102BF00090010020F8B507460D460024084E06EB6C
:102C0000411647FA04F3DB07E1B204D556F8243045
:102C10000BB1284698470134082CF2D1F8BD00BF0B
:102C2000900100202DE9F8430546DFF8388000F0D8
:102C3000EDFD0D4B2E03F75856F808404FEAC50935
:102C400024FA09F447EA04002946C0B2FFF7D2FF8C
:102C5000E4B2064BFFB204FA09F4F75046F8084014
:102C6000BDE8F88318970D4018940D401C940D4052
:102C700080220021014803F0ADBA00BF900100207E
:102C8000034B044A1A60044B803A1A60704700BF35
:102C90001002002080400D4014020020034B01EB85
:102CA000C0011B6843F82120704700BF10020020BC
:102CB000034B01EBC0011B6843F82120704700BFA4
:102CC000140200200E2870B506460DD1134B5C6B24
:102CD00044F0020058631248D0F8F45625F03F0340
:102CE00043F00103C0F8F4360E48836823F0FF0375
:102CF0001A4311433143816003681B06FCD5C36846
:102D0000006903F0FC0343EA00230E2E18B201BF52
:102D1000034BC3F8F456014B5C6370BD00000144E3
:102D20000080084000700D40034BD3F80007B0FA54
:102D300080F04009704700BF00B008404FF40042E7
:102D4000064B10B5064CC3F89021C3F890202068BC
:102D500018B101F063FC0023236010BD00E100E026
:102D600018020020064B9A6C42F002029A64DA6C58
:102D700042F00202DA641A6D42F002021A657047EC
:102D800000200D4007B50C4800F0AAFDFFF7EAFF50
:102D90000A4B5A6D42F002025A6500220192019AD2
:102DA0000F2A06DD5A6D22F002025A6503B05DF863
:102DB00004FB019A0132F1E7292D200000200D408B
:102DC000064B9A6C22F002029A64DA6C22F002023C
:102DD000DA641A6D22F002021A65704700200D4075
:102DE0000D4BD3F84C269107FBD4D3F84C26520652
:102DF0005EBFED22C3F83828C3F83828D3F82C2654
:102E000012B1EF22C3F83828044A0120137803F0E6
:102E10007F031370704700BF00800840F40D00204E
:102E2000044BD3F84C0600F02200A0F120035842D6
:102E30005841704700800840024BD3F84C0600F020
:102E40004000704700800840054BD3F8002620B1B1
:102E500042F00102C3F80026704722F00102F9E7B0
:102E600000800840284B1870002841D0274A53683A
:102E70001B03FCD5264BD3F8042842F00202C3F80A
:102E80000428D3F8042842F00102C3F80428D3F838
:102E900004285007FBD5D3F8042822F00102C3F818
:102EA00004281B4BD3F804285107FBD4D3F804287B
:102EB00042F00202C3F80428D3F8042842F00102C9
:102EC000C3F80428D3F804285207FBD5D3F88C267E
:102ED00022F00402C3F88C26D3F8342822F004022E
:102EE000C3F834284FF400520A4BC3F890207047BF
:102EF000074AD2F88C3643F00403C2F88C364FF4FC
:102F00000052044B1A617047F30D002000200D4061
:102F10000080084000E100E0094B93F90020002AFE
:102F20000CDBED21074AC2F83818C2F83818E32143
:102F3000C2F838181A7862F07F021A7001207047C0
:102F4000F40D00200080084070B5A0F10B05EBB235
:102F50000F2B044614D80C4ED6F8483613F03F0316
:102F600002D0FFF73DFF012305EB85050B35C6F8C1
:102F70003C560BB1FFF7D0FF044B60B21C7070BD24
:102F80004FF0FF30FBE700BF008008404601002003
:102F900038B50C46002900F09180102800F290808E
:102FA000DFE800F009111D252B434C60667D818E02
:102FB0008E86885D8A00434BD3F82C36003B18BFC1
:102FC000012323602BE005223E4BD3F83C3603F06F
:102FD0007F030B3B93FBF2F30B33DBB2F1E7394A90
:102FE000D2F8CC15D2F8C83543EA0123E9E7354ACF
:102FF000D2F8D415D2F8D035F6E70023314A0B6069
:10300000D2F8003603F001030B60D2F824269006B4
:1030100044BF43F002030B602B4B1B780BB900201D
:103020000BE00B6843F00403CBE70020274B08605C
:103030001B78002BF3D001230B6038BD214B2449B2
:10304000D3F840260023D2B201EBC30000799042AE
:1030500002D851F83330B4E701330E2BF4D16FF0BE
:103060001703AEE7174BD3F858365BB2493BA8E7D6
:10307000144DD5F8483699060FD1FFF74DFF0123BF
:10308000D5F86426D207FBD5D5F86056493D6DB218
:103090000BB1FFF7A5FE2560C1E70023F0E70D4B5C
:1030A00093F900308DE70C4B1B7803F07F0388E722
:1030B0000B2386E71A2384E7072382E70220BCE775
:1030C0000120BAE700800840F30D002047010020EE
:1030D000786E2000F50D0020F20D002010B50B4C8D
:1030E000D4F8483699060FD1FFF716FF0123D4F81C
:1030F0006426D207FBD5D4F84C46C4F300140BB1B8
:10310000FFF76EFE204610BD0023F0E70080084068
:1031100010B50C46072865D8DFE800F0040F1A2325
:103120002C444A5E012903D1FFF7F6FE00203EE061
:10313000002959D1FFF754FEF8E7A1F10B030F2B3B
:1031400052D8C8B2FFF700FF0130EFD103202EE0C4
:10315000264BCAB2C1F30724C3F8C825C3F8CC452F
:10316000E4E7224BCAB2C1F30724C3F8D025C3F861
:10317000D445DBE731F0070336D101F00100FFF75A
:1031800063FE1A4B11F0020FD3F82426C1F380001E
:1031900014BF42F0200222F02002C3F82426FFF7D9
:1031A00061FEC3E731F001001ED1114B197010BD53
:1031B00001F118031F2B17D80D230E4A52F83310B4
:1031C0008C4206DC02EBC3031A79084BC3F8402695
:1031D000ACE7013BF2D2A9E7044BCCB24934C3F8C7
:1031E0005846A3E70120E2E70220E0E7008008401C
:1031F00047010020786E200070B505460C46144E3D
:10320000D6F84C369B07FBD4124B93F90030002BB9
:1032100001DBFFF781FEEE23691EC6F83838C6F8D9
:103220003838A31CC6F828382144022000F080FA60
:103230000949013C41EA0411022000F08BFA022006
:1032400000F092FA022000F0A7FA002070BD00BF43
:1032500000800840F40D002002C001C070B5264B6C
:1032600093F90030002B19DBFFF7D4FA0446FFF77F
:1032700053FEC4F1FF2404F57F04F634FFF7CAFAC5
:10328000C442FBD401261D4B1B784BB91C4CD4F80F
:103290004C36990609D50224204670BD0026F2E777
:1032A000FFF71CFF0028F1D1F5E7E9230425C4F856
:1032B0003838D4F84C369A0703D4013D15F0FF0591
:1032C0000AD1D4F84C369B070AD50D4BD3F84C469F
:1032D00014F00204FAD109E00620FFF789FAE8E7C2
:1032E000EE23C4F83838C4F838380124002ED3D07F
:1032F000FFF776FDD0E700BFF40D00204701002066
:10330000008008400B280DD1082A0DD161B1074B70
:10331000074A083111F8010D43F8040B9342F9D123
:10332000002070470120704702207047A8850840A0
:10333000C885084070B5384A0546D2F84C0610F0EA
:10334000400009D0D2F82808040606D5ED23C2F8BB
:103350003838C2F83838002070BDC0B20428F5D91A
:1033600002388842F2DCC4B2032C24D1D2F82838C7
:103370002B70D2F828386B70D2F82838AB70264DF5
:10338000264BD5F82818264E493949B21970D5F878
:1033900028381806337026D589B2042001F0B6FD0E
:1033A0003178032001F07F0101F0B0FD1D4B1B7847
:1033B000FBB12046D0E729190320013900F0C0F9FC
:1033C0001949631E032041EA031100F0C3F90320E9
:1033D00000F0CAF9032000F0DFF9032000F0E8F95B
:1033E0000028FAD1CBE7ED23C5F83838C5F83838CE
:1033F000B1E7D5F84C365A06DBD5D5F84C361B0666
:1034000003D50A4801F00AF9D3E7ED23C5F83838A7
:10341000C5F83838CDE700BF00800840F50D002022
:10342000F20D0020F30D002002C0010C500000201E
:103430002DE9F041294F3E7816F001064CD10125C7
:10344000274B284CC3F8A850C3F8AC50C3F8B05071
:10345000F823C4F858360923C4F8E83715230B229B
:10346000C4F8C836204B4FF07F085A604023C4F898
:103470002436D4F8243643F02003C4F82436D52368
:10348000C4F80866C4F85086C4F84036174B18785C
:10349000FFF75AFD4FF48042154B0220C4F8948682
:1034A0001A6100F06DF91349022000F049F9032078
:1034B00000F066F90F49032000F03AF90E4B187836
:1034C000FFF7D0FC0D48314601F090F828463B78D4
:1034D0002B433B70BDE8F0810020FBE7F40D00209A
:1034E00000200D400080084000600D404601002093
:1034F00000E100E028880840F30D00205000002083
:1035000038B50388044653B340F20342934233D1A3
:103510001B4B1A7842BB822924D11B7873B901F066
:10352000A7FC01F039FC8021FFF704FF002805DD2E
:1035300080B201F0F1FB134B1B699847124B1A78CC
:1035400052060CD500221A70104BD3F84856FFF7DC
:1035500047FCFFF76DFFAB0601D0FFF7DDFC40F243
:103560000343238001200AE01A78002AFAD0064A91
:1035700012785006F6D5CEE700230380032038BD2D
:10358000F30D0020606F2000F40D00200080084043
:103590000B282DE9F8430D460FD1082A7CD10029CC
:1035A0007AD03E4B3E4A4D1E53F80419934205F81B
:1035B000011FF9D10020BDE8F8830C286AD1042A44
:1035C0006AD1002968D0374BD3F8102822F00702BF
:1035D000C3F81028D3F8042842F00802C3F80428DE
:1035E000D3F81428D3F81818D3F81008D2B220F062
:1035F0007000C3F81008D3F82448D3F82008090253
:1036000042EA006289B224040A4304F47F04D3F836
:103610001C7842EA0408D3F81028FFB222F007020F
:1036200042F00102C3F81028D3F8042842F008023F
:10363000C3F80428D3F81448D3F81828D3F810187E
:10364000E4B221F0700141F01001C3F81018D3F872
:103650002418D3F82008120292B244EA0064090444
:10366000144301F47F010C43D3F81C185FFA81F96D
:10367000FFF7D0F8B8EB040467EB0907FF03064631
:103680000023094AE00347EA544102F075FB361A69
:103690002E608FE701208EE702208CE7C48508406A
:1036A000A4850840008008400048E80108B5054BA3
:1036B0001B7813B9044800F0B1FF0022034BC3F894
:1036C000342808BDF30D0020500000200080084081
:1036D000074A0848D2F82C38042B1FBF06490B783C
:1036E00043F040030B700023C2F82C3800F096BF63
:1036F0000080084050000020F40D002010B5094C57
:1037000040220021204602F065FD0122064B5A604E
:103710004FF480429C60054B5A604FF400425A605F
:1037200010BD00BF0000002000F00F4000E100E0ED
:1037300003289EBF014B0001195070470000002074
:1037400003289EBF024B03EB00104160704700BF8F
:103750000000002003289EBF024B03EB0010816095
:10376000704700BF00000020032806D80123034A49
:1037700003FA00F0916A08439062704700F00F402E
:10378000032806D80123034A03FA00F0116A08430C
:103790001062704700F00F40032806D80123034A47
:1037A00003FA00F0516908435061704700F00F4080
:1037B00003289FBF044B03EB0010806800F0070054
:1037C00088BF0020704700BF000000204FF0FF328C
:1037D000014BC3F80425704700F00F400122014B54
:1037E000DA64704700F00F40074B5A68D102FCD4EE
:1037F0001A6822F480321A605A68D203FCD41A681C
:1038000042F400321A60704700200D4010B5084C99
:10381000A36D99070BD063685A01FCD463685B0100
:10382000FCD502F05BFDFFF7DFFF0023A36510BDB1
:1038300000200D4070B5264BD3F8484614F03F04E5
:1038400014D1244D55F8043B23B1984770B101348D
:10385000052CF7D1204E337843B1FEF7D5FF04464F
:10386000FEF7D8FF201A092800D90CB930BF26E08E
:103870001A4B1A6822F400321A605A68D202FCD439
:103880001A68164D42F480321A606B68DB03FCD56F
:10389000FEF7C0FF241A092C03D8BDE87040FFF7DB
:1038A000A3BF632C0CD93378022B09D1AB6500F090
:1038B0006BFE38B1FFF798FF0022084B9A6570BD88
:1038C0000123F3E7FEF7A0FF0028F3D0CEE700BF07
:1038D000008008401C020020F60D002000200D4052
:1038E000074A10B50023144652F8041B814202D047
:1038F00011B944F8230010BD0133052BF4D1FAE7C8
:103900001C0200200022054B05499A650B6943F013
:1039100004030B61034B1A70704700BF00200D4079
:1039200000ED00E0F60D00204FF48032064B10B59C
:10393000064CC3F89021C3F89020206818B100F01D
:103940006DFE0023236010BD00E100E03002002086
:103950004FF4201270B592F82B40431E54B101F57C
:103960002012184C2732A2421AD012F8015903F83B
:10397000015FF8E792F82A40122CF0D192F8292042
:103980004B2AECD14C0804F520120E4D2732AA42E6
:103990000DD1002301F5201205192732A3420BDBBC
:1039A0001323014401F8013C01F8023C70BD12F8F8
:1039B000016903F8016FEAE7D61A3678013305F892
:1039C000016BEBE7270028000FB407B504AA52F8F3
:1039D000041B0448019200F021F803B05DF804EBE9
:1039E00004B070476000002070B505460C460A4ED2
:1039F000102C07D874B122462B6868680649BDE8C8
:103A000070401847102231462B686868984710B9F3
:103A1000103CEDE7204670BD517120002DE9F04FBC
:103A20008046154600278DB00491049B1B78002B1F
:103A300000F07983049B1A781C460133002A00F0B9
:103A40006183252AF7D1049B9C4205D05DE323784E
:103A50003744002B00F067836278631C002A00F073
:103A600062830024184610F8012B19462B2A15D022
:103A700009D8202A15D0232A16D0A2F13106082E03
:103A800040D8002219E02D2A04D0302AF5D144F084
:103A9000100401E044F001040346E3E744F00604A7
:103AA000FAE744F00204F7E744F00804F4E70A21D7
:103AB000019A01FB0299A9F13002194613F8019B02
:103AC0000192A9F13002092AF1D90B782E2B36D1B7
:103AD0004A784B1CA2F13000092828D84FF0000B7F
:103AE0001A781946A2F13000092803F1010318D908
:103AF0000B786C2B6BD14B786C2B23D144F080046A
:103B0000023122E02A2A09D12B680146002B0193B9
:103B100005F10405B8BF44F00104D6E70023019382
:103B2000D3E70A2101FB0B2BABF1300BD8E72A2A94
:103B300004D1D5F800B002310435D9E719464FF069
:103B4000FF3BD5E7013144F060040B78782B0CD8AB
:103B5000572B48D8472B08D8402B00F28D80002BDC
:103B600000F0E182252B00F0D0804B1C049304F47C
:103B7000E063B3F5A06F00F0A28200F2C980B3F554
:103B8000407F00F06882B3F5806F00F02F82B3F5BC
:103B9000807F7FF44AAFBBF1000FACBF24F010046C
:103BA0004FF0010B14F4005904F0E00300F07A81A7
:103BB000402B00F0728100F2C280002B00F0708177
:103BC000202B00F0CB800026B2460023D3E0682BE8
:103BD000BBD14B78682B02D144F0200490E701312F
:103BE00044F04004B1E7583B202BBED801A252F864
:103BF00023F000BFBD3C20006B3B20006B3B20004E
:103C00006B3B20006B3B20006B3B20006B3B20009C
:103C10006B3B20006B3B2000E73C20006B3B20000F
:103C2000F33C2000A53C2000CF3C2000C33C2000FA
:103C3000DB3C20006B3B2000A53C20006B3B2000C0
:103C40006B3B20006B3B20006B3B2000053D2000C0
:103C5000B13C2000FF3C20006B3B20006B3B200070
:103C6000F93C20006B3B2000AB3C20006B3B20006C
:103C70006B3B2000B73C2000413B062B3FF675AF65
:103C800001A252F823F000BFED3C20006B3B200066
:103C90006B3B20006B3B2000D53C2000C93C200042
:103CA000E13C200044F424545FE744F410645CE7F2
:103CB00044F4885459E744F4C85456E744F4B244F1
:103CC00053E744F4007450E744F484444DE744F46B
:103CD00002444AE744F4424447E744F4813444E769
:103CE00044F4A13441E744F4C1343EE744F4E13400
:103CF0003BE744F4A06438E744F4806435E744F4D7
:103D0000407432E744F4E0642FE744F4C0642CE7E5
:103D1000B3F5C06F07D0B3F5E06F7FF486AE2B68C4
:103D200004351F6081E60122D8F80030A649D8F892
:103D300004009847002840F0F481013775E6602BB5
:103D400000F0AE80802B7FF43EAFEA1D22F0070228
:103D50001546D2F804A055F8086B04E095F9006008
:103D600004354FEAE67ABAF1000FBFF62EAF012311
:103D700076426AEB4A0A029304F4C053B3F5805FBB
:103D800000F0E480B3F5C05F00F0E680B3F5006FAB
:103D900000F0C6800DF12E03009300230393039BD4
:103DA00041F608029B4588BFABEB030B41F20803C9
:103DB00004EA020198BF4FF0000B994204D1BBF115
:103DC000010F38BF4FF0010B039B91425B4440F061
:103DD000DF8056EA0A0200F0DB807C497C4A14F45A
:103DE000804F4FF0020614BF8A469246B9F1000F89
:103DF0000DD0029A002A40F0CE8004F00602022A7A
:103E000000F0CD80062A734A04BF0126924606EBD5
:103E10000309019B4B4594BF4FF00009A3EB09092F
:103E200014F00103019304D1E20640F1BC80CB44BD
:103E300099464EB132465146D8F80030D8F80400C1
:103E40009847002840F06D815C46039BDFF888A10D
:103E50001F44102CD8E9003000F2AD802CB122466E
:103E60005D499847002840F05C81D8F80030039AFB
:103E70000099D8F8040037449847002840F0518151
:103E8000019B5F44002B00F0E08049464046FFF76D
:103E9000ABFD002800F0D98043E1B5F900605FE791
:103EA0002E685DE7402B1BD007D8DBB1202B11D04B
:103EB0004E46CA46CDF808905EE7602B12D0802BA4
:103EC000F6D1EA1D22F007021546D2F804A055F8F3
:103ED000086B02E02E78CA460435CDF808904BE70F
:103EE0002E88F8E72E68F6E7039805990A22002342
:103EF00001F042FF009B303203F8012D0398059931
:103F000000930A22002301F037FF03900591039BE1
:103F1000059A1343E8D1009A0DF12E039B1A3DE751
:103F20000DF12E030396CDF814A00093EFE700984F
:103F300003F00701303100F8011DDB0843EA42734A
:103F40000090D20853EA0201F1D1E4E70DF12E010D
:103F5000334652460091F5E7204B14F4804F204938
:103F6000524608BF194633460DF12E00009053EA21
:103F70000200D0D003F00F00DDF800C0085C1B0980
:103F80000CF8010D43EA0273CDF800C01209EEE708
:103F90000026B2462AE70126DFF848A037E70126C7
:103FA000DFF844A033E749464046FFF71DFD0028EF
:103FB0003FF43FAFB5E0102251469847002840F04B
:103FC000B080103C45E700BF4F71200040712000D9
:103FD0004371200046712000617120002F71200084
:103FE0001E71200091732000237020002E6804357C
:103FF0006EB333469A469AF800200133002AF9D16D
:10400000AAEB060ABBF1000F02DBDA4528BFDA464D
:10401000019B534594BF4FF00009A3EB0A0914F02C
:10402000010405D149464046FFF7DEFC002878D15F
:1040300052463146D8F80030D8F804009847002896
:104040006FD15744002C7FF420AF4F44EDE44FF084
:10405000060A374ED6E7374B14F4804F364808BF70
:1040600018460DF12B0300229A462968043551EABF
:1040700002061AD1BAEB030A04BF302203F8012C5E
:104080004FF0780208BF03F1FF3303F8012C4FF023
:10409000300208BF4FF0010A03F8022C2322DE1E73
:1040A00003F8032C0AF1030AB2E701F00F06865D5C
:1040B000090941EA027103F8016D1209D7E7DDF839
:1040C00004902B68B9F1010F38BF4FF0010914F0CB
:1040D000010405F104058DF8183009F1FF3605D10A
:1040E00031464046FFF780FCD8B937440122D8F862
:1040F0000030D8F8040006A9984790B9002CA4D045
:104100003146C3E6049B9C420DD0049B0499E61AF9
:104110003246D8F80030D8F80400984700283FF419
:1041200096AC4FF0FF3738460DB0BDE8F08F00BFBA
:10413000487120002F7120001E712000F8B50388FF
:1041400005461646CBB14A2B2BD188291FD11748DB
:1041500002F097F90446C4B1231D9E421FD12146A7
:10416000124802F098F9124E636937683360A36908
:104170000BB1E0699847376007E00C4802F081F91D
:10418000044634B901220B4B1A704A232B800120BC
:104190000AE0A168201D02F03EF92468F1E72468D6
:1041A000D9E7002303800320F8BD00BF34020020BC
:1041B000C0030020F70D002010B50024054B064871
:1041C0001C7002F05BF92146BDE81040034800F086
:1041D0000DBA00BFF70D0020340200206800002057
:1041E00070B50446E3610B4B049D1B78C4E905528E
:1041F0006BB1094D094B2E68201D2B6002F00BF9A5
:104200002E602146BDE87040054802F057B9A16014
:10421000F7E700BFF70D0020C00300206800002072
:104220003402002013B5034C24680094FFF7D8FF34
:1042300002B010BDC003002010B5084B04461B7827
:1042400043B1043000F0B0F82146BDE81040044806
:1042500002F021B9C0E90333F6E700BFF70D0020F3
:104260003402002010B50D4C236813B90C4A1360BA
:1042700010BDFEF7B3FA2268D2E900310B441B1AD5
:1042800092681AB91844064B1860F1E7D2E9001495
:104290002144091A8B4228BF0B46F1E73C0200205B
:1042A00038020020014800F0B9B900BF78000020B2
:1042B0002DE9F0410388054653B1592B46D1872992
:1042C00021D1002023490B6863B918B10B6001E0CC
:1042D000204A1360592301202B80BDE8F081012082
:1042E0003346F1E7D3E902649442F8D000B10B60A1
:1042F00019460B4689680029ECD0C8689042F8D16D
:1043000089689960F4E78229E4D14FF00008114FE1
:1043100000263C68002CDDD0204602F099F890B1D0
:1043200022468821E06800F039F950B9A368E060BE
:104330002EB1B360C4F80880FFF794FFE8E73B6054
:10434000F8E7FFF7AFFF2646A468E3E70023038002
:104350000320C2E73C02002010B50446FFF7A2FF8D
:10436000E3680B4A0BB1136833B90A4B1B68E3606F
:1043700013681460A36004E0A34206D1054A1268E2
:10438000DA60BDE81040FFF76DBF9B68ECE700BF47
:104390003C020020C0030020024B1868003818BF00
:1043A000012070473C02002010B50B4A04461368F8
:1043B000834208D183681360FFF754FF0023C4E9E8
:1043C000023310BD1346002BF8D09A68A242F9D1EF
:1043D000A2689A60F0E700BF3C02002038B583680D
:1043E00004460D469BB10A4804600220A07304F104
:1043F0000C0098470238012801D9832D05D12146A8
:104400002046BDE8384000F005B80123A37338BD4D
:10441000C00300202DE9F8431C4F04463D68884640
:104420002B46A34204D00BB9BDE8F8831B68F8E71C
:10443000002CF9D0164EA37BD6F8009063B1002370
:10444000A3738DB9A3683BB1444505D02A468321A7
:10445000346004F10C0098473B68A3420ED12368F6
:104460003B60C6F80090DFE7A54204D022468721D2
:10447000284601F0DEFF2D68E3E71346002BF0D05D
:104480001A68A242F9D122681A60EAE7C403002040
:10449000C0030020002238B50125084B1A70084BD4
:1044A0001C6804B938BDE37B2BB100228221204671
:1044B000E581FFF793FF2468F3E700BFFB0D0020C1
:1044C000C4030020024B1878421C1A70704700BFCA
:1044D000F90D00208A22064B1A700023054A13703A
:1044E000054A1370054A1360054A1360704700BF00
:1044F000F90D0020F80D0020FA0D0020C403002063
:10450000C00300202DE9F0411A4E33780BB1FFF7BC
:10451000C1FF194D2C7894B10C221849184F0B7813
:10452000013C5A430133B81803F01F03BF5C0B7002
:104530002C70D0E9018090B9124B1C6824B93378F3
:1045400028781844BDE8F08133780BB1FFF7A2FF5B
:1045500020464246394601F06CFF2468EEE7812F81
:1045600008BF01234246394608BF837301F061FF4B
:10457000E5E700BFFB0D0020FA0D0020F80D00203C
:1045800040020020C4030020024A034B10781B782D
:1045900018447047FA0D0020FB0D0020F0B50B4DBC
:1045A0002C78202C0FD00C26094B0A4F1B78234463
:1045B00003F01F037343FE18C6E9012000200134F5
:1045C000F9542C70F0BD0120FCE700BFFA0D00206B
:1045D000F80D00204002002038B5034C256801F09A
:1045E00028FF256038BD00BFC003002010B40A4674
:1045F00009490C68234683420CD04BB950B1046082
:104600000860012110BC817383818121FFF7E4BF21
:104610001B68F0E710BC7047C403002038B1837BEF
:10462000013B012B9FBF0123014AC37313707047E5
:10463000FB0D002010B5084C206858B10023236002
:10464000D0E901319847236823B1BDE810401868CC
:10465000FEF7EEB810BD00BFC803002070B5058896
:104660000446672D09D0792D2FD0002D33D1FFF7C7
:1046700029FF1B4B18701B4B1D601B4E194D08E08A
:104680000A282B680ED07E2B03DC5A1C2A60174A9E
:10469000D054304601F092FF431CF1D167232380B0
:1046A00001201BE05A1C2A600025104A2846D554D8
:1046B0000B4B1978FFF772FF0D4B2A4685211868BE
:1046C000FFF76CFF18B97923E9E78529E8D10022C3
:1046D000044B1A60D1E700230380032070BD00BFA4
:1046E000FD0E0020CC030020D0030020FC0D002094
:1046F000C00300200D28014610B516D00C4C2378BD
:1047000053B90C4801F047FF08B9012323700A4848
:10471000FFF784FF012010BD0A28F8D1054801F0F9
:104720003AFF0028F3D00023F0E70020F3E700BFB2
:104730007C0E0020D00300208800002008B5054929
:104740000548802201F020FFBDE808400021034811
:10475000FFF74CBF7D0E0020D00300208800002012
:104760002DE9F04105880446772D20D07E2D3DD0DF
:10477000002D4ED1FFF7A6FE284E294B294FDFF81A
:10478000A88018703560336857F823202AB9274A63
:1047900013707723238001203EE008F803509368CC
:1047A000002180209847336801333360EBE7002312
:1047B0001F4A1360194A1360184B1C4A1B68127871
:1047C0009A4204DC1A4B1B68002BF0D1E1E7164A31
:1047D000D256002A19DA134A002052F82320104B2F
:1047E0001978FFF7DBFE28B97E23D3E70C4B1B7843
:1047F0008B42D0D1094B0C491A688B5C03F07F03C4
:104800008B540B4A136801331360044A1368013355
:10481000D1E7002303800320BDE8F081DC03002002
:10482000FF0E002040000020ED0D0020FE0E0020B5
:10483000D803002010B40A4B0A4A197800238B428F
:1048400003DA52F8044BA04208D107490748CA5C72
:1048500062F07F02CA5410BCFFF7E0BE0133EEE7FE
:10486000FE0E002040000020ED0D002098000020EA
:10487000054B1A6842F004021A6058699B6940EAC5
:10488000032080B2704700BF00700D40184A1368C3
:1048900023F00C0313600122164BC3F8A820D3F8B1
:1048A000A820012AFBD10822134BC3F82426E322B7
:1048B000C3F83828D3F86426D207FBD50E48102257
:1048C0000023D0F89C16013A01F0010143EA0103EC
:1048D0004FEA43039BB2F4D1002BF0D0044A190AEB
:1048E00003F0FE0351615361EF23C0F8383870477D
:1048F00000700D4000200D40008008400088064BED
:1049000040BA80B28840995CC2F1080201EA2020D6
:104910001041C0B2704700BFA271200070B50B4CAF
:104920000023616E0A4A04F13800FFF77BFCFFF7B1
:104930009FFF656E0023B0FBF5F1064A01FB1501F0
:1049400004F11800BDE87040FFF76CBCE0030020E4
:104950005949200071492000044B5A6E196E5200CB
:10496000914294BF59665A66FFF7D8BFE003002012
:1049700010B500F07DFA00F00FFA00230380044622
:1049800000F04EF82288930008B1017B51B9023340
:1049900098B200F0C1F9238873B1BDE81040074810
:1049A00000F012B9818823445980C188013299806E
:1049B000228001F09EFDE5E710BD00BFE00300206E
:1049C0009DF80030012B04D1024B9A6D5A66FFF717
:1049D000A5BF7047E0030020F8B50F4616461D46F8
:1049E000064C0146064A204600F0DCF8C4E916767B
:1049F00025660448BDE8F84000F00CB8E00300204C
:104A0000146F2000C1492000014801F037BD00BFEC
:104A10004C040020014B1860704700BF5004002078
:104A2000014801F02EBD00BF4C0400202DE9F041EB
:104A300005460C480C46164601F023FD08B9BDE8B2
:104A4000F0818388A34209D18768002FF7D03346CD
:104A500022462946BC46BDE8F041604701F049FDC9
:104A6000ECE700BF4C040020054B10B51B689847CD
:104A7000044618B18188012000F048FA204610BD94
:104A8000086F200038B5064B05465B68984704461A
:104A9000A988012000F03AFA201E18BF012038BD75
:104AA000086F2000014B9B68184700BF086F20006B
:104AB000014801F0E3BC00BF54040020818001469E
:104AC000014801F0FBBC00BF54040020014601482E
:104AD00001F0E1BC5404002010B50446054801F083
:104AE000D0FC00B910BD8388A342FBD001F001FDCA
:104AF000F7E700BF5404002070B505460C46164683
:104B0000FFF7DCFF20462E610249BDE8704001F04E
:104B1000B4BE00BFAB712000F8B506460A480D468A
:104B2000174601F0AEFC044630B93A4629463046F5
:104B3000BDE8F84001F0B6BEA3680BB1284698471F
:104B4000204601F0D6FCEEE75804002038B5FFF708
:104B50008BFF0546094801F094FC044628B95DB175
:104B60002846BDE8384001F098BE636803B1984715
:104B7000204601F0BEFCF0E738BD00BF580400201D
:104B800010B50446FFF77EFF38B100F0E1F8034BA3
:104B9000034821469B689847012010BD8C6F200078
:104BA000194B200070B505460C461646044AFFF71F
:104BB000A3FF20466E610349BDE8704001F05DBE71
:104BC000286F2000B271200010B5044604491A2055
:104BD00000F0AAF92046BDE8104001F05CBE00BF1D
:104BE000E00D002070B504461B200D4600F0A8F92A
:104BF000064901F0C3FE38B1A3691B6823B12946F9
:104C00002046BDE87040184770BD00BFE00D002091
:104C100070B505460C461646044AFFF7C3FF20460A
:104C2000AE610349BDE8704001F027BE306F20003F
:104C3000B671200008B5044801F05EFCBDE80840EC
:104C4000024801F059BC00BFB4000020A8000020B9
:104C500038B50E4801F060FC054650B10C4801F033
:104C60005BFC0446286030B92946084801F068FC1E
:104C70002546284638BD00F097F804F1B601A4F89F
:104C8000800004F1820000F019F9F2E7A80000208A
:104C9000B400002010B501460446074801F066FC48
:104CA00048B12168054801F04BFC2146BDE81040A1
:104CB000014801F045BC10BDA8000020B400002050
:104CC00010B501460446094801F050FC68B124685B
:104CD000B4F88010204600F0DBF804F1B60104F1CE
:104CE0008200BDE8104000F0FDB810BDA800002013
:104CF00010B507490B88834208DB064C80B2228836
:104D00000244181A08800120228010BD0020FCE710
:104D1000A00D0020A20D0020014B1880704700BF9D
:104D2000A00D0020004870477C040020014B18882B
:104D3000704700BFA00D0020034A044B10781B8869
:104D40001844C0B2704700BF100F0020A20D002011
:104D50002DE9F0410C4E338873B100240B4B0C4FFE
:104D6000B3F800800B4B1D783D4421B2414504F15E
:104D7000010403DB00233380BDE8F081FFF7DCFF93
:104D80003844435C6B54F0E7A20D0020A00D0020D6
:104D90007C040020100F002008B5FFF7CDFF014B69
:104DA000184408BD7C040020F8B50C4B04461E785E
:104DB0000B4B1F88F519802D0DDC3246094901F097
:104DC00093F9FFF7E9FF344401463A46204601F0E3
:104DD0008BF92846F8BD0025FBE700BF100F002027
:104DE000A00D00207C04002008B5FFF7A5FF024BB2
:104DF0001B88184480B208BDA00D002010B50146E4
:104E0000FFF7F2FF4318802B12DC431E094A1BB246
:104E10001A44481C002B05DA074B1878014401207E
:104E2000197010BD12F80149013B14541BB2F1E78F
:104E30000020F6E77C040020100F002070B534221B
:104E40000021084801F0C6F90024074D074E284606
:104E50003146013401F08FFD042C05F10205F6D135
:104E600070BD00BFAC0D0020A40D0020B46F200069
:104E70000023044A1380044A1380044A1370FFF786
:104E8000DDBF00BFA20D0020A00D0020100F0020EC
:104E900038B50C460546FFF7EBFF802C28BF802471
:104EA00029462246034801F01FF9034B20461C8087
:104EB00038BD00BF7C040020A00D002010B5074BBA
:104EC00003F1340253F8044B934240F8044BF9D1F8
:104ED000034A13680B6053684B6010BDAC0D002093
:104EE000A40D002010B5074B00F1340250F8044B1C
:104EF000904243F8044BF9D10B68034A13604B68A6
:104F0000536010BDAC0D0020A40D0020024B23F80F
:104F100010100120704700BFAC0D0020014B33F88A
:104F200010007047AC0D002008B5044B1A3803EB95
:104F3000400001F020FD012008BD00BFA40D0020AD
:104F4000024B1A3803EB4000704700BFA40D00204D
:104F50000149024801F012BDB46F2000A60D0020E7
:104F6000084B10B51B689847074B5B689847074B81
:104F70005B689847064B5B689847BDE81040054B57
:104F80005B681847406E2000606F20008C6F200027
:104F9000446F20001C6F2000F8B5FDF71FFC114D79
:104FA000074600242E461A20FFF7CAFF294601F0C3
:104FB000E5FC80B10A20FFF7B1FF0C2303FB04647A
:104FC000237A83420CD16068381AB0F5206F8CBF09
:104FD00000200120F8BD0134102C05F10C05E2D1B0
:104FE0000020F7E7FC04002070B5194D00242E4680
:104FF0001A20FFF7A5FF294601F0C0FC013418B9BB
:10500000102C05F10C05F3D10C23621E03FB046484
:10501000A4F10C057AB90A20FFF780FF3072FDF782
:10502000DDFB70601A20FFF78BFFBDE87040014682
:10503000074801F0A0BC2B4654F8180C54F8141C77
:10504000013A03C354F8100C2C461860E0E700BF87
:10505000FC040020014B1888704700BF1401002099
:105060002DE9F041012906460F46144686B003DCBF
:10507000002006B0BDE8F08103A901F0BFFD0B469A
:1050800003CB1B88206123839DF811306161002BC5
:1050900045D0B51C02AA01A903A801F077FC9DF830
:1050A0001380B8F1000F4DD0029B2BB16A7815F830
:1050B000023B03EB02239BB2B8F1020FA38332D170
:1050C0002046314901F057FC6B78237015F8023BFC
:1050D00063709DF81580B8F1000F4DD0019B002B37
:1050E00037D06A7815F8023B03EB0223029A9BB291
:1050F000E38302B9A383B8F1020F2DD1224904F151
:10510000080001F038FC6B78237215F8023B6372DB
:10511000A81B3B1A8742C4E90E53A9DBA9E7B37861
:10512000F51CA376B6E7B8F1030FD2D105F108025A
:105130001346611E13F8010D9D4201F8010FF9D1CC
:105140001546C6E72046104901F015FCA4F81C805E
:10515000BFE7A38BE383CEE7B8F1030FD8D105F106
:105160000802134604F1080113F8010DAB4201F8DF
:10517000010BF9D11546CBE7034904F1080001F012
:10518000FAFBA4F81E80C3E7B46F200030B591B0DD
:105190000546FFF75FFF4FF6FF73984204D14FF0CB
:1051A000FF34204611B030BD40220021684601F096
:1051B00011F8404B1A782AB901221A70FFF758FBF0
:1051C0003D4B18701420FFF7A9FE8DF81000132036
:1051D000FFF7A4FE8DF81200FFF7BAFE0446002880
:1051E00048D000238DF813308DF8153000230124AA
:1051F0008DF814308DF818404DB10A20FFF78EFE5F
:1052000000283FD00A20FFF789FE8DF81A000224FB
:105210008DF81940FFF71EFFADF81C00FFF798FE50
:1052200000283CD04FF6FF738DF81740ADF80030E2
:10523000FFF710FFADF81E001A20FFF781FE0146B0
:1052400002A801F098FBFFF7A7FD0E90FFF76EFD97
:105250000F90684601F044FC0446002DA1D0FFF7F2
:10526000CDFD00289BD0FFF75DFD0146684601F0AB
:105270007FFC96E70B20FFF751FE8DF815408DF867
:105280001300B3E70C4B1A7802B91C7019780A2086
:105290004A1C1A708DF81A10FFF738FEB7E71B206A
:1052A000FFF74EFE0146684601F065FB8DF817409A
:1052B000BEE700BF110F0020120F0020014BDB687A
:1052C000184700BF8C6F2000014B5B69184700BF77
:1052D000606F2000014B9B69184700BF606F200082
:1052E000024BD86900B10047704700BF606F2000D3
:1052F00070B590F829400F4B042C214628BF04219B
:105300000124DB698C4005469847012838BF0120FD
:10531000013C444305D0FFF7ABFAB0FBF4F303FBC9
:1053200014042B46214605F10800034ABDE87040ED
:10533000FEF778BF606F2000AD5420002DE9F041EA
:1053400006461B200F46FFF7FBFD494B05461A7822
:10535000484C22B901221A70FFF78AFA208023886C
:105360000BB90123238021880A204B1C2380FFF7DF
:10537000CDFD414801F085F80446002847D13F485B
:1053800001F0CAF80446002868D02946201D01F023
:10539000F2FA002304F12C00C4E90B30238501F05C
:1053A0006DF82146344801F089F8206B01F09AF835
:1053B000072853DC324801F0AFF80546002841D0F9
:1053C000304801F0A9F8A860C0B3FFF741FC68605D
:1053D00080B30920D5F80880FFF7A0FD08BB08239B
:1053E00088F808300D20C8E90067FFF797FD01280D
:1053F0002946206B1BD101F06EF8206B01F041F8BB
:10540000854233D12046BDE8F041FFF771BF294600
:10541000201D01F0B3FA0028C7D1204601F069F839
:10542000AAE70920FFF77AFD88F80800DAE701F01B
:1054300045F8E2E7A968134801F082F829461048C8
:1054400001F07EF8206B01F04DF838B921460A488A
:1054500001F021F82146094801F072F8394630463A
:10546000BDE8F0410123042201F0E8BBBDE8F08172
:10547000130F0020E20D00201C060020CC000020AD
:10548000D8000020C000002008B5054801F034F81D
:10549000044801F031F8BDE80840034801F02CB899
:1054A000D8000020C0000020CC00002013B5044626
:1054B00068B1006B00F0E5FF024640B12146054BA4
:1054C0000548DB68019302B0BDE81040184702B000
:1054D00010BD00BF606F2000595520002DE9F04736
:1054E0000D4614468B680646D3E90078106B92F897
:1054F000289000F0D0FF6868FFF7CCFBA96812483D
:1055000001F01EF82946114801F01AF8206B00F04E
:10551000B8FF60B1002320462385FFF7E9FE4B4624
:10552000324641463846BDE8F04701F087BB04F1FA
:105530000800FEF781FE2146054800F0ACFF214639
:10554000044800F0FDFFEAE7C0000020D80000207A
:105550001C060020CC0000202DE9F0410E46174625
:10556000044620B1006B00F08CFF054608B9BDE889
:10557000F0810A21686801F0F8F980460A20FFF7F7
:10558000CDFC804546D0284600F0B3FFEDE794F807
:10559000282000203A4484F828202946224684F80E
:1055A0002900BDE8F041FFF799BF002384F82930B6
:1055B00094F82830DA19D2B284F828200B7A934272
:1055C0001CD8224629460220EBE794F82930DA1944
:1055D000D2B2052A84F8292007D9002294F828306D
:1055E00084F82920013384F8283094F828200B7A95
:1055F0009A4203D3224629460120D2E72046FFF7EC
:1056000077FE6868BDE8F04101F0A9B92246294655
:105610003046C6E7A9680029A9D0032EF6D801A311
:1056200053F826F08F552000CB552000AB552000B5
:105630006F552000014B1B6A184700BF406E2000C9
:105640002DE9FF47804689461A203F49FFF76CFC49
:1056500001210B20FFF75AFC3C4B5B689847002860
:1056600070DBFFF75FFB3A4D90F802A06C68FFF724
:1056700059FB0646FFF7B8FB01463046A047FFF747
:1056800067FCAF690646B847044610B10122002402
:105690000CE0A6B1AB680193FFF7A6FB019B98470E
:1056A000024688B1022814BF042201224046012389
:1056B000494601F0C3FA204604B0BDE8F087EB6923
:1056C00098470028E2D1E5E7002E39D1FDF7A2F88E
:1056D0000446FDF711FAC4F1FF2404F57F04F33406
:1056E000FDF798F8C442FBD4B847EE69E8B1FDF77E
:1056F00091F80446FDF700FAC4F1FF2404F57F0495
:10570000EB34FDF787F8C442FBD4B0470446A0B1A0
:1057100003212B6903A89847032803D19DF80E3075
:1057200053450CD000240122C0E7B04704460028AE
:10573000DDD16B6998470028D9D00222B6E7002254
:105740000124B3E70522A2E7E00D0020806F2000CE
:10575000406E2000044B82B018B11B6A019302B066
:1057600018475B6AFAE700BF406E200007B5FFF7F5
:10577000DDFA03281BD00F4B9B689847002816DBE7
:105780001B20FFF7DDFB0C4901F0F8F858B1FFF7DB
:1057900003FC60B9FFF728FC084BDB68019303B0FA
:1057A0005DF804EB1847FFF7D3FB0028EFD103B0F7
:1057B0005DF804FB806F2000E00D0020446F2000A6
:1057C00008B5024B1B689847023008BD386F2000AF
:1057D00038B50C4B9B689847041E02DA4FF0FF3037
:1057E00038BDFFF7D9FA03780546002BF6D1022021
:1057F000FFF77EFA0028F1D06878FFF78DFAA01C39
:10580000EEE700BF386F200070B50220FFF7F6FA10
:1058100010B94FF0FF3070BDFFF784FA0026067014
:105820000446FFF783FA6070FFF7DEFA0446FFF7DD
:10583000C7FF20442A2812DCC0F12B00C4B2FFF7B6
:10584000ABFA0546FFF772FA22463146284400F0CB
:10585000C1FCFFF76BFA204480B2FFF75DFA044BFE
:105860005B689847041ED4DBFFF772FAA01CD2E7EE
:10587000386F2000014B9B68184700BF1C6F200049
:1058800070B504460D4614200121FFF73FFB034B82
:1058900029462046BDE870409B681847446F2000A9
:1058A00073B50024124D134E0190317801A80139CF
:1058B00004EBC10105EB410101F060F898B104214E
:1058C0000DEB0100FFF7E4FA31780B4804EBC1015E
:1058D000053905EB410101F01DF89DF8060000F0C7
:1058E0008BF902B070BD0134032CDED1F5E700BFA7
:1058F000160100202B0F00209007002038B50388E8
:10590000044693B140F20B12934238D186292ED12E
:105910001D4D2B7863B901231C4A1D491D482B706E
:1059200001F029FA48B9287002E01B4800F01BFD7D
:1059300040F20B130120238038BD144800F096FD7F
:10594000164D2860114800F083FD58B1104B1868BF
:10595000FFF7A6FF00220C4B862111481A70FEF7B4
:105960001DFEE5E729680F4800F055FDE0E78829AE
:10597000DED10C4800F058FD0028D9D0E6E700231E
:1059800003800320D8E700BF290F00207407002000
:10599000E40D0020F8060020D17120007C070020D3
:1059A000040100208007002010B5038804468BB155
:1059B00040F23F10834229D1862910D1154B197826
:1059C00041B9012112781970134B1A70082113483C
:1059D00000F021FD40F23F130120238010BD8829F3
:1059E000F8D10E4800F020FD0028F3D00A4B1878BB
:1059F000FCF748FD0A4A13780133DBB20F2B137012
:105A0000E4D90023034913700B70E3E7002303205C
:105A10002380E3E7260F0020270F0020E806002060
:105A2000280F00201FB502ACC0210190204600F0D5
:105A300008FD94E80C000199074801F077F920B9B6
:105A4000064800F090FC04B010BD002286210448F6
:105A5000FEF7A4FDF7E700BFF8060020E77120007D
:105A60000401002083297FB504460E46154602D165
:105A70002C4800F04DFF23880BB3E32B4ED12A4B6B
:105A80001B78B34245D1294B9D4242D16B6800201F
:105A90009847054600283CD1254B0321187801F092
:105AA0008AF9244B8DF80D0018788DF80C508DF87C
:105AB0000E0000F085F80398FFF7B4FF29E01E4BB5
:105AC0000F21DB6A01209847184B80219B684FF417
:105AD0008070984700F008F900F02CF9174B144D2E
:105AE0005878287000F0D6F8124B154A1870032029
:105AF0002B780090013B190102EB031350585968B1
:105B00009A68DB6800F090F881210E4A0548FFF79B
:105B10007FF8E3230120238004B070BD002303201D
:105B20002380F9E790070020FF0E0020C86D2000B9
:105B30002B0F00202A0F0020406E2000E00D0020D7
:105B400016010020AC6F200013B56846FFF72CF952
:105B50006846174900F012FF18B3164C164800F0BB
:105B600002FC0DF1020286211448FEF717FD032105
:105B7000207801F020F99DF80230012B02BF227835
:105B8000C0F10600801A40BAADF804009DF802008A
:105B90008DF8063000F014F80198FFF743FF02B0CB
:105BA00010BDBDF800209DF80230ADF80420EDE7EF
:105BB000E00D00202B0F002035722000E4000020B3
:105BC00010B50446FCF74CFC042C04D1094A1378A8
:105BD0000133137010BD022C04D1064A53780133EF
:105BE0005370F7E7012C01BF024A93780133937099
:105BF000F0E700BF2C0F0020042805D002280CD0AD
:105C000001280CD0FCF734BC002206498B5C013B18
:105C1000DBB28B54002BF5D070470122F5E702224E
:105C2000F3E700BF2C0F00202DE9F04186B002AC55
:105C300084E80F0012489DF8307000F094FB114882
:105C400000F091FB104800F08EFB0025DFF83C804F
:105C500005AEBD4204F1020405D10D4800F083FBFE
:105C600006B0BDE8F08116F8013B29460093404696
:105C7000637914F8012CFDF7A7FE0135E9E700BFB1
:105C8000B272200070732000C0722000E372200006
:105C90006F73200010B504460E48FDF795FE022CE8
:105CA00009D0032C0BD0012C0ED10B4800F05BFB6C
:105CB0000424204610BD094800F055FBF9E70848C8
:105CC00000F051FB0124F4E7064800F04CFB0724E8
:105CD000EFE700BF097320002E7320003C73200003
:105CE0004B7320005B73200007B50C4B01A99B6A26
:105CF000012098470A4800F036FB0A4B0A481978F9
:105D00005A78FDF761FE01990848FDF75DFE0848E5
:105D100000F029FB03B05DF804FB00BF406E2000DB
:105D20006C732000E00D002093732000A873200006
:105D3000C0732000002310B50B480C4C0380214693
:105D400000F01CFE62780A4B032A186009D9012171
:105D5000196021780748FDF737FE0120FCF780FB2A
:105D6000FBE70028F5D110BDE80D0020E00D002074
:105D7000AC070020E873200053B94AB9002908BFD6
:105D800000281CBF4FF0FF314FF0FF3000F076B914
:105D9000ADF1080C6DE904CE00F006F8DDF804E082
:105DA000DDE9022304B070472DE9F047089E0D4657
:105DB00004468846002B4DD18A42944668D9B2FAEF
:105DC00082F252B101FA02F3C2F1200120FA01F18C
:105DD0000CFA02FC41EA030894404FEA1C41B8FB6C
:105DE000F1F71FFA8CFE01FB178807FB0EF0230C5E
:105DF00043EA084398420AD91CEB030307F1FF3535
:105E000080F01E81984240F21B81023F63441B1ABE
:105E1000B3FBF1F001FB103300FB0EFEA4B244EA29
:105E20000344A6450AD91CEB040400F1FF3380F0BB
:105E30000981A64540F20681644402380021A4EBA2
:105E40000E0440EA07401EB10023D440C6E90043D7
:105E5000BDE8F0878B4208D9002E00F0EE800021CB
:105E6000C6E900050846BDE8F087B3FA83F10029CA
:105E70004AD1AB4202D3824200F2FC80841A65EB25
:105E8000030301209846002EE2D0C6E90048DFE770
:105E900002B9FFDEB2FA82F2002A40F09180A1EB53
:105EA0000C0001214FEA1C471FFA8CFEB0FBF7F3F0
:105EB00007FB1300250C45EA00450EFB03F0A84242
:105EC00008D91CEB050503F1FF3802D2A84200F205
:105ED000CE8043462D1AB5FBF7F007FB10550EFB9D
:105EE00000FEA4B244EA0544A64508D91CEB04040C
:105EF00000F1FF3502D2A64500F2B6802846A4EB99
:105F00000E0440EA03409EE7C1F120078B4022FACD
:105F100007FC4CEA030C25FA07FA4FEA1C49BAFBC6
:105F2000F9F820FA07F309FB18AA8D401FFA8CFE36
:105F30001D4300FA01F308FB0EF02C0C44EA0A445E
:105F4000A04202FA01F20BD91CEB040408F1FF3A5B
:105F500080F08880A04240F28580A8F10208644465
:105F6000241AB4FBF9F009FB104400FB0EFEADB29D
:105F700045EA0444A64508D91CEB040400F1FF35AA
:105F80006CD2A6456AD90238644440EA0840A0FBB6
:105F90000295A4EB0E04AC42C846AE4656D353D08D
:105FA000002E69D0B3EB080264EB0E0422FA01F371
:105FB00004FA07F71F43CC40C6E90074002147E705
:105FC0000CFA02FCC2F1200125FA01F34FEA1C474A
:105FD00020FA01F195400D43B3FBF7F107FB1133B4
:105FE0001FFA8CFE280C40EA034001FB0EF38342AB
:105FF00004FA02F408D91CEB000001F1FF382FD29B
:1060000083422DD902396044C01AB0FBF7F307FB75
:106010001300ADB245EA004503FB0EF0A84208D9D3
:106020001CEB050503F1FF3816D2A84214D9023B38
:106030006544281A43EA014138E73146304607E70C
:106040002F46E4E61846F9E64B45A9D2B9EB02081B
:1060500065EB0C0E0138A3E74346EAE7284694E7D0
:106060004146D1E7D0467BE76444023847E7023B2C
:1060700065442FE7084606E73146E9E6704700BF6A
:10608000032A10B516D940EA010C1CF0030F044690
:106090000B4622D119462046D1F800E0D0F800C0C6
:1060A0000433F44504F1040417D1043A032A2046CA
:1060B0001946EFD8541EA2B100F1FF3C013901E0AE
:1060C000C3180CD01CF801EF11F8012FA4EB0C033E
:1060D0009645F5D0AEEB020010BD541EECE7184615
:1060E00010BD104610BD00BF844641EA000313F006
:1060F000030349D1403A23D30B6803604B684360E4
:106100008B688360CB68C3600B6903614B69436133
:106110008B698361CB69C3610B6A03624B6A43621B
:106120008B6A8362CB6AC3620B6B03634B6B436303
:106130008B6B8363CB6BC36340304031403ADBD21F
:1061400030320BD30B6803604B6843608B6883600D
:10615000CB68C36010301031103AF3D20C3205D343
:1061600051F8043B40F8043B043AF9D2043208D019
:10617000D2071CBF11F8013B00F8013B01D30B888B
:1061800003806046704700BF082A13D38B07B1D045
:1061900010F00303AED0C3F10403D21ADB071CBF17
:1061A00011F8013B00F8013BA4D331F8023B20F881
:1061B000023B9FE7043AD9D3013A11F8013B00F8BA
:1061C000013BF9D20B7803704B7843708B78837066
:1061D00060467047830730B548D0541E002A3FD030
:1061E0000346CAB201E0013C3AD303F8012B9D07F4
:1061F000F9D1032C2DD9CDB245EA05250F2C45EA5E
:10620000054536D9A4F1100222F00F0C03F1200E3F
:10621000E6444FEA121C03F1100242E9045542E938
:10622000025510327245F8D10CF1010214F00C0F36
:1062300003EB021204F00F0C13D0ACF1040323F0B3
:1062400003030433134442F8045B9342FBD10CF084
:1062500003042CB1CAB21C4403F8012B9C42FBD1AD
:1062600030BD64461346002CF4D1F9E703461446CA
:10627000BFE71A46A446E0E7FEE708B5FCF706F8D4
:10628000F7B500240646254627463046FCF7E8F8D1
:106290000197019BAB4215DB3046FCF7E9F8C5F5E9
:1062A000C8750197019B9D4211DC0134B4F5487F0C
:1062B00001D103B0F0BDB4F5C87FD4BF2546C4F505
:1062C0004875E2E700BF019B01330193E1E700BF9E
:1062D000019B01330193E5E7FCF78CB910B54FF052
:1062E000E024236923F001032361FCF72BFA2369DF
:1062F00043F00103236110BDFCF724BA704700206E
:10630000FCF7E4BA0120FCF7E1BA0020FCF78ABCF4
:106310000120FCF787BC0220FCF784BC0320FCF7BB
:1063200081BC10B50C46FCF767FF2046BDE8104065
:10633000FCF794BF10B50446C1B20020FCF7C2FBC5
:10634000204610BD70B50E460025441E631C02D0C9
:1063500014F8010F08B9284670BDB542FBD0FFF70D
:10636000E9FF0135F2E738B505460024285D20B97C
:106370000A20FFF7DFFF204638BDFFF7DBFF0134BF
:10638000F4E7002070470120704710B50446302222
:1063900000210E20FCF796FC6CB1012C0CD142F2CE
:1063A00010730011A0F28E5058432A2390FBF3F093
:1063B00000F5C340283010BD4FF00040FBE700203F
:1063C00070470120704710B50446302200210F208D
:1063D000FCF778FC5CB1012C03BF40F6F253584344
:1063E00047F6F0734FF0004008BF90FBF3F010BD8C
:1063F000084608B511460AB1FFF7A4FF002008BD02
:1064000010B5041F54F8040F00B910BD0021FEF7A9
:10641000EDF8F7E7704710B5044600F012F8204693
:10642000BDE81040FDF798BFC068B0FA80F04009A1
:106430007047837BDB0701D5FDF7D0BF7047FFF7BF
:106440005DBF10B541600446FCF7C8F9206010BD7F
:1064500010B50446FCF7C2F92368C3F101030344F5
:10646000606898422CBF0020012010BD10B5D0E913
:1064700000431C44FCF7B2F9201A10BD002303604E
:10648000704700687047006820B103460068002824
:10649000FBD118467047036810B53BB10024994200
:1064A0001A6806D11CB9026000221A6010BD226071
:1064B000FAE71C46002AF9D01346F0E738B5FFF793
:1064C000EAFF00230B600546FFF7DDFF08B92960EE
:1064D00038BD0160FCE738B5FFF7DDFF03680B60EE
:1064E000016038BD0368002003B970471B680130A4
:1064F000FAE700B10068704710B5044642880021F1
:106500004068FFF767FE23886288A0680021BDE825
:1065100010405A43FFF75EBE002310B541889942F0
:1065200001DC002009E04268D418D25C32B90122B3
:1065300022700288806803FB020010BD0133EEE781
:10654000002330B5826844889C4201DCFF2008E0CB
:106550008A4207D14168CA5C0AB1013ACA5442680A
:10656000D05C30BD058801332A44EDE783688B4257
:1065700008D84288008800FB023081422CBF0020EE
:1065800001207047002070470023013A016002712A
:1065900043718371704710B5427983790479D31AB6
:1065A00034EA030308D0036899544379027901332C
:1065B00013404371012010BD0020FCE7837942792C
:1065C0000179D21A0A421FBF0268D25C01330B4024
:1065D0001ABF837110464FF0FF307047831C0020B4
:1065E00013F8022C023302B9704713F8032C10443D
:1065F000F6E7072B2DE9F84306460F4615461C46DD
:1066000007DC1A4629463846FEF778F93070BDE8AF
:10661000F8834FEAE3087AB97B5D73550135454548
:10662000FADB14F00702F2D0002107EB0800FEF7B6
:1066300065F906F80800EAE74FF0000907EB0900E2
:1066400008222946FEF75AF906F8090009F101095E
:10665000C145F3DB14F00702D9D02946E5E72DE95F
:10666000F743FEF799FB04460220FEF741FB20B9F1
:106670000025284603B0BDE8F0836378207800EB5E
:10668000032080B2FEF728FA05460028F0D0FEF776
:1066900083FB0746287B10F0070318BF012303EB99
:1066A000D000FEF725FB0028E2D00026B146AC68FA
:1066B000023414F8023C002BDBD0192B14F8018CA7
:1066C00007EBE60106F007020BD901A84346FFF7E6
:1066D00090FF14F8020C01A9FEF726FC4644023490
:1066E000E7E701A84346ADF80490FFF782FFBDF845
:1066F000041014F8020CFEF709FCEFE7072B2DE954
:10670000F0410FDC1478C1F11001CB1A04FA03F345
:106710000178C3F307220A43417802700B434370A8
:10672000BDE8F081DC10C9B9555C45540131A14286
:10673000FADB13F00703F3D0125DC3F108052A4119
:10674000C3F11003055D02FA03F3C3F307222A43E2
:10675000011902554A7813434B70E1E705460026BC
:10676000C1F1080E975D95F800C007FA0EF7C7F360
:1067700007284CEA080C05F801CB95F800C0013653
:106780004CEA0707A6422F70ECDB13F00703C7D0D3
:10679000125DC3F1080631440A41D2B2C3F11003BD
:1067A000015D02FA03F3C3F307220A4305190255F8
:1067B0006A7813436B70B3E72DE9F743057B044612
:1067C00015F0070218BF012202EBD505A81CFEF741
:1067D00015FBA8B1FEF7A6FAA3880370A3881B0ACD
:1067E0004370FEF79FFA2A460025861C002130469A
:1067F000FFF7F0FCA468023414F8020C18B9012069
:1068000003B0BDE8F083192814F8017C06EBE50815
:1068100005F007090AD9FEF793FB3B4602464946B5
:106820004046FFF76BFF3D440234E5E7FEF776FB99
:106830008DF80400000A3B468DF8050001AAEEE73A
:106840007047F8B50E46FEF7A7FA07880446FEF72C
:106850006DFABB000233834203D800250234AF42F5
:1068600000DCF8BD54F8041B30460A0C89B2FEF770
:10687000DDF80135F3E7FEF71BB938B50D46FEF735
:106880002BF9044620B185602846FEF70BF92073EA
:1068900038BDFEF71BB9FEF773B903691B6803B176
:1068A0001847704703695B6803B11847704710B514
:1068B000FEF7C0F9FEF7DCFAFEF7A6F8FFF7DBFFFC
:1068C000BDE810404FF4E1234FF4F0524FF4007153
:1068D0000220FEF781B843695B6803B1184770472F
:1068E00013B504461A20FEF72BFB014601A800F061
:1068F00042F863691B6813B1204601A9984702B0AA
:1069000010BDFFF7C6BF83695B6803B118477047C6
:10691000FFF7F7BF10B504461B20FEF705FB204626
:10692000BDE81040FEF750B90EF00F000D2808BF6B
:1069300000F00EB800982DE9F04F00F1240181F32A
:10694000098890E8F08F0EF00F000D2818BF7047EF
:10695000EFF3098020E9F04F0990BDE8F08F00685F
:1069600000F1B6018230FEF7A9BA036803EB4103D8
:10697000B3F8820070470B8803807047022208B585
:10698000FFF77EFBB0FA80F0400908BD30B530B3A8
:10699000037A022B2CD1C579437A04792DB9002BC7
:1069A0004AD1012C48D1204615E053EA04001DD0FD
:1069B000032D2FD1032B2FD1B4FA84F040090023EB
:1069C00009E0181E18BF0120002CF8D1023B012B52
:1069D0008CBF0023012301B10B6002B1106030BDF8
:1069E000023B012B8CBF00230123DCE701201BE0CD
:1069F0000378022B22D0037953B9437A13F00303AF
:106A000018BF0123C07910F0030018BF0120E2E78E
:106A10000023F7E7022DD4D0A3F1020CDCF1000033
:106A200040EB0C00002CCAD1022DCFD0032DC6D1D3
:106A30009C1E63426341CEE7002CD1D00020034668
:106A4000C9E7002337B50B608B80437D0D46D9071E
:106A50005CBF01232B70037E0446012B0BD8C37D42
:106A60009A072CD0437E9B0729D0C28B838B9A42F6
:106A700025D101232375694601AA04F11000FFF70F
:106A800085FF009B0BB10223EB70019B0BB102232E
:106A90006B70E37D03F00303022B03D0032B14BFC1
:106AA00000230823AB70637E03F00303022B03D0A3
:106AB000032B14BF002308232B7103B030BD002328
:106AC000D8E702280CBF022308230B448B4201D1D4
:106AD0000120704713F8012DFF2AF7D000207047DE
:106AE00007B56946FFF7ADFF9DF800309DF801003E
:106AF000023303449DF8020003449DF8030003445D
:106B00009DF8040003449DF80500184403B05DF8A7
:106B100004FB43788278DB00120102F0100203F0DC
:106B200008031343027802F007021343C2785201AC
:106B300002F0200213430279920102F04002134353
:106B40000B704379427A03F0010343EA821382799E
:106B5000520002F002021343C279920002F00C02CA
:106B60001343027A120102F0300213434B70704754
:106B700037B504460D466946FFF763FF294604F121
:106B80001000FFF7C6FF9DF800309DF80120012B93
:106B900009BFA37E0223AB700323022A08D1A18B75
:106BA0005A1CE954A18BD2B20233090ADBB2A954B0
:106BB0009DF802201344DBB2991AC9B2B2B99DF80C
:106BC0000320022A08D1E18B5A1CE954E18BD2B28E
:106BD0000233090ADBB2A9549DF804200834134497
:106BE000D8B2831ADBB22AB903B030BD013AA05C37
:106BF0006854E1E7013AA15CE954F2E7027843788E
:106C000002F007000870C2F3C0004870C2F3001021
:106C10008870C2F34010C2F380120A7103F00102BF
:106C20004A71C3F340028A71C3F38102CA71C3F38C
:106C300001129B09C8700A724B72704710B4044667
:106C4000084611461A4614B1234610BC184710BC1A
:106C5000704730B591B0FEF79FF80446FEF766F82E
:106C60006A4601462046FEF7FBF9044620B94FF07C
:106C7000FF34204611B030BDFEF73AF80028F6D0B8
:106C800014209DF81010FEF741F99DF81730ABB1B4
:106C9000BDF81C50FEF7DEF9854205D04FF6FF73B4
:106CA000BDF81C209A42E2D169469DF81700FFF713
:106CB00008FF18B969461B20FEF736F902A91A2009
:106CC000FEF732F913209DF81210FEF71FF99DF818
:106CD000153053B99DF81A100A20FEF717F99DF8E0
:106CE0001A100E20FEF712F9C3E74FF6FF71F3E713
:106CF0000020FEF74BBA0120FEF748BA002070478B
:106D0000FEF798BC70B504460D4602B970BDD2E9D5
:106D10000060FDF7D5FF29462046FEF791FC0028CC
:106D2000F4D03246F1E7FEF78BBC70477FB501AC7B
:106D300084E80C0090F8794090F87860651CB542C2
:106D400017D0B0F87860B6F5106F12D0EDB2092DFB
:106D500004F1140600EBC40440F8261084E80C008B
:106D60008ABF002380F8795080F87930012004B080
:106D700070BD0020FBE7034610B593F8794090F80A
:106D80007800844215D0143053F82000086093F83E
:106D9000781003EBC10103C982E8030093F878205F
:106DA00001200132D2B2092A88BF002283F878205C
:106DB00010BD0020FCE70844023890FBF1F301FB12
:106DC00013000130C0B270472C70200095242000C1
:106DD000F12420000000000001000000010000007C
:106DE0000100000000C0004000410D400000000014
:106DF000080000002C00000000000001FFFFFFFF62
:106E00000500000002000000020000000200000077
:106E100000D0004008410D400200000008000000C2
:106E20002C00000002010200FFFFFFFF060000002F
:106E3000C7702000CB702000DA702000DE702000C8
:106E400031342000F93120005D322000236320001E
:106E500035332000DD302000212E2000392E200087
:106E6000192F2000E12D2000912F2000113120004A
:106E7000913520000533200007000000FF000000CE
:106E800005000000ED00000003000000D500000038
:106E900001000000C500000000000000B600000076
:106EA000FFFFFFFFB0000000FDFFFFFFA10000009B
:106EB000FBFFFFFF91000000F9FFFFFF88000000CB
:106EC000F7FFFFFF72000000F5FFFFFF6200000008
:106ED000F3FFFFFF58000000F1FFFFFF420000003A
:106EE000E8FFFFFF00000000057120008B63200019
:106EF000836320008763200019712000C76320008E
:106F0000BF632000C36320005F662000B9672000D4
:106F1000DD6520004368200041682000AD7120003D
:106F2000AF6820004D4B2000E1682000D7682000AA
:106F3000E54B200007692000F16C2000F76C200071
:106F4000536C2000BC712000895420003D53200068
:106F5000BD522000C9522000D5522000E15220002D
:106F6000C1712000016D2000276D2000056D2000FB
:106F70006D5720003556200055572000FD6C20002D
:106F8000C157200009582000D1572000C9712000A6
:106F90002B6D20008158200075582000F40000203F
:106FA00004010020E400002000000000495B2000F4
:106FB000000000000000436F6E74696B692D37316B
:106FC00033373638356332005A6F6C6572746961D5
:106FD0002052452D4D6F7465207265766973696F17
:106FE0006E204220706C6174666F726D0052696D24
:106FF0006520636F6E666967757265642077697472
:107000006820616464726573732000253032783AB9
:1070100000253032780A00204E65743A2000204D59
:1070200041433A2000205244433A20004275747490
:107030006F6E004343323533383A2049443A2030AA
:10704000782530346C782C207265762E3A205047A3
:1070500025642E25642C20466C6173683A20256CCB
:1070600075204B69422C205352414D3A20256C75B6
:10707000204B69422C204145532F5348413A20254B
:10708000752C204543432F5253413A2025750A530E
:10709000797374656D20636C6F636B3A20256C7532
:1070A00020487A0A492F4F20636C6F636B3A202582
:1070B0006C7520487A0A5265736574206361757334
:1070C000653A2025730A00504F5200457874657266
:1070D0006E616C2072657365740057445400434CB4
:1070E00044206F7220736F667477617265207265D9
:1070F00073657400636332353338205246206472FE
:1071000069766572004F6E2D436869702054656D15
:107110007065726174757265005644443300303195
:1071200032333435363738394142434445460030EE
:10713000313233343536373839616263646566001D
:107140003058003078002B00286E756C6C290025B3
:10715000002020202020202020202020202020204F
:10716000203030303030303030303030303030302F
:10717000304374696D65722070726F63657373005C
:107180004576656E742074696D6572005365726929
:10719000616C206472697665720053656E736F72FC
:1071A00073000080C0E0F0F8FCFEFF000052696D43
:1071B00065001A1000001B101A10000043534D41C7
:1071C000006E756C6C726463006E756C6C736563D5
:1071D0000073656E645F70726F636573733A2073DA
:1071E00074617274656400546865206275666665D2
:1071F000722069732066756C6C2E20436F6E736904
:1072000064657220696E6372656173696E6720746C
:10721000686520274255464645525F53495A4527DF
:107220002076616C756520696E20276275666665DB
:10723000722E6827005061636B657420726561630C
:107240006865642064657374696E6174696F6E202B
:107250000050726F6365737320696E646963617453
:10726000652061207061636B6574732068617320B1
:107270007265616368656420697473206465737402
:10728000696E6174696F6E0050726F63657373200D
:10729000746F2073656E64207061636B6574730036
:1072A0004C6573736F6E20333A20526F7574696E3C
:1072B00067004C6F6F6B7570207461626C653A008B
:1072C00049447C2044455354494E4154494F4E2033
:1072D0007C204E4558545F484F50207C20434F53EC
:1072E0005420002564207C20307825780920202037
:1072F00020202020207C2020307825780920202084
:107300007C2025642020200A000A54686973206EBE
:107310006F64652077696C6C20666F727761726448
:10732000207061636B6574732077697468002062F4
:107330006C756520636F6C6F722E0A002067726532
:10734000656E20636F6C6F722E0A002079656C6C1D
:107350006F7720636F6C6F722E0A00206465666120
:10736000756C7420636F6C6F722E0A000A2D2D2DC0
:107370002D2D2D2D2D2D2D2D2D2D2D2D2D2D2D2D3D
:107380002D2D2D2D2D2D2D2D2D2D2D2D2D2D2D2D2D
:107390002D2D0052494D452061646472203D200925
:1073A0003078257825780A005573696E67207261F8
:1073B00064696F206368616E6E656C2025640A00E5
:1073C0002D2D2D2D2D2D2D2D2D2D2D2D2D2D2D2DED
:1073D0002D2D2D2D2D2D2D2D2D2D2D2D2D2D2D2DDD
:1073E0002D2D2D2D2D2D2D000A4C6F6164656420EF
:1073F000616E20696E76616C69642052494D45204A
:107400006164647265737320283078257825782943
:107410002120526570726F6772616D6D20746865AE
:0B742000206465766963652E0A0A008F
:10742C00F86E2000C86D2000E86E200000000000FF
:10743C0000000000F4702000013520000000000066
:10744C00F1632000000000000000000071712000BA
:10745C003D41200000000000000000008071200071
:10746C00B142200000000000000000008C712000E0
:10747C005D46200000000000000000009A71200012
:10748C00614720000000000004000800000F0020ED
:10749C005C040020BE000800080F0020B00700208C
:1074AC000C000800140F0020BC0500203400020062
:1074BC001C0F0020200600200C0008001E0F0020CE
:1074CC00880600200000000051722000A9592000FD
:1074DC000000000000000000A0722000655A20008F
:1074EC00000000000000000088722000FD58200001
:1074FC0000000000CDAB00010002000300010002FF
:10750C00000200010200000100020003000300025F
:10751C000003020001000001000200030001000151
:08752C000003010200001A0136
:0875340074E8FF7F0100000074
:020000040027D3
:10FFD400FFFFFFF30000000000202000FFFFFFFFF1
:10FFE400FFFFFFFFFFFFFFFFFFFFFFFFFFFFFFFF1D
:0CFFF400FFFFFFFFFFFFFFFFFFFFFFFF0D
:040000050027FFD4FD
:00000001FF
